:100000000C9415090C9432090C9432090C943209A1
:100010000C9432090C9432090C9432090C94320974
:100020000C9432090C9432090C9440270C94320938
:100030000C9432090C9432090C9432090C94320954
:100040000C9432090C94D2140C9432090C94320999
:100050000C9432090C9432090C9432090C94320934
:100060000C9432090C9432090C9432090C94320924
:100070000C9432090C9432090C9432090C94320914
:100080000C9432090C9432090C9432090C94320904
:100090000C9432090C9432090C9432090C943209F4
:1000A0000C9432090C9432090C943209100371003B
:1000B0002D00630075006C006600770000001603D9
:1000C00062007500730077006100720065002E0009
:1000D000640065000000040309040007010E020625
:1000E000030D04E905CA063D070C084509000A008E
:1000F0000B060C110D210E650F6A10C81193120327
:10010000132214F815341607170F181819161A6C3D
:100110001B431C401D911E8E1F2F2078215622103C
:1001200023E9242A2500261F2741280029592A7F50
:100130002B3F2C812D352E09FF506D204E65747A92
:100140007765726B7363686C75657373656C206734
:10015000657369636865727420E28094206D6974C8
:100160006C6573656E20697374206A65747A742097
:100170006D6F65676C6963680D0A00506D20414EB4
:1001800047454C45524E5420616464723D00506DA9
:1001900020416E6765626F743A20507275656673B0
:1001A000756D6D652066616C736368002072737392
:1001B000693D0020666F723D00504B2066726F6D86
:1001C0003D00207261773D00206C656E3D0020721D
:1001D0007373693D00206E3D00206D61783D002005
:1001E0006D696E3D002066697273743D0050482051
:1001F00066653D00506D20416E6C65726E656E3AAD
:10020000206B65696E6520416E74776F72740004AF
:1002100080000000C80600001606000000506D2097
:10022000616E67656D656C6465740D0A00506D20C4
:100230003E3E204B616E616C7A75737461656E64CD
:10024000650D0A00506D203E3E2053746172746D3E
:10025000656C64756E670D0A00506D203E3E20414E
:100260006E6C65726E626573746165746967756ED4
:10027000670D0A0009023E000201008032090400F5
:1002800000010202010005240010010424020605F9
:1002900024060001070582030800FF09040100028B
:1002A0000A00000007050402400000070583024021
:1002B00000001201100102000008EB036920000297
:1002C0000102DC016D492064657620712D63756C37
:1002D000667720312043554C20616C7320486D496E
:1002E000502D4D41432D4C617965720D0A6D4920A9
:1002F0006469616C65637420506D2D6F7074696FF3
:100300006E616C2042656665686C65206175636826
:10031000206D6974205072616566697820500D0AFD
:100320006D4920737461747573202D205A75737430
:10033000616E6420756E64205A6165686C776572C1
:100340006B650D0A6D4920726F6C6520437C4420FB
:10035000526F6C6C65205A656E7472616C65206FAB
:10036000646572204765726165740D0A6D4920618C
:10037000646472203668657820656967656E6520FB
:1003800046756E6B616472657373650D0A6D492005
:1003900073657120386865782053657175656E7A6C
:1003A0007A6165686C6572207365747A656E0D0A92
:1003B0006D4920656E61626C6520307C31204D4155
:1003C000432D4C6179657220617573206F6465728D
:1003D0002065696E0D0A6D49206175746F61636BEC
:1003E00020307C31205175697474756E67656E209C
:1003F00073656C6273742073656E64656E0D0A6D4F
:10040000492070696767796261636B20307C3120B5
:1004100070696767796261636B41434B2D42697410
:10042000206B75656E6674696765722053656E64CE
:10043000756E67656E0D0A6D4920726F7574657211
:1004400020307C3120447572636867616E67737613
:1004500065726B656872207765697465727265692B
:100460006368656E2028526F757465722D526F6CCB
:100470006C65290D0A6D49206C697374656E2030B6
:100480007C31204E75722D4C6573656E2D526965F9
:1004900067656C3B203120737065727274206A65E9
:1004A0006465732053656E64656E2028566F7267AD
:1004B000616265290D0A6D49207461737465206B52
:1004C00075727A7C6C616E67206B75727A207363CB
:1004D00068616C746574206461732052656C616935
:1004E000732C206C616E67206C65726E7420616E77
:1004F0000D0A6D492072656C61697320307C317C16
:10050000542052656C61697320616266726167652F
:100510006E2C207365747A656E2C20756D7363681C
:10052000616C74656E0D0A6D49206C657563687445
:1005300065202D207A656967742064617320526597
:100540006C6169733B2046756E6B7665726B65688E
:1005500072206B6568727420736965206B75727A9E
:1005600020756D0D0A6D49206964656E74202D201B
:100570004B656E6E6E756D6D657220756E64204193
:1005800075666B6C656265727363686C75657373B1
:10059000656C207A656967656E0D0A6D492069642E
:1005A000656E746E6577204E206E657565204B65AF
:1005B0006E6E756E67207775657266656C6E2075F8
:1005C0006E64207369636865726E0D0A6D49206EF2
:1005D000776B6578706F7274204B204E65747A77F4
:1005E00065726B7363686C75657373656C2C2076CC
:1005F00065727363686C75657373656C7420676589
:1006000067656E2064656E204175666B6C6562651A
:10061000720D0A6D492061736B73696E2041727CA3
:10062000417820726F686520426964436F532D4D95
:10063000656C64756E672065696E206F64657220F5
:100640006175730D0A6D4920626964636F7361643B
:1006500064722041612B3668657820656967656E34
:1006600065204164726573736520617566206465F9
:100670007220426964436F532D53656974650D0A96
:100680006D4920626964636F7361636B20417130EF
:100690007C4171312073656C62737420717569746B
:1006A00074696572656E20286E75722077656E6E4E
:1006B000206465722057697274206573204E494327
:1006C000485420747574290D0A6D49207761636858
:1006D00068616C74656E2041772B366865782051AF
:1006E00075697474756E6720616E206469657365E1
:1006F00020476567656E7374656C6C65206D697401
:1007000020576163682D4269743B203030303030AF
:1007100030203D206175730D0A6D4920686D697048
:100720007261772050727C507820726F6865204823
:100730006D49502D4D656C64756E672065696E203E
:100740006F646572206175730D0A6D492073656E63
:10075000642041737C50732B686578204672616D0C
:10076000652073656E64656E0D0A6D49206E657453
:100770007A6861757368616C74204E307C4E3120EC
:1007800052756E647275662D4E6163686261727334
:100790006368616674207175697474696572656EE9
:1007A0000D0A6D4920766F726C61756620307C3160
:1007B00020566F726C617566206675657220736372
:1007C000686C6166656E6465204765726165746515
:1007D00020286E7572207A756D204D657373656E75
:1007E000290D0A6D49207265736574202D205A61A8
:1007F00065686C7765726B65207A75727565636B79
:100800007365747A656E0D0A6D492075727A757319
:1008100074616E642056207A656967742064696526
:10082000204D61726B652C206D562B4D61726B658E
:10083000206C6F657363687420414C4C455320698C
:100840006D20537469636B0D0A6D492073656E6486
:1008500020366865782B68657820416E77656E6410
:10086000756E6773646174656E2076657273636814
:100870006C75657373656C742073656E64656E0D5D
:100880000A6D492073656E647261772031686578FE
:100890002B316865782B366865782B68657820621F
:1008A000656C69656269676572204672616D650D88
:1008B0000A6D492073656E647669612036686578D3
:1008C0002B366865782B686578206765726F75745C
:1008D00065742073656E64656E0D0A6D4920626FE4
:1008E0006F746C6F616465722042303120696E20D4
:1008F00064656E20426F6F746C6164657220737002
:1009000072696E67656E0D0A6D49206576656E7455
:1009100020504D204672616D6520656D7066616E78
:1009200067656E20756E6420656E747363686C75A0
:10093000657373656C740D0A6D49202E0D0A0050A5
:100940006D204E65747A7765726B7363686C75653C
:100950007373656C2065727A657567740D0A005053
:100960006D206B65696E65205765726B736B656E84
:100970006E756E6720E28094206C617566656E64AA
:1009800065204E756D6D6572206765777565726659
:10099000656C740D0A00506D206175737061636B36
:1009A000656E206D69742064656D204175666B6CA1
:1009B000656265727363686C75657373656C0D0A47
:1009C00000506D206E776B2E656E633D00506D207C
:1009D0006B65696E204E65747A7765726B736368B8
:1009E0006C75657373656C0D0A00506D20706163E2
:1009F0006B652065696E2E2E2E0D0A00506D206BE2
:100A000065696E204E65747A7765726B7363686C86
:100A100075657373656C20E2809420657273742031
:100A2000616E6C65726E656E20286D4750290D0AE7
:100A300000506D2062656964652057657274652099
:100A4000696E2064657220454947454E454E205ADF
:100A5000656E7472616C652065696E74726167653C
:100A60006E202847657261657420616E6C65726ED8
:100A7000656E290D0A00506D206B65793D00286B6D
:100A800065696E652900506D207765726B736B65C3
:100A90006E6E756E673D0020676572616574656195
:100AA00072743D00206E65686D65723D00506D206A
:100AB0006865726B756E66742066617373756E67B8
:100AC0003D00506D20736774696E3D00506D206B62
:100AD00065696E65204B656E6E756E6720E2809469
:100AE000206D474E2065727A657567742065696E62
:100AF000650D0A00506D204552520D0A00506D20C0
:100B0000792000506D20455252206172670D0A0015
:100B1000506D20772000506D204552522061726741
:100B20000D0A00506D206B65696E204E65747A77F2
:100B300065726B7363686C75657373656C0D0A0021
:100B4000506D2077207363686C75657373656C20D6
:100B500067657365747A740D0A00506D20455252B2
:100B6000206B65790D0A00506D2045525220747833
:100B70000D0A00506D207478206F6B0D0A00506DC7
:100B8000204E55522D4C4553454E20286D4C30205B
:100B9000676962742066726569290D0A00506D20CC
:100BA00045525220626175656E0D0A00506D2045F8
:100BB0005252206473740D0A00506D204552522029
:100BC00063742F7365630D0A00506D2055727A753A
:100BD0007374616E6420E28094204B656E6E756E56
:100BE000672C205363686C75657373656C20756E34
:100BF00064205A6165686C65722067656C6F657307
:100C00006368740D0A00506D20455252206D617268
:100C10006B6520E280942065727374206D562066A7
:100C2000726167656E0D0A002028414C4C455320C7
:100C30007765673A204B656E6E756E672C2053633F
:100C4000686C75657373656C2C205A6165686C659A
:100C500072290D0A0020E28094206C6F657363682E
:100C6000656E206D6974206D5600506D206D617247
:100C70006B653D00506D20455252206B65696E6575
:100C80002053657269656E6E756D6D65720D0A0033
:100C9000506D207A6165686C65723D300D0A0050B8
:100CA0006D2000206C6F76663D002063726564697C
:100CB000743D00506D206275646765743D00506D31
:100CC00020766F726C6175663D002053454E444539
:100CD0004E20465245494745474542454E00206E05
:100CE0007572206C6573656E2C2053656E64656E3D
:100CF00020676573706572727400506D204C3D0002
:100D0000506D205375636865206265656E64657417
:100D10000D0A0020463D0020453D0020443D0020B6
:100D2000433D00506D2041454E4420423D0020206F
:100D30002D2D2032302073205A6569742C206A656D
:100D4000747A742064727565636B656E0D0A002099
:100D5000463D0020453D0020443D0020433D0050DD
:100D60006D207275686520423D00506D2072656C83
:100D70006169733D00506D2065727A657567652005
:100D80004B656E6E756E672E2E2E0D0A00506D200F
:100D9000736E3D00506D2045525220736E0D0A0057
:100DA000506D206B65792077697264206E69636885
:100DB0007420766F6E2061757373656E206765733E
:100DC00065747A7420E2809420416E6C65726E6561
:100DD0006E20286D4750290D0A00506D204E657415
:100DE0007A7765726B7363686C75657373656C2075
:100DF000766572776F7266656E20E2809420616C12
:100E00006C652047657261657465206E657520614B
:100E10006E6C65726E656E0D0A00506D20616464C3
:100E2000723D00506D2045525220616464720D0A7B
:100E3000005A656E7472616C650047657261657415
:100E400000506D20726F6C6C653D004220626F6FC8
:100E5000746C616465720D0A003F200D0A00572012
:100E60004552520D0A0043204552520D0A004220BD
:100E70004552522028423031290D0A00582045524F
:100E8000520D0A003F200D0A003F20283F206973C1
:100E900020756E6B6E6F776E2920557365206F6EAF
:100EA00065206F6620412042204320502054205668
:100EB00020572058206D0D0A005620712D63756C47
:100EC000667720322E302E3530005078206F6B0D33
:100ED0000A005072206F6B0D0A00204F484E4520CB
:100EE0004144524553534520284161290041712016
:100EF0000041772000416120005620712D63756C00
:100F0000667720322E302E353000507320455252F5
:100F10000D0A004E55522D4C4553454E20286D4C20
:100F20003020676962742066726569290D0A004C79
:100F3000454E4552520D0A002074786572723D008C
:100F40002074783D00206677643D0020616B646FFB
:100F5000703D00206B3672783D00206B3674783D12
:100F6000002061636B733D00206475703D00206D4F
:100F700069633D00206F6B3D00506D2072783D002D
:100F8000206C6F76663D00206372656469743D0075
:100F9000506D206275646765743D002072656C61F8
:100FA00069733D00206E75726C6573656E3D00203F
:100FB000726F757465723D002069636D7061636B5B
:100FC0003D002061636B3D0020736E3D00206B652A
:100FD000793D0020616464723D005A656E747261EF
:100FE0006C65004765726165740020726F6C6C659A
:100FF0003D006175730065696E00506D20002061D1
:101000003D310020663D002061723D002061636B30
:101010003D00207669613D0020736E3D00206374C1
:101020003D00207365633D00206473743D002073B0
:1010300072633D00504D00506D20416E6C65726EC4
:10104000656E206C616575667420E28094204B6546
:101050006E6E756E67206D75737320696E206465A2
:1010600072205A656E7472616C6520737465686570
:101070006E0D0A00506D204E55522D4C4553454E75
:1010800020286D4C3020676962742066726569297A
:101090000D0A00506D206B65696E65204B656E6EA4
:1010A000756E6720E280942065727374206D474EE0
:1010B0000D0A0003AF8BB08DFBC84765081961DCD2
:1010C0009433D203AF8BB08DFBC84765081961DC40
:1010D0009433D2506D205A7566616C6C737175656E
:1010E0006C6C6520746F7420E280942046756E6B82
:1010F00063686970207072756566656E20286D5A28
:10110000292C206E69636874732065727A6575672F
:10111000740D0A00506D2072656C6169733D00505A
:101120006D204C4F56460D0A00637C777BF26B6F47
:10113000C53001672BFED7AB76CA82C97DFA594705
:10114000F0ADD4A2AF9CA472C0B7FD9326363FF792
:10115000CC34A5E5F171D8311504C723C318960521
:101160009A071280E2EB27B27509832C1A1B6E5A7C
:10117000A0523BD6B329E32F8453D100ED20FCB11C
:101180005B6ACBBE394A4C58CFD0EFAAFB434D33F4
:101190008545F9027F503C9FA851A3408F929D380E
:1011A000F5BCB6DA2110FFF3D2CD0C13EC5F9744F7
:1011B00017C4A77E3D645D197360814FDC222A90BD
:1011C0008846EEB814DE5E0BDBE0323A0A490624AC
:1011D0005CC2D3AC629195E479E7C8376D8DD54E8A
:1011E000A96C56F4EA657AAE08BA78252E1CA6B426
:1011F000C6E8DD741F4BBD8B8A703EB5664803F6AA
:101200000E613557B986C11D9EE1F8981169D98ED6
:10121000949B1E87E9CE5528DF8CA1890DBFE6423D
:101220006841992D0FB054BB160011241FBECFEF9B
:10123000DAE0DEBFCDBF11E0A0E0B1E0E2ECFDE618
:1012400002C005900D92A433B107D9F723E0A4E3BF
:10125000B1E001C01D92A835B207E1F70E94F51474
:101260000C94A0360C9400002FB7F894609169029A
:1012700070916A0280916B0290916C022FBF089569
:101280004F925F926F927F928F929F92AF92BF9296
:10129000CF92DF92EF92FF920E9434094090540364
:1012A0005090550360905603709057036B017C017A
:1012B000C418D508E608F70828EEC21623E0D206BF
:1012C000E104F10480F1C701B60128EE33E040E00B
:1012D00050E00E940436A8EEB3E00E942C36460E81
:1012E000571E681E791E4092540350925503609217
:1012F00056037092570380EAC8168BEBD8068DE030
:10130000E806F10450F480910D0190910E01820FD6
:10131000931F843823E0920710F084E893E09093C1
:101320000E0180930D01FF90EF90DF90CF90BF9062
:10133000AF909F908F907F906F905F904F900895A7
:1013400080916802811561F00E94340928E730E03D
:1013500040E050E00E94043620FF12C0769A0895C3
:10136000809167024091630250916402609165022E
:1013700070916602452B462B472B21F0811571F3A6
:10138000769808958115E1F3E9CF0F931F93CF93DA
:10139000DF93EC010E943409DC01CB018C0F9D1F0F
:1013A000A11DB11D0091630210916402209165029C
:1013B00030916602081719072A073B0740F480930B
:1013C000630290936402A0936502B0936602DF917A
:1013D000CF911F910F910C94A00990ED980F9A3026
:1013E00010F4892F08959FE9980F963010F48755CF
:1013F00008959FEB980F963010F4875308958FEF60
:101400000895CF92DF92EF92FF920F931F93CF93A5
:10141000DF937B01D42F8C01C12CD12CC0E0F801CB
:1014200081918F01811511F0CD1750F08C2FDF9134
:10143000CF911F910F91FF90EF90DF90CF90089583
:10144000803269F38A3359F30E94ED098F3F71F3BB
:10145000D11441F0F701EC0FF11D8C298083CF5F8F
:10146000D12CDDCFC82EC29480EFC822DD24D394C6
:10147000D6CFDC01EEE0F0E080E031E230935700BF
:1014800094919D93915021E09E3F08F020E0822BA3
:101490003196E831F10591F708958EBD0DB407FE40
:1014A000FDCF8EB5089528981B99FECF0895CF9350
:1014B000C82F0E94530A8C2F80680E944D0A80E03A
:1014C0000E944D0A289ACF910895CF93C82F0E9469
:1014D000530A8C2F806C0E944D0A80E00E944D0AB6
:1014E000289ACF910895CF93DF93D82FC62F0E94CB
:1014F000530A8D2F0E944D0A8C2F0E944D0A289A64
:10150000DF91CF91089585E30E94650A8F71089558
:1015100080917401811531F080919A01843019F025
:1015200010927401089583E08093E9008091E800AF
:1015300080FFF8CF80E090917401891750F080917E
:10154000E800982F9E7F9093E8008F778093E800C3
:10155000E7CFE82FF0E0EC5CFE4F90819093F10034
:101560008F5FE9CF8091920187FF17C08091E800DB
:1015700082FF0AC08091E800982F9B7F9093E8003B
:101580008F778093E800089580919A018111EECFC2
:10159000089580919A018115D9F38091E80080FF28
:1015A000F8CF8091E800982F9E7FE8CF8091D800F7
:1015B0008E7F8093D8001092E2001092DA00109291
:1015C000E10010929A0110929101109290011092F4
:1015D0008F018AE482BF19BC89B5826089BD09B4D4
:1015E00000FEFDCF8091D800982F9F779093D80070
:1015F00080688093D8008091D70081608093D70065
:101600008091D8008F7D8093D8008091E0008B7FFF
:101610008093E0008091E0008E7F8093E0008091D5
:10162000E1008E7F8093E1008091E20081608093F1
:10163000E2008091E100877F8093E1008091E200E9
:1016400088608093E2008091D80081608093D80008
:1016500008958093E900EBEEF0E080818160808363
:10166000EDEEF0E010826093EC0040838091EE009C
:101670000895CF93C82F0E94530A8C2F0E944D0AC1
:10168000289ACF910895CF9386E30E94390BC4E640
:101690000E94830A982F9F7E913051F0863141F04D
:1016A00087EC90E00197F1F700C00000CA9581F740
:1016B0008BE30E94390B8AE3CF910C94390B0E9483
:1016C000430B84E30C94390B0F931F93CF93C82FD4
:1016D00001ED17E0E0917401E03478F481E08E0FC1
:1016E00080937401F0E0EC5CFE4FC0838034C9F459
:1016F000CF911F910F910C94880A0E94880AE09163
:101700007401E03458F380919A01843041F401501F
:10171000104039F08AE18A95F1F700C0DBCFE0E0B4
:10172000DDCFCF911F910F910895CF93DF93EC01FF
:10173000FE0184912196811103C0DF91CF9108951C
:101740000E94640BF5CF83ED90E10C94950BCF9341
:10175000C82F82958F70C03A58F4805D0E94640B48
:101760008C2F8F708A3030F4805DCF910C94640B95
:10177000895CF4CF895CF9CFCF93DF93EC0188814A
:101780000E94A70B89810E94A70B8A81DF91CF91CC
:101790000C94A70B1F93CF93DF93EB01182F892F86
:1017A0000E94A70B812F0E94A70B8D2F0E94A70BD1
:1017B0008C2FDF91CF911F910C94A70B4F925F92CA
:1017C0006F927F928F929F92AF92BF92CF92DF9251
:1017D000EF92FF921F93CF93DF93CDB7DEB72B9796
:1017E0000FB6F894DEBF0FBECDBF6B017C01C114F4
:1017F000D104E104F104C1F480E32B960FB6F89410
:10180000DEBF0FBECDBFDF91CF911F91FF90EF9054
:10181000DF90CF90BF90AF909F908F907F906F9010
:101820005F904F900C94640BCE0101965C0110E028
:101830004C018AE0482E512C612C712CC701B60155
:10184000A30192010E9404361F5F605DF501619360
:101850005F01D701C60169017A010A97A105B105A7
:1018600010F01B3059F71150F401E10FF11D808188
:101870000E94640B1111F7CF2B960FB6F894DEBFC0
:101880000FBECDBFDF91CF911F91FF90EF90DF9002
:10189000CF90BF90AF909F908F907F906F905F9010
:1018A0004F900895CF93DF93EC0197FF06C08DE230
:1018B0000E94640BD195C195D109BE01DD0F880B43
:1018C000990BDF91CF910C94DE0B8DE00E94640B9D
:1018D0008AE00E94640B0C94880AEF92FF920F93A7
:1018E0001F93CF93DF93C62FE42ED52FF22E0E94A5
:1018F000640B8C2F0E94A70B0E2D1D2FC00FD12F14
:10190000D11DF80181918F010E94A70B0C171D07B3
:10191000C1F78F2D0E94A70BDF91CF911F910F91DF
:10192000FF90EF900C94650CCF92DF92EF92FF92B4
:101930000F931F93CF93DF936C01EB01E42EF22EF4
:1019400084E390E10E94950B8C890E94A70B10E024
:101950008C89181708F46DC08E2D0E94A70B8F2D4F
:101960000E94A70B8EE290E10E94950BCE01039698
:101970000E94BC0B88E290E10E94950BCE01069676
:101980000E94BC0B82E290E10E94950B6E8970E090
:1019900080E090E00E94DE0B8DE190E10E94950BCB
:1019A0006F8970E080E090E00E94DE0B88E190E1BA
:1019B0000E94950B6C857D858E859F850E94CA0B44
:1019C0008C8D85FF08C082E190E10E94950BCE01CD
:1019D00009960E94BC0B8C8D82FF14C08CE090E1B4
:1019E0000E94950B688979898A899B890E94CA0B14
:1019F00087E090E10E94950B6A8D70E080E090E0B6
:101A00000E94DE0B83E090E10E94950B8C8D0E947A
:101A1000A70B011521F08EEF9FE00E94950BDF913F
:101A2000CF911F910F91FF90EF90DF90CF900C948A
:101A3000650CF601E10FF11D80810E94A70B1F5F6D
:101A400087CFCF93DF9300D00F92CDB7DEB78091D1
:101A5000210390912203A091230389839A83AB836E
:101A60008AEF9FE00E94950B80910E02811509F488
:101A70002AC186EF9FE00E94950B8AEE9FE00E94AC
:101A8000950B80912C03813009F020C183EE9FE0FB
:101A90000E94950B83ED9FE00E94950BCE0101966D
:101AA0000E94BC0B8DEC9FE00E94950B80912F0350
:101AB000811509F40EC181E30E94640B88EC9FE05C
:101AC0000E94950B60912403709125038091260359
:101AD000909127030E94CA0B82EC9FE00E94950B15
:101AE00080910901805D0E94640B88EB9FE00E9459
:101AF000950B80913003811509F4EDC081E30E94BC
:101B0000640B8FEA9FE00E94950B8091050281157E
:101B100009F4E3C081E30E94640B84EA9FE00E9421
:101B2000950B80910C01811509F4D9C081E30E94C5
:101B3000640B8BE99FE00E94950B809167028115F1
:101B400009F4CFC081E30E94640B0E94650C0E94DF
:101B5000400980E99FE00E94950B80910B0181155F
:101B600009F4C1C081E30E94640B87E89FE00E94F2
:101B7000950B60910D0170910E0180E090E00E9444
:101B8000DE0B8FE20E94640B64E873E080E090E07B
:101B90000E94DE0B80E89FE00E94950B609152034B
:101BA0007091530380E090E00E94DE0B0E94650C70
:101BB00089E79FE00E94950B60910F0270911002DF
:101BC00080E090E00E94DE0B84E79FE00E94950B8E
:101BD000609111027091120280E090E00E94DE0B91
:101BE0008EE69FE00E94950B6091130270911402A3
:101BF00080E090E00E94DE0B88E69FE00E94950B5B
:101C0000609115027091160280E090E00E94DE0B58
:101C100081E69FE00E94950B609117027091180277
:101C200080E090E00E94DE0B8AE59FE00E94950B29
:101C300060911F027091200280E090E00E94DE0B14
:101C400083E59FE00E94950B609121027091220232
:101C500080E090E00E94DE0B8BE49FE00E94950BF9
:101C6000609123027091240280E090E00E94DE0BDC
:101C700085E49FE00E94950B6091190270911A0211
:101C800080E090E00E94DE0B80E49FE00E94950BD4
:101C900060911B0270911C0280E090E00E94DE0BBC
:101CA00088E39FE00E94950B60911D0270911E02D7
:101CB00080E090E00E94DE0B0F900F900F90DF917C
:101CC000CF910C94650C82EF9FE0D5CE8AED9FE01A
:101CD000DFCE80E3F1CE80E312CF80E31CCF80E340
:101CE00026CF80E330CF80E33ECFEF92FF920F9379
:101CF0001F93CF93DF9300D000D0CDB7DEB77B0129
:101D00008C010E94A73569837A838B839C83209101
:101D10005F0284E0289F90011124B901605C7E4F2E
:101D200044E050E0CE0101960E947E3620915F0291
:101D300030E02F5F3F4F2770332720935F02E09200
:101D40006D02F0926E0200936F02109370020F907A
:101D50000F900F900F90DF91CF911F910F91FF90F7
:101D6000EF900895AF92BF92CF92DF92EF92FF92E1
:101D70000F931F93CF93DF93CDB7DEB7EF970FB6D7
:101D8000F894DEBF0FBECDBFD82EE92E162FF42E4D
:101D900000910C01011126C080910B018115D9F130
:101DA0000E94400928E0129FC001112485549F4FD2
:101DB00064E670E00E94F03520910D0130910E0133
:101DC0002617370710F5809152039091530301961F
:101DD00090935303809352038FE191E10E94950BFE
:101DE0000E94880A00E0802FEF960FB6F894DEBFBD
:101DF0000FBECDBFDF91CF911F910F91FF90EF905C
:101E0000DF90CF90BF90AF900895261B370B309393
:101E10000E0120930D018FEF810F8D3308F0BDC0AF
:101E20001983412F50E06D2D7E2DCE0102960E9428
:101E300053362B818A8196E789278A8392E0AE0107
:101E40004F5F5F4FD42EC52EFA01E90FF11D30818F
:101E50006981961708F449C0822F832780830E94E6
:101E6000430BF11047C00E94530A8FE70E944D0AAE
:101E7000ED2CFC2CF70181917F010E944D0A8E2DE3
:101E80008D191817B8F7289A85E30E94390BE12CB1
:101E9000F12C9CE2C92EDD24D3940E94830A833165
:101EA00009F058C09AE0910F80E0EFECF7E031972D
:101EB000F1F700C000008F5F8917B8F384EFE82EB8
:101EC000FF24F3948AE30E94650A8F7781115CC036
:101ED0000E94830A8D3019F084E30E94390B84EB51
:101EE00090E00E94C509012F58C084528327808347
:101EF0009F5FAACF85E30E94390BE12CF12C2CE2E5
:101F0000A22EBB24B3940E94830A833151F484E24D
:101F1000EFE1FEE43197F1F700C000008A95C1F7C8
:101F2000A2CF87EC90E00197F1F700C00000C70155
:101F3000B5010E94F0358B32914019F485E30E947F
:101F4000390BFFEFEF1AFF0A28EBE2162BE0F2063F
:101F5000D1F6DDCF87EC90E00197F1F700C00000EB
:101F6000C701B6010E94F0358B32914019F485E328
:101F70000E94390BFFEFEF1AFF0A28EBE2162BE065
:101F8000F20609F08ACF8ECF0E94830A863161F56E
:101F90000E94430B84E30E94390B609124037091EB
:101FA00025038091260390912703C0906D02D09065
:101FB0006E02E0906F02F09070026C157D058E0548
:101FC0009F0578F09B01AC012C193D094E095F0972
:101FD00069017A01C11434E0D306E104F10408F484
:101FE00002CF0E94750EFFCE8FEC97E00197F1F7BC
:101FF00000C0000091E0E91AF10809F063CFC8CFF2
:102000008F929F92AF92BF92CF92DF92EF92FF9208
:102010000F931F93CF93DF93CDB7DEB7C054D10991
:102020000FB6F894DEBF0FBECDBF6C01CE01019696
:102030007C015E0191E4A90EB11C470108E010E0AB
:1020400084E30E94650A110F8170182BEFEEF0E017
:102050003197F1F700C000000A9591F78091840054
:10206000909185001827F70111937F01EA15FB0570
:1020700029F760E470E0C4010E940E2E892B51F410
:10208000A60160E470E0C4010E94D02D01E0892B1C
:1020900009F000E0802FC05CDF4F0FB6F894DEBF80
:1020A0000FBECDBFDF91CF911F910F91FF90EF90A9
:1020B000DF90CF90BF90AF909F908F9008950F9337
:1020C0001F93CF93DF930F92CDB7DEB701E0098363
:1020D00080915E0281112BC08EE492E00E9400107C
:1020E000182F811109C00E94A30B812F0F90DF913F
:1020F000CF911F910F91089540E150E060E671E0AB
:102100008EE492E00E947E3641E050E060E771E0AC
:10211000CE0101960E947E3600935E02198241E054
:1021200050E065E371E0CE0101960E947E3611E039
:10213000DCCF4F925F926F927F928F929F92AF927D
:10214000BF92CF92DF92EF92FF920F931F93CF93A4
:10215000DF93CDB7DEB7C05DD1090FB6F894DEBF0F
:102160000FBECDBF3C01CE018F549F4F20E1EEE466
:10217000F2E0DC0101900D922A95E1F700E010E019
:102180007C019CE0A92EB12CA80183E056954795CF
:102190008A95E1F747019E012F533F4FC12CD12C67
:1021A0002901C8018C0D9D1DFC01EF70FF27ED5327
:1021B000FF4EE491D401FD914D01B5010E94F0352F
:1021C000DC01AE5BBD4FE427EF278C918E27F90130
:1021D00081939F01FFEFCF1ADF0A80E1C816D10477
:1021E00001F7B701CE0101960E941428A701B201A0
:1021F000CE0101960E9474280F5F1F4F0532A1E0A7
:102200001A0711F680E1F701D30101900D928A952A
:10221000E1F7C053DF4F0FB6F894DEBF0FBECDBF5E
:10222000DF91CF911F910F91FF90EF90DF90CF90B2
:10223000BF90AF909F908F907F906F905F904F90E6
:102240000895EF92FF920F931F93CF93DF93CDB733
:10225000DEB7C05ED1090FB6F894DEBF0FBECDBFAA
:102260008C01E3EBF0E1DE01AF54BF4FCD014096AE
:10227000AD0124912D933196A817B907D1F7DE014E
:10228000AF53BF4F27E030E07D0189EF820F6CE054
:102290000E94E435E92FF0E0EE5BFD4FB9016F706D
:1022A0007727640F751F8081FB01908189278D93AB
:1022B0002F5F3F4F2731310541F7BA01CE0101961B
:1022C0000E941428AE014F525F4FB701CE01019614
:1022D0000E947428F801BE016F527F4F9801205F61
:1022E0003F4F8191DB019D91BD01AF0141505109EB
:1022F0008927DA018C93E217F30799F7C052DF4F71
:102300000FB6F894DEBF0FBECDBFDF91CF911F9106
:102310000F91FF90EF900895CF92DF92FF920F936D
:102320001F93CF93DF93CDB7DEB7C15ED1090FB650
:10233000F894DEBF0FBECDBFF82E192F6E018EEDC3
:10234000C80ED11C84E0F60111928A95E9F70E942B
:102350005F10811579F1CE018F549F4F0E94991023
:10236000AE014F525F4FB60182E492E00E94292CE9
:10237000BE016F547F4FCE0101960E94142800E1E8
:102380009E012F533F4F4F2D512FBE016F527F4F54
:10239000CE0101960E94802ACE018F539F4F0E944A
:1023A000211140E150E06EE171E0CE018F539F4F6B
:1023B0000E947E36CF51DF4F0FB6F894DEBF0FBEBE
:1023C000CDBFDF91CF911F910F91FF90DF90CF9004
:1023D0000895CF92DF92EF92FF920F931F93CF93C6
:1023E000DF93CDB7DEB7C25ED1090FB6F894DEBF7A
:1023F0000FBECDBF7C01CE51DF4F1882C25ED040F0
:102400006E018EEDC80ED11C84E0F60111928A9502
:10241000E9F741E050E065E371E0CE018E519F4F56
:102420000E946E36109141021115D1F110915E0299
:102430001115B1F1CE51DF4F1881C25ED04011307D
:1024400009F03FC040E150E06EE171E0CE018F53F2
:102450009F4F0E946E36CE018F539F4F0E942111D5
:10246000CE018F549F4F0E949910AE014F525F4F83
:10247000B60182E492E00E94292CBE016F547F4F86
:10248000CE0101960E94142800E19701AE014F533E
:102490005F4FBE016F527F4FCE0101960E94802A8E
:1024A000812FCE51DF4F0FB6F894DEBF0FBECDBFE8
:1024B000DF91CF911F910F91FF90EF90DF90CF9020
:1024C000089510E0EDCFAF92BF92CF92DF92EF92DE
:1024D000FF920F931F93CF93DF93CDB7DEB7C45313
:1024E000D1400FB6F894DEBF0FBECDBF7E018EEC9B
:1024F000E81A8EEFF80A80910F0190911001A091D7
:102500001101F70180839183A2836E01F1EFCF0E59
:10251000D11CD60180E18D938CE0E2E4F2E00190E1
:102520000D928A95E1F7F601158681E08687178678
:10253000108A818B8AEE828B82E0838B98E1948B68
:10254000858B80E4868B83E0878B80913D02909120
:102550003E02A0913F02B0914002808F918FA28FE6
:10256000B38FAE014F5D5E4F6DE372E082E492E0A7
:102570000E94292C6DE272E0CE0101960E9414287F
:102580008E01025D1E4F2CE1A601BE016F5D7E4FE4
:10259000CE0101960E94CF29C25DDE4F8881CE52C6
:1025A000D140F601848FC15DDE4F8881CF52D1408A
:1025B000858FC05DDE4F8881C053D140868FCF5C50
:1025C000DE4F8881C153D140878FE5E2F2E0D6012A
:1025D00090968DE292E0B701760121912D938E17AE
:1025E0009F07D9F7CE018F549F4F5C0188E2C82E18
:1025F00000E010E020E041E081E792E00E942F330C
:10260000682F811579F040E0C5010E94B20E811556
:1026100049F080911B0290911C02019690931C023C
:1026200080931B02CC5CDE4F0FB6F894DEBF0FBE6A
:10263000CDBFDF91CF911F910F91FF90EF90DF9071
:10264000CF90BF90AF900895CF93DF93CDB7DEB713
:1026500060970FB6F894DEBF0FBECDBF80914102E8
:1026600081110CC083E990E160960FB6F894DEBF4B
:102670000FBECDBFDF91CF910C94950B80910C01D3
:10268000811519F084E790E1EFCFCE0101960E9409
:102690000010811591F0898180933D028A81809399
:1026A0003E028B8180933F028C8180934002CE0159
:1026B00001960E94001081110BC00E94A30B60962E
:1026C0000FB6F894DEBF0FBECDBFDF91CF91089556
:1026D00088E0FE013196A5E2B2E001900D928A9564
:1026E000E1F721E030E04BE452E060E070E081E7A8
:1026F00092E00E94662F81E080930E028093680230
:102700000E943409DC01CB01805A9541AF4FBF4F85
:1027100080930A0290930B02A0930C02B0930D02D7
:102720000E943409DC01CB01805C904EAF4FBF4F5B
:102730008093060290930702A0930802B0930902C7
:1027400087E390E10E94950B0E946312B8CF0F932C
:102750001F93CF93DF93CDB7DEB7C054D1090FB627
:10276000F894DEBF0FBECDBFAC01262F8E010F5FE8
:102770001F4F60E672E081E792E00E94ED33682F20
:10278000811579F040E0C8010E94B20E811549F030
:1027900080911B0290911C02019690931C028093E1
:1027A0001B02C05CDF4F0FB6F894DEBF0FBECDBF7B
:1027B000DF91CF911F910F910895CF93DF93CDB704
:1027C000DEB760970FB6F894DEBF0FBECDBF85E8C9
:1027D000898380910A0191E0980F90930A018A837E
:1027E00082E08B8390E89C8398E09D838E831F8298
:1027F00083E0888780916702811188EC898784E073
:102800008A871B8685E08C871D866DE0CE01019648
:102810000E94A71360960FB6F894DEBF0FBECDBF1F
:10282000DF91CF910895CF93C62F809367020E94C6
:10283000A00984E191E10E94950B809167028115C6
:10284000C1F081E30E94640B0E94650CC11599F0F0
:1028500080912F03811579F080916002909161023F
:10286000892B90916202892B811529F0CF910C94CC
:10287000DD1380E3E7CFCF910895CF92DF92EF92FF
:10288000FF921F93CF93DF93CDB7DEB7EE970FB6CE
:10289000F894DEBF0FBECDBF162F4EE3BE016F5FB3
:1028A0007F4F0E94010A823028F029819FEF980F04
:1028B000291729F08FE29FE00E94950B40C090916C
:1028C0000C01911519F083E19FE0F6CF909104027D
:1028D000911509F442C09091FB019115F1F18A30F4
:1028E000E0F18C818230C9F59A818091FC019813C6
:1028F00034C043E050E06DEF71E0CE0108960E94D5
:102900004636892B51F50E943409C0900002D090C0
:102910000102E0900202F09003026C197D098E0919
:102920009F096D3D754081059105B8F480912302A2
:102930009091240201969093240280932302EE96B4
:102940000FB6F894DEBF0FBECDBFDF91CF911F91C0
:10295000FF90EF90DF90CF900895111529F041E09E
:1029600080910801811101C040E06981CE01029689
:102970000E94B20E811551F080911B0290911C02B1
:10298000019690931C0280931B02D9CF80911D0267
:1029900090911E02019690931E0280931D028AE080
:1029A0009FE08ACF1F921FB61F9211248F939F938F
:1029B000AF93BF938091690290916A02A0916B02DC
:1029C000B0916C020196A11DB11D80936902909394
:1029D0006A02A0936B02B0936C02BF91AF919F917A
:1029E0008F911F901FBE1F901895CDB7DEB7C450B2
:1029F000D2400FB6F894DEBF0FBECDBF84B7877F3D
:102A000084BF0FB6F894A895809160008861809388
:102A10006000109260000FBE80E820E030E00FB64A
:102A2000F89480936100209361000FBE0E94D60A43
:102A30008091D80080618093D80081E08093EE017E
:102A4000789484B1876084B92398209A289A80E585
:102A50008CBD1DBC539852986E9A289A20E52A95F1
:102A6000F1F7289830E53A95F1F7289A48E74A9522
:102A7000F1F780E30E94390B8FE19EE40197F1F7B3
:102A800000C0000010E0612F70E0CB0186529F4F24
:102A9000FC0124912F3F09F017C263EC8EE30E94E2
:102AA000730A83E30E94390B8FE39FE10197F1F7EB
:102AB00000C000000E945F0B6A98109280008BE0BB
:102AC000809381008CE790E0909389008093880048
:102AD00082E080936F00789442E050E060E071E023
:102AE000DE0111964D01CD010E946E3689819A81D9
:102AF0008133914509F0F2C14CE050E062E071E0B1
:102B000082E492E00E946E3640E150E06EE071E0B7
:102B10008DE292E00E946E3681E08093410219823C
:102B200041E050E060E771E0C4010E946E36198117
:102B3000113009F0D5C140E150E060E671E08EE46B
:102B400092E00E946E3610935E023E01E1EB6E0E43
:102B5000711C83E0D3011D928A95E9F720E030E0F3
:102B6000A30160E070E081E792E00E94662F00E43C
:102B700011E0C12CD12C7601B12C44E050E0B80119
:102B8000C4010E946E3629803A804B805C80C2016D
:102B9000B1010E94A735462F572FBC01B3942520C1
:102BA00024202320209459F0C416D506E606F70603
:102BB00030F48B2D877080935F026A017B010C5F7C
:102BC0001F4FE8E0BE12D9CFC114D104E104F104D3
:102BD000A9F444E050E061E371E0C4010E946E3664
:102BE00069817A818B819C816F3FFFEF7F078F071F
:102BF0009F0721F00E94A7356B017C01B701A60158
:102C00005C5F6F4F7F4F81E792E00E94BE2F609123
:102C100024037091250380912603909127030E943D
:102C2000750EC4010E94E911811529F0B40181E7F4
:102C300092E00E94A32F89EF9EE00E94950B0E94D4
:102C4000650CD12C2E012EE8421A2EEF520AAE014D
:102C50004B5C5E4F4E5D5F4FC350DE4F59834883E0
:102C6000CD5FD140CE018B5C9E4F8596CF5FDD4F0F
:102C700099838883C150D240D2011396CD5FDD4F36
:102C8000B983A883C350D240FE017196C550DE4F70
:102C9000F983E883CB5FD1404B9B32C182E30E9432
:102CA000650A80937A019091750191111BC191E0A1
:102CB00090937501809377018093780180937901D7
:102CC00010927601809176018F3F19F08F5F80938B
:102CD00076014A9918C10E94830A813111F40E9439
:102CE0005F0B80916802811509F450C40E94A0090D
:102CF0008CB1847090918001911167C4811519F095
:102D000081E080938001809168028115E9F00E9442
:102D10003409462F572FBC0180910A0290910B0273
:102D2000A0910C02B0910D02481759076A077B0762
:102D300008F4ACC4109268020E94A00984EF91E0EC
:102D40000E94950B0E94650C10918501111509F4E4
:102D50005FC00E943409209181013091820140912D
:102D6000830150918401621773078407950708F463
:102D70004FC00E943409DC01CB0180559B4FAF4FFF
:102D8000BF4F8093810190938201A0938301B09300
:102D90008401123009F497C4133009F4B4C411301B
:102DA00069F580E3CB5CDE4F8883C553D140540185
:102DB000CC24C394AE014B5C5E4F7A0100E010E07E
:102DC00021E041E060E672E081E792E00E942F336B
:102DD000682F811579F040E0C4010E94B20E811580
:102DE00049F080911B0290911C02019690931C0265
:102DF00080931B0289E592E00E94950B0E94880A4D
:102E0000809185018F5F843008F082C480938501B2
:102E100080918601811581F00E94340900918B0117
:102E200010918C0120918D0130918E01601B710BEE
:102E3000820B930B97FF75C480919A018111CCC4CA
:102E40000E94880AE091DC018091DB01E81708F01C
:102E50008EC781E08E0F8093DC01F0E0E556FE4FD7
:102E6000808190E08D30910529F08A30910511F034
:102E70000C94BB26F301ED0DF11D1082D11411F15C
:102E8000D3018C91813411F00C94681F11968C91B0
:102E90001197811511F40C94961F833709F0A0C780
:102EA00043E0B401C30102960E94010A6B8162955E
:102EB0006170833009F060E0C30102960E943D1406
:102EC0000E94880AD12CE8CE65527F4FFB016491A5
:102ED000FC0184910E94730A1E5FD5CD80E01DCE57
:102EE00010E031CE90917801891714F48093780125
:102EF0009091770198170CF0E5CE80937701E2CEA0
:102F000010927501E6CE8FE30E94570AC82EE8940E
:102F1000C7F88FEF8C0D8D3308F0E1CEC9820E9487
:102F2000530A8FEF0E944D0A8E010E5F1F4FBB2484
:102F3000B394780180E00E944D0AD8018D938D01F1
:102F4000B394CB14B8F780E00E944D0AB82E80E00D
:102F50000E944D0AA82E289A8A8196E798279A837C
:102F600092E0F401E90FF11D20813981931708F4F3
:102F7000BDC08B81822780834C2D50E0B701C201F8
:102F80000E945336EB2CB7FE03C0EE24E394EB0C07
:102F9000E5940E2C000CFF08BAE4EB1AF108E0E807
:102FA000EE16EFEFFE0624F470E8E72EFF24FA9405
:102FB0000E945F0B8091ED01811509F458C08DEEE0
:102FC00091E00E94950B80917A01082E000C990BDC
:102FD0000E94520C85EE91E00E94950B8091790140
:102FE000082E000C990B0E94520C8FED91E00E946C
:102FF000950B80917801082E000C990B0E94520CC1
:1030000089ED91E00E94950B80917701082E000CCC
:10301000990B0E94520C85ED91E00E94950B6091F6
:10302000760170E080E090E00E94DE0B8EEC91E093
:103030000E94950BC7010E94520C88EC91E00E94FF
:10304000950B6C2D70E080E090E00E94DE0B82EC2E
:1030500091E00E94950B8201D8018D918D010E9413
:10306000A70B802F84198C15B8F30E94650C9091E2
:103070000E028091FA012091F101822B81113CC056
:10308000911509F42ECEB6E0CB123BC043E050E0E0
:1030900061E273E0C2010E944636892B09F021CE1D
:1030A00080912102909122020196909322028093B6
:1030B000210289EB91E00E94950BCD5FDD4F888165
:1030C0009981C350D2400E94BC0B83EB91E00E94D7
:1030D000950BC2010E94BC0B8CEA91E00E94950BFB
:1030E000C7010E94520C0E94650CFBCD84528227BE
:1030F00080839F5F822F35CF9111C5CF00E010E014
:1031000058C080910901811121C080910F029091D6
:10311000100201969093100280930F028E010155C8
:103120001E4F9E012B5C3E4F4C2DB20181E792E079
:103130000E94CF2F892B49F18091130290911402A4
:1031400001969093140280931302D8CF94014C2DD2
:10315000B20181E792E00E94E832811581F040E0FF
:1031600066E0C4010E94B20E811549F080911F02F1
:103170009091200201969093200280931F028091EB
:103180000E02811509F4BACFC0CF8091110290913F
:10319000120201969093120280931102C553DE4FE2
:1031A0008881CB5CD140897101E0811101C000E0D0
:1031B00011E03090F1018091FA018329811509F421
:1031C00035C188E290E00E94C509111511F40C94F4
:1031D0003A27311431F02E2DA2016C2D80E50E948A
:1031E0006D0C011511F40C94CC2688E290E00E943D
:1031F000C509C553DE4F8881CB5CD14087FF0AC02B
:1032000020911502309116022F5F3F4F3093160226
:10321000209315028970893059F5CA53DE4F888191
:10322000C65CD140811124C0CD53DE4F8881998185
:10323000C35CD1400597E0F0CB5CDE4F8881C5537D
:10324000D1408638A9F4C95CDE4F8881C753D1408C
:10325000823071F481E0C75CDE4F9881C953D14060
:10326000911101C080E060E00E9413140E94DD1300
:10327000CE2C80916802811509F478C0CD53DE4FC1
:103280008881C35CD1408D3208F470C0CB5CDE4FC6
:103290008881C553D140803209F068C08CE0E2E4F7
:1032A000F2E0D40101900D928A95E1F780E1EDE220
:1032B000F2E0DE011D9601900D928A95E1F7809172
:1032C0003D0290913E02A0913F02B09140028D8F4D
:1032D0009E8FAF8FB8A388E0E5E2F2E0DE01919621
:1032E00001900D928A95E1F7C95CDE4F8881998142
:1032F000AA81BB81C753D14089A79AA7ABA7BCA716
:1033000088E0FE01EB5CFE4F3A96DE019D9601904F
:103310000D928A95E1F780E1FE01EB5CFE4F72961B
:10332000DE01D59601900D928A95E1F7C25ADE4FE3
:1033300088819981AA81BB81CE55D14029968CAFD5
:103340009DAFAEAFBFAF2997BE0162537E4FC401A0
:103350000E949E2C81116DC0109268020E94A009EB
:103360008EE891E00E94950B0E94650C90910901F6
:10337000911509F4FFC0C553DE4F8881CB5CD14065
:1033800081FD07C0913009F4F5C08970893009F0DA
:10339000F1C0AE0142535E4FBE0161557E4F81E7E1
:1033A00092E00E944632873109F0E4C040E067E1D4
:1033B000CE0182539E4F0E94B20E811509F4D1C0F6
:1033C00080911702909118020196909318028093B1
:1033D0001702FF24F39480910502811519F18401ED
:1033E000CD53DE4F2881C35CD140AE014B5C5E4FB4
:1033F000BE0161557E4F81E792E00E947633682FCF
:10340000811581F040E0C4010E94B20E811509F4DB
:10341000B3C08091190290911A02019690931A02FA
:10342000809319020F2D2A2D4C2D92C01111DDCE43
:1034300058CCBE0162537E4F81E792E00E94A32FD9
:10344000C350DE4F68817981CD5FD14081E792E042
:103450000E94AF2FC65ADE4F688179818A819B8195
:10346000CA55D1400E94A735AB01BC0181E792E06B
:103470000E94BE2FCE0182539E4F0E948C1143E0CA
:1034800050E06EE271E0C350DE4F88819981CD5FDC
:10349000D1400E947E3644E050E061E371E0CF5FAE
:1034A000DD4F88819981C150D2400E947E3611E063
:1034B000CB51DE4F1883C55ED14041E050E065E35B
:1034C00071E0CE018B519E4F0E947E3610926802B1
:1034D0000E94A009CE54DE4F88819981AA81C25BE7
:1034E000D1408093600290936102A093620243E016
:1034F00050E066E371E080E692E00E947E36109331
:103500000A01109385010E943409DC01CB0180552A
:103510009B4FAF4FBF4F8093810190938201A09347
:103520008301B09384018BE791E00E94950BC35017
:10353000DE4F88819981CD5FD1400E94BC0B0E94F3
:10354000650C89E391E00E94950B00E02A2D4E2D39
:10355000BE0161557E4FCE018B5C9E4F0E94940C44
:10356000C0CB80911D0290911E02019690931E0285
:1035700080931D02F12C2FCF80911D0290911E028D
:10358000019690931E0280931D024CCFE09063023F
:10359000F09064020091650210916602E114F1045A
:1035A0000105110509F4A4CB0E9434096E157F05AD
:1035B0008007910708F49CCB10926302109264027A
:1035C000109265021092660291CB811130C0E0909A
:1035D0007C01F0907D0100917E0110917F01E1144A
:1035E000F1040105110559F40E94340960937C012E
:1035F00070937D0180937E0190937F0184CB8091B5
:103600007B01811180CB0E9434096E197F09800BE8
:10361000910B6F3171058105910508F474CB81E040
:1036200080937B0184EB90E00E94C5096CCB809174
:103630007B018115B9F00E94340900917C01109141
:103640007D0120917E0130917F01601B710B820B07
:10365000930B613D77408105910578F00E9424131A
:103660000E94880A10927B0110927C0110927D01C9
:1036700010927E0110927F0146CB81E0909167020B
:10368000911180E061E00E941314EACF809106025C
:1036900090910702A0910802B091090248175907BA
:1036A0006A077B0708F450CB405C504E6F4F7F4F4A
:1036B0004093060250930702609308027093090238
:1036C0000E94631241CB85E8898380910A0191E0D1
:1036D000980F90930A018A83EFE0F2E0DE011396DF
:1036E00084918D933196C550DE4F88819981CB5F4F
:1036F000D1408A179B07A1F760E1C4010E94A7137C
:1037000084E492E079CB0E94DD138DE292E074CBE9
:10371000109285018DE192E00E94950B0E94880A2B
:1037200077CB1092860180918701898380E88A8314
:103730008091F201811561F043E050E063EF71E0A8
:1037400088E891E00E944636892B11F481E88A834B
:1037500082E08B838091F7019091F801A091F901AB
:103760008C839D83AE838091880190918901A09183
:103770008A018F839887A9871A8640E06AE0C4018E
:103780000E94B20E811509F457CB809117029091D7
:103790001802019690931802809317028091870176
:1037A0008093FC018091880190918901A0918A0108
:1037B0008093FD019093FE01A093FF010E943409C4
:1037C00060930002709301028093020290930302BF
:1037D00081E08093FB0130CB1091E90017701092CB
:1037E000E9008091E80083FF5BC082E991E0FC0181
:1037F00001962091F1002083A1E08A399A07B9F758
:1038000080919201909193019A3008F003C2E92FC0
:10381000F0E0EE55F94C0C942636803871F0823881
:1038200089F5809196018093E9008091EB0085FBFA
:10383000882780F91092E90006C080919001880FD6
:1038400090918F01892B9091E800977F9093E800E9
:103850008093F1001092F1008091E800982F9E7FF4
:103860009093E8008F778093E8008091E80082FFD2
:1038700005C08091E800982F9B7F33C080919A010A
:103880008111F3CF8091E80083FF0AC08091EB00A3
:1038900080628093EB008091E800877F8093E8004E
:1038A0001093E900CDCA81110BC080919401813041
:1038B00049F781E0933009F080E08093900106C0E1
:1038C000823001F780919401811589F01092E9000E
:1038D0008091E800877F8093E8008091E800982F2E
:1038E0009E7F9093E8008F778093E800CBCF809104
:1038F00096018770811531F28093E9002091EB00E9
:1039000020FFE4CF9130B9F49091EB009061909357
:10391000EB0021E030E0F90102C0EE0FFF1F8A95B5
:10392000E2F7E093EA001092EA008091EB008860F1
:103930008093EB00CBCF8091EB008062F9CF8111B7
:10394000A1CF809194019091E800977F9093E80037
:103950009091E800292F2E7F2093E8009F77909385
:10396000E8009091E80090FF0CC0982F9068909329
:10397000E3008F77811509F485CF83E080939A0166
:1039800081CF90919A019111ECCF7CCF80588230F9
:1039900008F078CF80919401909195018C3DF3E0EF
:1039A0009F0709F071C08AE2898383E08A83DE0180
:1039B000139620E03EE041E2E32FF0E04093570011
:1039C000E49120FF03C0E295EF703F5FEF7080E36A
:1039D0008E0F8A3310F087E38E0F90E08D939D93C6
:1039E0002F5F243149F78091E800877F8093E800BA
:1039F00080919801909199018B32910510F08AE2A3
:103A000090E030E0A401009759F4311109C0809191
:103A1000E80082FD2ECF80919A018111F8CF29CF45
:103A20002091E80023FD25CF2091E80022FDEFCF73
:103A300020919A01211509F41CCF2091E80020FF64
:103A4000E2CF009739F02091F2003091F300283056
:103A5000310598F06091F2007091F30031E0683028
:103A6000710509F030E02091E800622F6E7F6093CD
:103A7000E8002F772093E800C6CFFA012191209328
:103A8000F1000197AF01DDCF292F33272230310517
:103A9000D1F12330310549F02130310509F0F2CE62
:103AA000E2EBF2E082E190E012C0FC01FF278330FC
:103AB00008F0E8CEEE0FFF1FEE5EFE4F0190F081A2
:103AC000E02D2491822F90E0211509F4DBCE209186
:103AD000E800277F2093E800209198013091990118
:103AE0008217930708F49C0190E02115310581F4B9
:103AF00091110EC08091E80082FDBBCE80919A01A9
:103B00008111F8CFB6CEE4E7F2E08EE390E0DFCFAC
:103B10008091E80083FDADCE8091E80082FDEACF80
:103B200080919A01811509F4A4CE8091E80080FF6C
:103B3000DCCF2115310531F08091F2009091F30036
:103B4000089798F04091F2005091F30091E04830CE
:103B5000510509F090E08091E800482F4E7F409396
:103B6000E8008F778093E800C0CF84918093F100C4
:103B7000215031093196DDCF803809F083CE809114
:103B8000E800877F8093E800809191018093F100A5
:103B90008091E800982F9E7F9093E8008F77809324
:103BA000E8008091E80082FD64CE80919A01811145
:103BB000F8CF68CE811166CE90919401923008F0D2
:103BC00061CE8091E800877F8093E8009093910117
:103BD0008091E800982F9E7F9093E8008F778093E4
:103BE000E80080919101811599F084E080939A0119
:103BF00042E361E883E00E94290B42E360E884E04D
:103C00000E94290B42E061EC82E00E94290B3ACE2F
:103C100083E0ECCF913209F451C0923209F4A0C094
:103C2000903209F02FCE813209F02CCE8091E8003D
:103C3000877F8093E8008091E80082FF8CC08091AC
:103C4000F10090E0A0E0B0E08093000190930101CA
:103C5000A0930201B09303012091F100922B809375
:103C6000000190930101A0930201B0930301209100
:103C7000F100A22B8093000190930101A093020117
:103C8000B09303012091F100B22B80930001909337
:103C90000101A0930201B09303018091F100809390
:103CA00004018091F100809305018091F1008093DF
:103CB00006018091E800982F9B7F45C0813A09F06A
:103CC000E1CD8091E800877F8093E800809100013A
:103CD0008093F1008091000190910101A091020177
:103CE000B0910301892F9A2FAB2FBB278093F1004E
:103CF0008091000190910101A0910201B091030116
:103D0000CD01AA27BB278093F100809100019091FB
:103D10000101A0910201B09103018B2F9927AA27DD
:103D2000BB278093F100809104018093F100809182
:103D300005018093F100809106018093F10080914C
:103D4000E800982F9E7F9093E8008F778093E8009B
:103D50000E94B20A97CD80919A0181116CCF92CDC9
:103D6000813209F08FCD8091E800877FEFCF1092EC
:103D7000DC011092DB0180919A01843011F00C94E7
:103D80004C168093E9008091E80082FD02C00C94FB
:103D90004C168091F2009091F300892B21F0E09174
:103DA000DB01E03490F08091E800982F9B7F9093A6
:103DB000E8008F778093E8008091DB01811511F492
:103DC0000C944C16E091DC0144C881E08E0F809386
:103DD000DB018091F100F0E0E556FE4F8083D9CF02
:103DE000823731F481E08093FA0110920C0168C8A7
:103DF000883719F41092FA0163C88136D9F4F301B7
:103E00008281811561F043E067EF71E0C3010296A2
:103E10000E94010A833019F481E08093F60185EF56
:103E20009EE00E94950B87EF91E00E94BC0B0E94E0
:103E3000650C46C8873711F512968C918115B9F03B
:103E400043E063EF71E0C30102960E94010A8330F0
:103E500071F48091F3019091F401892B9091F50117
:103E6000892B91E0811101C090E09093F20181EFE4
:103E70009EE00E94950B83EF91E0D7CF813709F048
:103E800055C0F301928180ED890F823030F481E0DA
:103E9000913309F080E0809304028DEE9EE00E9451
:103EA000950B80910402811589F081E30E94640BD7
:103EB00080910402811509F4BACF8091F601811135
:103EC000B6CF8AED9EE00E94950BB1CF80E3EECF96
:103ED00083018035E1F411968C91811539F1833796
:103EE00011F40C945B17823749F481E08093F1015F
:103EF00082ED9EE00E94950B0C9460170F5F1F4FA0
:103F0000883729F41092F1018AEC9EE0F3CF8435D2
:103F100009F46FC6E4F4823409F4B8C654F4811588
:103F200011F40C9460178F3309F460C689E59EE0A4
:103F3000E1CF8334D9F741E0B401C80101960E9472
:103F4000010A813009F4F0C686E69EE0D3CF8835B9
:103F500009F470C6A4F4863509F445C6873531F7EF
:103F600042E0B401C80101960E94010A823021F4A6
:103F700019811F3208F4E8C68EE59EE0BBCF8D366E
:103F8000A9F6F801F180F9E4FF1208C084EC92E090
:103F90000E94950B0E94880A0C946017F11461F03E
:103FA000E1ECEF0DE53308F01BC60E2E000CFF0B05
:103FB000E455F94C0C9426360E94210D0C946017A0
:103FC00061E070E024E4F21611F060E070E081E757
:103FD00092E00E94B92F81E49EE00E94950BD801E7
:103FE00011968C918434A9F58AE39EE00E94950B8A
:103FF0000E94650CF8018181843411F40C946017DF
:10400000CB5CDE4F1882C553D14041E050E065E300
:1040100071E0CE018B5C9E4F0E946E36CB5CDE4F12
:104020008881C553D140813011F40C946017809180
:104030004102811511F40C9460178E010F5F1F4F20
:10404000C8010E940010811107C00E94A30B0C94AC
:10405000601781E39EE0CACFB80181E792E00E9439
:10406000A32FC8010E948C1181E0CB5CDE4F8883B6
:10407000C553D14041E050E065E371E0CE018B5C77
:104080009E4F0E947E3680E1D8011D928A95E9F705
:104090008FE399E02FCF43E0BE016B5C7E4FC801F8
:1040A00002960E94010A833019F083E29EE022CF3B
:1040B000BE016B5C7E4F81E792E00E94AF2F8AE1E8
:1040C0009EE00E94950BCE018B5C9E4FAECEF80118
:1040D0008281883561F4198241E050E065E371E046
:1040E000CE0101960E947E368AED9DE003CF80EAE4
:1040F0009DE000CF44E0BE016B5C7E4FC80102969C
:104100000E94010A843019F084E99DE0F3CECB5C73
:10411000DE4F688179818A819B81C553D1400E949D
:10412000A735AB01BC0181E792E00E94BE2F8DE86C
:104130009DE00E94950B609124037091250380916E
:104140002603909127030E94CA0B71CED8011296C4
:104150008C918E3409F09FC085E79DE00E94950BFD
:104160000E94880A0E945F10811509F478C0CE0170
:1041700001960E94390A811509F469C0FE01319641
:104180009E01255F3F4F85EC9DE9ACE1B1E8AC01B4
:10419000BD0115E0440F551F661F771F1A95D1F713
:1041A0000BE1B695A795979587950A95D1F7842B3E
:1041B000952BA62BB72B41918427E217F30739F7EC
:1041C000AF73BB276C017D018DE292E00E9400106D
:1041D000811509F442C002E412E0A70196016BEEDA
:1041E00070E080E090E00E94053481E391E5CB5CD3
:1041F000DE4F99838883C553D1404CE050E062E0A4
:1042000071E0C8010E947E3640E150E06EE071E04E
:104210008DE292E00E947E3642E050E060E071E084
:10422000CE018B5C9E4F0E947E3681E080934102DE
:10423000CB5CDE4F1882C553D14041E050E065E3CE
:1042400071E0CE018B5C9E4F0E947E3608C0CE018D
:1042500001960E940010811109C00E94A30B809159
:1042600041028111EFC08CEC9AE044CE29818A8111
:1042700090E0A0E0B0E0BA2FA92F982F8827A22BBA
:104280002B81822BAF73BB276C017D018FE599E0F9
:104290000E94950B99CF803521F40E9424130C9431
:1042A00060178B34E1F6C650DE4F1882CA5FD140EA
:1042B00041E050E065E371E0CE0186509E4F0E94E0
:1042C0006E3680914102811539F0C650DE4F8881EB
:1042D000CA5FD140813019F08CEF99E00BCE8AEEA5
:1042E00099E00E94950B0E94880ACE018B5C9E4F3C
:1042F0000E940010811509F4A8CECB5CDE4F8881A6
:10430000C553D140CE50DE4F8883C25FD140CA5CD6
:10431000DE4F8881C653D140CD50DE4F8883C35FC6
:10432000D140C95CDE4F8881C753D140CC50DE4FAD
:104330008883C45FD140C85CDE4F8881C853D140B8
:10434000CB50DE4F8883C55FD1407E0122E3E21A65
:104350002EEFF20AC7010E94E911811103C08DEC12
:1043600099E0C8CD6E013EE8C31A3EEFD30AC601FC
:104370000E949910AE014B515E4FBE016E507E4FB0
:1043800082E492E00E94292CB601CE0101960E949F
:1043900014285E0141E5A41A4EEFB40A00E195012C
:1043A000A701BE016B517E4FCE0101960E94802A6B
:1043B0001E015AE0251A5EEF350A810120E1A701AE
:1043C000BE016B517E4FCE0101960E94D62B80E13B
:1043D000D701E82F1D92EA95E9F7D6011D928A953B
:1043E000E9F781EC99E00E94950B04501109F8015E
:1043F00034967F016101D8018D918D010E94A70B38
:104400000E151F05C1F785017501B0E1EB0EF11C1A
:10441000F80181918F010E94A70B0E151F05C1F7AE
:1044200086017601F4E0EF0EF11CD8018D918D012B
:104430000E94A70BE016F106C1F70E94650C86E901
:1044400099E058CD82EC9AE00E94950B02E412E0CC
:104450004EE4E42E42E0F42EF80181918F010E9497
:10446000A70BE016F106C1F70E94650C9E012B5CBC
:104470003E4F79018E0102531E4F20553F4FAE0132
:104480004E585E4FBE0161557E4F82E492E00E941D
:10449000A1348DEA9AE00E94950BCB51DE4F8881C2
:1044A000C55ED1400E94A70B84EA9AE00E94950B5A
:1044B000C153DE4F8881CF5CD1400E94A70BC2530D
:1044C000DE4F8881CE5CD1400E94A70B87E99AE03D
:1044D0000E94950BCE58DE4F88819981AA81BB81BD
:1044E000C257D140BC01CD0161507F4F8F4F9F4FCC
:1044F0000E94DE0B0E94650C86E89AE00E94950BF4
:10450000CE0101960E94390A811539F10D5C1140E6
:104510003AE2E31A31E0F30AD8018D918D010E944D
:10452000A70B0E151F05C1F70E94650C86E79AE0E0
:104530000E94950B0DE212E03DE3E32E32E0F32EF4
:10454000F80181918F010E94A70BE016F106C1F7D7
:104550000E94650C81E39AE0CDCC8EE79AE00E9440
:10456000950BE2CFD80112968C91803331F461E043
:1045700080E00E9413140C946017813319F461E0F9
:1045800081E0F7CF843539F481E090916702911191
:1045900080E061E0EECF8AE69DE00E94950B80917D
:1045A0006702811509F4F2C081E30E94640B3FCCDD
:1045B00025B038B0ABB0BEB1C150DE4FB883CF5FCD
:1045C000D140E1B3C050DE4FE883C050D24084B147
:1045D00095B18095892B85B987B198B18095892B44
:1045E00088B98AB19BB18095892B8BB98DB19EB169
:1045F0008095892B8EB980B391B38095892B81BB2F
:104600008FE097E20197F1F700C00000B3B0C6B0A9
:10461000D9B00CB11FB18FE59DE00E94950B8B2D99
:104620000E94A70B8BE59DE00E94950B8C2D0E94AC
:10463000A70B87E59DE00E94950B8D2D0E94A70B8F
:1046400083E59DE00E94950B802F0E94A70B8FE4CD
:104650009DE00E94950B812F0E94A70B8EE29DE0AA
:104660000E94950B0E94880A20E9E22EFF24F39411
:104670009FE7A8E3B1E09150A040B040E1F700C04F
:10468000000083B18B110CC086B18C1109C089B1B7
:10469000D81206C08CB1081303C08FB1181789F166
:1046A00083E29DE00E94950B83B18B250E94A70BAE
:1046B0008FE19DE00E94950B86B18C250E94A70B8F
:1046C0008BE19DE00E94950B89B18D250E94A70B7F
:1046D00087E19DE00E94950B8CB180270E94A70B7B
:1046E00083E19DE00E94950B8FB181270E94A70B6B
:1046F0000E94650C0E94880AB3B0C6B0D9B00CB154
:104700001FB1E1E0EE1AF10809F0B2CF25B838B8D0
:10471000ABB8C150DE4FF881CF5FD140FEB9C05079
:10472000DE4F2881C050D24021BB80E09DE0E2CB2B
:10473000D80112961C9181E0103309F480E0809337
:104740000C018AEF9CE00E94950B81E3103309F481
:1047500080E30E94640B8EED9CE0103309F0B3CB34
:104760008AEC9CE0B0CBF801928180ED890F823019
:1047700030F481E0913309F080E0809308018EEB02
:104780009CE00E94950B809108010BCF80E30DCF38
:10479000D80112969C9180ED890F823030F481E02F
:1047A000913309F080E080930B010E94400983EB74
:1047B0009CE00E94950B80910B01811529F181E30A
:1047C0000E94640B8AEA9CE00E94950B60910D01A7
:1047D00070910E0180E090E00E94DE0B8FE20E945B
:1047E000640B64E873E080E090E00E94DE0B83EAF3
:1047F0009CE00E94950B609152037091530380E0FE
:1048000090E00E94DE0B13CB80E3DACFF801E28068
:1048100061E0F0E3EF1201C060E025E4F21219C09C
:1048200060930E028FE99CE00E94950BD8011196CF
:104830008C910E94640B8DE30E94640BF8018181CE
:10484000813541F58091090190E3E92EE80E8E2D26
:10485000ACCE31E5F31207C042E3E41201C062E0DE
:1048600060930901DFCF56E4F51203C0609305029F
:10487000D9CF88E4F81203C06093ED01D3CF9EE452
:10488000F91203C060933003CDCF81E792E00E941C
:10489000C62FC8CFF0E3EF16D1F281E3E82ED7CFD1
:1048A000EFE0F2E086E1DF011D928A95E9F780E909
:1048B0009CE020CB7E01BEE8EB1ABEEFFB0A8FEF37
:1048C000F7018083C4010E94390A5701811103C096
:1048D00084E79CE00FCBCF80D884E984FA84D801A8
:1048E00012968C91811119C0C701B6010E94A7359B
:1048F0007B018C018AE69CE00E94950BB701C80100
:104900000E94CA0B85E59CE00E94950BB701C80187
:104910000E94CA0B88E29CE0EDCA44E0BE016B5CD9
:104920007E4FC80102960E94010A843069F4CB5C74
:10493000DE4F88819981AA81BB81C553D1408C15F6
:104940009D05AE05BF0519F086E09CE0D3CA00E0E6
:1049500011E041E050E0B801C5010E947E360F5FD2
:104960001F4F0038B1E01B07A1F789EC9BE00E94C4
:10497000950B0E94880AF89488E198E00FB6F894A5
:10498000A895809360000FBE90936000FFCFC80190
:104990000296E4E5FE1219C0D80112968C91811599
:1049A00061F00E94ED09D82EF80183810E94ED0983
:1049B000FFEFDF1611F08F3F19F489EB9BE09ACAE5
:1049C000382EC801049613E007C022E5332433943F
:1049D000D12C16E0F212F7CF4DE3BE016B5C7E4F97
:1049E0000E94010A811718F48CEA9BE083CA209088
:1049F0002D0333E0D31203C093E890932D03C82E08
:104A0000C11ACE018B5C9E4F810F911D42E500E0E3
:104A100010E0F41205C08E010B5C1E4F0D5F1F4F9E
:104A2000DE0111965D017C01232D4D2DBE016B5CD5
:104A30007E4F81E792E00E942F33682F20922D0352
:104A40008DE99BE0611509F455CA80910C0181152F
:104A500019F08EE79BE04ECA40E0CE0101960E941D
:104A6000B20E811561F080911B0290911C0201969B
:104A700090931C0280931B0283E79BE03BCA8091CA
:104A80001D0290911E02019690931E0280931D02BA
:104A900087E69BE02FCAF80182818B3479F440E1EC
:104AA0006DED71E0C80103960E94010A803119F092
:104AB0008AE59BE01FCA80E49BE01CCA7801F2E013
:104AC000EF0EF11C40E1BE016B5C7E4FC7010E94FE
:104AD000010A803181F4D80192968C918A3259F47E
:104AE000CE018B5C9E4F40960E94E91181110FC050
:104AF00083E29BE0FFC940E2BE016B5C7E4FC701D1
:104B00000E94010A803219F086E19BE0F3C96E0130
:104B1000BEE8CB1ABEEFDB0A9E012B5C3E4F205F46
:104B20003F4FAE014B5C5E4F445F5F4F76018E019D
:104B30000F5F1F4FBE016B5C7E4F8DED91E00E94B9
:104B40003A2C80E19BE00E94950BE1E6EE1AE1E051
:104B5000FE0AD8018D918D010E94A70BE016F10687
:104B6000C1F780E20E94640B86017601B4E0EB0E8F
:104B7000F11CF80181918F010E94A70B0E151F05F2
:104B8000C1F755C940E1BE016B5C7E4FC80102967A
:104B90000E94010A803119F083E09BE0ABC9BE019D
:104BA0006B5C7E4F685F7F4FAE014F5F5F4FCE0102
:104BB0008B5C9E4F0E948E2C8DEF9AE00E94950B8D
:104BC0008E010F5F1F4F7E01F1E1EF0EF11CD80146
:104BD0008D918D010E94A70BE016F106C1F727C940
:104BE00084EF9AE087C989EB9EE06DC989E89EE071
:104BF00081C9F80181818033D1F482818133B9F494
:104C00008381811109C08091EF010E94A70B8091DF
:104C1000F0010E94A70B0BC942E06FEE71E0C801E2
:104C200003960E94010A823071F70C94601784E8A1
:104C30009EE060C9D80111968C91811581F041E008
:104C4000B401C80101960E94010A813029F48981CA
:104C5000809307010C9460178CE79EE04BC90E947B
:104C60004009809107010E94A70B80E20E94640B1B
:104C700080910B01811529F060910D0170910E0159
:104C8000BECD64E873E080E090E0BBCDF8018181A7
:104C9000803309F046C08281813309F042C08BE441
:104CA0009EE00E94950B0E94880A8FE39CE9019781
:104CB000F1F700C000000E94D60A8091E0008160F8
:104CC0008093E0008091D8008F778093D80019BC42
:104CD0008091D8008F7E8093D8001092EE019FEFD4
:104CE000ADEEB2E09150A040B040E1F700C000004E
:104CF000F8940FB6F894A89580916000886180932D
:104D00006000109260000FBE10926E0010926F0053
:104D100014BE81E085BF82E085BFE0E0F8E309953D
:104D2000FFCF8EE69EE0E6C883E40E94640B198103
:104D3000812F0E94A70B8DE30E94640B812F1033FB
:104D4000B8F00E94650A65CF0A8186E30E94390B9C
:104D5000602F812F0E94730A0E945F0B87E50E94DB
:104D6000640B812F0E94A70B8DE30E94640B812F9F
:104D70000E94570A4ECFF3E8DF1610F00C944C1641
:104D8000F301ED0DF11D8083D3940C944C16111595
:104D900009F45DC00C94F5182AE0C21610F40C94C6
:104DA000F518EFE1CE1698F78091FA01811509F414
:104DB00046C02B2DA2016C2D81E40E946D0C8091C8
:104DC00004028115E1F18091F6018115C1F1D20152
:104DD00011968C91119785FF32C012968C919EEF9F
:104DE000980F923060F1811551F143E050E067EF88
:104DF00071E0C20106960E944636892B01F5F20148
:104E000080818093870183819481A581809388012B
:104E100090938901A0938A010E943409DC01CB019F
:104E20008C599F4FAF4FBF4F80938B0190938C0154
:104E3000A0938D01B0938E0181E0809386011111C2
:104E40000C94F518F2E1CF1610F40C9471168091C1
:104E5000F101811511F40C94711680910E028111EB
:104E60000C9471162E2DA2016C2D80E50E946D0C04
:104E70000C9471163AE0C31608F093CF0C94711697
:104E80001F920F920FB60F9211242F933F934F93BF
:104E90005F936F937F938F939F93AF93BF93EF93A2
:104EA000FF938091DA0080FF10C08091D80080FFCE
:104EB0000CC08091DA008E7F8093DA008091D90057
:104EC00080FF9BC081E080939A018091E10080FF88
:104ED0001CC08091E20080FF18C08091E1008E7FAD
:104EE0008093E1008091E2008E7F8093E2008091C8
:104EF000E20080618093E2008091D800806280931C
:104F0000D80019BC85E080939A018091E10084FF6C
:104F100027C08091E20084FF23C019BC89B582605C
:104F200089BD09B400FEFDCF8091D8008F7D8093AC
:104F3000D8008091E1008F7E8093E1008091E200B3
:104F40008F7E8093E2008091E20081608093E20096
:104F500080919101811509F453C084E080939A01F6
:104F60008091E10083FF38C08091E20083FF34C06C
:104F70008091E100877F8093E10082E080939A0135
:104F8000109291018091E1008E7F8093E1008091E9
:104F9000E2008E7F8093E2008091E2008061809346
:104FA000E2001092F40080E08093E9001092F0009B
:104FB0001092E8009091ED009D7F9093ED0090910C
:104FC000EB009E7F9093EB008F5F873069F742E0A4
:104FD00060E080E00E94290BFF91EF91BF91AF91BB
:104FE0009F918F917F916F915F914F913F912F9101
:104FF0000F900FBE0F901F90189510929A0165CFD9
:1050000083E0ACCFCF93DF93FC01DB019C01205FF9
:105010003F4F81919D91EF0189278A93E217F30712
:10502000C1F7DF91CF910895CF93DF93FB01DC01AE
:10503000CB014096ED0121912993E817F907D9F7A3
:1050400041E030E11C962C911C971D969C911D9778
:105050001E968C911E971F965C911F97632F6F7001
:10506000611120C0E92FF0E0E75DFE4E64916427F6
:10507000E82FF0E0E75DFE4EE4919E2FE52FF0E093
:10508000E75DFE4EE4918E2FE22FF0E0E75DFE4EED
:10509000E4915E2F742F770F2BE147FF20E0472F1D
:1050A0004227262F6C91262750962C9350971196C5
:1050B0002C911197922751969C93519712969C91FF
:1050C0001297892752968C93529713968C91139727
:1050D000852753968C9353973C5F1496303B09F089
:1050E000B1CFDF91CF9108958F929F92AF92BF92EF
:1050F000CF92DF92EF92FF920F931F93CF93DF93A4
:105100008C01EA01FB017A01CB014096DA01219181
:105110002D938E179F07D9F7B801CE010E94022860
:10512000580180E1A80EB11C00561F4F48016E01C6
:10513000A0E1CA0ED11CDE01ED91F0E0E75DFE4E6C
:105140002491CD010197FC012083CA16DB06A1F74B
:1051500089819D81998399859D839D8599878D8777
:105160008A819A859A838A878E819E859E838E877F
:105170008F859B859F879F819B879B819F838B8347
:10518000FE018081418132812381782F7427632F32
:105190006227572F5627972F990F77FF66C07BE11D
:1051A0009727782F752797279083742F7327972F2A
:1051B000990F77FF5CC07BE1972745279427918360
:1051C000962F990F4BE167FF40E0942735279327EF
:1051D00092838227982F990F87FF4BC08BE18927F5
:1051E0002527822783833496CE16DF0651F6B50134
:1051F000CE010E940228F0E1AF0EB11C0A151B057A
:1052000009F099CFD701ED917D01F0E0E75DFE4E09
:10521000E491EE93CE14DF04A9F789819D819983EF
:1052200099859D839D8599878D878A819A859A83A3
:105230008A878E819E859E838E878F859B859F879B
:105240009F819B879B819F838B83B401CE01DF91DC
:10525000CF911F910F91FF90EF90DF90CF90BF9073
:10526000AF909F908F900C94022870E099CF70E0DF
:10527000A3CF80E0B4CFEF92FF920F931F93CF9311
:10528000DF93CDB7DEB760970FB6F894DEBF0FBEE1
:10529000CDBF8B01DB017A0130E04D9150E0321738
:1052A00010F4F7015081BD01615071094527FB01E0
:1052B00040833F5FFFEFEF1AFF0A303171F7AE0115
:1052C0004F5F5F4FB8010E94742880E1FE01319664
:1052D000D80101900D928A95E1F760960FB6F89487
:1052E000DEBF0FBECDBFDF91CF911F910F91FF9019
:1052F000EF9008958F929F92BF92CF92DF92EF929C
:10530000FF920F931F93CF93DF93CDB7DEB76097D4
:105310000FB6F894DEBF0FBECDBFE82EB92EFB014D
:105320004A01F22E680189E089838DE0DE01129640
:1053300001900D928A95E1F71F86288B80E1F80194
:1053400011928A95E9F720E1AE014F5F5F4FB801F6
:105350008E2D0E943B2910E01F1590F060960FB62D
:10536000F894DEBF0FBECDBFDF91CF911F910F919B
:10537000FF90EF90DF90CF90BF909F908F90089517
:105380002F2D211B213108F020E1A401410F511DD7
:10539000B6018E2D9B2D0E943B29105FDDCF4F92D1
:1053A0005F926F927F928F929F92AF92BF92CF92B5
:1053B000DF92EF92FF920F931F93CF93DF93CDB7BE
:1053C000DEB7C055D1090FB6F894DEBF0FBECDBF12
:1053D000D82EE92E3B015A01F22EC12EDE01AF5B21
:1053E000BF4F89E48D938DE0FB0101900D928A956A
:1053F000E1F760961FAE609761961FAE61974E0110
:1054000081E2880E911C10E1D401E12F1D92EA95F2
:10541000E9F720E1AE014F5B5F4FB4018D2D0E9493
:105420003B29FE01F196DF011D921A95E9F7FAAAD0
:105430001F2D2F01BFE0FB1608F01EE0412F50E0AA
:10544000B501CE01C3960E94533620E1A201B401FA
:105450008D2D9E2D0E943B291F1508F442C081E02E
:1054600089838DE0F301DE01129601900D928A95F9
:10547000E1F71F86188AAE014F5E5F4FBE016F5F76
:105480007F4F8D2D9E2D0E947428C401BE016F5E3A
:105490007F4FE02FFC2DAF014C5F5F4FDC012D9162
:1054A000CD01DB013D91BD0123272193E417F507D1
:1054B000A9F7C05BDF4F0FB6F894DEBF0FBECDBFBC
:1054C000DF91CF911F910F91FF90EF90DF90CF90E0
:1054D000BF90AF909F908F907F906F905F904F9014
:1054E00008952F2D211B213108F020E1A501410F46
:1054F000511DB4018D2D9E2D0E943B29105FACCF14
:105500002F923F924F925F926F927F928F929F92D3
:10551000AF92BF92CF92DF92EF92FF920F931F93C1
:10552000CF93DF93CDB7DEB7A0970FB6F894DEBF69
:105530000FBECDBF782E692E562E472E6A01590117
:10554000EE24E394F12C10E022242394CE01019662
:105550004C011017C8F0A0960FB6F894DEBF0FBE2E
:10556000CDBFDF91CF911F910F91FF90EF90DF9012
:10557000CF90BF90AF909F908F907F906F905F90F3
:105580004F903F902F900895302E311A91E13916A7
:1055900010F080E1382E298A8DE0E52DF42DDE0112
:1055A000529601900D928A95E1F79E2D8F2D98A32A
:1055B0008F8FA401BE016F5E7F4F872D962D0E94B5
:1055C00074289601210F311DA501410F511DF401D1
:1055D000D9018D919D0191918927DA018D93AD01BA
:1055E0008E2F88198315A0F3105FBFEFEB1AFB0A0B
:1055F000B0CF5F926F927F928F929F92AF92BF9245
:10560000CF92DF92EF92FF920F931F93CF93DF938E
:10561000CDB7DEB7E0970FB6F894DEBF0FBECDBFB3
:105620006C015B014A01722E502E612E8E010F5DBE
:105630001F4F0E947A2981E0898B8DE0F501DE0100
:10564000529601900D928A95E1F71F8E18A2AE0135
:105650004F5F5F4FBE016F5E7F4FC6010E9474288F
:10566000C801BE016F5F7F4FD701A7014C5F5F4F3D
:10567000FC012191CF01FB013191BF0123272D9323
:10568000A417B507A9F7072D252D362DA401B501BF
:10569000C6010E94802AE0960FB6F894DEBF0FBEC6
:1056A000CDBFDF91CF911F910F91FF90EF90DF90D1
:1056B000CF90BF90AF909F908F907F906F905F90B2
:1056C00008957F928F929F92AF92BF92CF92DF9276
:1056D000EF92FF920F931F93CF93DF93CDB7DEB777
:1056E000E4970FB6F894DEBF0FBECDBF6C015B012F
:1056F000722E4801022F97010E94802A8E010F5DB1
:105700001F4F272DA701B501C6010E947A2981E00C
:10571000898B8DE0F501DE01529601900D928A95FC
:10572000E1F71F8E18A2AE014F5F5F4FBE016F5EA3
:105730007F4FC6010E947428F801005211099E0192
:105740002F5C3F4FBE016B5D7F4FA9018191D80156
:105750009D918D018927DA018D93AD01E617F70739
:10576000A9F7F401A4014C5F5F4F90E0D9018D913E
:105770009D0161918627982B4E175F07B9F781E04D
:10578000911180E0E4960FB6F894DEBF0FBECDBF56
:10579000DF91CF911F910F91FF90EF90DF90CF900D
:1057A000BF90AF909F908F907F900895AF92BF92DF
:1057B000CF92DF92EF92FF920F931F93CF93DF93DD
:1057C000CDB7DEB7E0970FB6F894DEBF0FBECDBF02
:1057D0007C016B0158018E010F5D1F4F0E947A29D9
:1057E00081E0898B8DE0F601DE01529601900D92E9
:1057F0008A95E1F71F8E18A2AE014F5F5F4FBE0181
:105800006F5E7F4FC7010E947428C801BE016F5FA1
:105810007F4FF501A5014C5F5F4FDC012D91CD015C
:10582000DB013D91BD0123272193E417F507A9F77B
:10583000E0960FB6F894DEBF0FBECDBFDF91CF91DB
:105840001F910F91FF90EF90DF90CF90BF90AF909E
:105850000895FC01339689E0DA0101900D928A9552
:10586000E1F7DA01199684E0FB0101900D928A9527
:10587000E1F708957F928F929F92AF92BF92CF925D
:10588000DF92EF92FF920F931F93CF93DF93CDB7E9
:10589000DEB7CD5BD1090FB6F894DEBF0FBECDBF2A
:1058A000782E892ECB01BA016901902EAE014F549A
:1058B0005F4F0E94292C672D782DCE0101960E9402
:1058C000142800E1292D312FA601BE016F547F4F0E
:1058D000CE0101960E94802AE114F10451F0870163
:1058E00020E1A601BE016F547F4FCE0101960E94B8
:1058F000D62BC354DF4F0FB6F894DEBF0FBECDBF1B
:10590000DF91CF911F910F91FF90EF90DF90CF909B
:10591000BF90AF909F908F907F900895FC0188E09A
:10592000DA0101900D928A95E1F7DA01189688E084
:10593000FB0101900D928A95E1F708954F925F92D5
:105940006F927F928F929F92AF92BF92CF92DF928F
:10595000EF92FF920F931F93CF93DF93CDB7DEB7F4
:10596000C15DD1090FB6F894DEBF0FBECDBF6C018B
:105970002B013C0188E2680E711C46019CE0890EF7
:10598000911C5E0181EBA80EB11C96012C5C3F4F6F
:10599000E12CF12C8501A301B601C4010E943A2C2F
:1059A000AE014F535F4FB301C6010E94292CB401D1
:1059B000CE0101967C010E941428035E1F4F20E156
:1059C000A501BE016F537F4FC7010E94D62BF8017E
:1059D000D601AC5BBF4F9601285B3F4F80E09B2C0C
:1059E0008E2CBF2C91914D919427892BA217B30730
:1059F000C9F781112FC0B601645D7F4F482D5B2D23
:105A0000C60180960E948E2CA601445E5F4FE12C59
:105A1000F12C82012A2D392DB601882D9B2D0E9453
:105A20003A2C81E0CF52DF4F0FB6F894DEBF0FBEA5
:105A3000CDBFDF91CF911F910F91FF90EF90DF903D
:105A4000CF90BF90AF909F908F907F906F905F901E
:105A50004F90089580E0E6CF2F923F924F925F9251
:105A60006F927F928F929F92AF92BF92CF92DF926E
:105A7000EF92FF920F931F93CF93DF93CDB7DEB7D3
:105A8000C25DD1090FB6F894DEBF0FBECDBF3B019A
:105A90007A01CF52DF4F2883C15DD040CE52DF4F15
:105AA0003883C25DD040BC01CE0101965C010E94EA
:105AB00014288E010F531F4F80E1D8011D928A9543
:105AC000E9F7C12CD12C3A2C2B2C5E01B1EBAB0E9B
:105AD000B11C5A2C4B2C4801E0E18E0E911CCE14C7
