:100000000C9458080C9475080C9475080C94750899
:100010000C9475080C9475080C9475080C9475086C
:100020000C9475080C9475080C9424240C94750891
:100030000C9475080C9475080C9475080C9475084C
:100040000C9475080C9434120C9475080C94750873
:100050000C9475080C9475080C9475080C9475082C
:100060000C9475080C9475080C9475080C9475081C
:100070000C9475080C9475080C9475080C9475080C
:100080000C9475080C9475080C9475080C947508FC
:100090000C9475080C9475080C9475080C947508EC
:1000A0000C9475080C9475080C9475081003710075
:1000B0002D00630075006C006600770000001603D9
:1000C00062007500730077006100720065002E0009
:1000D000640065000000040309040007010E020625
:1000E000030D04E905CA063D070C084509000A008E
:1000F0000B060C110D210E650F6A10C81193120327
:10010000132214F815341607170F181819161A6C3D
:100110001B431C401D911E8E1F2F2078215622103C
:1001200023E9242A2500261F2741280029592A7F50
:100130002B3F2C812D352E09FF506D204E65747A92
:100140007765726B7363686C75657373656C206734
:10015000657369636865727420E28094206D6974C8
:100160006C6573656E20697374206A65747A742097
:100170006D6F65676C6963680D0A00506D20414EB4
:1001800047454C45524E5420616464723D00506DA9
:1001900020416E6765626F743A20507275656673B0
:1001A000756D6D652066616C736368002072737392
:1001B000693D0020666F723D00504B2066726F6D86
:1001C0003D00207261773D00206C656E3D0020721D
:1001D0007373693D00206E3D00206D61783D002005
:1001E0006D696E3D002066697273743D0050482051
:1001F00066653D00506D20416E6C65726E656E3AAD
:10020000206B65696E6520416E74776F72740004AF
:1002100080000000C80600001606000000506D2097
:10022000616E67656D656C6465740D0A00506D20C4
:100230003E3E204B616E616C7A75737461656E64CD
:10024000650D0A00506D203E3E2053746172746D3E
:10025000656C64756E670D0A00506D203E3E20414E
:100260006E6C65726E626573746165746967756ED4
:10027000670D0A0009023E000201008032090400F5
:1002800000010202010005240010010424020605F9
:1002900024060001070582030800FF09040100028B
:1002A0000A00000007050402400000070583024021
:1002B00000001201100102000008EB036920000297
:1002C0000102DC016D492064657620712D63756C37
:1002D000667720312043554C20616C7320486D496E
:1002E000502D4D41432D4C617965720D0A6D4920A9
:1002F0006469616C65637420506D2D6F7074696FF3
:100300006E616C2042656665686C65206175636826
:10031000206D6974205072616566697820500D0AFD
:100320006D4920737461747573202D205A75737430
:10033000616E6420756E64205A6165686C776572C1
:100340006B650D0A6D4920726F6C6520437C4420FB
:10035000526F6C6C65205A656E7472616C65206FAB
:10036000646572204765726165740D0A6D4920618C
:10037000646472203668657820656967656E6520FB
:1003800046756E6B616472657373650D0A6D492005
:1003900073657120386865782053657175656E7A6C
:1003A0007A6165686C6572207365747A656E0D0A92
:1003B0006D4920656E61626C6520307C31204D4155
:1003C000432D4C6179657220617573206F6465728D
:1003D0002065696E0D0A6D49206175746F61636BEC
:1003E00020307C31205175697474756E67656E209C
:1003F00073656C6273742073656E64656E0D0A6D4F
:10040000492070696767796261636B20307C3120B5
:1004100070696767796261636B41434B2D42697410
:10042000206B75656E6674696765722053656E64CE
:10043000756E67656E0D0A6D4920726F7574657211
:1004400020307C3120447572636867616E67737613
:1004500065726B656872207765697465727265692B
:100460006368656E2028526F757465722D526F6CCB
:100470006C65290D0A6D49206C697374656E2030B6
:100480007C31204E75722D4C6573656E2D526965F9
:1004900067656C3B203120737065727274206A65E9
:1004A0006465732053656E64656E2028566F7267AD
:1004B000616265290D0A6D49207461737465206B52
:1004C00075727A7C6C616E67206B75727A207363CB
:1004D00068616C746574206461732052656C616935
:1004E000732C206C616E67206C65726E7420616E77
:1004F0000D0A6D492072656C61697320307C317C16
:10050000542052656C61697320616266726167652F
:100510006E2C207365747A656E2C20756D7363681C
:10052000616C74656E0D0A6D49206C657563687445
:1005300065202D207A656967742064617320526597
:100540006C6169733B2046756E6B7665726B65688E
:1005500072206B6568727420736965206B75727A9E
:1005600020756D0D0A6D49206964656E74202D201B
:100570004B656E6E6E756D6D657220756E64204193
:1005800075666B6C656265727363686C75657373B1
:10059000656C207A656967656E0D0A6D492069642E
:1005A000656E746E6577204E206E657565204B65AF
:1005B0006E6E756E67207775657266656C6E2075F8
:1005C0006E64207369636865726E0D0A6D49206EF2
:1005D000776B6578706F7274204B204E65747A77F4
:1005E00065726B7363686C75657373656C2C2076CC
:1005F00065727363686C75657373656C7420676589
:1006000067656E2064656E204175666B6C6562651A
:10061000720D0A6D492061736B73696E2041727CA3
:10062000417820726F686520426964436F532D4D95
:10063000656C64756E672065696E206F64657220F5
:100640006175730D0A6D4920686D6970726177205C
:1006500050727C507820726F686520486D49502D2B
:100660004D656C64756E672065696E206F64657298
:10067000206175730D0A6D492073656E64204173A6
:100680007C50732B686578204672616D65207365B8
:100690006E64656E0D0A6D49206E65747A686175C9
:1006A0007368616C74204E307C4E312052756E64DC
:1006B0007275662D4E61636862617273636861660C
:1006C00074207175697474696572656E0D0A6D497F
:1006D000207265736574202D205A6165686C77659A
:1006E000726B65207A75727565636B7365747A6574
:1006F0006E0D0A6D492075727A757374616E64208F
:1007000056207A6569677420646965204D61726B53
:10071000652C206D562B4D61726B65206C6F657377
:1007200063687420414C4C455320696D20537469B3
:10073000636B0D0A6D492073656E642036686578B9
:100740002B68657820416E77656E64756E6773649B
:100750006174656E207665727363686C756573731A
:10076000656C742073656E64656E0D0A6D49207347
:10077000656E6472617720316865782B31686578C1
:100780002B366865782B6865782062656C696562D0
:1007900069676572204672616D650D0A6D49207347
:1007A000656E6476696120366865782B3668657891
:1007B0002B686578206765726F7574657420736542
:1007C0006E64656E0D0A6D4920626F6F746C6F61A7
:1007D0006465722042303120696E2064656E20426B
:1007E0006F6F746C6164657220737072696E676597
:1007F0006E0D0A6D49206576656E7420504D204659
:1008000072616D6520656D7066616E67656E2075DD
:100810006E6420656E747363686C75657373656C64
:10082000740D0A6D49202E0D0A00207478657272CD
:100830003D002074783D00206677643D00206B36D3
:1008400072783D00206B3674783D002061636B73D5
:100850003D00206475703D00206D69633D00206F90
:100860006B3D00506D2072783D00206C6F76663DC8
:1008700000206372656469743D00506D2062756488
:100880006765743D002072656C6169733D00206E80
:1008900075726C6573656E3D0020726F757465725C
:1008A0003D002069636D7061636B3D002061636B87
:1008B0003D0020736E3D00206B65793D0020616432
:1008C00064723D005A656E7472616C6500476572B2
:1008D0006165740020726F6C6C653D00617573001A
:1008E00065696E00506D2000506D204E65747A77FA
:1008F00065726B7363686C75657373656C20657284
:100900007A657567740D0A00506D206B65696E65B8
:10091000205765726B736B656E6E756E6720E28033
:1009200094206C617566656E6465204E756D6D65AD
:10093000722067657775657266656C740D0A005084
:100940006D206175737061636B656E206D697420D5
:1009500064656D204175666B6C6562657273636872
:100960006C75657373656C0D0A00506D206E776B46
:100970002E656E633D00506D206B65696E204E657F
:10098000747A7765726B7363686C75657373656C85
:100990000D0A00506D207061636B652065696E2ED5
:1009A0002E2E0D0A00506D206B65696E204E657409
:1009B0007A7765726B7363686C75657373656C20A9
:1009C000E28094206572737420616E6C65726E654E
:1009D0006E20286D4750290D0A00506D2062656910
:1009E000646520576572746520696E2064657220A5
:1009F000454947454E454E205A656E7472616C6597
:100A00002065696E74726167656E20284765726142
:100A1000657420616E6C65726E656E290D0A0050FA
:100A20006D206B65793D00286B65696E6529005006
:100A30006D207765726B736B656E6E756E673D00CA
:100A400020676572616574656172743D00206E6532
:100A5000686D65723D00506D206865726B756E66DD
:100A6000742066617373756E673D00506D20736707
:100A700074696E3D00506D206B65696E65204B6535
:100A80006E6E756E6720E28094206D474E20657211
:100A90007A657567742065696E650D0A00506D2072
:100AA0004552520D0A00506D20792000506D2045AE
:100AB0005252206172670D0A00506D20772000505D
:100AC0006D20455252206172670D0A00506D206BF7
:100AD00065696E204E65747A7765726B7363686CB6
:100AE00075657373656C0D0A00506D207720736314
:100AF000686C75657373656C2067657365747A746B
:100B00000D0A00506D20455252206B65790D0A0088
:100B1000506D204552522074780D0A00506D20749B
:100B200078206F6B0D0A00506D204E55522D4C45AC
:100B300053454E20286D4C302067696274206672E0
:100B40006569290D0A00506D204552522062617579
:100B5000656E0D0A00506D20455252206473740D6D
:100B60000A00506D204552522063742F7365630D47
:100B70000A00506D2055727A757374616E6420E2BC
:100B80008094204B656E6E756E672C205363686C85
:100B900075657373656C20756E64205A6165686C49
:100BA00065722067656C6F65736368740D0A005029
:100BB0006D20455252206D61726B6520E280942059
:100BC00065727374206D562066726167656E0D0ADA
:100BD000002028414C4C4553207765673A204B65EF
:100BE0006E6E756E672C205363686C7565737365E4
:100BF0006C2C205A6165686C6572290D0A0020E230
:100C00008094206C6F65736368656E206D697420D5
:100C10006D5600506D206D61726B653D00506D200A
:100C2000455252206B65696E652053657269656E29
:100C30006E756D6D65720D0A00506D207A61656884
:100C40006C65723D300D0A00506D2000206C6F768F
:100C5000663D00206372656469743D00506D2062DA
:100C600075646765743D002053454E44454E2046EB
:100C70005245494745474542454E00206E75722012
:100C80006C6573656E2C2053656E64656E206765B8
:100C900073706572727400506D204C3D00506D2071
:100CA0005375636865206265656E6465740D0A003E
:100CB00020463D0020453D0020443D0020433D00AE
:100CC000506D2041454E4420423D0020202D2D20D6
:100CD00032302073205A6569742C206A65747A74E6
:100CE0002064727565636B656E0D0A0020463D00D9
:100CF00020453D0020443D0020433D00506D2072C2
:100D000075686520423D00506D2072656C616973A5
:100D10003D00506D2065727A65756765204B656E84
:100D20006E756E672E2E2E0D0A00506D20736E3D6F
:100D300000506D2045525220736E0D0A00506D20F8
:100D40006B65792077697264206E696368742076B8
:100D50006F6E2061757373656E2067657365747A55
:100D60007420E2809420416E6C65726E656E20285E
:100D70006D4750290D0A00506D204E65747A7765D5
:100D8000726B7363686C75657373656C20766572DE
:100D9000776F7266656E20E2809420616C6C6520CE
:100DA00047657261657465206E657520616E6C655E
:100DB000726E656E0D0A00506D20616464723D00B4
:100DC000506D2045525220616464720D0A005A65CC
:100DD0006E7472616C650047657261657400506D78
:100DE00020726F6C6C653D004220626F6F746C61A5
:100DF0006465720D0A003F200D0A005720455252CB
:100E00000D0A0043204552520D0A0042204552521D
:100E10002028423031290D0A00712D63756C6677E8
:100E200020322E302E3239005078206F6B0D0A00A0
:100E30005072206F6B0D0A004178206F6B0D0A0015
:100E40004172206F6B0D0A00712D63756C667720FF
:100E5000322E302E3239005073204552520D0A0086
:100E60004E55522D4C4553454E20286D4C30206731
:100E70006962742066726569290D0A004C454E4509
:100E800052520D0A0020613D310020663D00206174
:100E9000723D002061636B3D00207669613D00205A
:100EA000736E3D002063743D00207365633D002038
:100EB0006473743D00207372633D00504D00506DAB
:100EC00020416E6C65726E656E206C61657566742E
:100ED00020E28094204B656E6E756E67206D757391
:100EE0007320696E20646572205A656E7472616C3D
:100EF000652073746568656E0D0A00506D204E554F
:100F0000522D4C4553454E20286D4C302067696268
:100F1000742066726569290D0A00506D206B656941
:100F20006E65204B656E6E756E6720E2809420655D
:100F3000727374206D474E0D0A0003AF8BB08DFBAA
:100F4000C84765081961DC9433D203AF8BB08DFBC1
:100F5000C84765081961DC9433D2506D205A756614
:100F6000616C6C737175656C6C6520746F7420E2D4
:100F700080942046756E6B63686970207072756529
:100F800066656E20286D5A292C206E69636874731B
:100F90002065727A657567740D0A00506D20726560
:100FA0006C6169733D00506D204C4F56460D0A0030
:100FB000637C777BF26B6FC53001672BFED7AB7616
:100FC000CA82C97DFA5947F0ADD4A2AF9CA472C0C1
:100FD000B7FD9326363FF7CC34A5E5F171D831152E
:100FE00004C723C31896059A071280E2EB27B2754F
:100FF00009832C1A1B6E5AA0523BD6B329E32F84C7
:1010000053D100ED20FCB15B6ACBBE394A4C58CFBE
:10101000D0EFAAFB434D338545F9027F503C9FA892
:1010200051A3408F929D38F5BCB6DA2110FFF3D260
:10103000CD0C13EC5F974417C4A77E3D645D197314
:1010400060814FDC222A908846EEB814DE5E0BDB0E
:10105000E0323A0A4906245CC2D3AC629195E47945
:10106000E7C8376D8DD54EA96C56F4EA657AAE089F
:10107000BA78252E1CA6B4C6E8DD741F4BBD8B8A3A
:10108000703EB5664803F60E613557B986C11D9EA0
:10109000E1F8981169D98E949B1E87E9CE5528DF17
:1010A0008CA1890DBFE6426841992D0FB054BB1643
:1010B00011241FBECFEFDAE0DEBFCDBF11E0A0E00C
:1010C000B1E0EAE8F7E602C005900D92A233B1075D
:1010D000D9F723E0A2E3B1E001C01D92A733B20724
:1010E000E1F70E9457120C9484330C9400002FB740
:1010F000F894609148027091490280914A0290915F
:101100004B022FBF08954F925F926F927F928F9202
:101110009F92AF92BF92CF92DF92EF92FF920E9486
:1011200077084090330350903403609035037090FB
:1011300036036B017C01C418D508E608F70828EED1
:10114000C21623E0D206E104F10480F1C701B60122
:1011500028EE33E040E050E00E94E832A8EEB3E031
:101160000E941033460E571E681E791E40923303AC
:1011700050923403609235037092360380EAC816A9
:101180008BEBD8068DE0E806F10450F480910B015A
:1011900090910C01820F931F843823E0920710F086
:1011A00084E893E090930C0180930B01FF90EF9003
:1011B000DF90CF90BF90AF909F908F907F906F9077
:1011C0005F904F90089580914702811561F00E94D1
:1011D000770828E730E040E050E00E94E83220FF46
:1011E00012C0769A08958091460240914202509131
:1011F00043026091440270914502452B462B472BD8
:1012000021F0811571F3769808958115E1F3E9CF06
:101210000F931F93CF93DF93EC010E947708DC01BB
:10122000CB018C0F9D1FA11DB11D00914202109199
:1012300043022091440230914502081719072A07FA
:101240003B0740F48093420290934302A0934402F0
:10125000B0934502DF91CF911F910F910C94E30859
:1012600090ED980F9A3010F4892F08959FE9980F08
:10127000963010F4875508959FEB980F963010F430
:10128000875308958FEF0895CF92DF92EF92FF92E8
:101290000F931F93CF93DF937B01D42F8C01C12C2D
:1012A000D12CC0E0F80181918F01811511F0CD178B
:1012B00050F08C2FDF91CF911F910F91FF90EF9005
:1012C000DF90CF900895803269F38A3359F30E94FA
:1012D00030098F3F71F3D11441F0F701EC0FF11D8C
:1012E0008C298083CF5FD12CDDCFC82EC29480EFB4
:1012F000C822DD24D394D6CFDC01EEE0F0E080E01C
:1013000031E23093570094919D93915021E09E3F9C
:1013100008F020E0822B3196E831F10591F708952D
:101320008EBD0DB407FEFDCF8EB5089528981B998C
:10133000FECF0895CF93C82F0E9496098C2F806806
:101340000E94900980E00E949009289ACF91089508
:10135000CF93C82F0E9496098C2F806C0E94900911
:1013600080E00E949009289ACF910895CF93DF934F
:10137000D82FC62F0E9496098D2F0E9490098C2F7E
:101380000E949009289ADF91CF91089585E30E94E9
:10139000A8098F71089580917201811531F08091B3
:1013A0008F01843019F010927201089583E08093C8
:1013B000E9008091E80080FFF8CF80E09091720111
:1013C000891750F08091E800982F9E7F9093E80055
:1013D0008F778093E800E7CFE82FF0E0EE5CFE4FD8
:1013E00090819093F1008F5FE9CF8091870187FF13
:1013F00017C08091E80082FF0AC08091E800982F12
:101400009B7F9093E8008F778093E8000895809108
:101410008F018111EECF089580918F018115D9F34D
:101420008091E80080FFF8CF8091E800982F9E7FA0
:10143000E8CF8091D8008E7F8093D8001092E20090
:101440001092DA001092E10010928F011092860142
:1014500010928501109284018AE482BF19BC89B57B
:10146000826089BD09B400FEFDCF8091D800982F1D
:101470009F779093D80080688093D8008091D700A0
:1014800081608093D7008091D8008F7D8093D800B1
:101490008091E0008B7F8093E0008091E0008E7F60
:1014A0008093E0008091E1008E7F8093E100809145
:1014B000E20081608093E2008091E100877F809369
:1014C000E1008091E20088608093E2008091D80082
:1014D00081608093D80008958093E900EBEEF0E0FE
:1014E000808181608083EDEEF0E010826093EC00FB
:1014F00040838091EE000895CF93C82F0E949609F3
:101500008C2F0E949009289ACF910895CF9386E35B
:101510000E947C0AC4E60E94C609982F9F7E9130E3
:1015200051F0863141F087EC90E00197F1F700C06F
:101530000000CA9581F78BE30E947C0A8AE3CF9171
:101540000C947C0A0E94860A84E30C947C0A0F9314
:101550001F93CF93C82F01ED17E0E0917201E034A3
:1015600078F481E08E0F80937201F0E0EE5CFE4F24
:10157000C0838034C9F4CF911F910F910C94CB0993
:101580000E94CB09E0917201E03458F380918F0101
:10159000843041F40150104039F08AE18A95F1F726
:1015A00000C0DBCFE0E0DDCFCF911F910F91089518
:1015B000CF93DF93EC01FE0184912196811103C04A
:1015C000DF91CF9108950E94A70AF5CF8AE59FE0A9
:1015D0000C94D80ACF93C82F82958F70C03A58F4D4
:1015E000805D0E94A70A8C2F8F708A3030F4805D56
:1015F000CF910C94A70A895CF4CF895CF9CFCF9383
:10160000DF93EC0188810E94EA0A89810E94EA0A3C
:101610008A81DF91CF910C94EA0A1F93CF93DF93D5
:10162000EB01182F892F0E94EA0A812F0E94EA0AF3
:101630008D2F0E94EA0A8C2FDF91CF911F910C947D
:10164000EA0A4F925F926F927F928F929F92AF922F
:10165000BF92CF92DF92EF92FF921F93CF93DF93CF
:10166000CDB7DEB72B970FB6F894DEBF0FBECDBF58
:101670006B017C01C114D104E104F104C1F480E3E5
:101680002B960FB6F894DEBF0FBECDBFDF91CF9182
:101690001F91FF90EF90DF90CF90BF90AF909F9001
:1016A0008F907F906F905F904F900C94A70ACE011F
:1016B00001965C0110E04C018AE0482E512C612C0F
:1016C000712CC701B601A30192010E94E8321F5F8D
:1016D000605DF50161935F01D701C60169017A017F
:1016E0000A97A105B10510F01B3059F71150F4010C
:1016F000E10FF11D80810E94A70A1111F7CF2B96EF
:101700000FB6F894DEBF0FBECDBFDF91CF911F9112
:10171000FF90EF90DF90CF90BF90AF909F908F9011
:101720007F906F905F904F900895CF93DF93EC017F
:1017300097FF06C08DE20E94A70AD195C195D109F5
:10174000BE01DD0F880B990BDF91CF910C94210B1B
:101750008DE00E94A70A8AE00E94A70A0C94CB0998
:10176000EF92FF920F931F93CF93DF93C62FE42E38
:10177000D52FF22E0E94A70A8C2F0E94EA0A0E2D66
:101780001D2FC00FD12FD11DF80181918F010E9413
:10179000EA0A0C171D07C1F78F2D0E94EA0ADF9194
:1017A000CF911F910F91FF90EF900C94A80BCF92C7
:1017B000DF92EF92FF920F931F93CF93DF936C0111
:1017C000EB01E42EF22E8BEB9EE00E94D80A8C896E
:1017D0000E94EA0A10E08C89181708F46DC08E2D5B
:1017E0000E94EA0A8F2D0E94EA0A85EB9EE00E9481
:1017F000D80ACE0103960E94FF0A8FEA9EE00E945B
:10180000D80ACE0106960E94FF0A89EA9EE00E944D
:10181000D80A6E8970E080E090E00E94210B84EA93
:101820009EE00E94D80A6F8970E080E090E00E94FC
:10183000210B8FE99EE00E94D80A6C857D858E85FC
:101840009F850E940D0B8C8D85FF08C089E99EE065
:101850000E94D80ACE0109960E94FF0A8C8D82FF51
:1018600014C083E99EE00E94D80A688979898A8930
:101870009B890E940D0B8EE89EE00E94D80A6A8D1B
:1018800070E080E090E00E94210B8AE89EE00E94D8
:10189000D80A8C8D0E94EA0A011521F085E89EE0A5
:1018A0000E94D80ADF91CF911F910F91FF90EF9086
:1018B000DF90CF900C94A80BF601E10FF11D808111
:1018C0000E94EA0A1F5F87CFEF92FF920F931F9348
:1018D000CF93DF9300D000D0CDB7DEB77B018C0172
:1018E0000E948B3269837A838B839C8320913E0292
:1018F00084E0289F90011124B901605C7E4F44E090
:1019000050E0CE0101960E94623320913E0230E009
:101910002F5F3F4F2770332720933E02E0924C0207
:10192000F0924D0200934E0210934F020F900F90D1
:101930000F900F90DF91CF911F910F91FF90EF903B
:101940000895CF92DF92EF92FF920F931F93CF9360
:10195000DF93CDB7DEB7EF970FB6F894DEBF0FBEBB
:10196000CDBF7C01162F00910A01011126C0809184
:1019700009018115C9F10E94830828E0129FC00166
:10198000112485549F4F64E670E00E94D432209168
:101990000B0130910C012617370700F580913103B8
:1019A000909132030196909332038093310386EA3B
:1019B0009FE00E94D80A0E94CB0900E0802FEF969A
:1019C0000FB6F894DEBF0FBECDBFDF91CF911F9150
:1019D0000F91FF90EF90DF90CF900895261B370B6B
:1019E00030930C0120930B018FEF810F8D3308F0A2
:1019F00087C01983412F50E0B701CE0102960E94A3
:101A000037332B818A8196E789278A8392E0AE015A
:101A10004F5F5F4F7A01F701E90FF11D3081498176
:101A2000941708F445C0822F832780830E94860A7A
:101A30000E9496098FE70E9490096701F601819143
:101A40006F010E9490098C2D8E191817B8F7289AEB
:101A500085E30E947C0AE12CF12C9CE2C92EDD2456
:101A6000D3940E94C609833141F59AE0910F80E03A
:101A7000EFECF7E03197F1F700C000008F5F8917B6
:101A8000B8F384EFE82EFF24F3948AE30E94A809B8
:101A90008F7781112CC00E94C6098D3019F084E324
:101AA0000E947C0A84EB90E00E940809012F28C064
:101AB0008452832780839F5FAECF87EC90E00197AD
:101AC000F1F700C00000C701B6010E94D4328B328A
:101AD000914019F485E30E947C0AFFEFEF1AFF0A98
:101AE00028EBE2162BE0F20609F0BBCFBECF0E9436
:101AF000C609863161F50E94860A84E30E947C0A49
:101B00006091030370910403809105039091060393
:101B1000C0904C02D0904D02E0904E02F0904F02E7
:101B20006C157D058E059F0578F09B01AC012C1985
:101B30003D094E095F0969017A01C11434E0D306F9
:101B4000E104F10408F43ACF0E94640C37CF8FEC23
:101B500097E00197F1F700C0000091E0E91AF10861
:101B600009F093CFC8CFCF93DF93CDB7DEB7EE9711
:101B70000FB6F894DEBF0FBECDBF4EE3BE016F5F60
:101B80007F4F0E944409823020F06981815068179C
:101B900029F08CE79EE00E94D80A16C080910A01C5
:101BA000811519F080E69EE0F6CFCE0102960E94E4
:101BB000A10C811591F08091FC019091FD0101969D
:101BC0009093FD018093FC01EE960FB6F894DEBF72
:101BD0000FBECDBFDF91CF9108958091FE0190910E
:101BE000FF0101969093FF018093FE0187E59EE03F
:101BF000D2CF8F929F92AF92BF92CF92DF92EF920D
:101C0000FF920F931F93CF93DF93CDB7DEB7C054EE
:101C1000D1090FB6F894DEBF0FBECDBF6C01CE0167
:101C200001967C015E0191E4A90EB11C470108E018
:101C300010E084E30E94A809110F8170182BEFEEC9
:101C4000F0E03197F1F700C000000A9591F780911C
:101C50008400909185001827F70111937F01EA1500
:101C6000FB0529F760E470E0C4010E94F22A892B89
:101C700051F4A60160E470E0C4010E94B42A01E0BE
:101C8000892B09F000E0802FC05CDF4F0FB6F8947D
:101C9000DEBF0FBECDBFDF91CF911F910F91FF909F
:101CA000EF90DF90CF90BF90AF909F908F9008956E
:101CB0000F931F93CF93DF930F92CDB7DEB701E061
:101CC000098380913D0281112BC08DE292E00E9438
:101CD000F90D182F811109C00E94E60A812F0F907B
:101CE000DF91CF911F910F91089540E150E060E6A0
:101CF00071E08DE292E00E94623341E050E060E7E3
:101D000071E0CE0101960E94623300933D02198278
:101D100041E050E065E371E0CE0101960E9462333C
:101D200011E0DCCF4F925F926F927F928F929F92E1
:101D3000AF92BF92CF92DF92EF92FF920F931F93D9
:101D4000CF93DF93CDB7DEB7C05DD1090FB6F8945E
:101D5000DEBF0FBECDBF3C01CE018F549F4F20E1AF
:101D6000EDE2F2E0DC0101900D922A95E1F700E04E
:101D700010E07C019CE0A92EB12CA80183E05695CF
:101D800047958A95E1F747019E012F533F4FC12C9C
:101D9000D12C2901C8018C0D9D1DFC01EF70FF277E
:101DA000E65BF04FE491D401FD914D01B5010E9435
:101DB000D432DC01AF5DBD4FE427EF278C918E2735
:101DC000F90181939F01FFEFCF1ADF0A80E1C81666
:101DD000D10401F7B701CE0101960E94F824A701B2
:101DE000B201CE0101960E9458250F5F1F4F0532A8
:101DF000A1E01A0711F680E1F701D30101900D92DD
:101E00008A95E1F7C053DF4F0FB6F894DEBF0FBEDF
:101E1000CDBFDF91CF911F910F91FF90EF90DF9099
:101E2000CF90BF90AF909F908F907F906F905F907A
:101E30004F900895EF92FF920F931F93CF93DF93EC
:101E4000CDB7DEB7C05ED1090FB6F894DEBF0FBEC6
:101E5000CDBF8C01EAE3FFE0DE01AF54BF4FCD01FF
:101E60004096AD0124912D933196A817B907D1F76B
:101E7000DE01AF53BF4F27E030E07D0189EF820FD5
:101E80006CE00E94C832E92FF0E0EF5DFD4FB90130
:101E90006F707727640F751F8081FB019081892700
:101EA0008D932F5F3F4F2731310541F7BA01CE01A6
:101EB00001960E94F824AE014F525F4FB701CE0148
:101EC00001960E945825F801BE016F527F4F98017C
:101ED000205F3F4F8191DB019D91BD01AF014150DA
:101EE00051098927DA018C93E217F30799F7C05259
:101EF000DF4F0FB6F894DEBF0FBECDBFDF91CF919D
:101F00001F910F91FF90EF900895CF92DF92FF9273
:101F10000F931F93CF93DF93CDB7DEB7C15ED10987
:101F20000FB6F894DEBF0FBECDBFF82E192F6E018D
:101F30008EEDC80ED11C84E0F60111928A95E9F766
:101F40000E94580E811579F1CE018F549F4F0E9447
:101F5000920EAE014F525F4FB60181E292E00E94B5
:101F60000D29BE016F547F4FCE0101960E94F824C7
:101F700000E19E012F533F4F4F2D512FBE016F5255
:101F80007F4FCE0101960E946427CE018F539F4F51
:101F90000E941A0F40E150E06EE171E0CE018F53D4
:101FA0009F4F0E946233CF51DF4F0FB6F894DEBFD0
:101FB0000FBECDBFDF91CF911F910F91FF90DF90AA
:101FC000CF900895CF92DF92EF92FF920F931F93DD
:101FD000CF93DF93CDB7DEB7C25ED1090FB6F894C9
:101FE000DEBF0FBECDBF7C01CE51DF4F1882C25E77
:101FF000D0406E018EEDC80ED11C84E0F601119226
:102000008A95E9F741E050E065E371E0CE018E5139
:102010009F4F0E945233109120021115D1F110915F
:102020003D021115B1F1CE51DF4F1881C25ED04093
:10203000113009F03FC040E150E06EE171E0CE01A7
:102040008F539F4F0E945233CE018F539F4F0E9458
:102050001A0FCE018F549F4F0E94920EAE014F5225
:102060005F4FB60181E292E00E940D29BE016F54DC
:102070007F4FCE0101960E94F82400E19701AE0146
:102080004F535F4FBE016F527F4FCE0101960E94AA
:102090006427812FCE51DF4F0FB6F894DEBF0FBEFD
:1020A000CDBFDF91CF911F910F91FF90EF90DF9007
:1020B000CF90089510E0EDCFAF92BF92CF92DF9214
:1020C000EF92FF920F931F93CF93DF93CDB7DEB7BD
:1020D000C453D1400FB6F894DEBF0FBECDBF7E0112
:1020E0008EECE81A8EEFF80A80910D0190910E01A6
:1020F000A0910F01F70180839183A2836E01F1EF1C
:10210000CF0ED11CD60180E18D938CE0E1E2F2E0AC
:1021100001900D928A95E1F7F601158681E0868798
:102120001786108A818B8AEE828B82E0838B98E1FE
:10213000948B858B80E4868B83E0878B80911C0257
:1021400090911D02A0911E02B0911F02808F918F6D
:10215000A28FB38FAE014F5D5E4F6CE172E081E202
:1021600092E00E940D296CE072E0CE0101960E947F
:10217000F8248E01025D1E4F2CE1A601BE016F5DA9
:102180007E4FCE0101960E94B326C25DDE4F88814C
:10219000CE52D140F601848FC15DDE4F8881CF528F
:1021A000D140858FC05DDE4F8881C053D140868F7E
:1021B000CF5CDE4F8881C153D140878FE4E0F2E0ED
:1021C000D60190968CE092E0B701760121912D9393
:1021D0008E179F07D9F7CE018F549F4F5C0188E27D
:1021E000C82E00E010E020E041E080E592E00E948F
:1021F0001330682F811571F0C5010E94A10C811563
:1022000049F08091FC019091FD0101969093FD01B0
:102210008093FC01CC5CDE4F0FB6F894DEBF0FBE9E
:10222000CDBFDF91CF911F910F91FF90EF90DF9085
:10223000CF90BF90AF900895CF93DF93CDB7DEB727
:1022400060970FB6F894DEBF0FBECDBF809120021D
:1022500081110CC08AE19FE060960FB6F894DEBF52
:102260000FBECDBFDF91CF910C94D80A80910A01A7
:10227000811519F08BEF9EE0EFCFCE0101960E9401
:10228000F90D811591F0898180931C028A818093D8
:102290001D028B8180931E028C8180931F02CE01D0
:1022A00001960E94F90D81110BC00E94E60A60960A
:1022B0000FB6F894DEBF0FBECDBFDF91CF9108956A
:1022C00088E0FE013196A4E0B2E001900D928A957B
:1022D000E1F721E030E04AE252E060E070E080E5C2
:1022E00092E00E944A2C81E08093EF0180934702A4
:1022F0000E947708DC01CB01805A9541AF4FBF4F58
:102300008093EB019093EC01A093ED01B093EE016B
:102310000E947708DC01CB01805C904EAF4FBF4F2D
:102320008093E7019093E801A093E901B093EA015B
:102330008EEB9EE00E94D80A0E945C10B8CF0F93EB
:102340001F93CF93DF93CDB7DEB7C054D1090FB63B
:10235000F894DEBF0FBECDBFAC01262F8E010F5FFC
:102360001F4F6FE372E080E592E00E94D130682F4A
:10237000811571F0C8010E94A10C811549F080916E
:10238000FC019091FD0101969093FD018093FC0169
:10239000C05CDF4F0FB6F894DEBF0FBECDBFDF913C
:1023A000CF911F910F910895CF93DF93CDB7DEB7F3
:1023B00060970FB6F894DEBF0FBECDBF85E8898366
:1023C0008091080191E0980F909308018A8382E040
:1023D0008B8390E89C8398E09D838E831F8283E0AB
:1023E000888780914602811188EC898784E08A87FA
:1023F0001B8685E08C871D866DE0CE0101960E94CC
:102400009F1160960FB6F894DEBF0FBECDBFDF916F
:10241000CF910895CF93C62F809346020E94E30880
:102420008BE99FE00E94D80A809146028115C1F095
:1024300081E30E94A70A0E94A80BC11599F0809120
:102440000E03811579F080913F0290914002892B13
:1024500090914102892B811529F0CF910C94D411D0
:1024600080E3E7CFCF9108951F921FB61F921124EA
:102470008F939F93AF93BF938091480290914902AD
:10248000A0914A02B0914B020196A11DB11D80930B
:10249000480290934902A0934A02B0934B02BF9125
:1024A000AF919F918F911F901FBE1F901895CDB730
:1024B000DEB7C450D2400FB6F894DEBF0FBECDBF1A
:1024C00084B7877F84BF0FB6F894A8958091600089
:1024D000886180936000109260000FBE80E820E069
:1024E00030E00FB6F89480936100209361000FBE36
:1024F0000E94190A8091D80080618093D80081E001
:102500008093E401789484B1876084B92398209AF9
:10251000289A80E58CBD1DBC539852986E9A289AD3
:1025200020E52A95F1F7289830E53A95F1F7289AB1
:1025300048E74A95F1F780E30E947C0A8FE19EE428
:102540000197F1F700C0000010E0612F70E0CB01AF
:1025500086529F4FFC0124912F3F09F0E0C163ECAC
:102560008EE30E94B60983E30E947C0A8FE39FE119
:102570000197F1F700C000000E94A20A6A98109229
:1025800080008BE0809381008CE790E0909389003D
:102590008093880082E080936F00789442E050E05E
:1025A00060E071E0DE0111964D01CD010E945233D1
:1025B00089819A818133914509F0BBC14CE050E09B
:1025C00062E071E081E292E00E94523340E150E02B
:1025D0006EE071E08CE092E00E94523381E08093E3
:1025E0002002198241E050E060E771E0C4010E94DE
:1025F00052331981113009F09EC140E150E060E68C
:1026000071E08DE292E00E94523310933D023E0150
:10261000E1EB6E0E711C83E0D3011D928A95E9F700
:1026200020E030E0A30160E070E080E592E00E94ED
:102630004A2C00E411E0C12CD12C7601B12C44E0ED
:1026400050E0B801C4010E94523329803A804B8087
:102650005C80C201B1010E948B32462F572FBC0112
:10266000B394252024202320209459F0C416D506A5
:10267000E606F70630F48B2D877080933E026A01E0
:102680007B010C5F1F4FE8E0BE12D9CFC114D1040B
:10269000E104F104A9F444E050E061E371E0C40115
:1026A0000E94523369817A818B819C816F3FFFEF59
:1026B0007F078F079F0721F00E948B326B017C01FF
:1026C000B701A6015C5F6F4F7F4F80E592E00E94EB
:1026D000A22C6091030370910403809105039091F3
:1026E00006030E94640CC4010E94E20F811529F0C8
:1026F000B40180E592E00E94872C88E49EE00E946D
:10270000D80A0E94A80BD12C1E012EE8221A2EEF07
:10271000320AAE014B5C5E4F4E5D5F4FC350DE4FE1
:1027200059834883CD5FD140CE018B5C9E4F859607
:10273000CF5FDD4F99838883C150D240D10113967A
:10274000CD5FDD4FB983A883C350D240FE0171969F
:10275000C550DE4FF983E883CB5FD1404B9BFBC074
:1027600082E30E94A80980937801909173019111EE
:10277000E4C091E09093730180937501809376019A
:102780008093770110927401809174018F3F19F04A
:102790008F5F809374014A99E1C00E94C60981311C
:1027A00011F40E94A20A80914702811509F40CC419
:1027B0000E94E3088CB1847090917E01911123C432
:1027C000811519F081E080937E0180914702811587
:1027D000E9F00E947708462F572FBC018091EB014A
:1027E0009091EC01A091ED01B091EE0148175907CD
:1027F0006A077B0708F468C4109247020E94E30846
:1028000084EF91E00E94D80A0E94A80B10918301E6
:10281000111509F45EC00E94770820917F01309164
:1028200080014091810150918201621773078407F2
:10283000950708F44EC00E947708DC01CB01805553
:102840009B4FAF4FBF4F80937F0190938001A09328
:102850008101B0938201123009F453C4133009F49A
:1028600070C4113061F580E3CB5CDE4F8883C553C3
:10287000D1405401CC24C394CE018B5C9E4F7C018B
:1028800000E010E021E041E06FE372E080E592E0DB
:102890000E941330682F811571F0C4010E94A10CB1
:1028A000811549F08091FC019091FD010196909372
:1028B000FD018093FC0189E592E00E94D80A0E9404
:1028C000CB09809183018F5F843008F03FC48093EF
:1028D000830180918F01811509F486C41091E9006C
:1028E00017701092E9008091E80083FF7BC487E8AD
:1028F00091E0FC0101962091F100208331E08F38B6
:102900009307B9F780918701909188019A3008F078
:102910005AC6E92FF0E0EA57FC4C0C940A33655292
:102920007F4FFB016491FC0184910E94B6091E5FF8
:102930000CCE80E054CE10E068CE909176018917DD
:1029400014F4809376019091750198170CF01CCFC8
:102950008093750119CF109273011DCF8FE30E94F0
:102960009A09C82EE894C7F88FEF8C0D8D3308F0C4
:1029700018CFC9820E9496098FEF0E9490098E019C
:102980000E5F1F4FBB24B394780180E00E94900932
:10299000D8018D938D01B394CB14B8F780E00E94D9
:1029A0009009082F80E00E949009A82E289A8A8119
:1029B00096E798279A8392E0F401E90FF11D2081B0
:1029C0003981931708F4B6C08B81822780834C2D00
:1029D00050E0B701C1010E94373307FD0F5F059535
:1029E000002E000C110B0A5411090038BFEF1B0711
:1029F00014F400E81FEFB02E0E94A20A8091E201B9
:102A0000811509F458C08DEE91E00E94D80A80919A
:102A10007801082E000C990B0E94950B85EE91E031
:102A20000E94D80A80917701082E000C990B0E9411
:102A3000950B8FED91E00E94D80A80917601082EC7
:102A4000000C990B0E94950B89ED91E00E94D80A29
:102A500080917501082E000C990B0E94950B85ED55
:102A600091E00E94D80A6091740170E080E090E0EB
:102A70000E94210B8EEC91E00E94D80AC8010E94AE
:102A8000950B88EC91E00E94D80A6C2D70E080E0F4
:102A900090E00E94210B82EC91E00E94D80A710123
:102AA000F70181917F010E94EA0A8E2D82198C150F
:102AB000B8F30E94A80B9091EF018091E60120915C
:102AC000E501822B81113CC0911509F46CCEF6E032
:102AD000CF123BC043E050E060E073E0C1010E94D0
:102AE0002A33892B09F05FCE809102029091030274
:102AF0000196909303028093020289EB91E00E9479
:102B0000D80ACD5FDD4F88819981C350D2400E94A1
:102B1000FF0A83EB91E00E94D80AC1010E94FF0ADC
:102B20008CEA91E00E94D80AC8010E94950B0E948D
:102B3000A80B39CE8452822780839F5F822F3CCF9F
:102B40009111C5CF00E010E057C0809107018111BD
:102B500021C08091F0019091F10101969093F101D3
:102B60008093F0018E0101551E4F9E012B5C3E4F5C
:102B70004C2DB10180E592E00E94B32C892B41F1EC
:102B80008091F4019091F50101969093F501809365
:102B9000F401D8CF94014C2DB10180E592E00E9460
:102BA000CC2F811579F066E0C4010E94A10C81153B
:102BB00049F08091000290910102019690930102E8
:102BC000809300028091EF01811509F4BBCFC1CF42
:102BD0008091F2019091F30101969093F30180931B
:102BE000F201C553DE4F8881CB5CD140897101E091
:102BF000811101C000E011E0F090E5018091E60153
:102C00008F29811509F430C188E290E00E940809FB
:102C1000111511F40C941F24F11431F02B2DA10186
:102C20006C2D80E50E94B00B011511F40C94F22379
:102C300088E290E00E940809C553DE4F8881CB5C92
:102C4000D14087FF0AC02091F6013091F7012F5F34
:102C50003F4F3093F7012093F6018970893059F581
:102C6000CA53DE4F8881C65CD140811124C0CD5348
:102C7000DE4F88819981C35CD1400597E0F0CB5C41
:102C8000DE4F8881C553D1408638A9F4C95CDE4F38
:102C90008881C753D140823071F481E0C75CDE4F38
:102CA0009881C953D140911101C080E060E00E9439
:102CB0000A120E94D41180914702811509F478C04C
:102CC000CD53DE4F8881C35CD1408D3208F470C093
:102CD000CB5CDE4F8881C553D140803209F068C09B
:102CE0008CE0E1E2F2E0D40101900D928A95E1F7E7
:102CF00080E1ECE0F2E0DE011D9601900D928A95F4
:102D0000E1F780911C0290911D02A0911E02B091EA
:102D10001F028D8F9E8FAF8FB8A388E0E4E0F2E0B2
:102D2000DE01919601900D928A95E1F7C95CDE4F24
:102D300088819981AA81BB81C753D14089A79AA76D
:102D4000ABA7BCA788E0FE01EB5CFE4F3A96DE0124
:102D50009D9601900D928A95E1F780E1FE01EB5C72
:102D6000FE4F7296DE01D59601900D928A95E1F79D
:102D7000C25ADE4F88819981AA81BB81CE55D1404C
:102D800029968CAF9DAFAEAFBFAF2997BE016253FE
:102D90007E4FC4010E948229811169C010924702AE
:102DA0000E94E3088EE891E00E94D80A0E94A80BD6
:102DB00090910701911509F4FBC0C553DE4F88813E
:102DC000CB5CD14081FD07C0913009F4F1C089701E
:102DD000893009F0EDC0AE0142535E4FBE0161552E
:102DE0007E4F80E592E00E942A2F873109F0E0C0F3
:102DF00067E1CE0182539E4F0E94A10C811509F418
:102E0000CEC08091F8019091F90101969093F9015B
:102E10008093F801FF24F3948091E301811511F16F
:102E20008401CD53DE4F2881C35CD140AE014B5CA1
:102E30005E4FBE0161557E4F80E592E00E945A30A0
:102E4000682F811579F0C4010E94A10C811509F445
:102E5000B1C08091FA019091FB0101969093FB0122
:102E60008093FA010F2D90C01111E2CE9CCCBE01CF
:102E700062537E4F80E592E00E94872CC350DE4F64
:102E800068817981CD5FD14080E592E00E94932CEA
:102E9000C65ADE4F688179818A819B81CA55D140AB
:102EA0000E948B32AB01BC0180E592E00E94A22C13
:102EB000CE0182539E4F0E94850F43E050E06EE2A8
:102EC00071E0C350DE4F88819981CD5FD1400E946F
:102ED000623344E050E061E371E0CF5FDD4F888111
:102EE0009981C150D2400E94623311E0CB51DE4F34
:102EF0001883C55ED14041E050E065E371E0CE014A
:102F00008B519E4F0E946233109247020E94E30849
:102F1000CE54DE4F88819981AA81C25BD1408093D3
:102F20003F0290934002A093410243E050E066E3E9
:102F300071E08FE392E00E946233109308011093D6
:102F400083010E947708DC01CB0180559B4FAF4F76
:102F5000BF4F80937F0190938001A0938101B09334
:102F600082018BE791E00E94D80AC350DE4F88812E
:102F70009981CD5FD1400E94FF0A0E94A80B89E38E
:102F800091E00E94D80A00E02A2D4B2DBE01615528
:102F90007E4FCE018B5C9E4F0E94D70B04CC80915C
:102FA000FE019091FF0101969093FF018093FE0135
:102FB000F12C32CF8091FE019091FF010196909308
:102FC000FF018093FE014ECFE0904202F090430259
:102FD0000091440210914502E114F104010511052C
:102FE00009F4E8CB0E9477086E157F0580079107EA
:102FF00008F4E0CB10924202109243021092440275
:1030000010924502D5CB811130C0E0907A01F0904A
:103010007B0100917C0110917D01E114F104010517
:10302000110559F40E94770860937A0170937B012F
:1030300080937C0190937D01C8CB809179018111AF
:10304000C4CB0E9477086E197F09800B910B6F31FA
:1030500071058105910508F4B8CB81E08093790171
:1030600084EB90E00E940809B0CB80917901811532
:10307000B9F00E94770800917A0110917B012091AC
:103080007C0130917D01601B710B820B930B613DC4
:1030900077408105910578F00E941C110E94CB09B0
:1030A0001092790110927A0110927B0110927C01AA
:1030B00010927D018ACB81E090914602911180E0CF
:1030C00061E00E940A12EACF8091E7019091E80145
:1030D000A091E901B091EA01481759076A077B07F7
:1030E00008F494CB405C504E6F4F7F4F4093E70104
:1030F0005093E8016093E9017093EA010E945C102B
:1031000085CB85E889838091080191E0980F9093A1
:1031100008018A83EFE0F2E0DE01139684918D933B
:103120003196C550DE4F28813981CB5FD1402A17B7
:103130003B07A1F760E1C4010E949F1184E492E083
:10314000BCCB0E94D4118DE292E0B7CB10928301E8
:103150008DE192E00E94D80A0E94CB09BACB803858
:1031600071F0823889F580918B018093E90080911C
:10317000EB0085FB882780F91092E90006C080915A
:103180008501880F90918401892B9091E800977FA9
:103190009093E8008093F1001092F1008091E80094
:1031A000982F9E7F9093E8008F778093E80080911E
:1031B000E80082FF05C08091E800982F9B7F69C0DE
:1031C00080918F018111F3CF8091E80083FF0AC0C5
:1031D0008091EB0080628093EB008091E800877F14
:1031E0008093E8001093E9000E94CB09E091D1019F
:1031F0008091D001E81708F093C281E08E0F809390
:10320000D101F0E0E057FE4F808190E08D309105D4
:1032100029F08A30910511F00C94E223F301ED0DB1
:10322000F11D1082D11499F0D3018C91813409F0F1
:10323000C0C211968C91811509F4E3C2833709F05D
:10324000A7C2C30102960E94B30D0E94CB09D12CE4
:1032500085CA81110CC080918901813009F0B4CFF9
:1032600081E0933009F080E08093850107C08230CF
:1032700009F0AACF80918901811589F01092E900A7
:103280008091E800877F8093E8008091E800982F84
:103290009E7F9093E8008F778093E80095CF809190
:1032A0008B018770811509F48FCF8093E9002091FD
:1032B000EB0020FFE3CF9130B9F49091EB009061E7
:1032C0009093EB0021E030E0A90102C0440F551FAC
:1032D0008A95E2F74093EA001092EA008091EB00B1
:1032E00088608093EB00CACF8091EB008062F9CFB9
:1032F00081116ACF809189019091E800977F909326
:10330000E8009091E800292F2E7F2093E8009F7716
:103310009093E8009091E80090FF0CC0982F90687F
:103320009093E3008F77811509F44ECF83E080936B
:103330008F014ACF90918F019111ECCF45CF8058EA
:10334000823008F041CF8091890190918A018C3DB3
:1033500053E0950709F071C08AE2898383E08A838C
:10336000DE01139620E03EE041E2E32FF0E04093DF
:103370005700E49120FF03C0E295EF703F5FEF70CC
:1033800080E38E0F8A3310F087E38E0F90E08D93E9
:103390009D932F5F243149F78091E800877F8093C8
:1033A000E80080918D0190918E018B32910510F093
:1033B0008AE290E030E0A401009759F4311109C08D
:1033C0008091E80082FDF7CE80918F018111F8CFC6
:1033D000F2CE2091E80023FDEECE2091E80022FD00
:1033E000EFCF20918F01211509F4E5CE2091E8005F
:1033F00020FFE2CF009739F02091F2003091F300E6
:103400002830310598F06091F2007091F30031E0BE
:103410006830710509F030E02091E800622F6E7F7E
:103420006093E8002F772093E800C6CFFA0121913E
:103430002093F1000197AF01DDCF292F33272230F0
:103440003105D1F12330310549F02130310509F042
:10345000BBCEE2EBF2E082E190E012C0FC01FF277C
:10346000833008F0B1CEEE0FFF1FE05FFE4F0190FA
:10347000F081E02D2491822F90E0211509F4A4CE53
:103480002091E800277F2093E80020918D01309162
:103490008E018217930708F49C0190E021153105F5
:1034A00081F491110EC08091E80082FD84CE80915C
:1034B0008F018111F8CF7FCEE4E7F2E08EE390E058
:1034C000DFCF8091E80083FD76CE8091E80082FD19
:1034D000EACF80918F01811509F46DCE8091E800CB
:1034E00080FFDCCF2115310531F08091F200909101
:1034F000F300089798F04091F2005091F30091E0AA
:103500004830510509F090E08091E800482F4E7F47
:103510004093E8008F778093E800C0CF8491809338
:10352000F100215031093196DDCF803809F04CCEC1
:103530008091E800877F8093E800809186018093E6
:10354000F1008091E800982F9E7F9093E8008F779C
:103550008093E8008091E80082FD2DCE80918F015C
:103560008111F8CF31CE81112FCE90918901923007
:1035700008F02ACE8091E800877F8093E80090933E
:1035800086018091E800982F9E7F9093E8008F77C6
:103590008093E80080918601811599F084E0809302
:1035A0008F0142E361E883E00E946C0A42E360E835
:1035B00084E00E946C0A42E061EC82E00E946C0AA6
:1035C00003CE83E0ECCF913209F451C0923209F47A
:1035D000A0C0903209F0F8CD813209F0F5CD80918C
:1035E000E800877F8093E8008091E80082FF8CC02C
:1035F0008091F10090E0A0E0B0E080930001909312
:103600000101A0930201B09303012091F100922BDC
:103610008093000190930101A0930201B0930301F4
:103620002091F100A22B8093000190930101A093BF
:103630000201B09303012091F100B22B80930001AD
:1036400090930101A0930201B09303018091F100D6
:10365000809304018091F100809305018091F10035
:10366000809306018091E800982F9B7F45C0813AA6
:1036700009F0AACD8091E800877F8093E8008091CF
:1036800000018093F1008091000190910101A091CF
:103690000201B0910301892F9A2FAB2FBB27809392
:1036A000F1008091000190910101A0910201B0917F
:1036B0000301CD01AA27BB278093F100809100016F
:1036C00090910101A0910201B09103018B2F9927E4
:1036D000AA27BB278093F100809104018093F10019
:1036E000809105018093F100809106018093F100A3
:1036F0008091E800982F9E7F9093E8008F778093C9
:10370000E8000E94F50960CD80918F0181116CCF96
:103710005BCD813209F058CD8091E800877FEFCFF3
:103720001092D1011092D00180918F01843009F064
:1037300015C88093E9008091E80082FD02C00C94D6
:10374000AE138091F2009091F300892B21F0E0916B
:10375000D001E03490F08091E800982F9B7F909307
:10376000E8008F778093E8008091D001811511F4F3
:103770000C94AE13E091D10140CD81E08E0F809387
:10378000D0018091F100F0E0E057FE4F8083D9CF67
:10379000823741F481E08093E60180E49EE00E945C
:1037A000D80A53CD883769F51092E60188E39EE088
:1037B000F6CF83018035C1F4F3018181811509F1D0
:1037C000833709F43ECD823731F481E08093E501FF
:1037D00080E39EE0E4CF0F5F1F4F883729F41092FB
:1037E000E50188E29EE0DBCF863509F457C764F433
:1037F000823409F456C7833409F4A1C7811509F44A
:1038000024CD86EF9DE0CBCF873509F4B5C78D3643
:10381000C1F7D8011196FC90B9E4FB1207C084EC03
:1038200092E00E94D80A0E94CB090FCDF11461F0FA
:10383000E1ECEF0DE53308F02EC70E2E000CFF0B68
:10384000E057FC4C0C940A338091000390910103E3
:10385000A091020389839A83AB8384EE98E00E944F
:10386000D80A8091EF01811509F417C180EE98E024
:103870000E94D80A84ED98E00E94D80A80910B0338
:10388000813009F00DC18DEC98E00E94D80A8DEBD3
:1038900098E00E94D80AC4010E94FF0A87EB98E0D2
:1038A0000E94D80A80910E03811509F4FCC081E3BF
:1038B0000E94A70A82EB98E00E94D80A6091030355
:1038C0007091040380910503909106030E940D0BF3
:1038D0008CEA98E00E94D80A80910701805D0E94DE
:1038E000A70A82EA98E00E94D80A80910F03811506
:1038F00009F4DBC081E30E94A70A89E998E00E94ED
:10390000D80A8091E301811509F4D1C081E30E94B6
:10391000A70A8EE898E00E94D80A80910A018115D2
:1039200009F4C7C081E30E94A70A85E898E00E94D5
:10393000D80A80914602811509F4BDC081E30E9436
:10394000A70A0E94A80B0E9483088AE798E00E94B9
:10395000D80A80910901811509F4AFC081E30E9462
:10396000A70A81E798E00E94D80A60910B01709144
:103970000C0180E090E00E94210B8FE20E94A70AD8
:1039800064E873E080E090E00E94210B8AE698E012
:103990000E94D80A609131037091320380E090E078
:1039A0000E94210B0E94A80B83E698E00E94D80A8F
:1039B0006091F0017091F10180E090E00E94210B94
:1039C0008EE598E00E94D80A6091F2017091F301AF
:1039D00080E090E00E94210B88E598E00E94D80AE0
:1039E0006091F4017091F50180E090E00E94210B5C
:1039F00082E598E00E94D80A6091F6017091F70183
:103A000080E090E00E94210B8BE498E00E94D80AAD
:103A10006091F8017091F90180E090E00E94210B23
:103A200084E498E00E94D80A60910002709101023B
:103A300080E090E00E94210B8DE398E00E94D80A7C
:103A4000609102027091030280E090E00E94210BDD
:103A500087E398E00E94D80A6091FA017091FB0117
:103A600080E090E00E94210B82E398E00E94D80A57
:103A70006091FC017091FD0180E090E00E94210BBB
:103A80008AE298E00E94D80A6091FE017091FF01DD
:103A900080E090E00E94210B96C08CED98E0E8CE8B
:103AA00084EC98E0F2CE80E303CF80E324CF80E380
:103AB0002ECF80E338CF80E342CF80E350CF61E068
:103AC00070E0E4E4FE1611F060E070E080E592E062
:103AD0000E949D2C8EED9DE00E94D80AD80111967F
:103AE0008C91843489F587ED9DE00E94D80A0E946C
:103AF000A80BF8018181843409F4A7CBCB5CDE4F9D
:103B00001882C553D14041E050E065E371E0CE0139
:103B10008B5C9E4F0E945233CB5CDE4F8881C55335
:103B2000D140813009F491CB80912002811509F4B4
:103B30008CCB8E010F5F1F4FC8010E94F90D8111C0
:103B400006C00E94E60A81CB8EEC9DE0CECFB80184
:103B500080E592E00E94872CC8010E94850F81E0D9
:103B6000CB5CDE4F8883C553D14041E050E065E334
:103B700071E0CE018B5C9E4F0E94623380E1D801E0
:103B80001D928A95E9F788EE98E009CE43E0BE01E0
:103B90006B5C7E4FC80102960E944409833019F085
:103BA00080EC9DE0FCCDBE016B5C7E4F80E592E039
:103BB0000E94932C87EB9DE00E94D80ACE018B5C7B
:103BC0009E4F0E94FF0A0E94A80B3FCBF801828102
:103BD000883559F4198241E050E065E371E0C40191
:103BE0000E94623387E79DE0DACD8DE39DE0D7CD7B
:103BF00044E0BE016B5C7E4FC80102960E944409FE
:103C0000843019F081E39DE0CACDCB5CDE4F688142
:103C100079818A819B81C553D1400E948B32AB014F
:103C2000BC0180E592E00E94A22C8AE29DE00E9405
:103C3000D80A609103037091040380910503909169
:103C400006030E940D0BBFCFD80112968C918E34C3
:103C500009F09CC082E19DE00E94D80A0E94CB0935
:103C60000E94580E811509F475C0C4010E947C0998
:103C7000811509F468C0F4019E01255F3F4F85EC72
:103C80009DE9ACE1B1E8AC01BD0115E0440F551F61
:103C9000661F771F1A95D1F70BE1B695A7959795F3
:103CA00087950A95D1F7842B952BA62BB72B41919D
:103CB0008427E217F30739F7AF73BB276C017D0147
:103CC0008CE092E00E94F90D811509F441C001E2F7
:103CD00012E0A70196016BEE70E080E090E00E9498
:103CE000E93081E391E5CB5CDE4F99838883C5534E
:103CF000D1404CE050E062E071E0C8010E946233C4
:103D000040E150E06EE071E08CE092E00E946233AE
:103D100042E050E060E071E0CE018B5C9E4F0E947B
:103D2000623381E080932002CB5CDE4F1882C55362
:103D3000D14041E050E065E371E0CE018B5C9E4FE5
:103D40000E94623307C0C4010E94F90D811109C0AD
:103D50000E94E60A809120028111EEC085E79AE078
:103D60001ECD29818A8190E0A0E0B0E0BA2FA92F72
:103D7000982F8827A22B2B81822BAF73BB276C0136
:103D80007D0188E099E00E94D80A9ACF803519F425
:103D90000E941C115ACA8B34E9F6C650DE4F1882B5
:103DA000CA5FD14041E050E065E371E0CE0186504A
:103DB0009E4F0E94523380912002811539F0C650E7
:103DC000DE4F8881CA5FD140813019F085EA99E0E1
:103DD000E6CC83E999E00E94D80A0E94CB09CE0183
:103DE0008B5C9E4F0E94F90D811509F4AACECB5C25
:103DF000DE4F8881C553D140CE50DE4F8883C25FED
:103E0000D140CA5CDE4F8881C653D140CD50DE4FD1
:103E10008883C35FD140C95CDE4F8881C753D140DE
:103E2000CC50DE4F8883C45FD140C85CDE4F8881B0
:103E3000C853D140CB50DE4F8883C55FD1407E014F
:103E400022E3E21A2EEFF20AC7010E94E20F81116B
:103E500003C086E799E0A3CC6E013EE8C31A3EEFAB
:103E6000D30AC6010E94920EAE014B515E4FBE01B5
:103E70006E507E4F81E292E00E940D29B601CE0184
:103E800001960E94F8245E0141E5A41A4EEFB40A9F
:103E900000E19501A701BE016B517E4FCE01019655
:103EA0000E9464272E015AE0451A5EEF550A8201EE
:103EB00020E1A701BE016B517E4FCE0101960E9409
:103EC000BA2880E1D701E82F1D92EA95E9F7D601DB
:103ED0001D928A95E9F78AE699E00E94D80A045073
:103EE0001109F80134967F016201D8018D918D018D
:103EF0000E94EA0A0E151F05C1F785017501B0E1A0
:103F0000EB0EF11CF80181918F010E94EA0A0E1557
:103F10001F05C1F786017601F4E0EF0EF11CD80110
:103F20008D918D010E94EA0AE016F106C1F70E9408
:103F3000A80B8FE399E033CC8BE69AE00E94D80A75
:103F400001E212E04DE2E42E42E0F42EF80181910C
:103F50008F010E94EA0AE016F106C1F70E94A80B41
:103F60009E012B5C3E4F79018E0102531E4F20555E
:103F70003F4FAE014E585E4FBE0161557E4F81E20C
:103F800092E00E94853186E59AE00E94D80ACB51E2
:103F9000DE4F8881C55ED1400E94EA0A8DE49AE036
:103FA0000E94D80AC153DE4F8881CF5CD1400E9465
:103FB000EA0AC253DE4F8881CE5CD1400E94EA0AF1
:103FC00080E49AE00E94D80ACE58DE4F8881998119
:103FD000AA81BB81C257D140BC01CD0161507F4F46
:103FE0008F4F9F4F0E94210B0E94A80B8FE29AE0F7
:103FF0000E94D80ACE0101960E947C09811539F1F0
:104000000D5C11403AE2E31A31E0F30AD8018D91D8
:104010008D010E94EA0A0E151F05C1F70E94A80B28
:104020008FE19AE00E94D80A0CE012E03CE1E32E16
:1040300032E0F32EF80181918F010E94EA0AE01626
:10404000F106C1F70E94A80B8AED99E0A8CB87E2A0
:104050009AE00E94D80AE2CFD80112968C91803360
:1040600029F461E080E00E940A12EFC8813319F45C
:1040700061E081E0F8CF843539F481E09091460227
:10408000911180E061E0EFCF87E09DE00E94D80AC7
:1040900080914602811521F081E30E94A70A93CD09
:1040A00080E3FBCFB5B1C150DE4FB883CF5FD140C5
:1040B000E8B1C050DE4FE883C050D2404BB05EB094
:1040C000A1B284B195B18095892B85B987B198B19A
:1040D0008095892B88B98AB19BB18095892B8BB942
:1040E0008DB19EB18095892B8EB980B391B38095A7
:1040F000892B81BB8FE097E20197F1F700C00000A8
:1041000013B106B1F9B0ECB0BFB08CEF9CE00E94E7
:10411000D80A812F0E94EA0A88EF9CE00E94D80A00
:10412000802F0E94EA0A84EF9CE00E94D80A8F2D1B
:104130000E94EA0A80EF9CE00E94D80A8E2D0E941D
:10414000EA0A8CEE9CE00E94D80A8B2D0E94EA0AB3
:104150008BEC9CE00E94D80A0E94CB0920E9C22E79
:10416000DD24D3949FE7A8E3B1E09150A040B04094
:10417000E1F700C0000083B181130CC086B1801349
:1041800009C089B18F1106C08CB18E1103C08FB1E7
:104190008B1589F180EC9CE00E94D80A83B18127BD
:1041A0000E94EA0A8CEB9CE00E94D80A86B1802724
:1041B0000E94EA0A88EB9CE00E94D80A89B18F2508
:1041C0000E94EA0A84EB9CE00E94D80A8CB18E25FA
:1041D0000E94EA0A80EB9CE00E94D80A8FB18B25EE
:1041E0000E94EA0A0E94A80B0E94CB0913B106B1F3
:1041F000F9B0ECB0BFB0E1E0CE1AD10809F0B2CF0F
:10420000C150DE4FF881CF5FD140F5B9C050DE4FCD
:104210002881C050D24028B94BB85EB8A1BA8DE908
:104220009CE0BDCAD80112961C9181E0103309F4BC
:1042300080E080930A0187E99CE00E94D80A81E32C
:10424000103309F480E30E94A70A8BE79CE0103347
:1042500011F487E69CE00E94D80AB5CCF80192815F
:1042600080ED890F823030F481E0913309F080E0F5
:10427000809309010E9483088CE59CE00E94D80A83
:1042800080910901811509F181E30E94A70A83E564
:104290009CE00E94D80A60910B0170910C0180E0B3
:1042A00090E00E94210B8FE20E94A70A64E873E06D
:1042B00080E090E00E94210B8CE49CE00E94D80AF0
:1042C0006091310370913203E3CB80E3DECFD801FC
:1042D0001296EC9061E0B0E3EB1201C060E0E5E41F
:1042E000FE1219C06093EF0188E49CE00E94D80A96
:1042F000D80111968C910E94A70A8DE30E94A70A0B
:10430000F8018181813541F58091070190E3E92E23
:10431000E80E8E2DC2CEF1E5FF1207C022E3E212B5
:1043200001C062E060930701DFCF36E4F31203C0FF
:104330006093E301D9CF48E4F41203C06093E20133
:10434000D3CF5EE4F51203C060930F03CDCF80E5B9
:1043500092E00E94AA2CC8CFF0E3EF16D1F281E3DD
:10436000E82ED7CFE0EFF1E084E1DF011D928A95DE
:10437000E9F789E39CE013CA7E01BEE8EB1ABEEFC1
:10438000FB0A8FEFF7018083C4010E947C0957016B
:10439000811103C08DE19CE002CACF80D884E984FA
:1043A000FA84D80112968C91811119C0C701B60107
:1043B0000E948B327B018C0183E19CE00E94D80A31
:1043C000B701C8010E940D0B8EEF9BE00E94D80A36
:1043D000B701C8010E940D0B81ED9BE0E0C944E0EC
:1043E000BE016B5C7E4FC80102960E944409843076
:1043F00069F4CB5CDE4F88819981AA81BB81C5536A
:10440000D1408C159D05AE05BF0519F08FEA9BE0E4
:10441000C6C900E011E041E050E0B801C5010E94CA
:1044200062330F5F1F4F0038B1E01B07A1F782E72F
:104430009BE00E94D80A0E94CB09F89488E198E09A
:104440000FB6F894A895809360000FBE909360001B
:10445000FFCFC8010296E4E5FE1219C0D8011296FA
:104460008C91811561F00E943009D82EF80183816A
:104470000E943009FFEFDF1611F08F3F19F482E63A
:104480009BE08DC9582EC801049613E007C022E5B1
:1044900055245394D12C16E0F212F7CF4DE3BE0110
:1044A0006B5C7E4F0E944409811718F485E59BE000
:1044B00076C940900C0333E0D31203C093E8909385
:1044C0000C03C82EC11ACE018B5C9E4F810F911D2B
:1044D00042E500E010E0F41205C08E010B5C1E4FB7
:1044E0000D5F1F4FDE0111965D017C01252D4D2DC5
:1044F000BE016B5C7E4F80E592E00E941330682F16
:1045000040920C0386E49BE0611509F448C9809150
:104510000A01811519F087E29BE041C9CE0101969D
:104520000E94A10C811561F08091FC019091FD0128
:1045300001969093FD018093FC018CE19BE02FC9D3
:104540008091FE019091FF0101969093FF0180936D
:10455000FE0180E19BE023C9F80182818B3479F46C
:1045600040E162ED71E0C80103960E944409803188
:1045700019F083E09BE013C989EE9AE010C9780135
:10458000F2E0EF0EF11C40E1BE016B5C7E4FC70113
:104590000E944409803181F4D80192968C918A322C
:1045A00059F4CE018B5C9E4F40960E94E20F811120
:1045B0000FC08CEC9AE0F3C840E2BE016B5C7E4F0A
:1045C000C7010E944409803219F08FEB9AE0E7C8D6
:1045D0006E01BEE8CB1ABEEFDB0A9E012B5C3E4F9C
:1045E000205F3F4FAE014B5C5E4F445F5F4F7601F3
:1045F0008401BE016B5C7E4F82ED91E00E941E291A
:1046000089EB9AE00E94D80AE1E6EE1AE1E0FE0AA0
:10461000D8018D918D010E94EA0AE016F106C1F7DA
:1046200080E20E94A70A86017601B4E0EB0EF11C3D
:10463000F80181918F010E94EA0A0E151F05C1F74A
:10464000C2CA40E1BE016B5C7E4FC80102960E9467
:104650004409803119F08CEA9AE0A1C8BE016B5C74
:104660007E4F685F7F4FA401CE018B5C9E4F0E94FE
:10467000722986EA9AE00E94D80A84017E01F1E15B
:10468000EF0EF11CD8018D918D010E94EA0AE0160F
:10469000F106C1F798CA8DE99AE081C889E19EE0E8
:1046A000DACDF8018181803309F046C082818133FF
:1046B00009F042C088EE9DE00E94D80A0E94CB0912
:1046C0008FE39CE90197F1F700C000000E94190AEE
:1046D0008091E00081608093E0008091D8008F7726
:1046E0008093D80019BC8091D8008F7E8093D80029
:1046F0001092E4019FEFADEEB2E09150A040B040C7
:10470000E1F700C00000F8940FB6F894A8958091E6
:104710006000886180936000109260000FBE10926C
:104720006E0010926F0014BE81E085BF82E085BFED
:10473000E0E0F8E30995FFCF8BE09EE030C841E070
:10474000B401C80101960E944409813019F083E048
:104750009EE025C883E40E94A70A1981812F0E9448
:10476000EA0A8DE30E94A70A812F103340F10E94CC
:10477000A8090E94EA0A27CA42E0B401C8010196CA
:104780000E944409823019F419811F3220F08BEF06
:104790009DE00C94CF1B0A8186E30E947C0A602F67
:1047A000812F0E94B6090E94A20A87E50E94A70AEB
:1047B000812F0E94EA0A8DE30E94A70A812F0E949E
:1047C0009A09D7CFF3E8DF1610F00C94AE13F3017B
:1047D000ED0DF11D8083D3940C94AE131115E1F00F
:1047E0000C9418162AE0C21610F40C9418162FE137
:1047F000C216A0F78091E601811531F02B2DA101A1
:104800006C2D81E40E94B00B11110C94181632E14A
:10481000C31610F40C94D3138091E501811511F4A3
:104820000C94D3138091EF0181110C94D3132B2D91
:10483000A1016C2D80E50E94B00B0C94D3133AE0DB
:10484000C316A8F60C94D3131F920F920FB60F92B3
:1048500011242F933F934F935F936F937F938F9385
:104860009F93AF93BF93EF93FF938091DA0080FF04
:1048700010C08091D80080FF0CC08091DA008E7F3C
:104880008093DA008091D90080FF9BC081E0809303
:104890008F018091E10080FF1CC08091E20080FFC9
:1048A00018C08091E1008E7F8093E1008091E2004A
:1048B0008E7F8093E2008091E20080618093E2002D
:1048C0008091D80080628093D80019BC85E08093E5
:1048D0008F018091E10084FF27C08091E20084FF76
:1048E00023C019BC89B5826089BD09B400FEFDCF23
:1048F0008091D8008F7D8093D8008091E1008F7ED9
:104900008093E1008091E2008F7E8093E2008091AD
:10491000E20081608093E20080918601811509F4B4
:1049200053C084E080938F018091E10083FF38C001
:104930008091E20083FF34C08091E100877F809303
:10494000E10082E080938F01109286018091E10066
:104950008E7F8093E1008091E2008E7F8093E20061
:104960008091E20080618093E2001092F40080E088
:104970008093E9001092F0001092E8009091ED0011
:104980009D7F9093ED009091EB009E7F9093EB00C4
:104990008F5F873069F742E060E080E00E946C0A38
:1049A000FF91EF91BF91AF919F918F917F916F9107
:1049B0005F914F913F912F910F900FBE0F901F90DD
:1049C000189510928F0165CF83E0ACCFCF93DF9322
:1049D000FC01DB019C01205F3F4F81919D91EF0124
:1049E00089278A93E217F307C1F7DF91CF910895E2
:1049F000CF93DF93FB01DC01CB014096ED012191C8
:104A00002993E817F907D9F741E030E11C962C917A
:104A10001C971D969C911D971E968C911E971F9614
:104A20005C911F97632F6F70611120C0E92FF0E038
:104A3000E055F04F64916427E82FF0E0E055F04F27
:104A4000E4919E2FE52FF0E0E055F04FE4918E2F9A
:104A5000E22FF0E0E055F04FE4915E2F742F770FD6
:104A60002BE147FF20E0472F4227262F6C91262776
:104A700050962C93509711962C91119792275196FE
:104A80009C93519712969C911297892752968C93DA
:104A9000529713968C911397852753968C9353971F
:104AA0003C5F1496303B09F0B1CFDF91CF91089570
:104AB0008F929F92AF92BF92CF92DF92EF92FF922E
:104AC0000F931F93CF93DF938C01EA01FB017A01CF
:104AD000CB014096DA0121912D938E179F07D9F7CC
:104AE000B801CE010E94E624580180E1A80EB11C55
:104AF00000561F4F48016E01A0E1CA0ED11CDE0115
:104B0000ED91F0E0E055F04F2491CD010197FC01CB
:104B10002083CA16DB06A1F789819D819983998537
:104B20009D839D8599878D878A819A859A838A87B7
:104B30008E819E859E838E878F859B859F879F8193
:104B40009B879B819F838B83FE0180814181328182
:104B50002381782F7427632F6227572F5627972F8B
:104B6000990F77FF66C07BE19727782F75279727E6
:104B70009083742F7327972F990F77FF5CC07BE189
:104B80009727452794279183962F990F4BE167FF2D
:104B900040E094273527932792838227982F990FF7
:104BA00087FF4BC08BE18927252782278383349693
:104BB000CE16DF0651F6B501CE010E94E624F0E1E3
:104BC000AF0EB11C0A151B0509F099CFD701ED9165
:104BD0007D01F0E0E055F04FE491EE93CE14DF0458
:104BE000A9F789819D81998399859D839D85998761
:104BF0008D878A819A859A838A878E819E859E83F6
:104C00008E878F859B859F879F819B879B819F83B5
:104C10008B83B401CE01DF91CF911F910F91FF9053
:104C2000EF90DF90CF90BF90AF909F908F900C94BB
:104C3000E62470E099CF70E0A3CF80E0B4CFEF928C
:104C4000FF920F931F93CF93DF93CDB7DEB760979B
:104C50000FB6F894DEBF0FBECDBF8B01DB017A012A
:104C600030E04D9150E0321710F4F7015081BD0152
:104C7000615071094527FB0140833F5FFFEFEF1A49
:104C8000FF0A303171F7AE014F5F5F4FB8010E94EC
:104C9000582580E1FE013196D80101900D928A9548
:104CA000E1F760960FB6F894DEBF0FBECDBFDF917F
:104CB000CF911F910F91FF90EF9008958F929F9247
:104CC000BF92CF92DF92EF92FF920F931F93CF93F9
:104CD000DF93CDB7DEB760970FB6F894DEBF0FBE97
:104CE000CDBFE82EB92EFB014A01F22E680189E002
:104CF00089838DE0DE01129601900D928A95E1F78D
:104D00001F86288B80E1F80111928A95E9F720E14E
:104D1000AE014F5F5F4FB8018E2D0E941F2610E03D
:104D20001F1590F060960FB6F894DEBF0FBECDBF92
:104D3000DF91CF911F910F91FF90EF90DF90CF9077
:104D4000BF909F908F9008952F2D211B213108F047
:104D500020E1A401410F511DB6018E2D9B2D0E9413
:104D60001F26105FDDCF4F925F926F927F928F92DE
:104D70009F92AF92BF92CF92DF92EF92FF920F93EA
:104D80001F93CF93DF93CDB7DEB7C055D1090FB6D0
:104D9000F894DEBF0FBECDBFD82EE92E3B015A01DD
:104DA000F22EC12EDE01AF5BBF4F89E48D938DE003
:104DB000FB0101900D928A95E1F760961FAE609716
:104DC00061961FAE61974E0181E2880E911C10E141
:104DD000D401E12F1D92EA95E9F720E1AE014F5B86
:104DE0005F4FB4018D2D0E941F26FE01F196DF0159
:104DF0001D921A95E9F7FAAA1F2D2F01BFE0FB16A5
:104E000008F01EE0412F50E0B501CE01C3960E948C
:104E1000373320E1A201B4018D2D9E2D0E941F2663
:104E20001F1508F442C081E089838DE0F301DE01A3
:104E3000129601900D928A95E1F71F86188AAE01AD
:104E40004F5E5F4FBE016F5F7F4F8D2D9E2D0E9485
:104E50005825C401BE016F5E7F4FE02FFC2DAF01CE
:104E60004C5F5F4FDC012D91CD01DB013D91BD0118
:104E700023272193E417F507A9F7C05BDF4F0FB68F
:104E8000F894DEBF0FBECDBFDF91CF911F910F9180
:104E9000FF90EF90DF90CF90BF90AF909F908F905A
:104EA0007F906F905F904F9008952F2D211B21319F
:104EB00008F020E1A501410F511DB4018D2D9E2D5B
:104EC0000E941F26105FACCF2F923F924F925F92AD
:104ED0006F927F928F929F92AF92BF92CF92DF920A
:104EE000EF92FF920F931F93CF93DF93CDB7DEB76F
:104EF000A0970FB6F894DEBF0FBECDBF782E692EF7
:104F0000562E472E6A015901EE24E394F12C10E04D
:104F100022242394CE0101964C011017C8F0A096CC
:104F20000FB6F894DEBF0FBECDBFDF91CF911F91BA
:104F30000F91FF90EF90DF90CF90BF90AF909F9038
:104F40008F907F906F905F904F903F902F9008953B
:104F5000302E311A91E1391610F080E1382E298A6D
:104F60008DE0E52DF42DDE01529601900D928A958B
:104F7000E1F79E2D8F2D98A38F8FA401BE016F5E48
:104F80007F4F872D962D0E9458259601210F311DA8
:104F9000A501410F511DF401D9018D919D01919100
:104FA0008927DA018D93AD018E2F88198315A0F31F
:104FB000105FBFEFEB1AFB0AB0CF5F926F927F9248
:104FC0008F929F92AF92BF92CF92DF92EF92FF9219
:104FD0000F931F93CF93DF93CDB7DEB7E0970FB654
:104FE000F894DEBF0FBECDBF6C015B014A01722E8B
:104FF000502E612E8E010F5D1F4F0E945E2681E0B4
:10500000898B8DE0F501DE01529601900D928A9513
:10501000E1F71F8E18A2AE014F5F5F4FBE016F5EBA
:105020007F4FC6010E945825C801BE016F5F7F4FA8
:10503000D701A7014C5F5F4FFC012191CF01FB011C
:105040003191BF0123272D93A417B507A9F7072D89
:10505000252D362DA401B501C6010E946427E096D6
:105060000FB6F894DEBF0FBECDBFDF91CF911F9179
:105070000F91FF90EF90DF90CF90BF90AF909F90F7
:105080008F907F906F905F9008957F928F929F9204
:10509000AF92BF92CF92DF92EF92FF920F931F9346
:1050A000CF93DF93CDB7DEB7E4970FB6F894DEBFAA
:1050B0000FBECDBF6C015B01722E4801022F97011C
:1050C0000E9464278E010F5D1F4F272DA701B50198
:1050D000C6010E945E2681E0898B8DE0F501DE012C
:1050E000529601900D928A95E1F71F8E18A2AE019B
:1050F0004F5F5F4FBE016F5E7F4FC6010E94582514
:10510000F801005211099E012F5C3F4FBE016B5DFB
:105110007F4FA9018191D8019D918D018927DA01E5
:105120008D93AD01E617F707A9F7F401A4014C5FD1
:105130005F4F90E0D9018D919D0161918627982B59
:105140004E175F07B9F781E0911180E0E4960FB642
:10515000F894DEBF0FBECDBFDF91CF911F910F91AD
:10516000FF90EF90DF90CF90BF90AF909F908F9087
:105170007F900895AF92BF92CF92DF92EF92FF920D
:105180000F931F93CF93DF93CDB7DEB7E0970FB6A2
:10519000F894DEBF0FBECDBF7C016B0158018E01BC
:1051A0000F5D1F4F0E945E2681E0898B8DE0F60126
:1051B000DE01529601900D928A95E1F71F8E18A29A
:1051C000AE014F5F5F4FBE016F5E7F4FC7010E9410
:1051D0005825C801BE016F5F7F4FF501A5014C5FE7
:1051E0005F4FDC012D91CD01DB013D91BD012327F6
:1051F0002193E417F507A9F7E0960FB6F894DEBF00
:105200000FBECDBFDF91CF911F910F91FF90EF9017
:10521000DF90CF90BF90AF900895FC01339689E066
:10522000DA0101900D928A95E1F7DA01199684E08E
:10523000FB0101900D928A95E1F708957F928F927C
:105240009F92AF92BF92CF92DF92EF92FF920F9315
:105250001F93CF93DF93CDB7DEB7CD5BD1090FB6E8
:10526000F894DEBF0FBECDBF782E892ECB01BA01D8
:105270006901902EAE014F545F4F0E940D29672D9A
:10528000782DCE0101960E94F82400E1292D312FBE
:10529000A601BE016F547F4FCE0101960E94642784
:1052A000E114F10451F0870120E1A601BE016F5421
:1052B0007F4FCE0101960E94BA28C354DF4F0FB62C
:1052C000F894DEBF0FBECDBFDF91CF911F910F913C
:1052D000FF90EF90DF90CF90BF90AF909F908F9016
:1052E0007F900895FC0188E0DA0101900D928A9583
:1052F000E1F7DA01189688E0FB0101900D928A959A
:10530000E1F708954F925F926F927F928F929F92F2
:10531000AF92BF92CF92DF92EF92FF920F931F93C3
:10532000CF93DF93CDB7DEB7C15DD1090FB6F89447
:10533000DEBF0FBECDBF6C012B013C0188E2680EC1
:10534000711C46019CE0890E911C5E0181EBA80E48
:10535000B11C96012C5C3F4FE12CF12C8501A3017F
:10536000B601C4010E941E29AE014F535F4FB30125
:10537000C6010E940D29B401CE0101967C010E9454
:10538000F824035E1F4F20E1A501BE016F537F4F3C
:10539000C7010E94BA28F801D601AC5BBF4F960145
:1053A000285B3F4F80E09B2C8E2CBF2C91914D9120
:1053B0009427892BA217B307C9F781112FC0B60113
:1053C000645D7F4F482D5B2DC60180960E94722937
:1053D000A601445E5F4FE12CF12C82012A2D392D6C
:1053E000B601882D9B2D0E941E2981E0CF52DF4FF0
:1053F0000FB6F894DEBF0FBECDBFDF91CF911F91E6
:105400000F91FF90EF90DF90CF90BF90AF909F9063
:105410008F907F906F905F904F90089580E0E6CFDF
:105420002F923F924F925F926F927F928F929F92B4
:10543000AF92BF92CF92DF92EF92FF920F931F93A2
:10544000CF93DF93CDB7DEB7C25DD1090FB6F89425
:10545000DEBF0FBECDBF3B017A01CF52DF4F2883A5
:10546000C15DD040CE52DF4F3883C25DD040BC0119
:10547000CE0101965C010E94F8248E010F531F4F4C
:1054800080E1D8011D928A95E9F7C12CD12C3A2CE4
:105490002B2C5E01B1EBAB0EB11C5A2C4B2C4801EE
:1054A000E0E18E0E911CCE14DF0480F1F8018081C2
:1054B0008E25808381818F258183CF52DF4F488164
:1054C000C15DD040CE52DF4F5881C25DD040B8019F
:1054D000832D922D0E945825CE52DF4F0FB6F8949F
:1054E000DEBF0FBECDBFDF91CF911F910F91FF9017
:1054F000EF90DF90CF90BF90AF909F908F907F9074
:105500006F905F904F903F902F900895D501E0E10C
:105510001D92EA95E9F7A7014C195D094131510542
:1055200010F040E150E0B3016C0D7D1D852D942DF0
:105530000E943733F801452D542D8191DA019D9158
:10554000AD019F01215031098927D9018C93E815BC
:10555000F90599F7A801B801832D922D0E945825CD
:10556000B0E1CB0ED11C9FCFCF92DF92EF92FF9292
:105570000F931F93CF93DF93CDB7DEB760970FB62E
:10558000F894DEBF0FBECDBF8C017B016A01892B71
:1055900031F1452B21F16034710508F19E012F5F37
:1055A0003F4FAB01B80186E191E00E94102A9601BD
:1055B000A701B801CE0101960E94102A80E090E078
:1055C00060960FB6F894DEBF0FBECDBFDF91CF91CE
:1055D0001F910F91FF90EF90DF90CF9008958FEF84
:1055E0009FEFEECF0F931F93CF93DF93CDB7DEB72F
:1055F000A0970FB6F894DEBF0FBECDBFFC01CB0164
:10560000309709F440C00097F1F1AE014F5F5F4F52
:1056100060E2DA011D926A95E9F78E0F9F1F61E043
:1056200070E02191A22FA695A695A695A40FB52F5F
:10563000B11D27708B0102C0000F111F2A95E2F7E0
:1056400098013C91232B2C938E179F0751F7FA0159
:10565000BE016F5D7F4F40E0219130E080E090E03F
:10566000D901082E02C0B695A7950A94E2F7A0FFCB
:1056700003C04F5F4830A0F401968830910581F750
:105680006E177F0749F781E090E0A0960FB6F89477
:10569000DEBF0FBECDBFDF91CF911F910F91089557
:1056A00080E090E0F2CFCF93DF93FC01DB018081BB
:1056B0008C9381818E7F11968C931197EF012296A6
:1056C00012963D9689918D93CE17DF07D9F7DF911A
:1056D000CF9108952F923F924F925F926F927F9257
:1056E0008F929F92AF92BF92CF92DF92EF92FF92F2
:1056F0000F931F93CF93DF93CDB7DEB7CD54D1096E
:105700000FB6F894DEBF0FBECDBF3C01362E472E3C
:10571000542E922E202EF701FC2CB501A4960EAD2E
:105720001FADA49783E0309709F480E0C82EC80C21
:1057300021E4C21608F0A2C031E091E1931299E091
:10574000D92EDC0C91E4D91608F098C0811539F0F7
:1057500093E0DE01119601900D929A95E1F7811484
:1057600049F0482D50E0FE013196E80FF11DCF01C0
:105770000E943733892D82958073F52DFF705F2E3F
:10578000582AF8015082F301E354FF4F8081817061
:10579000220C220C220C282AF8012182F282D80144
:1057A000139683E0F301E055FF4F01900D928A9527
:1057B000E1F7D801169683E0E32DF42D01900D92C8
:1057C0008A95E1F7F1E09F1631F1C11449F04C2DB3
:1057D00050E0BE016F5F7F4FC80109960E943733CA
:1057E0008D2DC35BDF4F0FB6F894DEBF0FBECDBF6C
:1057F000DF91CF911F910F91FF90EF90DF90CF90AD
:10580000BF90AF909F908F907F906F905F904F90E0
:105810003F902F900895230123EB420E511CF2017B
:1058200060817181828193810E948B32F80161874E
:10583000728783879487BE016F5B7F4FC8010E9488
:10584000532B7801FDE0EF0EF11C0F5E1F4F2C2D46
:10585000AE014F5F5F4FBE016F5B7F4FC3010E9480
:10586000DD27F20180819181A281B3810196A11D82
:10587000B11D80839183A283B383B2CFD12CB0CFEB
:105880008C3030F4E82FF0E0EA5DFE4F808108951F
:105890008FEF0895FF920F931F93CF93DF93EC0147
:1058A000CB018A01F22E21EEFE0111922A95E9F731
:1058B000892B41F0CE010E94F82481E0FE01E254E0
:1058C000FF4F80830115110549F083E0F801DE01E7
:1058D000A055BF4F01900D928A95E1F7FE01ED545E
:1058E000FF4F81E090E0A0E0B0E080839183A2834D
:1058F000B3833896F1928EE88083C154DF4F81E004
:105900008883DF91CF911F910F91FF900895CF93DE
:10591000DF93EC010E94F824C254DF4F81E08883BA
:10592000DF91CF910895FB01DC01A055BF4F83E0CB
:1059300001900D928A95E1F70895FC01E554FF4F1F
:1059400060830895FC01ED54FF4F408351836283CF
:1059500073830895FC01E354FF4F81E0611101C09E
:1059600080E0808308952F923F924F925F926F92D2
:105970007F928F929F92AF92BF92CF92DF92EF92DF
:10598000FF920F931F93CF93DF93CDB7DEB763974B
:105990000FB6F894DEBF0FBECDBF4C017B01B42E15
:1059A00039016801892B09F449C26115710509F4AF
:1059B00045C2232B09F442C20115110509F43EC268
:1059C0008FE1D8011D928A95E9F7B6E04B1324C008
:1059D00023E0FB01C8010396DC0101900D922A959A
:1059E000E1F7FB01339623E0D801169601900D9262
:1059F0002A95E1F711E0F601158FB40160557F4F4C
:105A000043E050E00E942A33892B19F4D6015C96BA
:105A10001C9380E090E005C0B9E04B17D8F48EEFFE
:105A20009FEF63960FB6F894DEBF0FBECDBFDF9138
:105A3000CF911F910F91FF90EF90DF90CF90BF908B
:105A4000AF909F908F907F906F905F904F903F901E
:105A50002F900895FB018081D8018C93818111964C
:105A60008C931197828112968C93129710811295C4
:105A7000137056961C93569790819F7057969C93DF
:105A8000579781818695869586958F7058968C93C9
:105A9000589722812695277059962C93F6013396B4
:105AA000FF87EE8723E0FB013396AE85BF8501902B
:105AB0000D922A95E1F72601F6E04F0E511C23E0E6
:105AC000FB013696D20101900D922A95E1F7DB0198
:105AD00011962C9120FF03C020E4F601248FD601FB
