:100000000C94E5050C9402060C9402060C9402066E
:100010000C9402060C9402060C9402060C94020640
:100020000C9402060C9402060C94A4250C9402066F
:100030000C9402060C9402060C9402060C94020620
:100040000C9402060C9439130C9402060C940206CC
:100050000C9402060C9402060C9402060C94020600
:100060000C9402060C9402060C9402060C940206F0
:100070000C9402060C9402060C9402060C940206E0
:100080000C9402060C9402060C9402060C940206D0
:100090000C9402060C9402060C9402060C940206C0
:1000A0000C9402060C9402060C94020610037100D4
:1000B0002D00630075006C006600770000001603D9
:1000C00062007500730077006100720065002E0009
:1000D000640065000000040309040007010E020625
:1000E000030D04E905CA063D070C084509000A008E
:1000F0000B060C110D210E650F6A10C81193120327
:10010000132214F815341607170F181819161A6C3D
:100110001B431C401D911E8E1F2F2078215622103C
:1001200023E9242A2500261F2741280029592A7F50
:100130002B3F2C812D352E09FF506D204E65747A92
:100140007765726B7363686C75657373656C206734
:10015000657369636865727420E28094206D6974C8
:100160006C6573656E20697374206A65747A742097
:100170006D6F65676C6963680D0A00506D20414EB4
:1001800047454C45524E5420616464723D00506DA9
:1001900020416E6765626F743A20507275656673B0
:1001A000756D6D652066616C736368002072737392
:1001B000693D0020666F723D00504B2066726F6D86
:1001C0003D00207261773D00206C656E3D0020721D
:1001D0007373693D00206E3D00206D61783D002005
:1001E0006D696E3D002066697273743D0050482051
:1001F00066653D00506D20416E6C65726E656E3AAD
:10020000206B65696E6520416E74776F72740004AF
:1002100080000000C80600001606000000506D2097
:10022000616E67656D656C6465740D0A00506D20C4
:100230003E3E204B616E616C7A75737461656E64CD
:10024000650D0A00506D203E3E2053746172746D3E
:10025000656C64756E670D0A00506D203E3E20414E
:100260006E6C65726E626573746165746967756ED4
:10027000670D0A0009023E000201008032090400F5
:1002800000010202010005240010010424020605F9
:1002900024060001070582030800FF09040100028B
:1002A0000A00000007050402400000070583024021
:1002B00000001201100102000008EB036920000297
:1002C0000102DC01506D204E65747A7765726B73A4
:1002D00063686C75657373656C2065727A657567A4
:1002E000740D0A00506D206B65696E65205765724C
:1002F0006B736B656E6E756E6720E28094206C6127
:100300007566656E6465204E756D6D6572206765F6
:100310007775657266656C740D0A00506D206265B4
:1003200069646520576572746520696E2064657222
:1003300020454947454E454E205A656E7472616CA2
:10034000652065696E74726167656E202847657205
:1003500061657420616E6C65726E656E290D0A00B0
:10036000506D206B65793D00286B65696E652900CD
:10037000506D207765726B736B656E6E756E673D41
:100380000020676572616574656172743D00206E5E
:1003900065686D65723D00506D206865726B756EA5
:1003A00066742066617373756E673D00506D2073CF
:1003B0006774696E3D00506D206B65696E65204BFA
:1003C000656E6E756E6720E28094206D474E2065E5
:1003D000727A657567742065696E650D0A00506DE7
:1003E000204552520D0A00506D20792000506D209A
:1003F000455252206172670D0A00506D207720002F
:10040000506D20455252206172670D0A00506D20D8
:100410006B65696E204E65747A7765726B7363687D
:100420006C75657373656C0D0A00506D20772073D1
:1004300063686C75657373656C2067657365747A42
:10044000740D0A00506D20455252206B65790D0ADB
:1004500000506D204552522074780D0A00506D20D6
:100460007478206F6B0D0A00506D204E55522D4C44
:100470004553454E20286D4C3020676962742066D4
:10048000726569290D0A00506D2045525220626143
:1004900075656E0D0A00506D2045525220647374CC
:1004A0000D0A00506D204552522063742F7365630E
:1004B0000D0A00506D2055727A757374616E642058
:1004C000E28094204B656E6E756E672C20536368D6
:1004D0006C75657373656C20756E64205A61656810
:1004E0006C65722067656C6F65736368740D0A00D4
:1004F000506D20455252206D61726B6520E28094F0
:100500002065727374206D562066726167656E0D8A
:100510000A002028414C4C4553207765673A204B10
:10052000656E6E756E672C205363686C75657373AA
:10053000656C2C205A6165686C6572290D0A002073
:10054000E28094206C6F65736368656E206D6974DA
:10055000206D5600506D206D61726B653D00506DD1
:1005600020455252206B65696E652053657269653E
:100570006E6E756D6D65720D0A00506D207A616545
:10058000686C65723D300D0A00506D2000206C6F64
:1005900076663D00206372656469743D00506D208D
:1005A0006275646765743D00506D20766F726C6192
:1005B00075663D002053454E44454E204652454900
:1005C0004745474542454E00206E7572206C657365
:1005D000656E2C2053656E64656E2067657370656B
:1005E00072727400506D204C3D00506D2053756345
:1005F0006865206265656E6465740D0A0020463D7D
:100600000020453D0020443D0020433D00506D202A
:1006100041454E4420423D0020202D2D20323020E7
:1006200073205A6569742C206A65747A7420647228
:100630007565636B656E0D0A0020463D0020453DE3
:100640000020443D0020433D00506D2072756865D8
:1006500020423D00506D2072656C6169733D005011
:100660006D2065727A65756765204B656E6E756E77
:10067000672E2E2E0D0A00506D20736E3D00506DBA
:100680002045525220736E0D0A00506D206B657923
:100690002077697264206E6963687420766F6E20BB
:1006A00061757373656E2067657365747A7420E293
:1006B000809420416E6C65726E656E20286D475087
:1006C000290D0A00506D204E65747A7765726B7340
:1006D00063686C75657373656C20766572776F728D
:1006E00066656E20E2809420616C6C6520476572BF
:1006F00061657465206E657520616E6C65726E65EE
:100700006E0D0A00506D20616464723D00506D20D2
:1007100045525220616464720D0A005A656E74720B
:10072000616C650047657261657400506D20726F81
:100730006C6C653D004220626F6F746C6164657221
:100740000D0A003F200D0A0057204552520D0A00A5
:1007500043204552520D0A00422045525220284261
:100760003031290D0A0058204552520D0A003F2011
:100770000D0A003F20283F20697320756E6B6E6F55
:10078000776E2920557365206F6E65206F66204156
:100790002042204320502054205620572058206DBE
:1007A0000D0A005620712D63756C667720322E304D
:1007B0002E3732005078206F6B0D0A005072206F78
:1007C0006B0D0A00204F484E45204144524553537B
:1007D00045202841612900417120004177200041D6
:1007E0006120005620712D63756C667720322E30A3
:1007F0002E3732005073204552520D0A004E55528A
:100800002D4C4553454E20286D4C3020676962744D
:100810002066726569290D0A004C454E4552520DFD
:100820000A00206E706B3D00206E6F6973653D009D
:1008300020726563616C3D0020706C6C3D0020741B
:10084000786572723D002074783D00206677643DC3
:100850000020616B646F703D00206B3672783D0044
:10086000206B3674783D002061636B733D0020641B
:1008700075703D00206D69633D00206F6B3D005039
:100880006D2072783D00206C6F76663D00206372AB
:10089000656469743D00506D206275646765743DE0
:1008A000002072656C6169733D00206E75726C6525
:1008B00073656E3D0020726F757465723D0020692E
:1008C000636D7061636B3D002061636B3D0020735D
:1008D0006E3D00206B65793D0020616464723D00CF
:1008E0005A656E7472616C6500476572616574006B
:1008F00020726F6C6C653D006175730065696E00F8
:10090000506D200020613D310020663D0020617265
:100910003D002061636B3D00207669613D002073DE
:100920006E3D002063743D00207365633D002064CC
:1009300073743D00207372633D00504D00506D2074
:10094000416E6C65726E656E206C616575667420B3
:10095000E28094204B656E6E756E67206D757373C3
:1009600020696E20646572205A656E7472616C65D0
:100970002073746568656E0D0A00506D204E5552E7
:100980002D4C4553454E20286D4C302067696274CC
:100990002066726569290D0A00506D206B65696ECD
:1009A00065204B656E6E756E6720E28094206572DF
:1009B0007374206D474E0D0A00506D206175737081
:1009C00061636B656E206D69742064656D2041758F
:1009D000666B6C656265727363686C75657373656D
:1009E0006C0D0A00506D206E776B2E656E633D00B6
:1009F000506D206B65696E204E65747A7765726BF9
:100A00007363686C75657373656C0D0A00506D20B7
:100A10007061636B652065696E2E2E2E0D0A005085
:100A20006D206B65696E204E65747A7765726B73A5
:100A300063686C75657373656C20E28094206572E1
:100A4000737420616E6C65726E656E20286D475000
:100A5000290D0A0003AF8BB08DFBC84765081961EB
:100A6000DC9433D203AF8BB08DFBC84765081961A6
:100A7000DC9433D2506D205A7566616C6C7371755D
:100A8000656C6C6520746F7420E280942046756EEE
:100A90006B63686970207072756566656E20286D7D
:100AA0005A292C206E69636874732065727A6575A3
:100AB00067740D0A00506D2072656C6169733D00AA
:100AC000506D204C4F56460D0A00637C777BF26BCD
:100AD0006FC53001672BFED7AB76CA82C97DFA5944
:100AE00047F0ADD4A2AF9CA472C0B7FD9326363FA9
:100AF000F7CC34A5E5F171D8311504C723C3189696
:100B0000059A071280E2EB27B27509832C1A1B6E37
:100B10005AA0523BD6B329E32F8453D100ED20FCD9
:100B2000B15B6ACBBE394A4C58CFD0EFAAFB434DDC
:100B3000338545F9027F503C9FA851A3408F929D79
:100B400038F5BCB6DA2110FFF3D2CD0C13EC5F9769
:100B50004417C4A77E3D645D197360814FDC222A6F
:100B6000908846EEB814DE5E0BDBE0323A0A4906A6
:100B7000245CC2D3AC629195E479E7C8376D8DD51A
:100B80004EA96C56F4EA657AAE08BA78252E1CA6F2
:100B9000B4C6E8DD741F4BBD8B8A703EB566480352
:100BA000F60E613557B986C11D9EE1F8981169D9D5
:100BB0008E949B1E87E9CE5528DF8CA1890DBFE658
:100BC000426841992D0FB054BB1611241FBECFEFC0
:100BD000DAE0DEBFCDBF11E0A0E0B1E0EAE8FAE67E
:100BE00002C005900D92AA33B107D9F723E0AAE31A
:100BF000B1E001C01D92AD36B207E1F70E945C136F
:100C00000C9404350C9400002FB7F89460917E0288
:100C100070917F0280918002909181022FBF089590
:100C20004F925F926F927F928F929F92AF92BF92FC
:100C3000CF92DF92EF92FF920E94040640906903E8
:100C400050906A0360906B0370906C036B017C01A1
:100C5000C418D508E608F70828EEC21623E0D20625
:100C6000E104F10480F1C701B60128EE33E040E071
:100C700050E00E946834A8EEB3E00E949034460E23
:100C8000571E681E791E4092690350926A03609253
:100C90006B0370926C0380EAC8168BEBD8068DE06C
:100CA000E806F10450F48091130190911401820F31
:100CB000931F843823E0920710F084E893E0909328
:100CC000140180931301FF90EF90DF90CF90BF90BD
:100CD000AF909F908F907F906F905F904F9008950E
:100CE00080917D02811561F00E94040628E730E0C2
:100CF00040E050E00E94683420FF12C0769A0895C8
:100D000080917C02409178025091790260917A0240
:100D100070917B02452B462B472B21F0811571F3F7
:100D2000769808958115E1F3E9CF0F931F93CF9340
:100D3000DF93EC010E940406DC01CB018C0F9D1FA8
:100D4000A11DB11D009178021091790220917A02C3
:100D500030917B02081719072A073B0740F480935C
:100D6000780290937902A0937A02B0937B02DF918C
:100D7000CF911F910F910C94700690ED980F9A30BF
:100D800010F4892F08959FE9980F963010F4875535
:100D900008959FEB980F963010F4875308958FEFC6
:100DA0000895CF92DF92EF92FF920F931F93CF930C
:100DB000DF937B01D42F8C01C12CD12CC0E0F80132
:100DC00081918F01811511F0CD1750F08C2FDF919B
:100DD000CF911F910F91FF90EF90DF90CF900895EA
:100DE000803269F38A3359F30E94BD068F3F71F355
:100DF000D11441F0F701EC0FF11D8C298083CF5FF6
:100E0000D12CDDCFC82EC29480EFC822DD24D3942C
:100E1000D6CFDC01EEE0F0E080E031E23093570025
:100E200094919D93915021E09E3F08F020E0822B09
:100E30003196E831F10591F708958EBD0DB407FEA6
:100E4000FDCF8EB5089528981B99FECF0895CF93B6
:100E5000C82F0E9423078C2F80680E941D0780E006
:100E60000E941D07289ACF910895CF93C82F0E9402
:100E700023078C2F806C0E941D0780E00E941D07B5
:100E8000289ACF910895CF93DF93D82FC62F0E9431
:100E900023078D2F0E941D078C2F0E941D07289A63
:100EA000DF91CF91089585E30E9435078F710895F2
:100EB00080917A01811531F08091A501843019F07B
:100EC00010927A01089583E08093E9008091E80010
:100ED00080FFF8CF80E090917A01891750F08091DF
:100EE000E800982F9E7F9093E8008F778093E8002A
:100EF000E7CFE82FF0E0E65CFE4F90819093F100A1
:100F00008F5FE9CF80919D0187FF17C08091E80036
:100F100082FF0AC08091E800982F9B7F9093E800A1
:100F20008F778093E80008958091A5018111EECF1D
:100F300008958091A5018115D9F38091E80080FF83
:100F4000F8CF8091E800982F9E7FE8CF8091D8005D
:100F50008E7F8093D8001092E2001092DA001092F7
:100F6000E1001092A50110929C0110929B01109239
:100F70009A018AE482BF19BC89B5826089BD09B42F
:100F800000FEFDCF8091D800982F9F779093D800D6
:100F900080688093D8008091D70081608093D700CB
:100FA0008091D8008F7D8093D8008091E0008B7F66
:100FB0008093E0008091E0008E7F8093E00080913C
:100FC000E1008E7F8093E1008091E2008160809358
:100FD000E2008091E100877F8093E1008091E20050
:100FE00088608093E2008091D80081608093D8006F
:100FF00008958093E900EBEEF0E0808181608083CA
:10100000EDEEF0E010826093EC0040838091EE0002
:101010000895CF93C82F0E9423078C2F0E941D078D
:10102000289ACF910895CF93C4E60E945307982F32
:101030009F7E913051F0863141F087EC90E001972E
:10104000F1F700C00000CA9581F7CF91089586E3BB
:101050000E9409080E9413088BE30E9409088AE392
:101060000C9409080E94270884E30C940908CF9384
:10107000C0E00E94130883E30E9409080E9413083D
:1010800085E20E9427078F3369F0C11549F08091EE
:101090001602909117020196909317028093160200
:1010A000CF91089586E30E940908CF5FC33009F706
:1010B00080911402909115020196909315028093ED
:1010C0001402EECFCF93C82F0E9453078D30C1F486
:1010D0004B9916C0C115B1F0809112029091130284
:1010E0000196909313028093120286E30E940908EE
:1010F0000E94370884E30E94090882E080938101FE
:10110000CF91089585E20E9427078F33C9F7809118
:101110001802909119020196909319028093180277
:10112000E4CF0F931F93CF93C82F01ED17E0E09109
:101130007A01E03478F481E08E0F80937A01F0E058
:10114000E65CFE4FC0838034C9F4CF911F910F91AC
:101150000C9458070E945807E0917A01E03458F344
:101160008091A501843041F40150104039F08AE1AA
:101170008A95F1F700C0DBCFE0E0DDCFCF911F9182
:101180000F910895CF93DF93EC01FE018491219696
:10119000811103C0DF91CF9108950E949108F5CF8E
:1011A00084E79AE00C94C208CF93C82F82958F7081
:1011B000C03A58F4805D0E9491088C2F8F708A305D
:1011C00030F4805DCF910C949108895CF4CF895CF8
:1011D000F9CFCF93DF93EC0188810E94D4088981F5
:1011E0000E94D4088A81DF91CF910C94D4081F9378
:1011F000CF93DF93EB01182F892F0E94D408812F02
:101200000E94D4088D2F0E94D4088C2FDF91CF919B
:101210001F910C94D4084F925F926F927F928F929D
:101220009F92AF92BF92CF92DF92EF92FF921F9365
:10123000CF93DF93CDB7DEB72B970FB6F894DEBF11
:101240000FBECDBF6B017C01C114D104E104F104D8
:10125000C1F480E32B960FB6F894DEBF0FBECDBF6E
:10126000DF91CF911F91FF90EF90DF90CF90BF90D3
:10127000AF909F908F907F906F905F904F900C9465
:101280009108CE0101965C0110E04C018AE0482EE5
:10129000512C612C712CC701B601A30192010E944F
:1012A00068341F5F605DF50161935F01D701C6017E
:1012B00069017A010A97A105B10510F01B3059F7B1
:1012C0001150F401E10FF11D80810E94910811116C
:1012D000F7CF2B960FB6F894DEBF0FBECDBFDF91D0
:1012E000CF911F91FF90EF90DF90CF90BF90AF9084
:1012F0009F908F907F906F905F904F900895CF93C5
:10130000DF93EC0197FF06C08DE20E949108D19512
:10131000C195D109BE01DD0F880B990BDF91CF91EB
:101320000C940B098DE00E9491088AE00E949108BC
:101330000C945807EF92FF920F931F93CF93DF9374
:10134000C62FE42ED52FF22E0E9491088C2F0E94DA
:10135000D4080E2D1D2FC00FD12FD11DF801819162
:101360008F010E94D4080C171D07C1F78F2D0E9412
:10137000D408DF91CF911F910F91FF90EF900C94C3
:101380009209CF92DF92EF92FF920F931F93CF9328
:10139000DF936C01EB01E42EF22E8AE399E00E94C8
:1013A000C2088C890E94D40810E08C89181708F4B0
:1013B0006DC08E2D0E94D4088F2D0E94D40884E326
:1013C00099E00E94C208CE0103960E94E9088EE2CD
:1013D00099E00E94C208CE0106960E94E90888E2C0
:1013E00099E00E94C2086E8970E080E090E00E945F
:1013F0000B0983E299E00E94C2086F8970E080E0E7
:1014000090E00E940B098EE199E00E94C2086C8571
:101410007D858E859F850E94F7088C8D85FF08C08D
:1014200088E199E00E94C208CE0109960E94E9086D
:101430008C8D82FF14C082E199E00E94C208688905
:1014400079898A899B890E94F7088DE099E00E943A
:10145000C2086A8D70E080E090E00E940B0989E08C
:1014600099E00E94C2088C8D0E94D408011521F0D9
:1014700084E099E00E94C208DF91CF911F910F9103
:10148000FF90EF90DF90CF900C949209F601E10F5E
:10149000F11D80810E94D4081F5F87CFCF93DF9317
:1014A00000D00F92CDB7DEB780913603909137030D
:1014B000A091380389839A83AB8380E099E00E94EE
:1014C000C20880912302811509F46EC18CEF98E067
:1014D0000E94C20880EF98E00E94C20880914103F8
:1014E000813009F064C189EE98E00E94C20889ED5C
:1014F00098E00E94C208CE0101960E94E90883ED9F
:1015000098E00E94C20880914403811509F452C1F9
:1015100081E30E9491088EEC98E00E94C2086091DD
:10152000390370913A0380913B0390913C030E94F0
:10153000F70888EC98E00E94C20880910F01805D56
:101540000E9491088EEB98E00E94C20880914503AA
:10155000811509F431C181E30E94910885EB98E07F
:101560000E94C20880911A02811509F427C181E303
:101570000E9491088AEA98E00E94C20880911201B4
:10158000811509F41DC181E30E94910881EA98E068
:101590000E94C20880917C02811509F413C181E385
:1015A0000E9491080E9492090E94100686E998E024
:1015B0000E94C20880911101811509F405C181E3DF
:1015C0000E9491088DE898E00E94C2086091130182
:1015D0007091140180E090E00E940B098FE20E945C
:1015E000910864E873E080E090E00E940B0986E8CF
:1015F00098E00E94C208609167037091680380E0E0
:1016000090E00E940B090E9492098FE798E00E94E7
:10161000C208609124027091250280E090E00E944F
:101620000B098AE798E00E94C20860912602709137
:10163000270280E090E00E940B0984E798E00E9476
:10164000C208609128027091290280E090E00E9417
:101650000B098EE698E00E94C20860912A02709100
:101660002B0280E090E00E940B0987E698E00E9440
:10167000C20860912C0270912D0280E090E00E94DF
:101680000B0980E698E00E94C208609134027091D4
:10169000350280E090E00E940B0989E598E00E9405
:1016A000C208609136027091370280E090E00E949B
:1016B0000B0981E598E00E94C208609138027091A0
:1016C000390280E090E00E940B098BE498E00E94D0
:1016D000C20860912E0270912F0280E090E00E947B
:1016E0000B0986E498E00E94C20860913002709174
:1016F000310280E090E00E940B098EE398E00E94A6
:10170000C208609132027091330280E090E00E9442
:101710000B0988E398E00E94C2086091180270915A
:10172000190280E090E00E940B098FE20E9491086C
:10173000609116027091170280E090E00E940B0900
:101740008FE20E949108609114027091150280E06E
:1017500090E00E940B0980E398E00E94C20860912B
:1017600012027091130280E090E00E940B0988E25F
:1017700098E00E94C20880910E01082E000C990B7F
:101780000E947F0982E298E00E94C20880910D01C8
:10179000082E000C990B0E947F090F900F900F905C
:1017A000DF91CF910C94920988EF98E091CE80EE72
:1017B00098E09BCE80E3ADCE80E3CECE80E3D8CE62
:1017C00080E3E2CE80E3ECCE80E3FACEEF92FF92AC
:1017D0000F931F93CF93DF9300D000D0CDB7DEB728
:1017E0007B018C010E940B3469837A838B839C83F9
:1017F0002091740284E0289F90011124B901605C5B
:101800007E4F44E050E0CE0101960E94E2342091E8
:10181000740230E02F5F3F4F27703327209374020C
:10182000E0928202F0928302009384021093850278
:101830000F900F900F900F90DF91CF911F910F910C
:10184000FF90EF900895AF92BF92CF92DF92EF9208
:10185000FF920F931F93CF93DF93CDB7DEB7EF9730
:101860000FB6F894DEBF0FBECDBFD82EE92E162FCF
:10187000F42E00911201011126C0809111018115F1
:10188000D9F10E94100628E0129FC001112485544E
:101890009F4F64E670E00E94543420911301309110
:1018A00014012617370710F580916703909168039C
:1018B0000196909368038093670380EC9AE00E94FE
:1018C000C2080E94580700E0802FEF960FB6F894E8
:1018D000DEBF0FBECDBFDF91CF911F910F91FF9063
:1018E000EF90DF90CF90BF90AF900895261B370BFD
:1018F00030931401209313018FEF810F8D3308F083
:10190000BDC01983412F50E06D2D7E2DCE01029672
:101910000E94B7342B818A8196E789278A8392E0D7
:10192000AE014F5F5F4FD42EC52EFA01E90FF11DB6
:1019300030816981961708F449C0822F83278083FC
:101940000E942708F11047C00E9423078FE70E94DA
:101950001D07ED2CFC2CF70181917F010E941D07D2
:101960008E2D8D191817B8F7289A85E30E9409085B
:10197000E12CF12C9CE2C92EDD24D3940E94530764
:10198000833109F058C09AE0910F80E0EFECF7E066
:101990003197F1F700C000008F5F8917B8F384EF2B
:1019A000E82EFF24F3948AE30E9435078F77811194
:1019B0005CC00E9453078D3019F084E30E9409082F
:1019C00084EB90E00E949506012F58C08452832733
:1019D00080839F5FAACF85E30E940908E12CF12C48
:1019E0002CE2A22EBB24B3940E945307833151F4FE
:1019F00084E2EFE1FEE43197F1F700C000008A9540
:101A0000C1F7A2CF87EC90E00197F1F700C000008A
:101A1000C701B5010E9454348B32914019F485E31B
:101A20000E940908FFEFEF1AFF0A28EBE2162BE0ED
:101A3000F206D1F6DDCF87EC90E00197F1F700C018
:101A40000000C701B6010E9454348B32914019F452
:101A500085E30E940908FFEFEF1AFF0A28EBE21660
:101A60002BE0F20609F08ACF8ECF0E945307863111
:101A700061F50E94270884E30E94090860913903F8
:101A800070913A0380913B0390913C03C090820295
:101A9000D0908302E0908402F09085026C157D0561
:101AA0008E059F0578F09B01AC012C193D094E096C
:101AB0005F0969017A01C11434E0D306E104F1043D
:101AC00008F402CF0E94E60BFFCE8FEC97E001975F
:101AD000F1F700C0000091E0E91AF10809F063CFC6
:101AE000C8CF8F929F92AF92BF92CF92DF92EF9228
:101AF000FF920F931F93CF93DF93CDB7DEB7C05400
:101B0000D1090FB6F894DEBF0FBECDBF6C01CE0178
:101B100001967C015E0191E4A90EB11C470108E029
:101B200010E084E30E943507110F8170182BEFEE4F
:101B3000F0E03197F1F700C000000A9591F780912D
:101B40008400909185001827F70111937F01EA1511
:101B5000FB0529F760E470E0C4010E94722C892B18
:101B600051F4A60160E470E0C4010E94342C01E04D
:101B7000892B09F000E0802FC05CDF4F0FB6F8948E
:101B8000DEBF0FBECDBFDF91CF911F910F91FF90B0
:101B9000EF90DF90CF90BF90AF909F908F9008957F
:101BA0000F931F93CF93DF930F92CDB7DEB701E072
:101BB00009838091730281112BC083E692E00E9419
:101BC000710D182F811109C00E94D008812F0F902C
:101BD000DF91CF911F910F91089540E150E060E6B1
:101BE00071E083E692E00E94E23441E050E060E779
:101BF00071E0CE0101960E94E234009373021982D3
:101C000041E050E065E371E0CE0101960E94E234CC
:101C100011E0DCCF4F925F926F927F928F929F92F2
:101C2000AF92BF92CF92DF92EF92FF920F931F93EA
:101C3000CF93DF93CDB7DEB7C05DD1090FB6F8946F
:101C4000DEBF0FBECDBF3C01CE018F549F4F20E1C0
:101C5000E3E6F2E0DC0101900D922A95E1F700E065
:101C600010E07C019CE0A92EB12CA80183E05695E0
:101C700047958A95E1F747019E012F533F4FC12CAD
:101C8000D12C2901C8018C0D9D1DFC01EF70FF278F
:101C9000EC59F54FE491D401FD914D01B5010E943D
:101CA0005434DC01A95ABD4FE427EF278C918E27CD
:101CB000F90181939F01FFEFCF1ADF0A80E1C81677
:101CC000D10401F7B701CE0101960E947826A70141
:101CD000B201CE0101960E94D8260F5F1F4F053238
:101CE000A1E01A0711F680E1F701D30101900D92EE
:101CF0008A95E1F7C053DF4F0FB6F894DEBF0FBEF1
:101D0000CDBFDF91CF911F910F91FF90EF90DF90AA
:101D1000CF90BF90AF909F908F907F906F905F908B
:101D20004F900895EF92FF920F931F93CF93DF93FD
:101D3000CDB7DEB7C05ED1090FB6F894DEBF0FBED7
:101D4000CDBF8C01E4E5FAE0DE01AF54BF4FCD0119
:101D50004096AD0124912D933196A817B907D1F77C
:101D6000DE01AF53BF4F27E030E07D0189EF820FE6
:101D70006CE00E944834E92FF0E0E95AFD4FB901C8
:101D80006F707727640F751F8081FB019081892711
:101D90008D932F5F3F4F2731310541F7BA01CE01B7
:101DA00001960E947826AE014F525F4FB701CE01D7
:101DB00001960E94D826F801BE016F527F4F98010C
:101DC000205F3F4F8191DB019D91BD01AF014150EB
:101DD00051098927DA018C93E217F30799F7C0526A
:101DE000DF4F0FB6F894DEBF0FBECDBFDF91CF91AE
:101DF0001F910F91FF90EF900895CF92DF92FF9285
:101E00000F931F93CF93DF93CDB7DEB7C15ED10998
:101E10000FB6F894DEBF0FBECDBFF82E192F6E019E
:101E20008EEDC80ED11C84E0F60111928A95E9F777
:101E30000E94D00D811579F1CE018F549F4F0E94E1
:101E40000A0EAE014F525F4FB60187E592E00E9445
:101E50008D2ABE016F547F4FCE0101960E947826D5
:101E600000E19E012F533F4F4F2D512FBE016F5266
:101E70007F4FCE0101960E94E428CE018F539F4FE1
:101E80000E94920E40E150E06EE171E0CE018F536E
:101E90009F4F0E94E234CF51DF4F0FB6F894DEBF60
:101EA0000FBECDBFDF91CF911F910F91FF90DF90BB
:101EB000CF900895CF92DF92EF92FF920F931F93EE
:101EC000CF93DF93CDB7DEB7C25ED1090FB6F894DA
:101ED000DEBF0FBECDBF7C01CE51DF4F1882C25E88
:101EE000D0406E018EEDC80ED11C84E0F601119237
:101EF0008A95E9F741E050E065E371E0CE018E514B
:101F00009F4F0E94D234109156021115D1F11091B9
:101F100073021115B1F1CE51DF4F1881C25ED0406E
:101F2000113009F03FC040E150E06EE171E0CE01B8
:101F30008F539F4F0E94D234CE018F539F4F0E94E8
:101F4000920ECE018F549F4F0E940A0EAE014F5247
:101F50005F4FB60187E592E00E948D2ABE016F5463
:101F60007F4FCE0101960E94782600E19701AE01D5
:101F70004F535F4FBE016F527F4FCE0101960E94BB
:101F8000E428812FCE51DF4F0FB6F894DEBF0FBE8D
:101F9000CDBFDF91CF911F910F91FF90EF90DF9018
:101FA000CF90089510E0EDCF8F929F92AF92BF92A5
:101FB000CF92DF92EF92FF920F931F93CF93DF9315
:101FC000CDB7DEB7C650D1400FB6F894DEBF0FBE16
:101FD000CDBFCA5FDE4F1882C650D14041E050E00D
:101FE00065E371E0CE018A5F9E4F0E94D2348091FA
:101FF0005602811539F0CA5FDE4F8881C650D14044
:10200000813029F08FE19AE00E94C20843C08DE040
:102010009AE00E94C2080E945807CE018F519F4F3C
:102020000E94710D8115A1F1CF51DF4F8881C15EF2
:10203000D040CE5FDE4F8883C250D140CE51DF4FBB
:102040008881C25ED040CD5FDE4F8883C350D140CF
:10205000CD51DF4F8881C35ED040CC5FDE4F888397
:10206000C450D140CC51DF4F8881C45ED040CB5F9B
:10207000DE4F8883C550D1407E0181EBE80EF11C14
:10208000C7010E945A0F811119C080EF99E0BCCF9F
:102090000E94D008CA5FDE4F0FB6F894DEBF0FBEB5
:1020A000CDBFDF91CF911F910F91FF90EF90DF9007
:1020B000CF90BF90AF909F908F9008954E0191ED7B
:1020C000890E911CC4010E940A0EAE014F505F4F51
:1020D000BE016E5F7E4F87E592E00E948D2AB401BB
:1020E000CE0101960E9478265E01E1ECAE0EB11C95
:1020F00000E19501A701BE016F507F4FCE0101960F
:102100000E94E4286E01FEEFCF0ED11C860120E173
:10211000A701BE016F507F4FCE0101960E943A2A5F
:1021200080E1F701982F11929A95E9F7F401119245
:102130008A95E9F784EE99E00E94C2080C5F1F4F70
:10214000C80104964C017601F80181918F010E942B
:10215000D40808151905C1F785016501F0E1CF0E16
:10216000D11CF80181918F010E94D4080C151D0526
:10217000C1F78701F4E0EF0EF11CF80181918F01A6
:102180000E94D4080E151F05C1F70E94920989EB21
:1021900099E03ACFAF92BF92CF92DF92EF92FF9247
:1021A0000F931F93CF93DF93CDB7DEB7C453D140C6
:1021B0000FB6F894DEBF0FBECDBF7E018EECE81ADD
:1021C0008EEFF80A8091150190911601A0911701E8
:1021D000F70180839183A2836E01F1EFCF0ED11CB2
:1021E000D60180E18D938CE0E7E5F2E001900D925D
:1021F0008A95E1F7F601158681E086871786108AB1
:10220000818B8AEE828B82E0838B98E1948B858B25
:1022100080E4868B83E0878B8091520290915302F9
:10222000A0915402B0915502808F918FA28FB38FED
:10223000AE014F5D5E4F62E572E087E592E00E947D
:102240008D2A62E472E0CE0101960E9478268E010A
:10225000025D1E4F2CE1A601BE016F5D7E4FCE01D7
:1022600001960E943328C25DDE4F8881CE52D14054
:10227000F601848FC15DDE4F8881CF52D140858FBA
:10228000C05DDE4F8881C053D140868FCF5CDE4F6A
:102290008881C153D140878FEAE3F2E0D60190965E
:1022A00082E492E0B701760121912D938E179F076A
:1022B000D9F7CE018F549F4F5C0188E2C82E00E011
:1022C00010E020E041E086E892E00E949331682F20
:1022D000811579F040E0C5010E94230C811549F079
:1022E0008091300290913102019690933102809357
:1022F0003002CC5CDE4F0FB6F894DEBF0FBECDBF10
:10230000DF91CF911F910F91FF90EF90DF90CF90D1
:10231000BF90AF900895CF93DF93CDB7DEB76097AE
:102320000FB6F894DEBF0FBECDBF8091560281116B
:102330000CC089E999E060960FB6F894DEBF0FBE35
:10234000CDBFDF91CF910C94C2088091120181150D
:1023500019F08AE799E0EFCFCE0101960E94710D46
:10236000811591F08981809352028A818093530272
:102370008B81809354028C8180935502CE0101960B
:102380000E94710D81110BC00E94D00860960FB69B
:10239000F894DEBF0FBECDBFDF91CF91089588E0E6
:1023A000FE013196AAE3B2E001900D928A95E1F721
:1023B00021E030E040E652E060E070E086E892E044
:1023C0000E94CA2D81E08093230280937D020E94A7
:1023D0000406DC01CB01805A9541AF4FBF4F80937B
:1023E0001F0290932002A0932102B09322020E9428
:1023F0000406DC01CB01805C904EAF4FBF4F809351
:102400001B0290931C02A0931D02B0931E028DE349
:1024100099E00E94C2080E94CA10B8CF0F931F9380
:10242000CF93DF93CDB7DEB7C054D1090FB6F89480
:10243000DEBF0FBECDBFAC01262F8E010F5F1F4F39
:1024400065E772E086E892E00E945132682F8115BC
:1024500079F040E0C8010E94230C811549F0809179
:1024600030029091310201969093310280933002B4
:10247000C05CDF4F0FB6F894DEBF0FBECDBFDF915B
:10248000CF911F910F910895CF93DF93CDB7DEB712
:1024900060970FB6F894DEBF0FBECDBF85E8898385
:1024A0008091100191E0980F909310018A8382E04F
:1024B0008B8390E89C8398E09D838E831F8283E0CA
:1024C000888780917C02811188EC898784E08A87E3
:1024D0001B8685E08C871D866DE0CE0101960E94EB
:1024E0000E1260960FB6F894DEBF0FBECDBFDF911F
:1024F000CF910895CF93C62F80937C020E947006DF
:1025000085EB9AE00E94C20880917C028115C1F09F
:1025100081E30E9491080E949209C11599F080916F
:102520004403811579F08091750290917602892B90
:1025300090917702892B811529F0CF910C94441248
:1025400080E3E7CFCF910895CF92DF92EF92FF9291
:102550001F93CF93DF93CDB7DEB7EE970FB6F89406
:10256000DEBF0FBECDBF162F4EE3BE016F5F7F4FA4
:102570000E94D106823028F029819FEF980F2917F9
:1025800029F089E198E00E94C20840C090911201B0
:10259000911519F08DEF97E0F6CF909111029115FA
:1025A00009F442C0909108029115F1F18A30E0F1EE
:1025B0008C818230C9F59A8180910902981334C0C8
:1025C00043E050E06AE072E0CE0108960E94AA342F
:1025D000892B51F50E940406C0900D02D0900E0286
:1025E000E0900F02F09010026C197D098E099F098E
:1025F0006D3D754081059105B8F480913802909148
:10260000390201969093390280933802EE960FB604
:10261000F894DEBF0FBECDBFDF91CF911F91FF9029
:10262000EF90DF90CF900895111529F041E080914F
:102630000C01811101C040E06981CE0102960E9427
:10264000230C811551F08091300290913102019656
:102650009093310280933002D9CF809132029091D1
:1026600033020196909333028093320284EF97E015
:102670008ACF1F921FB61F9211248F939F93AF93FF
:10268000BF9380917E0290917F02A0918002B091D1
:1026900081020196A11DB11D80937E0290937F025D
:1026A000A0938002B0938102BF91AF919F918F91CF
:1026B0001F901FBE1F901895CDB7DEB7C758D140E9
:1026C0000FB6F894DEBF0FBECDBF84B7877F84BF3F
:1026D0000FB6F894A895809160008861809360009F
:1026E000109260000FBE80E820E030E00FB6F89452
:1026F00080936100209361000FBE0E94A607809125
:10270000D80080618093D80081E08093FB017894A9
:1027100084B1876084B92398209A289A80E58CBD7B
:102720001DBC539852986E9A289A20E52A95F1F785
:10273000289830E53A95F1F7289A48E74A95F1F755
:1027400080E30E9409088FE19EE40197F1F700C041
:10275000000010E0612F70E0CB0186529F4FFC011A
:1027600024912F3F09F03CC263EC8EE30E944307A3
:102770000E9437080E9432086A98109280008BE00D
:10278000809381008CE790E090938900809388008B
:1027900082E080936F00789442E050E060E071E066
:1027A000CE0101960E94D23489819A81813391456C
:1027B00009F020C24CE050E062E071E087E592E071
:1027C0000E94D23440E150E06EE071E082E492E099
:1027D0000E94D23481E080935602198241E050E099
:1027E00060E771E0CE0101960E94D2341981113068
:1027F00009F002C240E150E060E671E083E692E059
:102800000E94D234109373024E0125E8820E911C6F
:1028100083E0D4011D928A95E9F720E030E0A4011D
:1028200060E070E086E892E00E94CA2D00E411E0CA
:10283000C12CD12C7601B12C44E050E0B801CE017E
:1028400001960E94D23449805A806B807C80C301FB
:10285000B2010E940B34462F572FBC01B39447207E
:1028600046204520409459F0C416D506E606F706E2
:1028700030F48B2D8770809374026A017B010C5FAA
:102880001F4FE8E0BE12D8CFC114D104E104F10417
:10289000B1F444E050E061E371E0CE0101960E94A2
:1028A000D23469817A818B819C816F3FFFEF7F07F2
:1028B0008F079F0721F00E940B346B017C01B70149
:1028C000A6015C5F6F4F7F4F86E892E00E94222E48
:1028D0006091390370913A0380913B0390913C03DE
:1028E0000E94E60BCE0101960E945A0F811539F025
:1028F000BE016F5F7F4F86E892E00E94072E83EE55
:1029000097E00E94C2080E949209D12C3E0126EF56
:10291000621A2EEF720AA4014F5F5F4FCE57DE4F4F
:1029200059834883C258D140BDEC4B2E512C4C0EDC
:102930005D1E52E2450E511CCE0183539F4F85967A
:10294000CC57DE4F99838883C458D140D301139666
:10295000CA57DE4FB983A883C658D1401401B0E1ED
:102960002B0E311C4B9B58C182E30E94350780938C
:10297000800190917B01911141C191E090937B0185
:1029800080937D0180937E0180937F0110927C0172
:1029900080917C018F3F19F08F5F80937C014A9971
:1029A0003EC10E945307813111F40E943208809188
:1029B0007D02811509F47DC40E9470060E94040600
:1029C0000091000110910101209102013091030159
:1029D000601B710B820B930B97FD8AC40E94040647
:1029E000DC01CB0180569444A24FBF4F809300017D
:1029F00090930101A0930201B093030181E00E9432
:102A000062088CB1847090918B019111E1C48115A1
:102A100019F081E080938B0180917D028115E9F0AE
:102A20000E940406462F572FBC0180911F029091EF
:102A30002002A0912102B0912202481759076A078B
:102A40007B0708F426C510927D020E94700684EF71
:102A500091E00E94C2080E94920910919001111504
:102A600009F45FC00E94040620918C0130918D0111
:102A700040918E0150918F0162177307840795076B
:102A800008F44FC00E940406DC01CB0180559B4F27
:102A9000AF4FBF4F80938C0190938D01A0938E0117
:102AA000B0938F01123009F411C5133009F42AC50F
:102AB000113069F580E3C353DF4F8883CD5CD0408C
:102AC0005401CC24C394AE0143535F4F7A0100E01C
:102AD00010E021E041E065E772E086E892E00E94C4
:102AE0009331682F811579F040E0C4010E94230CD6
:102AF000811549F0809130029091310201969093B6
:102B000031028093300289E592E00E94C2080E945F
:102B10005807809190018F5F843008F0F8C480934B
:102B2000900180919101811581F00E94040600912D
:102B30009601109197012091980130919901601BA5
:102B4000710B820B930B97FFEBC48091A501811150
:102B500046C50E945807E091E7018091E601E81719
:102B600010F00C94BC1D81E08E0F8093E701F0E023
:102B7000EA55FE4F808190E08D30910529F08A3032
:102B8000910511F00C941E25FE013196ED0DF11DFD
:102B90001082D11411F40C94FF1D8981813411F03D
:102BA0000C946F1E8A81811511F40C94A01E83373A
:102BB00011F00C94F61D8E010D5F1F4F43E0B40120
:102BC000C8010E94D106282FC80160E0233021F4FB
:102BD000F4016281629561700E94A4120C94FD1D43
:102BE00065527F4FFB016491FC0184910E94430771
:102BF0001E5FB0CD80E0EFCD10E004CE90917E015D
:102C0000891714F480937E0190917D0198170CF040
:102C1000BFCE80937D01BCCE10927B01C0CE8FE3EE
:102C20000E942707C82EE894C7F88FEF8C0D8D33CC
:102C300008F0BBCEF401C1928F010E9423078FEFF1
:102C40000E941D07FF24F39480E00E941D07D80115
:102C50008D938D01F394CF14B8F780E00E941D0787
:102C6000B82E80E00E941D07C258DE4F8883CE57E1
:102C7000D140289AF401818196E79827918392E0C8
:102C8000F401E90FF11D2081D4013C91931708F460
:102C9000C3C012968C91822780834C2D50E0CE5772
:102CA000DE4F68817981C258D140C3010E94B73498
:102CB000EB2CB7FE03C0EE24E394EB0CE5940E2C52
:102CC000000CFF08BAE4EB1AF108E0E8EE16EFEFAB
:102CD000FE0624F4A0E8EA2EFF24FA940E943208AB
:102CE0008091FA01811509F458C08DEE91E00E949F
:102CF000C20880918001082E000C990B0E947F0968
:102D000085EE91E00E94C20880917F01082E000CA0
:102D1000990B0E947F098FED91E00E94C20880917B
:102D20007E01082E000C990B0E947F0989ED91E02D
:102D30000E94C20880917D01082E000C990B0E9410
:102D40007F0985ED91E00E94C20860917C0170E0EE
:102D500080E090E00E940B098EEC91E00E94C20896
:102D6000C7010E947F0988EC91E00E94C2086C2D87
:102D700070E080E090E00E940B0982EC91E00E94FC
:102D8000C2088301D8018D918D010E94D408802F43
:102D900086198C15B8F30E949209909123028091B4
:102DA00007022091FE01822B81113CC0911509F48C
:102DB000FECDB6E0CB123BC043E050E066E373E0EB
:102DC000C3010E94AA34892B09F0F1CD809136020B
:102DD000909137020196909337028093360289EBE7
:102DE00091E00E94C208CA57DE4F88819981C65877
:102DF000D1400E94E90883EB91E00E94C208C30120
:102E00000E94E9088CEA91E00E94C208C7010E9472
:102E10007F090E949209CBCD8452822780839F5FD5
:102E2000822F2ECF9111C5CF00E010E058C08091C5
:102E30000F01811121C080912402909125020196F9
:102E400090932502809324028E01095B1E4F9E0100
:102E500023533F4F4C2DB30186E892E00E94332E5E
:102E6000892B49F180912802909129020196909333
:102E7000290280932802D8CF94014C2DB30186E813
:102E800092E00E944C31811581F040E066E0C4017F
:102E90000E94230C811549F08091340290913502F3
:102EA000019690933502809334028091230281151C
:102EB00009F4BACFC0CF80912602909127020196E3
:102EC0009093270280932602CD59DE4F8881C35606
:102ED000D140897101E0811101C000E011E0A090B2
:102EE000FE01809107028A29811509F43DC188E21B
:102EF00090E00E949506111511F40C949E25A114E2
:102F000031F02E2DA3016C2D80E50E949A09011548
:102F100011F40C94302588E290E00E949506CD597A
:102F2000DE4F8881C356D14087FF0AC020912A0214
:102F300030912B022F5F3F4F30932B0220932A02B8
:102F40008970893059F5C25ADE4F8881CE55D140FB
:102F5000811124C0C55ADE4F88819981CB55D1405B
:102F60000597E0F0C353DF4F8881CD5CD0408638B1
:102F7000A9F4C153DF4F8881CF5CD040823071F417
:102F800081E0CF52DF4F9881C15DD040911101C0E7
:102F900080E060E00E947A120E944412CE2C809160
:102FA0007D02811509F47CC0C55ADE4F8881CB555E
:102FB000D1408D3208F474C0C353DF4F8881CD5C9B
:102FC000D040803209F06CC08CE0E7E5F2E0D4013B
:102FD00001900D928A95E1F780E1E2E4F2E0D401FC
:102FE0001C9601900D928A95E1F780915202909182
:102FF0005302A0915402B0915502F401848F958F31
:10300000A68FB78F88E0EAE3F2E0D40190960190B2
:103010000D928A95E1F7C153DF4F88819981AA818A
:10302000BB81CF5CD040F40180A791A7A2A7B3A732
:1030300088E0FE01E353FF4F3A96D4019C9601903D
:103040000D928A95E1F780E1FE01E353FF4F7296FE
:10305000D401D49601900D928A95E1F7CA50DF4FC2
:1030600088819981AA81BB81C65FD040C753DF4F59
:1030700088839983AA83BB83C95CD040BE016A5907
:103080007E4FC4010E94022B811171C010927D02FB
:103090000E9470068EE891E00E94C2080E94920988
:1030A00090910F01911509F4F8C0CD59DE4F888138
:1030B000C356D14081FD07C0913009F4EEC089703C
:1030C000893009F0EAC0AE014A595E4FBE01695B22
:1030D0007E4F86E892E00E94AA30873109F0DDC079
:1030E00040E067E1CE018A599E4F0E94230C811572
:1030F00009F4CAC080912C0290912D020196909300
:103100002D0280932C02FF24F39480911A028115E2
:1031100019F18401C55ADE4F2881CB55D140AE014B
:1031200043535F4FBE01695B7E4F86E892E00E9489
:10313000DA31682F811581F040E0C4010E94230C30
:10314000811509F4ACC080912E0290912F02019656
:1031500090932F0280932E020F2DC258DE4F2881AC
:10316000CE57D1404C2D87C01111D5CE20CCBE01F9
:103170006A597E4F86E892E00E94072EB20186E8E7
:1031800092E00E94132ECE50DF4F688179818A81B0
:103190009B81C25FD0400E940B34AB01BC0186E82A
:1031A00092E00E94222ECE018A599E4F0E94FD0E6F
:1031B00043E050E06EE271E0C2010E94E23444E07C
:1031C00050E061E371E0CC57DE4F88819981C458AB
:1031D000D1400E94E23411E0C358DE4F1883CD572E
:1031E000D14041E050E065E371E0CE0183589E4F4D
:1031F0000E94E23410927D020E947006C65BDE4F90
:1032000088819981AA81CA54D14080937502909394
:103210007602A093770243E050E066E371E085E731
:1032200092E00E94E23410931001109390010E94EA
:103230000406DC01CB0180559B4FAF4FBF4F8093FD
:103240008C0190938D01A0938E01B0938F018BE739
:1032500091E00E94C208C2010E94E9080E949209FE
:1032600089E391E00E94C20800E0C258DE4F288145
:10327000CE57D1404E2DBE01695B7E4FCE018353A8
:103280009F4F0E94C10993CB8091320290913302EB
:1032900001969093330280933202F12C36CF8091C5
:1032A000320290913302019690933302809332025E
:1032B00053CFE0907802F090790200917A02109159
:1032C0007B02E114F1040105110509F477CB0E949A
:1032D00004066E157F058007910708F46FCB1092E6
:1032E00078021092790210927A0210927B0264CBDB
:1032F0000E940406009182011091830120918401B3
:1033000030918501601B710B820B930B97FD79CB7C
:103310000E940406DC01CB0188519C4FAF4FBF4F88
:103320008093820190938301A0938401B0938501DF
:1033300080E00E9462080E9453078D3009F061CB43
:103340004B995FCB80918101811521F08150809351
:10335000810157CB84E30E94350787FD8F5F8595F8
:103360008A54F0E18F029001112490910E0191385E
:1033700081F04091E8015091E901241B350B37FFA2
:1033800021C02D5F3F4F3595279535952795240F03
:10339000351F3093E9012093E80137FF02C0215F18
:1033A0003F4F74E0359527957A95E1F720930E010C
:1033B00090910D0198171CF0913809F022CB809361
:1033C0000D011FCBE5E035952795EA95E1F7DFCFB5
:1033D000811130C0E0908701F0908801009189014F
:1033E00010918A01E114F1040105110559F40E94BC
:1033F00004066093870170938801809389019093FC
:103400008A010ACB80918601811106CB0E940406B5
:103410006E197F09800B910B6F3171058105910544
:1034200008F4FACA81E08093860184EB90E00E9460
:103430009506F2CA809186018115B9F00E940406B2
:1034400000918701109188012091890130918A01B2
:10345000601B710B820B930B613D774081059105D9
:1034600078F00E948B110E945807109286011092EA
:103470008701109288011092890110928A01CCCAAA
:1034800081E090917C02911180E061E00E947A12CB
:10349000EACF80911B0290911C02A0911D02B09175
:1034A0001E02481759076A077B0708F4D6CA405C12
:1034B000504E6F4F7F4F40931B0250931C026093FE
:1034C0001D0270931E020E94CA10C7CA85E8D4016B
:1034D0008C938091100191E0980F909310011196B8
:1034E0008C931197EFE0F2E0129684918D933196D0
:1034F0002A163B06D1F760E1C4010E940E1284E453
:1035000092E003CB0E9444128DE292E0FECA109238
:1035100090018DE192E00E94C2080E94580701CB01
:103520001092910180919201F401808380E881835F
:103530008091FF01811571F043E050E060E072E09E
:1035400083E991E00E94AA34892B21F481E8D40117
:1035500011968C9382E0F401828380910402909111
:103560000502A091060283839483A5838091930131
:1035700090919401A091950186839783A0871186ED
:1035800040E06AE0C4010E94230C811509F4DDCA01
:1035900080912C0290912D02019690932D028093A0
:1035A0002C02809192018093090280919301909165
:1035B0009401A091950180930A0290930B02A0932D
:1035C0000C020E94040660930D0270930E02809319
:1035D0000F029093100281E080930802B6CA109106
:1035E000E90017701092E9008091E80083FF5BC04A
:1035F0008DE991E0FC0101962091F1002083F1E03A
:10360000853A9F07B9F780919D0190919E019A306C
:1036100008F005C2E92FF0E0EA5FFA4C0C948A3416
:10362000803871F0823889F58091A1018093E9009A
:103630008091EB0085FB882780F91092E90006C095
:1036400080919B01880F90919A01892B9091E800BD
:10365000977F9093E8008093F1001092F1008091A1
:10366000E800982F9E7F9093E8008F778093E80082
:103670008091E80082FF05C08091E800982F9B7F31
:1036800033C08091A5018111F3CF8091E80083FFC1
:103690000AC08091EB0080628093EB008091E8008B
:1036A000877F8093E8001093E90053CA81110BC013
:1036B00080919F01813049F781E0933009F080E0EB
:1036C00080939B0106C0823001F780919F01811594
:1036D00089F01092E9008091E800877F8093E800EC
:1036E0008091E800982F9E7F9093E8008F778093D9
:1036F000E800CBCF8091A1018770811531F28093D2
:10370000E9002091EB0020FFE4CF9130B9F49091D3
:10371000EB0090619093EB0021E030E0A90102C042
:10372000440F551F8A95E2F74093EA001092EA0091
:103730008091EB0088608093EB00CBCF8091EB0011
:103740008062F9CF8111A1CF80919F019091E80013
:10375000977F9093E8009091E800292F2E7F209387
:10376000E8009F779093E8009091E80090FF0CC0EC
:10377000982F90689093E3008F77811509F485CF97
:1037800083E08093A50181CF9091A5019111ECCFA9
:103790007CCF8058823008F078CF80919F01909143
:1037A000A0018C3D53E0950709F073C08AE2D40173
:1037B0008C9383E011968C931197129620E03EE053
:1037C00041E2E32FF0E040935700E49120FF03C073
:1037D000E295EF703F5FEF7080E38E0F8A3310F059
:1037E00087E38E0F90E08D939D932F5F243149F7EF
:1037F0008091E800877F8093E8008091A3019091F9
:10380000A4018B32910510F08AE290E030E0A4012F
:10381000009759F4311109C08091E80082FD2CCF46
:103820008091A5018111F8CF27CF2091E80023FDD9
:1038300023CF2091E80022FDEFCF2091A501211593
:1038400009F41ACF2091E80020FFE2CF009739F069
:103850002091F2003091F3002830310598F060910A
:10386000F2007091F30031E06830710509F030E04A
:103870002091E800622F6E7F6093E8002F772093FD
:10388000E800C6CFFA0121912093F1000197AF0122
:10389000DDCF292F332722303105D1F123303105F7
:1038A00049F02130310509F0F0CEE2EBF2E082E19F
:1038B00090E012C0FC01FF27833008F0E6CEEE0F47
:1038C000FF1FE85EFE4F0190F081E02D2491822FD2
:1038D00090E0211509F4D9CE2091E800277F2093AC
:1038E000E8002091A3013091A4018217930708F406
:1038F0009C0190E02115310581F491110EC0809159
:10390000E80082FDB9CE8091A5018111F8CFB4CE37
:10391000E4E7F2E08EE390E0DFCF8091E80083FD02
:10392000ABCE8091E80082FDEACF8091A5018115A0
:1039300009F4A2CE8091E80080FFDCCF211531058B
:1039400031F08091F2009091F300089798F0409147
:10395000F2005091F30091E04830510509F090E0F9
:103960008091E800482F4E7F4093E8008F77809346
:10397000E800C0CF84918093F10021503109319645
:10398000DDCF803809F081CE8091E800877F809379
:10399000E80080919C018093F1008091E800982FCD
:1039A0009E7F9093E8008F778093E8008091E800F5
:1039B00082FD62CE8091A5018111F8CF66CE811182
:1039C00064CE90919F01923008F05FCE8091E80024
:1039D000877F8093E80090939C018091E800982F66
:1039E0009E7F9093E8008F778093E80080919C0100
:1039F000811599F084E08093A50142E361E883E0BA
:103A00000E94F90742E360E884E00E94F90742E07F
:103A100061EC82E00E94F90738CE83E0ECCF91326E
:103A200009F451C0923209F4A0C0903209F02DCEB1
:103A3000813209F02ACE8091E800877F8093E800E8
:103A40008091E80082FF8CC08091F10090E0A0E0BE
:103A5000B0E08093040190930501A0930601B09318
:103A600007012091F100922B8093040190930501AE
:103A7000A0930601B09307012091F100A22B80933F
:103A8000040190930501A0930601B09307012091D2
:103A9000F100B22B8093040190930501A0930601DD
:103AA000B09307018091F100809308018091F100AB
:103AB000809309018091F10080930A018091E800D0
:103AC000982F9B7F45C0813A09F0DFCD8091E800B7
:103AD000877F8093E800809104018093F1008091BA
:103AE000040190910501A0910601B0910701892F71
:103AF0009A2FAB2FBB278093F10080910401909106
:103B00000501A0910601B0910701CD01AA27BB27AD
:103B10008093F1008091040190910501A09106012C
:103B2000B09107018B2F9927AA27BB278093F1001B
:103B3000809108018093F100809109018093F10048
:103B400080910A018093F1008091E800982F9E7F78
:103B50009093E8008F778093E8000E94820795CDCC
:103B60008091A50181116CCF90CD813209F08DCD6E
:103B70008091E800877FEFCF1092E7011092E60175
:103B80008091A501843011F00C94B2148093E90067
:103B90008091E80082FD02C00C94B2148091F20082
:103BA0009091F300892B21F0E091E601E03498F048
:103BB0008091E800982F9B7F9093E8008F77809307
:103BC000E8008091E601811511F40C94B214E091A3
:103BD000E7010C94B31581E08E0F8093E60180918C
:103BE000F100F0E0EA55FE4F8083D8CF823751F4E0
:103BF00081E080930702109212010E945807D12C95
:103C00000C94B214883719F410920702F6CF81365B
:103C1000D1F48B81811561F043E064E072E0CE0164
:103C200003960E94D106833019F481E08093030249
:103C30008FED97E00E94C20884E092E00E94E908BC
:103C40000E949209DACF873709F58B818115B9F087
:103C500043E060E072E0CE0103960E94D10683301B
:103C600071F48091000290910102892B90910202DF
:103C7000892B91E0811101C090E09093FF018BEDC1
:103C800097E00E94C20880E092E0D8CF813709F027
:103C900057C09B8180ED890F823030F481E09133F1
:103CA00009F080E08093110287ED97E00E94C2083E
:103CB00080911102811589F081E30E949108809121
:103CC0001102811509F4BCCF809103028111B8CF94
:103CD00084EC97E00E94C208B3CF80E3EECF8E0160
:103CE0000F5F1F4F8035F1F48A81811549F18337C9
:103CF00029F460E0CE0103960C94EC15823741F470
:103D000081E08093FE018CEB97E00E94C20875CFA2
:103D10008E010E5F1F4F883729F41092FE0184EB4D
:103D200097E0F3CF843509F4C4C5DCF4823409F498
:103D30000CC64CF4811509F460CF8F3309F4B6C575
:103D400083E497E0E2CF8334D9F741E0B401C801BE
:103D500001960E94D106813009F448C680E597E0BB
:103D6000D4CF883509F4C5C5ACF4863509F49BC5B4
:103D7000873531F742E0B401C80101960E94D106AF
:103D8000823029F4F40110811F3208F440C688E41F
:103D900097E0BBCF8D36A1F6D8011196FC90119714
:103DA000F11461F0E1ECEF0DE53308F079C50E2E6A
:103DB000000CFF0BE05FFA4C0C948A340E944E0A10
:103DC0001CCF61E070E0B4E4FB1611F060E070E03D
:103DD00086E892E00E941D2E8BE297E00E94C208C6
:103DE000F8018181843491F584E297E00E94C20851
:103DF0000E949209D80111968C91843409F4FDCE69
:103E0000C353DF4F1882CD5CD04041E050E065E302
:103E100071E0CE0183539F4F0E94D234C353DF4FD2
:103E20008881CD5CD040813009F4E7CE8091560284
:103E3000811509F4E2CE8E010B571F4FC8010E9475
:103E4000710D811106C00E94D008D7CE8BE197E09A
:103E5000CDCFB80186E892E00E94072EC8010E94EB
:103E6000FD0E81E0C353DF4F8883CD5CD04041E03D
:103E700050E065E371E0CE0183539F4F0E94E2342E
:103E800080E1F80111928A95E9F784EC92E03DCF48
:103E900043E0BE0163537F4FC80102960E94D106E2
:103EA000833019F08DE097E030CFBE0163537F4F30
:103EB00086E892E00E94132E84E097E00E94C208F8
:103EC000CE0183539F4FBACE12968C91883561F400
:103ED000F401108241E050E065E371E0C4010E940A
:103EE000E23484EC96E011CF8AE896E00ECF44E00D
:103EF000BE0163537F4FC80102960E94D1068430F1
:103F000019F08EE796E001CFC353DF4F68817981C6
:103F10008A819B81CD5CD0400E940B34AB01BC01F7
:103F200086E892E00E94222E87E796E00E94C2086F
:103F30006091390370913A0380913B0390913C0367
:103F40000E94F7087DCE12968C918E3409F09FC0A6
:103F50008FE596E00E94C2080E9458070E94D00D8B
:103F6000811509F475C0C4010E940907811509F47F
:103F700068C0F4019401265F3F4F85EC9DE9ACE1F8
:103F8000B1E8AC01BD0115E0440F551F661F771F56
:103F90001A95D1F70BE1B695A795979587950A9550
:103FA000D1F7842B952BA62BB72B419184272E1765
:103FB0003F0739F7AF73BB276C017D0182E492E0C4
:103FC0000E94710D811509F441C007E512E0A701B7
:103FD00096016BEE70E080E090E00E94693281E330
:103FE00091E5C353DF4F99838883CD5CD0404CE08B
:103FF00050E062E071E0C8010E94E23440E150E02C
:104000006EE071E082E492E00E94E23442E050E02F
:1040100060E071E0CE0183539F4F0E94E23481E063
:1040200080935602C353DF4F1882CD5CD04041E0ED
:1040300050E065E371E0CE0183539F4F0E94E2346C
:1040400007C0C4010E94710D811109C00E94D008EF
:1040500080915602811125C086EB93E056CED401A3
:104060002C9111968C9190E0A0E0B0E0BA2FA92F8E
:10407000982F8827A22BF4012281822BAF73BB27B4
:104080006C017D0184EE92E00E94C20897CF8035DA
:1040900019F40E948B11B1CD8B34D1F60E94D40F4C
:1040A000ACCD8CEA93E00E94C20807E512E0D8018B
:1040B0008D918D010E94D408B2E003361B07B9F739
:1040C0000E949209FE01E353FF4F7F018E010A59BE
:1040D0001E4F9E0123583E4FAE01465F5E4FBE010C
:1040E000695B7E4F87E592E00E94053387E993E0A4
:1040F0000E94C208C358DE4F8881CD57D1400E942C
:10410000D4088EE893E00E94C208C959DE4F888126
:10411000C756D1400E94D408CA59DE4F8881C6567E
:10412000D1400E94D40881E893E00E94C208C65F93
:10413000DE4F88819981AA81BB81CA50D140BC01E0
:10414000CD0161507F4F8F4F9F4F0E940B090E94FE
:10415000920980E793E00E94C208CE018B579F4FDF
:104160000E940907811521F1015E11099801265F5E
:104170003F4F7901D8018D918D010E94D4080E1511
:104180001F05C1F70E94920980E693E00E94C208D1
:1041900002E412E0F80181918F010E94D408F2E05C
:1041A00002351F07B9F70E9492098BE193E0ADCD6C
:1041B00088E693E00E94C208E5CF12968C91803386
:1041C00029F461E080E00E947A1217CD813319F45E
:1041D00061E081E0F8CF843539F481E090917C0290
:1041E000911180E061E0EFCF84E596E00E94C20883
:1041F00080917C02811509F405C181E30E94910838
:104200001FCDA5B0B8B1C258DE4FB883CE57D1404C
:10421000EBB1C158DE4FE883CF57D140FEB1C05853
:10422000DE4FF883C058D14021B3CF57DE4F2883EB
:10423000C158D14084B195B18095892B85B987B19A
:1042400098B18095892B88B98AB19BB18095892BCB
:104250008BB98DB19EB18095892B8EB980B391B306
:104260008095892B81BB8FE097E20197F1F700C021
:104270000000D3B0C6B0B9B00CB11FB189E496E06C
:104280000E94C2088D2D0E94D40885E496E00E9409
:10429000C2088C2D0E94D40881E496E00E94C208D6
:1042A0008B2D0E94D4088DE396E00E94C208802FD7
:1042B0000E94D40889E396E00E94C208812F0E94E0
:1042C000D40888E196E00E94C2080E94580720E9BD
:1042D000E22EFF24F3949FE7A8E3B1E09150A040C1
:1042E000B040E1F700C0000083B18D110CC086B171
:1042F0008C1109C089B18B1106C08CB1801303C029
:104300008FB1811789F18DE096E00E94C20883B1D8
:104310008D250E94D40889E096E00E94C20886B1EB
:104320008C250E94D40885E096E00E94C20889B1DD
:104330008B250E94D40881E096E00E94C2088CB1CF
:1043400080270E94D4088DEF95E00E94C2088FB1AB
:1043500081270E94D4080E9492090E945807D3B076
:10436000C6B0B9B00CB11FB1E1E0EE1AF10809F026
:10437000B2CFA5B8C258DE4FF881CE57D140F8B9B8
:10438000C158DE4F2881CF57D1402BB9C058DE4FDE
:104390003881C058D1403EB9CF57DE4F4881C1580F
:1043A000D14041BB8AEE95E0B0CC12961C9181E0E1
:1043B000103309F480E08093120184EE95E00E94AE
:1043C000C20881E3103309F480E30E94910888EC6D
:1043D00095E0103309F07ECC84EB95E07BCCF801BE
:1043E000928180ED890F823030F481E0913309F0C1
:1043F00080E080930C0188EA95E00E94C2088091D9
:104400000C01F8CE80E3FACE12969C9180ED890FD4
:10441000823030F481E0913309F080E08093110123
:104420000E9410068DE995E00E94C208809111015A
:10443000811529F181E30E94910884E995E00E94A9
:10444000C208609113017091140180E090E00E9415
:104450000B098FE20E94910864E873E080E090E02D
:104460000E940B098DE895E00E94C20860916703E5
:104470007091680380E090E00E940B09E1CB80E33B
:10448000DACFF801E28061E0F0E3EF1201C060E012
:1044900025E4F21219C06093230289E895E00E9496
:1044A000C208D80111968C910E9491088DE30E9458
:1044B0009108F8018181813541F580910F0190E3E8
:1044C000E92EE80E8E2D9ACE31E5F31207C042E3B5
:1044D000E41201C062E060930F01DFCF56E4F512F1
:1044E00003C060931A02D9CF88E4F81203C0609326
:1044F000FA01D3CF9EE4F91203C060934503CDCFF8
:1045000086E892E00E942A2EC8CFF0E3EF16D1F29F
:1045100081E3E82ED7CFE4E2F2E086E1DF011D92ED
:104520008A95E9F781E880930D0180930E0110923E
:10453000E9011092E8018AE795E0E7CB7E01B6EF4A
:10454000EB1ABEEFFB0A8FEFF7018083C4010E94D4
:104550000907BE2CAF2C811103C08EE595E0D5CBA9
:10456000D4011696CD90DD90ED90FC901997F8014E
:104570008281811119C0C701B6010E940B347B01F1
:104580008C0184E595E00E94C208B701C8010E9431
:10459000F7088FE395E00E94C208B701C8010E94A6
:1045A000F70882E195E0B1CB44E0BE0163537F4F51
:1045B000C80102960E94D106843069F4C353DF4FCC
:1045C00088819981AA81BB81CD5CD0408C159D05E5
:1045D000AE05BF0519F080EF94E097CB00E011E045
:1045E00041E050E0B8018B2D9A2D0E94E2340F5F1C
:1045F0001F4F0038F1E01F0799F783EB94E00E940A
:10460000C2080E945807F89488E198E00FB6F89421
:10461000A895809360000FBE90936000FFCFC80103
:10462000029624E5F21226C012968C91811561F053
:104630000E94BD06D82EF80183810E94BD06FFEFBF
:10464000DF1611F08F3F19F483EA94E05ECBC25875
:10465000DE4F8883CE57D140C801049613E04DE366
:10466000BE0163537F4F0E94D1068117B8F486E9DB
:1046700094E04BCB22E5F21641F031E0C258DE4F18
:104680003883CE57D140D12CE9CF41E0C258DE4F1C
:104690004883CE57D140D12C16E0E1CF5091420350
:1046A000C158DE4F5883CF57D14093E0D91203C091
:1046B00093E890934203C82EC11ACE0183539F4FB3
:1046C000810F911DA2E500E010E0FA1205C08E01F5
:1046D00003531F4F0D5F1F4FFE01EB57FF4F5F014D
:1046E0007C01C258DE4F2881CE57D1404D2DBE01EE
:1046F00063537F4F86E892E00E949331682FC15840
:10470000DE4FF881CF57D140F093420387E894E021
:10471000611509F4FACA80911201811519F088E631
:1047200094E0F3CA40E0CE018B579F4F0E94230CC8
:10473000811561F080913002909131020196909341
:104740003102809330028DE594E0DFCA809132021D
:10475000909133020196909333028093320281E567
:1047600094E0D3CA12968C918B3479F440E16AEECE
:1047700071E0C80103960E94D106803119F084E4EB
:1047800094E0C3CA8AE294E0C0CA7801B2E0EB0EBA
:10479000F11C40E1BE0163537F4FC7010E94D10667
:1047A000803179F4F80182A18A3259F4CE01835321
:1047B0009F4F40960E945A0F81110FC08DE094E0E8
:1047C000A4CA40E2BE0163537F4FC7010E94D106D5
:1047D000803219F080E094E098CA6E01F6EFCF1AAB
:1047E000FEEFDF0A9E0123533F4F205F3F4FAE0194
:1047F00043535F4F445F5F4F76018401BE016353B3
:104800007F4F8AEE91E00E949E2A8AEF93E00E94F9
:10481000C2089401205F3F4F7901D8018D918D012D
:104820000E94D4080E151F05C1F780E20E9491086E
:1048300086017601B4E0EB0EF11CF80181918F0145
:104840000E94D408E016F106C1F7FAC940E1BE01A2
:1048500063537F4FC80102960E94D106803119F040
:104860008DEE93E052CABE0163537F4F685F7F4F66
:10487000A401CE0183539F4F0E94F22A87EE93E05A
:104880000E94C20884019401205F3F4F7901D80142
:104890008D918D010E94D4080E151F05C1F7D0C956
:1048A0008EED93E032CA83EA97E014CA83E797E07B
:1048B0002CCAF80181818033C9F482818133B1F43B
:1048C0008381811109C08091FC010E94D4088091EC
:1048D000FD010E94D408B4C942E06CEF71E0C80148
:1048E00003960E94D106823071F787C98EE697E061
:1048F0000CCAD80111968C91811581F041E0B40168
:10490000C80101960E94D106813029F4F40180810A
:1049100080930B0172C986E697E0F7C90E941006E2
:1049200080910B010E94D40880E20E94910880913E
:104930001101811529F060911301709114019ACD34
:1049400064E873E080E090E097CDD80111968C91F7
:104950001197803309F047C012968C91813309F08A
:1049600042C085E397E00E94C2080E945807EFE327
:10497000FCE93197F1F700C000000E94A607809182
:10498000E00081608093E0008091D8008F77809371
:10499000D80019BC8091D8008F7E8093D8001092E7
:1049A000FB01FFEF2DEE32E0F15020403040E1F707
:1049B00000C00000F8940FB6F894A89580916000AC
:1049C000886180936000109260000FBE10926E00AC
:1049D00010926F0014BE81E085BF82E085BFE0E0E9
:1049E000F8E30995FFCF88E597E08FC983E40E943B
:1049F0009108D4011C91812F0E94D4088DE30E945C
:104A00009108812F1033B8F00E94350762CF0181E1
:104A100086E30E940908602F812F0E9443070E94AD
:104A2000320887E50E949108812F0E94D4088DE307
:104A30000E949108812F0E9427074BCFB3E8DB1615
:104A400010F00C94B214FE013196ED0DF11D80832F
:104A5000D3940C94B214111509F45DC00C948B1707
:104A6000EAE0CE1610F40C948B17EFE1CE1698F70F
:104A700080910702811509F446C02B2DA3016C2DEE
:104A800081E40E949A09809111028115E1F18091DF
:104A900003028115C1F1D30111968C91119785FF05
:104AA00032C012968C919EEF980F923060F1811572
:104AB00051F143E050E064E072E0C30106960E94C9
:104AC000AA34892B01F5F3018081809392018381BF
:104AD0009481A5818093930190939401A093950173
:104AE0000E940406DC01CB018C599F4FAF4FBF4F92
:104AF0008093960190939701A0939801B0939901A8
:104B000081E08093910111110C948B17F2E1CF1683
:104B100010F40C94D7148091FE01811511F40C94BB
:104B2000D7148091230281110C94D7142E2DA30148
:104B30006C2D80E50E949A090C94D714FAE0CF16E8
:104B400008F093CF0C94D7141F920F920FB60F92C8
:104B500011242F933F934F935F936F937F938F9382
:104B60009F93AF93BF93EF93FF938091DA0080FF01
:104B700010C08091D80080FF0CC08091DA008E7F39
:104B80008093DA008091D90080FF9BC081E0809300
:104B9000A5018091E10080FF1CC08091E20080FFB0
:104BA00018C08091E1008E7F8093E1008091E20047
:104BB0008E7F8093E2008091E20080618093E2002A
:104BC0008091D80080628093D80019BC85E08093E2
:104BD000A5018091E10084FF27C08091E20084FF5D
:104BE00023C019BC89B5826089BD09B400FEFDCF20
:104BF0008091D8008F7D8093D8008091E1008F7ED6
:104C00008093E1008091E2008F7E8093E2008091AA
:104C1000E20081608093E20080919C01811509F49B
:104C200053C084E08093A5018091E10083FF38C0E8
:104C30008091E20083FF34C08091E100877F809300
:104C4000E10082E08093A50110929C018091E10037
:104C50008E7F8093E1008091E2008E7F8093E2005E
:104C60008091E20080618093E2001092F40080E085
:104C70008093E9001092F0001092E8009091ED000E
:104C80009D7F9093ED009091EB009E7F9093EB00C1
:104C90008F5F873069F742E060E080E00E94F907AB
:104CA000FF91EF91BF91AF919F918F917F916F9104
:104CB0005F914F913F912F910F900FBE0F901F90DA
:104CC00018951092A50165CF83E0ACCFCF93DF9309
:104CD000FC01DB019C01205F3F4F81919D91EF0121
:104CE00089278A93E217F307C1F7DF91CF910895DF
:104CF000CF93DF93FB01DC01CB014096ED012191C5
:104D00002993E817F907D9F741E030E11C962C9177
:104D10001C971D969C911D971E968C911E971F9611
:104D20005C911F97632F6F70611120C0E92FF0E035
:104D3000E653F54F64916427E82FF0E0E653F54F12
:104D4000E4919E2FE52FF0E0E653F54FE4918E2F8E
:104D5000E22FF0E0E653F54FE4915E2F742F770FCA
:104D60002BE147FF20E0472F4227262F6C91262773
:104D700050962C93509711962C91119792275196FB
:104D80009C93519712969C911297892752968C93D7
:104D9000529713968C911397852753968C9353971C
:104DA0003C5F1496303B09F0B1CFDF91CF9108956D
:104DB0008F929F92AF92BF92CF92DF92EF92FF922B
:104DC0000F931F93CF93DF938C01EA01FB017A01CC
:104DD000CB014096DA0121912D938E179F07D9F7C9
:104DE000B801CE010E946626580180E1A80EB11CD0
:104DF00000561F4F48016E01A0E1CA0ED11CDE0112
:104E0000ED91F0E0E653F54F2491CD010197FC01BF
:104E10002083CA16DB06A1F789819D819983998534
:104E20009D839D8599878D878A819A859A838A87B4
:104E30008E819E859E838E878F859B859F879F8190
:104E40009B879B819F838B83FE018081418132817F
:104E50002381782F7427632F6227572F5627972F88
:104E6000990F77FF66C07BE19727782F75279727E3
:104E70009083742F7327972F990F77FF5CC07BE186
:104E80009727452794279183962F990F4BE167FF2A
:104E900040E094273527932792838227982F990FF4
:104EA00087FF4BC08BE18927252782278383349690
:104EB000CE16DF0651F6B501CE010E946626F0E15E
:104EC000AF0EB11C0A151B0509F099CFD701ED9162
:104ED0007D01F0E0E653F54FE491EE93CE14DF044C
:104EE000A9F789819D81998399859D839D8599875E
:104EF0008D878A819A859A838A878E819E859E83F3
:104F00008E878F859B859F879F819B879B819F83B2
:104F10008B83B401CE01DF91CF911F910F91FF9050
:104F2000EF90DF90CF90BF90AF909F908F900C94B8
:104F3000662670E099CF70E0A3CF80E0B4CFEF9207
:104F4000FF920F931F93CF93DF93CDB7DEB7609798
:104F50000FB6F894DEBF0FBECDBF8B01DB017A0127
:104F600030E04D9150E0321710F4F7015081BD014F
:104F7000615071094527FB0140833F5FFFEFEF1A46
:104F8000FF0A303171F7AE014F5F5F4FB8010E94E9
:104F9000D82680E1FE013196D80101900D928A95C4
:104FA000E1F760960FB6F894DEBF0FBECDBFDF917C
:104FB000CF911F910F91FF90EF9008958F929F9244
:104FC000BF92CF92DF92EF92FF920F931F93CF93F6
:104FD000DF93CDB7DEB760970FB6F894DEBF0FBE94
:104FE000CDBFE82EB92EFB014A01F22E680189E0FF
:104FF00089838DE0DE01129601900D928A95E1F78A
:105000001F86288B80E1F80111928A95E9F720E14B
:10501000AE014F5F5F4FB8018E2D0E949F2710E0B9
:105020001F1590F060960FB6F894DEBF0FBECDBF8F
:10503000DF91CF911F910F91FF90EF90DF90CF9074
:10504000BF909F908F9008952F2D211B213108F044
:1050500020E1A401410F511DB6018E2D9B2D0E9410
:105060009F27105FDDCF4F925F926F927F928F925A
:105070009F92AF92BF92CF92DF92EF92FF920F93E7
:105080001F93CF93DF93CDB7DEB7C055D1090FB6CD
:10509000F894DEBF0FBECDBFD82EE92E3B015A01DA
:1050A000F22EC12EDE01AF5BBF4F89E48D938DE000
:1050B000FB0101900D928A95E1F760961FAE609713
:1050C00061961FAE61974E0181E2880E911C10E13E
:1050D000D401E12F1D92EA95E9F720E1AE014F5B83
:1050E0005F4FB4018D2D0E949F27FE01F196DF01D5
:1050F0001D921A95E9F7FAAA1F2D2F01BFE0FB16A2
:1051000008F01EE0412F50E0B501CE01C3960E9489
:10511000B73420E1A201B4018D2D9E2D0E949F275E
:105120001F1508F442C081E089838DE0F301DE01A0
:10513000129601900D928A95E1F71F86188AAE01AA
:105140004F5E5F4FBE016F5F7F4F8D2D9E2D0E9482
:10515000D826C401BE016F5E7F4FE02FFC2DAF014A
:105160004C5F5F4FDC012D91CD01DB013D91BD0115
:1051700023272193E417F507A9F7C05BDF4F0FB68C
:10518000F894DEBF0FBECDBFDF91CF911F910F917D
:10519000FF90EF90DF90CF90BF90AF909F908F9057
:1051A0007F906F905F904F9008952F2D211B21319C
:1051B00008F020E1A501410F511DB4018D2D9E2D58
:1051C0000E949F27105FACCF2F923F924F925F9229
:1051D0006F927F928F929F92AF92BF92CF92DF9207
:1051E000EF92FF920F931F93CF93DF93CDB7DEB76C
:1051F000A0970FB6F894DEBF0FBECDBF782E692EF4
:10520000562E472E6A015901EE24E394F12C10E04A
:1052100022242394CE0101964C011017C8F0A096C9
:105220000FB6F894DEBF0FBECDBFDF91CF911F91B7
:105230000F91FF90EF90DF90CF90BF90AF909F9035
:105240008F907F906F905F904F903F902F90089538
:10525000302E311A91E1391610F080E1382E298A6A
:105260008DE0E52DF42DDE01529601900D928A9588
:10527000E1F79E2D8F2D98A38F8FA401BE016F5E45
:105280007F4F872D962D0E94D8269601210F311D24
:10529000A501410F511DF401D9018D919D019191FD
:1052A0008927DA018D93AD018E2F88198315A0F31C
:1052B000105FBFEFEB1AFB0AB0CF5F926F927F9245
:1052C0008F929F92AF92BF92CF92DF92EF92FF9216
:1052D0000F931F93CF93DF93CDB7DEB7E0970FB651
:1052E000F894DEBF0FBECDBF6C015B014A01722E88
:1052F000502E612E8E010F5D1F4F0E94DE2781E030
:10530000898B8DE0F501DE01529601900D928A9510
:10531000E1F71F8E18A2AE014F5F5F4FBE016F5EB7
:105320007F4FC6010E94D826C801BE016F5F7F4F24
:10533000D701A7014C5F5F4FFC012191CF01FB0119
:105340003191BF0123272D93A417B507A9F7072D86
:10535000252D362DA401B501C6010E94E428E09652
:105360000FB6F894DEBF0FBECDBFDF91CF911F9176
:105370000F91FF90EF90DF90CF90BF90AF909F90F4
:105380008F907F906F905F9008957F928F929F9201
:10539000AF92BF92CF92DF92EF92FF920F931F9343
:1053A000CF93DF93CDB7DEB7E4970FB6F894DEBFA7
:1053B0000FBECDBF6C015B01722E4801022F970119
:1053C0000E94E4288E010F5D1F4F272DA701B50114
:1053D000C6010E94DE2781E0898B8DE0F501DE01A8
:1053E000529601900D928A95E1F71F8E18A2AE0198
:1053F0004F5F5F4FBE016F5E7F4FC6010E94D82690
:10540000F801005211099E012F5C3F4FBE016B5DF8
:105410007F4FA9018191D8019D918D018927DA01E2
:105420008D93AD01E617F707A9F7F401A4014C5FCE
:105430005F4F90E0D9018D919D0161918627982B56
:105440004E175F07B9F781E0911180E0E4960FB63F
:10545000F894DEBF0FBECDBFDF91CF911F910F91AA
:10546000FF90EF90DF90CF90BF90AF909F908F9084
:105470007F900895AF92BF92CF92DF92EF92FF920A
:105480000F931F93CF93DF93CDB7DEB7E0970FB69F
:10549000F894DEBF0FBECDBF7C016B0158018E01B9
:1054A0000F5D1F4F0E94DE2781E0898B8DE0F601A2
:1054B000DE01529601900D928A95E1F71F8E18A297
:1054C000AE014F5F5F4FBE016F5E7F4FC7010E940D
:1054D000D826C801BE016F5F7F4FF501A5014C5F63
:1054E0005F4FDC012D91CD01DB013D91BD012327F3
:1054F0002193E417F507A9F7E0960FB6F894DEBFFD
:105500000FBECDBFDF91CF911F910F91FF90EF9014
:10551000DF90CF90BF90AF900895FC01339689E063
:10552000DA0101900D928A95E1F7DA01199684E08B
:10553000FB0101900D928A95E1F708957F928F9279
:105540009F92AF92BF92CF92DF92EF92FF920F9312
:105550001F93CF93DF93CDB7DEB7CD5BD1090FB6E5
:10556000F894DEBF0FBECDBF782E892ECB01BA01D5
:105570006901902EAE014F545F4F0E948D2A672D16
:10558000782DCE0101960E94782600E1292D312F39
:10559000A601BE016F547F4FCE0101960E94E42800
:1055A000E114F10451F0870120E1A601BE016F541E
:1055B0007F4FCE0101960E943A2AC354DF4F0FB6A7
:1055C000F894DEBF0FBECDBFDF91CF911F910F9139
:1055D000FF90EF90DF90CF90BF90AF909F908F9013
:1055E0007F900895FC0188E0DA0101900D928A9580
:1055F000E1F7DA01189688E0FB0101900D928A9597
:10560000E1F708954F925F926F927F928F929F92EF
:10561000AF92BF92CF92DF92EF92FF920F931F93C0
:10562000CF93DF93CDB7DEB7C15DD1090FB6F89444
:10563000DEBF0FBECDBF6C012B013C0188E2680EBE
:10564000711C46019CE0890E911C5E0181EBA80E45
:10565000B11C96012C5C3F4FE12CF12C8501A3017C
:10566000B601C4010E949E2AAE014F535F4FB301A1
:10567000C6010E948D2AB401CE0101967C010E94D0
:105680007826035E1F4F20E1A501BE016F537F4FB7
:10569000C7010E943A2AF801D601AC5BBF4F9601C0
:1056A000285B3F4F80E09B2C8E2CBF2C91914D911D
:1056B0009427892BA217B307C9F781112FC0B60110
:1056C000645D7F4F482D5B2DC60180960E94F22AB3
:1056D000A601445E5F4FE12CF12C82012A2D392D69
:1056E000B601882D9B2D0E949E2A81E0CF52DF4F6C
:1056F0000FB6F894DEBF0FBECDBFDF91CF911F91E3
:105700000F91FF90EF90DF90CF90BF90AF909F9060
:105710008F907F906F905F904F90089580E0E6CFDC
:105720002F923F924F925F926F927F928F929F92B1
:10573000AF92BF92CF92DF92EF92FF920F931F939F
:10574000CF93DF93CDB7DEB7C25DD1090FB6F89422
:10575000DEBF0FBECDBF3B017A01CF52DF4F2883A2
:10576000C15DD040CE52DF4F3883C25DD040BC0116
:10577000CE0101965C010E9478268E010F531F4FC7
:1057800080E1D8011D928A95E9F7C12CD12C3A2CE1
:105790002B2C5E01B1EBAB0EB11C5A2C4B2C4801EB
:1057A000E0E18E0E911CCE14DF0480F1F8018081BF
:1057B0008E25808381818F258183CF52DF4F488161
:1057C000C15DD040CE52DF4F5881C25DD040B8019C
:1057D000832D922D0E94D826CE52DF4F0FB6F8941B
:1057E000DEBF0FBECDBFDF91CF911F910F91FF9014
:1057F000EF90DF90CF90BF90AF909F908F907F9071
:105800006F905F904F903F902F900895D501E0E109
:105810001D92EA95E9F7A7014C195D09413151053F
:1058200010F040E150E0B3016C0D7D1D852D942DED
:105830000E94B734F801452D542D8191DA019D91D4
:10584000AD019F01215031098927D9018C93E815B9
:10585000F90599F7A801B801832D922D0E94D82649
:10586000B0E1CB0ED11C9FCFCF92DF92EF92FF928F
:105870000F931F93CF93DF93CDB7DEB760970FB62B
:10588000F894DEBF0FBECDBF8C017B016A01892B6E
:1058900031F1452B21F16034710508F19E012F5F34
:1058A0003F4FAB01B8018EE191E00E94902B960131
:1058B000A701B801CE0101960E94902B80E090E0F4
:1058C00060960FB6F894DEBF0FBECDBFDF91CF91CB
:1058D0001F910F91FF90EF90DF90CF9008958FEF81
:1058E0009FEFEECF0F931F93CF93DF93CDB7DEB72C
:1058F000A0970FB6F894DEBF0FBECDBFFC01CB0161
:10590000309709F440C00097F1F1AE014F5F5F4F4F
:1059100060E2DA011D926A95E9F78E0F9F1F61E040
:1059200070E02191A22FA695A695A695A40FB52F5C
:10593000B11D27708B0102C0000F111F2A95E2F7DD
:1059400098013C91232B2C938E179F0751F7FA0156
:10595000BE016F5D7F4F40E0219130E080E090E03C
:10596000D901082E02C0B695A7950A94E2F7A0FFC8
:1059700003C04F5F4830A0F401968830910581F74D
:105980006E177F0749F781E090E0A0960FB6F89474
:10599000DEBF0FBECDBFDF91CF911F910F91089554
:1059A00080E090E0F2CFCF93DF93FC01DB018081B8
:1059B0008C9381818E7F11968C931197EF012296A3
:1059C00012963D9689918D93CE17DF07D9F7DF9117
:1059D000CF9108952F923F924F925F926F927F9254
:1059E0008F929F92AF92BF92CF92DF92EF92FF92EF
:1059F0000F931F93CF93DF93CDB7DEB7CD54D1096B
:105A00000FB6F894DEBF0FBECDBF3C01362E472E39
:105A1000542E922E202EF701FC2CB501A4960EAD2B
:105A20001FADA49783E0309709F480E0C82EC80C1E
:105A300021E4C21608F0A2C031E091E1931299E08E
:105A4000D92EDC0C91E4D91608F098C0811539F0F4
:105A500093E0DE01119601900D929A95E1F7811481
:105A600049F0482D50E0FE013196E80FF11DCF01BD
:105A70000E94B734892D82958073F52DFF705F2EBB
:105A8000582AF8015082F301E354FF4F808181705E
:105A9000220C220C220C282AF8012182F282D80141
:105AA000139683E0F301E055FF4F01900D928A9524
:105AB000E1F7D801169683E0E32DF42D01900D92C5
:105AC0008A95E1F7F1E09F1631F1C11449F04C2DB0
:105AD00050E0BE016F5F7F4FC80109960E94B73446
