:1000000059C6000074C6000072C6000070C6000029
:100010006EC600006CC600006AC6000068C600001C
:1000200066C6000064C600000C94DC2660C60000B2
:100030005EC600005CC600005AC6000058C600003C
:1000400056C600000C94E71452C6000050C60000CB
:100050004EC600004CC600004AC6000048C600005C
:1000600046C6000044C6000042C6000040C600006C
:100070003EC600003CC600003AC6000038C600007C
:1000800036C6000034C6000032C6000030C600008C
:100090002EC600002CC600002AC6000028C600009C
:1000A00026C6000024C6000022C60000100371000E
:1000B0002D00630075006C006600770000001603D9
:1000C00062007500730077006100720065002E0009
:1000D0006400650000000403090409023E000201F7
:1000E0000080320904000001020201000524001012
:1000F0000104240206052406000107058203080006
:10010000FF09040100020A00000007050402400084
:1001100000070583024000001201100102000008E0
:10012000EB03692000020102DC010007010E020658
:10013000030D04E905CA063D070C084509000A003D
:100140000B060C110D210E650F6A10C811931203D6
:10015000132214F815341607170F181819161A6CED
:100160001B431C401D911E8E1F2F207821562210EC
:1001700023E9242A2500261F2741280029592A7F00
:100180002B3F2C812D352E09FF506D204E65747A42
:100190007765726B7363686C75657373656C2067E4
:1001A000657369636865727420E28094206D697478
:1001B0006C6573656E20697374206A65747A742047
:1001C0006D6F65676C6963680D0A00506D20414E64
:1001D00047454C45524E5420616464723D00506D59
:1001E00020416E6765626F743A2050727565667360
:1001F000756D6D652066616C736368002072737342
:10020000693D0020666F723D00504B2066726F6D35
:100210003D00207261773D00206C656E3D002072CC
:100220007373693D00206E3D00206D61783D0020B4
:100230006D696E3D002066697273743D0050482000
:1002400066653D00506D20416E6C65726E656E3A5C
:10025000206B65696E6520416E74776F727400045F
:1002600080000000C80600001606000000506D2047
:10027000616E67656D656C6465740D0A00506D2074
:100280003E3E204B616E616C7A75737461656E647D
:10029000650D0A00506D203E3E2053746172746DEE
:1002A000656C64756E670D0A00506D203E3E2041FE
:1002B0006E6C65726E626573746165746967756E84
:1002C000670D0A00506D204E65747A7765726B7306
:1002D00063686C75657373656C2065727A657567A4
:1002E000740D0A00506D206B65696E65205765724C
:1002F0006B736B656E6E756E6720E28094206C6127
:100300007566656E6465204E756D6D6572206765F6
:100310007775657266656C740D0A00506D206175A5
:10032000737061636B656E206D69742064656D2008
:100330004175666B6C656265727363686C75657335
:1003400073656C0D0A00506D206E776B2E656E63C1
:100350003D00506D206B65696E204E65747A77653F
:10036000726B7363686C75657373656C0D0A00500E
:100370006D207061636B652065696E2E2E2E0D0AEF
:1003800000506D206B65696E204E65747A776572DA
:100390006B7363686C75657373656C20E280942081
:1003A0006572737420616E6C65726E656E20286D67
:1003B0004750290D0A00506D206265696465205719
:1003C0006572746520696E206465722045494745F1
:1003D0004E454E205A656E7472616C652065696E7B
:1003E00074726167656E202847657261657420616B
:1003F0006E6C65726E656E290D0A00506D206B651E
:10040000793D00286B65696E652900506D20776520
:10041000726B736B656E6E756E673D0020676572FB
:10042000616574656172743D00206E65686D65720A
:100430003D00506D206865726B756E667420666154
:100440007373756E673D00506D20736774696E3D00
:1004500000506D206B65696E65204B656E6E756E24
:100460006720E28094206D474E2065727A6575673B
:10047000742065696E650D0A00506D204552520D5D
:100480000A00506D20792000506D204552522061A5
:1004900072670D0A00506D20772000506D20455284
:1004A00052206172670D0A00506D206B65696E20E5
:1004B0004E65747A7765726B7363686C7565737378
:1004C000656C0D0A00506D2077207363686C75654C
:1004D0007373656C2067657365747A740D0A0050D8
:1004E0006D20455252206B65790D0A00506D2045F4
:1004F00052522074780D0A00506D207478206F6B72
:100500000D0A00506D20455252204C4F56460D0AA0
:1005100000506D204E55522D4C4553454E20286DB0
:100520004C3020676962742066726569290D0A0083
:10053000506D2045525220626175656E0D0A005063
:100540006D20455252206473740D0A00506D204591
:1005500052522063742F7365630D0A00506D20455D
:10056000525220766572620D0A00506D204552523B
:100570002073747566650D0A00506D204552522037
:10058000686F657265727479700D0A00506D205540
:10059000727A757374616E6420E28094204B656E8C
:1005A0006E756E672C205363686C75657373656C2C
:1005B00020756E64205A6165686C65722067656C91
:1005C0006F65736368740D0A00506D2045525220A8
:1005D0006D61726B6520E280942065727374206D8A
:1005E000562066726167656E0D0A002028414C4CEA
:1005F0004553207765673A204B656E6E756E672CA4
:10060000205363686C75657373656C2C205A616543
:10061000686C6572290D0A0020E28094206C6F6579
:10062000736368656E206D6974206D5600506D208F
:100630006D61726B653D00506D20455252206B65B7
:10064000696E652053657269656E6E756D6D657254
:100650000D0A00506D207A6165686C65723D300D41
:100660000A0020706C6174696E6500207765726B9A
:100670000020656500506D204A3D00506D204552B8
:10068000520D0A00506D2000206C6F76663D0020F0
:100690006372656469743D00506D206275646765BE
:1006A000743D00207A757374656C6C3D002861752B
:1006B00073290020286D62312F6D62332920776500
:1006C000636B6B616E616C3D002028417329206D66
:1006D000733D00506D20766F726C6175663D005001
:1006E0006D204552520D0A00506D20455252206235
:1006F0006572656963682031302E2E00506D20458B
:100700005252206265726569636820352E2E005052
:100710006D204552520D0A00506D204552520D0A6F
:1007200000506D204552520D0A002053454E44455D
:100730004E20465245494745474542454E00206EAA
:100740007572206C6573656E2C2053656E64656EE2
:1007500020676573706572727400506D204C3D00A7
:10076000506D205375636865206265656E646574BD
:100770000D0A0020463D0020453D0020443D00205C
:10078000433D00506D2041454E4420423D00202015
:100790002D2D2032302073205A6569742C206A6513
:1007A000747A742064727565636B656E0D0A00203F
:1007B000463D0020453D0020443D0020433D005083
:1007C0006D207275686520423D00506D2072656C29
:1007D0006169733D00506D2065727A6575676520AB
:1007E0004B656E6E756E672E2E2E0D0A00506D20B5
:1007F000736E3D00506D2045525220736E0D0A00FD
:10080000506D206B65792077697264206E6963682A
:100810007420766F6E2061757373656E20676573E3
:1008200065747A7420E2809420416E6C65726E6506
:100830006E20286D4750290D0A00506D204E6574BA
:100840007A7765726B7363686C75657373656C201A
:10085000766572776F7266656E20E2809420616CB7
:100860006C652047657261657465206E65752061F1
:100870006E6C65726E656E0D0A00506D2061646469
:10088000723D00506D2045525220616464720D0A21
:10089000005A656E7472616C6500476572616574BB
:1008A00000506D20726F6C6C653D004220626F6F6E
:1008B000746C616465720D0A003F200D0A005720B8
:1008C0004552520D0A0043204552520D0A00422063
:1008D0004552522028423031290D0A0058204552F5
:1008E000520D0A003F200D0A003F20283F20697367
:1008F00020756E6B6E6F776E2920557365206F6E55
:1009000065206F662041204220432050205420560D
:1009100020572058206D0D0A005620712D63756CEC
:10092000667720322E302E313130005078206F6BB8
:100930000D0A005072206F6B0D0A00204F484E4583
:1009400020414452455353452028416129004171BB
:10095000200041772000416120005620712D6375F1
:100960006C667720322E302E3131300050732045A6
:1009700052520D0A00507320455252204C4F564699
:100980000D0A004E55522D4C4553454E20286D4CB6
:100990003020676962742066726569290D0A004C0F
:1009A000454E4552520D0A00206E706B3D00206E80
:1009B0006F6973653D0020726563616C3D00207056
:1009C0006C6C3D002062757273743D002074786514
:1009D00072723D002074783D00206677643D0020EF
:1009E000616B646F703D00206B3672783D00206B48
:1009F0003674783D002061636B733D002064757030
:100A00003D00206D69633D00206F6B3D00506D20FF
:100A100072783D00206C6F76663D002063726564DD
:100A200069743D00506D206275646765743D0020F7
:100A300072656C6169733D00206E75726C657365DB
:100A40006E3D0020726F757465723D002069636DA4
:100A50007061636B3D002061636B3D0020736E3DF0
:100A600000206B65793D0020616464723D005A6529
:100A70006E7472616C650047657261657400207206
:100A80006F6C6C653D006175730065696E00506D3B
:100A9000200020613D310020663D002061723D0054
:100AA0002061636B3D00207669613D0020736E3DDF
:100AB000002063743D00207365633D0020647374FF
:100AC0003D00207372633D00504D00506D20416E1B
:100AD0006C65726E656E206C616575667420E2806F
:100AE00094204B656E6E756E67206D75737320690B
:100AF0006E20646572205A656E7472616C65207335
:100B0000746568656E0D0A00506D204E55522D4C6F
:100B10004553454E20286D4C30206769627420662D
:100B2000726569290D0A00506D206B65696E65203C
:100B30004B656E6E756E6720E280942065727374EB
:100B4000206D474E0D0A0003AF8BB08DFBC8476583
:100B5000081961DC9433D203AF8BB08DFBC84765B5
:100B6000081961DC9433D2506D205A7566616C6C43
:100B7000737175656C6C6520746F7420E2809420CD
:100B800046756E6B63686970207072756566656E18
:100B900020286D5A292C206E696368747320657251
:100BA0007A657567740D0A00506D2072656C616915
:100BB000733D00637C777BF26B6FC53001672BFE62
:100BC000D7AB76CA82C97DFA5947F0ADD4A2AF9CA3
:100BD000A472C0B7FD9326363FF7CC34A5E5F1717A
:100BE000D8311504C723C31896059A071280E2EB83
:100BF00027B27509832C1A1B6E5AA0523BD6B32913
:100C0000E32F8453D100ED20FCB15B6ACBBE394A9F
:100C10004C58CFD0EFAAFB434D338545F9027F50A6
:100C20003C9FA851A3408F929D38F5BCB6DA2110A5
:100C3000FFF3D2CD0C13EC5F974417C4A77E3D643D
:100C40005D197360814FDC222A908846EEB814DE6D
:100C50005E0BDBE0323A0A4906245CC2D3AC6291F7
:100C600095E479E7C8376D8DD54EA96C56F4EA65E1
:100C70007AAE08BA78252E1CA6B4C6E8DD741F4BE0
:100C8000BD8B8A703EB5664803F60E613557B9864E
:100C9000C11D9EE1F8981169D98E949B1E87E9CEFB
:100CA0005528DF8CA1890DBFE6426841992D0FB010
:100CB00054BB160011241FBECFEFDAE0DEBFCDBF5C
:100CC00011E0A0E0B1E0E4E3FDE602C005900D9282
:100CD000A434B107D9F723E0A4E4B1E001C01D9228
:100CE000A637B207E1F70E940A150C94593688C955
:100CF0002FB7F89460916E0370916F038091700329
:100D0000909171032FBF08954F925F926F927F92DF
:100D10008F929F92AF92BF92CF92DF92EF92FF920B
:100D2000E7DF4090720350907303609074037090FB
:100D300075036B017C01C418D508E608F70828EE96
:100D4000C21623E0D206E104F10480F1C701B60126
:100D500028EE33E040E050E00E948935A8EEB3E091
:100D60000E94B135460E571E681E791E40927203CE
:100D700050927303609274037092750380EAC816F0
:100D80008BEBD8068DE0E806F10450F480911C014D
:100D900090911D01820F931F843823E0920710F079
:100DA00084E893E090931D0180931C01FF90EF90E5
:100DB000DF90CF90BF90AF909F908F907F906F907B
:100DC0005F904F90089580916D03811559F090DFE9
:100DD00028E730E040E050E00E94893520FF12C053
:100DE000769A089580916C0340916803509169034D
:100DF00060916A0370916B03452B462B472B21F0C2
:100E0000811571F3769808958115E1F3E9CF0F9379
:100E10001F93CF93DF93EC016BDFDC01CB018C0FD1
:100E20009D1FA11DB11D00916803109169032091C0
:100E30006A0330916B03081719072A073B0740F430
:100E40008093680390936903A0936A03B0936B0344
:100E5000BADFDF91CF911F910F91089590ED980F18
:100E60009A3010F4892F08959FE9980F963010F466
:100E7000875508959FEB980F963010F48753089587
:100E80008FEF0895A0E0B0E0E8E4F7E00C94C535FA
:100E90007B01D42F8C01C12CD12CC0E0F8018191B1
:100EA0008F01811511F0CD1730F08C2FCDB7DEB743
:100EB000E8E00C94E135803289F38A3379F3CEDFB0
:100EC0008F3F99F3D11441F0F701EC0FF11D8C29FC
:100ED0008083CF5FD12CE2CFC82EC29480EFC8228E
:100EE000DD24D394DBCFDC01EEE0F0E080E031E202
:100EF0003093570094919D93915021E09E3F08F0CC
:100F000020E0822B3196E831F10591F708958EBDEE
:100F10000DB407FEFDCF8EB5089528981B99FECF1E
:100F20000895CF93C82FF9DF8C2F8068F0DF80E021
:100F3000EEDF289ACF910895CF93C82FEEDF8C2F44
:100F4000806CE5DF80E0E3DF289ACF910895CF93AE
:100F5000DF93D82FC62FE1DF8D2FD9DF8C2FD7DF7E
:100F6000289ADF91CF91089585E3E6DF8F71089588
:100F7000CF93DF93EC0168818DE0E9DF69818EE03A
:100F8000E6DF6A818FE0E3DFDF91CF910895809102
:100F90008F01811531F08091AF01843019F01092EA
:100FA0008F01089583E08093E9008091E80080FF3D
:100FB000F8CF80E090918F01891750F08091E80080
:100FC000982F9E7F9093E8008F778093E800E7CF7B
:100FD000E82FF0E0E15BFE4F90819093F1008F5F8E
:100FE000E9CF8091470187FF17C08091E80082FF19
:100FF0000AC08091E800982F9B7F9093E8008F773C
:101000008093E80008958091AF018111EECF08959B
:101010008091AF018115D9F38091E80080FFF8CF6E
:101020008091E800982F9E7FE8CF8091D8008E7F36
:101030008093D8001092E2001092DA001092E10042
:101040001092AF0110924601109245011092440196
:101050008AE482BF19BC89B5826089BD09B400FEEB
:10106000FDCF8091D800982F9F779093D80080680B
:101070008093D8008091D70081608093D7008091C1
:10108000D8008F7D8093D8008091E0008B7F809383
:10109000E0008091E0008E7F8093E0008091E1008D
:1010A0008E7F8093E1008091E20081608093E20076
:1010B0008091E100877F8093E1008091E200886069
:1010C0008093E2008091D80081608093D8000895D9
:1010D0008093E900EBEEF0E0808181608083EDEEAB
:1010E000F0E010826093EC0040838091EE00089560
:1010F000AAE2B0E0EEE7F8E00C94CA358091AF01C7
:10110000811509F466C01091E90017701092E9008A
:101110008091E80083FF5BC087E491E0FC010196C9
:101120002091F100208321E08F349207B9F780915C
:101130004701909148019A3008F004C2E92FF0E08D
:10114000E55AF94C0C94AB35803871F0823889F54A
:1011500080914B018093E9008091EB0085FB88270B
:1011600080F91092E90006C080914501880F9091A6
:101170004401892B9091E800977F9093E800809339
:10118000F1001092F1008091E800982F9E7F9093DB
:10119000E8008F778093E8008091E80082FF05C027
:1011A0008091E800982F9B7F36C08091AF0181111C
:1011B000F3CF8091E80083FF0AC08091EB0080624A
:1011C0008093EB008091E800877F8093E800109384
:1011D000E900AA96E3E00C94E63581110BC08091FA
:1011E0004901813031F781E0933009F080E080934C
:1011F000450106C08230E9F680914901811589F0E8
:101200001092E9008091E800877F8093E800809148
:10121000E800982F9E7F9093E8008F778093E800F6
:10122000C8CF80914B018770811519F28093E90036
:101230002091EB0020FFE4CF9130B9F49091EB00C6
:1012400090619093EB0021E030E0A90102C0440FCF
:10125000551F8A95E2F74093EA001092EA008091C8
:10126000EB0088608093EB00CBCF8091EB00806235
:10127000F9CF81119ECF809149019091E800977F2D
:101280009093E8009091E800292F2E7F2093E800AA
:101290009F779093E8009091E80090FF0CC0982F02
:1012A00090689093E3008F77811509F482CF83E0F3
:1012B0008093AF017ECF9091AF019111ECCF79CFA8
:1012C0008058823008F075CF8091490190914A0191
:1012D0008C3D53E0950709F072C08AE2898383E070
:1012E0008A83DE01139620E03EE041E2E32FF0E046
:1012F00040935700E49120FF03C0E295EF703F5FF9
:10130000EF7080E38E0F8A3310F087E38E0F90E04A
:101310008D939D932F5F243149F78091E800877F5B
:101320008093E80020914D0130914E012B32310520
:1013300010F02AE230E090E0FE01319621153105EF
:1013400059F4911109C08091E80082FD29CF809164
:10135000AF018111F8CF24CF8091E80083FD20CF29
:101360008091E80082FDEFCF8091AF01811509F4F3
:1013700017CF8091E80080FFE1CF2115310531F0D2
:101380008091F2009091F300089798F04091F2005C
:101390005091F30091E04830510509F090E08091C0
:1013A000E800482F4E7F4093E8008F778093E80055
:1013B000C5CF81918093F10021503109DECF292FD3
:1013C000332722303105D1F12330310549F0213066
:1013D000310509F0EECEE8E1F1E082E190E012C0E3
:1013E000FC01FF27833008F0E4CEEE0FFF1FEF5D16
:1013F000FE4F0190F081E02D2491822F90E0211585
:1014000009F4D7CE2091E800277F2093E8002091AF
:101410004D0130914E018217930708F49C0190E032
:101420002115310581F491110EC08091E80082FDF3
:10143000B7CE8091AF018111F8CFB2CEEAEDF0E0E6
:101440008EE390E0DFCF8091E80083FDA9CE80910C
:10145000E80082FDEACF8091AF01811509F4A0CEAA
:101460008091E80080FFDCCF2115310531F08091BB
:10147000F2009091F300089798F04091F20050919B
:10148000F30091E04830510509F090E08091E800C8
:10149000482F4E7F4093E8008F778093E800C0CFBD
:1014A00084918093F100215031093196DDCF80384D
:1014B00009F07FCE8091E800877F8093E8008091DB
:1014C00046018093F1008091E800982F9E7F9093D1
:1014D000E8008F778093E8008091E80082FD60CE7D
:1014E0008091AF018111F8CF64CE811162CE9091CD
:1014F0004901923008F05DCE8091E800877F8093AB
:10150000E800909346018091E800982F9E7F909389
:10151000E8008F778093E80080914601811581F083
:1015200084E08093AF0142E361E883E0D1DD42E3F0
:1015300060E884E0CDDD42E061EC82E0C9DD39CED7
:1015400083E0EFCF913209F451C0923209F49FC089
:10155000903209F02ECE813209F02BCE8091E80036
:10156000877F8093E8008091E80082FF8BC08091A4
:10157000F10090E0A0E0B0E08093000190930101C1
:10158000A0930201B09303012091F100922B80936C
:10159000000190930101A0930201B09303012091F7
:1015A000F100A22B8093000190930101A09302010E
:1015B000B09303012091F100B22B8093000190932E
:1015C0000101A0930201B09303018091F100809387
:1015D00004018091F100809305018091F1008093D6
:1015E00006018091E800982F9B7F45C0813A09F061
:1015F000E0CD8091E800877F8093E8008091000132
:101600008093F1008091000190910101A09102016D
:10161000B0910301892F9A2FAB2FBB278093F10044
:101620008091000190910101A0910201B09103010C
:10163000CD01AA27BB278093F100809100019091F2
:101640000101A0910201B09103018B2F9927AA27D4
:10165000BB278093F100809104018093F100809179
:1016600005018093F100809106018093F100809143
:10167000E800982F9E7F9093E8008F778093E80092
:10168000B0DC97CD8091AF0181116DCF92CD8132C9
:1016900009F08FCD8091E800877FF0CFCF93C82FDE
:1016A0003CDC8C2F34DC289ACF910895A2E0B0E086
:1016B000ECE5FBE00C94C9358C0142E050E060E8B9
:1016C00071E0CE0101960E94283699818A8189278E
:1016D0008F3FC1F02E9A8AE18A95F1F700C01E9BD8
:1016E00018C042E050E068ED73E0CE0101960E9420
:1016F000283699818A8189278F3F59F4F801908390
:1017000081E003C0F801908382E02296E4E00C942B
:10171000E53581E1F801808380E0F7CFCF93C4E61F
:1017200023DC982F9F7E913051F0863141F087EC79
:1017300090E00197F1F700C00000CA9589F7CF91BA
:10174000089586E3ABDFEADF8BE3A8DF8AE3A6CF69
:10175000F8DF84E3A3CFCF93DF93C82FD62F86E3A0
:101760009DDF6D2F8C2FF3DBF3DFDF91CF91089599
:10177000CF93C0E0D3DF83E391DFD0DF85E2D1DB1D
:101780008F3369F0C11549F08091200290912102B8
:1017900001969093210280932002CF91089586E3D1
:1017A0007DDFCF5FC33031F780911E0290911F0221
:1017B000019690931F0280931E02EFCFCF93C82F04
:1017C000D3DB8D30A9F44B9913C0C11599F08091EA
:1017D0001C0290911D02019690931D0280931C02A1
:1017E00086E35CDFC5DF84E359DF82E08093960106
:1017F000CF91089585E295DB8F33D1F78091220256
:101800009091230201969093230280932202E8CFC5
:101810000F931F93CF93C82F01ED17E0E0918F0135
:10182000E03478F481E08E0F80938F01F0E0E15B8B
:10183000FE4FC083803409F4AADBCF911F910F9132
:101840000895A5DBE0918F01E03460F38091AF0152
:10185000843041F40150104081F38AE18A95F1F718
:1018600000C0DCCFE0E0DECFCF93DF93EC01FE01E0
:1018700084912196811103C0DF91CF910895C8DF33
:10188000F6CF87E69BE0F0CFCF93C82F82958F707D
:10189000C03A50F4805DBCDF8C2F8F708A3030F4FA
:1018A000805DB6DFCF910895895CF5CF895CF9CF73
:1018B000CF93DF93EC018881E7DF8981E5DF8A81BF
:1018C000E3DFDF91CF9108951F93CF93DF93EB0177
:1018D000182F892FD9DF812FD7DF8D2FD5DF8C2FC0
:1018E000D3DFDF91CF911F9108954F925F926F9256
:1018F0007F928F929F92AF92BF92CF92DF92EF92A0
:10190000FF921F93CF93DF93CDB7DEB72B970FB620
:10191000F894DEBF0FBECDBF6B017C01C114D104B2
:10192000E104F104C1F480E373DF2B960FB6F89461
:10193000DEBF0FBECDBFDF91CF911F91FF90EF9023
:10194000DF90CF90BF90AF909F908F907F906F90DF
:101950005F904F900895CE0101965C0110E04C011C
:101960008AE0482E512C612C712CC701B601A301CD
:1019700092010E9489351F5F605DF50161935F01EF
:10198000D701C60169017A010A97A105B10510F0D6
:101990001B3059F71150F401E10FF11D808138DF40
:1019A0001111F8CFC2CFCF93DF93EC0197FF05C0A1
:1019B0008DE22EDFD195C195D109BE01DD0F880BD7
:1019C000990B93DFDF91CF9108958DE021DF8AE0BD
:1019D0001FDFDDCAEF92FF920F931F93CF93DF9328
:1019E000C62FE42ED52FF22E13DF8C2F4DDF0E2DB8
:1019F0001D2FC00FD12FD11DF80181918F0144DF20
:101A00000C171D07C9F78F2D3FDFDFDFCDB7DEB71E
:101A1000E6E00C94E335A0E0B0E0E1E1FDE00C94F9
:101A2000C5356C01EB01E42EF22E88EC9AE01CDF48
:101A30008C892ADF10E08C89181708F454C08E2D89
:101A400023DF8F2D21DF82EC9AE00EDFCE0103969B
:101A50002FDF8CEB9AE008DFCE01069629DF86EBBC
:101A60009AE002DF6E8970E080E090E03EDF81EB7B
:101A70009AE0FADE6F8970E080E090E036DF8CEA71
:101A80009AE0F2DE6C857D858E859F851DDF8C8DCD
:101A900085FF06C086EA9AE0E7DECE01099608DFF8
:101AA0008C8D82FF10C080EA9AE0DEDE6889798939
:101AB0008A899B8909DF8BE99AE0D6DE6A8D70E01E
:101AC00080E090E012DF87E99AE0CEDE8C8DDCDEEC
:101AD000011519F082E99AE0C7DE77DFCDB7DEB7EE
:101AE000E8E00C94E135F601E10FF11D8081CCDED8
:101AF0001F5FA1CFA3E0B0E0E0E8FDE00C94CB35A0
:101B000080913A0390913B03A0913C0389839A838F
:101B1000AB838EE89AE0A8DE80912F02811509F44C
:101B200036C18AE89AE0A0DE8EE79AE09DDE8091D9
:101B30004103813009F02EC187E79AE095DE87E600
:101B40009AE092DECE010196B3DE81E69AE08CDE69
:101B500080914403811509F420C181E359DE8CE5AD
:101B60009AE082DE60913D0370913E0380913F03D5
:101B700090914003A9DE86E59AE076DE8091190116
:101B8000805D46DE8CE49AE06FDE8091450381152E
:101B900009F405C181E33CDE83E49AE065DE8091CF
:101BA0002602811509F4FDC081E332DE88E39AE064
:101BB0005BDE80911B01811509F4F5C081E328DE0D
:101BC0008FE29AE051DE80916C03811509F4EDC03B
:101BD00081E31EDEFADE98D884E29AE045DE809149
:101BE0001801811509F4E3C081E312DE8BE19AE06C
:101BF0003BDE60911C0170911D0180E090E075DE7C
:101C00008FE206DE64E873E080E090E06EDE84E15F
:101C10009AE02ADE609124027091250280E090E033
:101C200064DED3DE8DE09AE01FDE609130027091B9
:101C3000310280E090E059DE88E09AE015DE6091A4
:101C400032027091330280E090E04FDE82E09AE051
:101C50000BDE609134027091350280E090E045DE49
:101C60008CEF99E001DE609136027091370280E0DE
:101C700090E03BDE85EF99E0F7DD609138027091EE
:101C8000390280E090E031DE8EEE99E0EDDD60918A
:101C900040027091410280E090E027DE87EE99E0FB
:101CA000E3DD609142027091430280E090E01DDE2E
:101CB0008FED99E0D9DD609144027091450280E09A
:101CC00090E013DE89ED99E0CFDD60913A027091EA
:101CD0003B0280E090E009DE84ED99E0C5DD609193
:101CE0003C0270913D0280E090E0FFDD8CEC99E0D9
:101CF000BBDD60913E0270913F0280E090E0F5DD37
:101D000084EC99E0B1DD609146027091470280E079
:101D100090E0EBDD8EEB99E0A7DD609122027091FF
:101D2000230280E090E0E1DD8FE272DD609120022D
:101D30007091210280E090E0D8DD8FE269DD609152
:101D40001E0270911F0280E090E0CFDD86EB99E0EB
:101D50008BDD60911C0270911D0280E090E0C5DD7A
:101D60008EEA99E081DD80911701082E000C990B15
:101D70001ADE88EA99E078DD80911601082E000CC1
:101D8000990B11DE22DE2396E2E00C94E73586E81B
:101D90009AE0C9CE8EE69AE0D1CE80E3DFCE80E332
:101DA000FACE80E302CF80E30ACF80E312CF80E354
:101DB0001CCFA4E0B0E0EFEDFEE00C94C7357B0152
:101DC0008C010E942C3569837A838B839C832091BC
:101DD000860284E0289F90011124B901605C7E4F47
:101DE00044E050E0CE0101960E94383620918602F0
:101DF00030E02F5F3F4F2770332720938602E09219
:101E00008202F0928302009384021093850224964A
:101E1000E6E00C94E335A0E4B0E0E1E1FFE00C94EF
:101E2000C1356C01CE0101967C015E0191E4A90EE1
:101E3000B11C470108E010E084E37ED8110F8170E7
:101E4000182BEFEEF0E03197F1F700C000000A9593
:101E500099F780918400909185001827F7011193DC
:101E60007F01EA15FB0531F760E470E0C4010E94D0
:101E7000882D892B51F4A60160E470E0C4010E9412
:101E80004C2D01E0892B09F000E0802FC05CDF4F72
:101E9000ECE00C94DD35A1E0B0E0E1E5FFE00C946E
:101EA000C93501E0098380918102811127C081E752
:101EB00092E0B1DF182F811106C0E3DC812F21965B
:101EC000E4E00C94E53540E150E060E671E081E744
:101ED00092E00E94383641E050E060E771E0CE01C8
:101EE00001960E94383600938102198241E050E049
:101EF00065E371E0CE0101960E94383611E0DECF35
:101F0000A0EDB0E0E6E8FFE00C94BD353C01CE0169
:101F10008F549F4F20E1E1E7F2E0DC0101900D9248
:101F20002A95E1F700E010E07C019CE0A92EB12C9D
:101F3000A80183E0569547958A95E1F747019E01F0
:101F40002F533F4FC12CD12C2901C8018C0D9D1D51
:101F5000FC01EF70FF27E95AF44FE491D401FD91A1
:101F60004D01B5010E947535DC01AB59BD4FE42729
:101F7000EF278C918E27F90181939F01FFEFCF1AF4
:101F8000DF0A80E1C816D10401F7B701CE0101963E
:101F90000E94B027A701B201CE0101960E9410282D
:101FA0000F5F1F4F0532A1E01A0711F680E1F7011C
:101FB000D30101900D928A95E1F7C053DF4FE0E124
:101FC0000C94D935A0EEB0E0E8EEFFE00C94C735F4
:101FD0008C01E7E4FBE0DE01AF54BF4FCD0140963A
:101FE000AD0124912D933196A817B907D1F7DE01E1
:101FF000AF53BF4F27E030E07D0189EF820F6CE0E7
:102000000E946935E92FF0E0EB59FD4FB9016F707F
:102010007727640F751F8081FB01908189278D933D
:102020002F5F3F4F2731310541F7BA01CE010196AD
:102030000E94B027AE014F525F4FB701CE0101960B
:102040000E941028F801BE016F527F4F9801205F57
:102050003F4F8191DB019D91BD01AF01415051097D
:102060008927DA018C93E217F30799F7C052DF4F03
:10207000E6E00C94E335CF92DF92FF920F931F932B
:10208000CF93DF93CDB7DEB7C15ED1090FB6F89419
:10209000DEBF0FBECDBFF82E192F6E018EEDC80E1C
:1020A000D11C84E0F60111928A95E9F7F4DE8115DE
:1020B00069F1CE018F549F4F23DFAE014F525F4F26
:1020C000B60185E692E00E94B22BBE016F547F4FAD
:1020D000CE0101960E94B02700E19E012F533F4F91
:1020E0004F2D512FBE016F527F4FCE0101960E949E
:1020F000122ACE018F539F4F65DF40E150E06EE121
:1021000071E0CE018F539F4F0E943836CF51DF4F81
:102110000FB6F894DEBF0FBECDBFDF91CF911F91F8
:102120000F91FF90DF90CF900895A2EEB0E0EBE921
:10213000F0E10C94C5357C01CE51DF4F1882C25EB0
:10214000D0406E018EEDC80ED11C84E0F6011192D4
:102150008A95E9F741E050E065E371E0CE018E51E8
:102160009F4F0E942836109164021115B9F1109109
:102170008102111599F1CE51DF4F1881C25ED04016
:10218000113091F540E150E06EE171E0CE018F53E6
:102190009F4F0E942836CE018F539F4F13DFCE01F1
:1021A0008F549F4FADDEAE014F525F4FB60185E6B3
:1021B00092E00E94B22BBE016F547F4FCE01019678
:1021C0000E94B02700E19701AE014F535F4FBE015F
:1021D0006F527F4FCE0101960E94122A812FCE515D
:1021E000DF4FE8E00C94E13510E0F8CFA2E4B0E076
:1021F000ECEFF0E10C94C135792F162FF42E022F5D
:102200006983462F50E0682FCE0102960E940E3659
:102210003B818A8196E789278A8322E0AE014F5F5E
:102220005F4FB42EA52EFA01E20FF11D9081698156
:10223000261708F445C09327908383DAF11409F434
:1022400044C0011509F443C080910B0190910C0129
:10225000892B90910D01892B811509F475C08DE0B2
:102260000E94910721968FAF21978EE00E949107DF
:1022700022968FAF22978FE00E94910723968FAF0F
:1022800023978BE091E00E94B80785E307DAC12C21
:10229000D12C2CE2822E992493940E94B40783318E
:1022A00009F054C0E12C8FE19EE40197F1F700C0E2
:1022B00000000E947808E394E016A8F30F2D07C0F1
:1022C0008452892780832F5FAECF0111DECF0E9419
:1022D0008D078FE70E948707EB2CFA2CF70181917D
:1022E0007F010E9487078E2D8B191817B8F7289A3F
:1022F00085E3D4D9E12CF12C9CE2C92EDD24D394C2
:102300000E94B4078331D9F59AE0910F80E0EFEC99
:10231000F7E03197F1F700C000008F5F8917B8F33D
:1023200084EFE82EFF24F3948AE30E949C078F77C2
:10233000811509F449C00E94B4078631C9F5011519
:1023400009F44DC010E042C0F12C9FCF87EC90E023
:102350000197F1F700C00000C601B4010E94753575
:102360008B32914011F485E399D9FFEFCF1ADF0A40
:1023700028EBC2162BE0D20609F08FCF93CF87EC63
:1023800090E00197F1F700C00000C701B6010E947C
:1023900075358B32914011F485E380D9FFEFEF1A48
:1023A000FF0A28EBE2162BE0F20609F0A9CFACCF2A
:1023B0008FEC97E00197F1F700C0000091E0E91A77
:1023C000F10809F0B1CFBBCF011539F086E366D92A
:1023D000CE01805C9F4F0E94B807111102C0B1D995
:1023E00010E00E94B4078D3011F084E357D9812F9B
:1023F000CE5BDF4FECE00C94DD35A0E0B0E0E3E035
:10240000F2E10C94C5357C01C62FD42ED22F411594
:1024100009F443C0211509F440C020910B018091BB
:102420000C01282B80910D01282B81E0211101C086
:1024300080E0082F10E0809118018115B9F10E9409
:10244000840628E0C29FC001112485549F4F64E692
:1024500070E00E947535CB018D0F911D2227332727
:10246000201B310B26233723280F391F80911C0195
:1024700090911D018217930798F480912402909106
:10248000250201969093250280932402C2E08C2FAE
:10249000CDB7DEB7E8E00C94E13500E010E0CBCF3B
:1024A000821B930B90931D0180931C018FEF8C0F67
:1024B0008D3330F1C0E060913D0370913E03809117
:1024C0003F0390914003009182021091830220917A
:1024D000840230918502601771078207930770F0BC
:1024E0006B017C01C01AD10AE20AF30A9701860146
:1024F000C11444E0D406E104F10448F25ADCC7CF29
:102500002D2F4D2D6C2FC70171DE811599F2D1153C
:1025100049F08091460290914702019690934702BC
:102520008093460201111DC084EB90E00E940707D2
:10253000C1E0C1CFEFECF7E03197F1F700C0000048
:10254000019620911201309113018217930790F3A5
:1025500020E040E06C2FC70149DE811509F4AACFC5
:10256000E3CF80E090E0EDCF20911B01211108C066
:1025700040E043DF982F81E0913009F080E008953A
:1025800090E0F9CFA4E3B1E0E8ECF2E10C94C335BC
:102590007E018EECE81A8EEFF80A80911E01909170
:1025A0001F01A0912001F70180839183A2836E0116
:1025B000F1EFCF0ED11CD60180E18D938CE0E5E6E2
:1025C000F2E001900D928A95E1F7F601158681E01F
:1025D00086871786108A818B8AEE828B82E0838BB6
:1025E00098E1948B858B80E4868B83E0878B809148
:1025F000600290916102A0916202B0916302808FAB
:10260000918FA28FB38FAE014F5D5E4F60E672E097
:1026100085E692E00E94B22B60E572E0CE01019661
:102620000E94B0278E01025D1E4F2CE1A601BE0163
:102630006F5D7E4FCE0101960E946529C25DDE4F1F
:102640008881CE52D140F601848FC15DDE4F8881F2
:10265000CF52D140858FC05DDE4F8881C053D140BD
:10266000868FCF5CDE4F8881C153D140878FE8E4ED
:10267000F2E0D601909680E592E0B70176012191D3
:102680002D938E179F07D9F7CE018F549F4F5C0172
:1026900088E2C82E00E010E020E041E08AE892E005
:1026A0000E94C532682F811569F0C5015DDF811573
:1026B00049F080913C0290913D02019690933D0239
:1026C00080933C02CC5CDE4FEAE00C94DF35A0E165
:1026D000B0E0EDE6F3E10C94CB358091640281111A
:1026E00007C087E29BE0C0D86096E2E00C94E73533
:1026F00080911B01811519F088E09BE0F4CFCE0199
:10270000019689DB811589F08981809360028A8135
:10271000809361028B81809362028C81809363023B
:10272000CE01019678DB811102C0ABD8DDCF88E005
:10273000FE013196A8E4B2E001900D928A95E1F78E
:1027400021E030E04EE652E060E070E08AE892E09E
:102750000E941F2F81E080932F0280936D030E94BF
:102760007806DC01CB01805A9541AF4FBF4F809373
:102770002B0290932C02A0932D02B0932E020E9464
:102780007806DC01CB01805C904EAF4FBF4F809349
:10279000270290932802A0932902B0932A028BEC7F
:1027A0009AE062D8EFDEA0CFA0E4B0E0EAEDF3E17A
:1027B0000C94C935AC01262F8E010F5F1F4F67E8BF
:1027C00072E08AE892E00E947F33682F811569F0F9
:1027D000C801CADE811549F080913C0290913D020A
:1027E000019690933D0280933C02C05CDF4FE4E091
:1027F0000C94E535A0E1B0E0E0E0F4E10C94CB35D9
:1028000085E8898380911A0191E0980F90931A01CD
:102810008A8382E08B8390E89C8398E09D838E83FB
:102820001F8283E0888780916C03811188EC8987FF
:1028300084E08A871B8685E08C871D866DE0CE014B
:102840000196B2DF6096E2E00C94E735CF93C62F95
:1028500080936C030E94E30688EA9BE005D8809190
:102860006C038115B1F081E30E94080CAED8C1154C
:1028700071F080914403811551F08091870290910D
:102880008802892B90918902892B8111B3DFCF9126
:10289000089580E3E9CF66E067DE811549F0809115
:1028A0004002909141020196909341028093400230
:1028B0000895AEE3B0E0EFE5F4E10C94C535062FE2
:1028C0004EE3BE016F5F7F4F0E944207823028F0C7
:1028D00029819FEF980F291729F08FE999E00E942D
:1028E000340C3FC010911B01111519F083E899E0D9
:1028F000F6CF90911B029115C1F1909112029115A2
:10290000A1F18A3090F18C81823079F59A818091A1
:10291000130298132AC043E050E064E172E0CE0154
:1029200008960E940136892B01F50E947806C09016
:102930001702D0901802E0901902F0901A026C1958
:102940007D098E099F096D3D75408105910568F4EB
:1029500080914402909145020196909345028093A4
:102960004402EE96E8E00C94E135011521F08091E7
:102970001501811114E2212F40E06981CE010296F8
:102980003CDD823061F480913E0290913F020196DD
:1029900090933F0280933E0285E799E0A0CF811596
:1029A00051F080913C0290913D02019690933D023E
:1029B00080933C02D6CF80913E0290913F020196D7
:1029C00090933F0280933E028CE699E088CF1F925D
:1029D0001FB61F9211248F939F93AF93BF93809143
:1029E0006E0390916F03A0917003B09171030196F3
:1029F000A11DB11D80936E0390936F03A09370038C
:102A0000B0937103BF91AF919F918F911F901FBEA3
:102A10001F901895CDB7DEB7C250D2400FB6F894CC
:102A2000DEBF0FBECDBF84B7877F84BF0FB6F894DB
:102A3000A89580916000886180936000109260008A
:102A40000FBE80E820E030E00FB6F894809361007C
:102A5000209361000FBE6A980E9415088091D800EB
:102A600080618093D80081E080930502789484B1DE
:102A7000876084B92398209A289A80E58CBD1DBC74
:102A8000539852986E9A289A20E52A95F1F728983B
:102A900050E55A95F1F7289A88E78A95F1F780E38F
:102AA0000E944E0BAFE1BEE41197F1F700C00000A9
:102AB00010E0612F70E0CB01865D9E4FFC012491F8
:102AC0002F3F09F039C263EC8EE30E94A7070E94F2
:102AD000B80B0E94A80BCE0101960E94560B8115DF
:102AE00021F069818CE00E94AB0B109280008BE09A
:102AF000809381008CE790E0909389008093880018
:102B000082E080936F00789442E050E060E071E0F2
:102B1000CE0101960E94283689819A8181339145A0
:102B200009F014C24CE050E062E071E085E692E00A
:102B30000E94283640E150E06EE071E080E592E0CE
:102B40000E94283681E080936402198241E050E0BF
:102B500060E771E0CE0101960E942836198111309C
:102B600009F0F6C140E150E060E671E081E792E0F3
:102B70000E942836109381024E0121EB820E911C97
:102B800083E0D4011D928A95E9F720E030E0A401AA
:102B900060E070E08AE892E00E941F2F00E411E0FC
:102BA000C12CD12C7601B12C44E050E0B801CE010B
:102BB00001960E94283649805A806B807C80C30130
:102BC000B2010E942C35462F572FBC01B3944720E9
:102BD00046204520409459F0C416D506E606F7066F
:102BE00030F48B2D8770809386026A017B010C5F25
:102BF0001F4FE8E0BE12D8CFC114D104E104F104A4
:102C0000B1F444E050E061E371E0CE0101960E942E
:102C1000283669817A818B819C816F3FFFEF7F0726
:102C20008F079F0721F00E942C356B017C01B701B3
:102C3000A6015C5F6F4F7F4F8AE892E00E94762F7B
:102C400060913D0370913E0380913F03909140035A
:102C5000B0D8CE01019669DA811539F0BE016F5FF7
:102C60007F4F8AE892E00E945C2F8AE599E00E94FB
:102C7000340C0E94E50CD12C3E012EE8621A2EEF96
:102C8000720AE5E32E2E332433942C0E3D1E52E2BD
:102C9000250E311CCE018B5C9E4F8596CF5FDD4F9C
:102CA00099838883C150D240D3011396C250DE4F1E
:102CB000B983A883CE5FD140FE017196C550DE4F27
:102CC000F983E883CB5FD1404B9B52C182E30E94E2
:102CD0009C07809395019091900191113BC191E0E7
:102CE000909390018093920180939301809394013B
:102CF00010929101809191018F3F19F08F5F809325
:102D000091014A9938C10E94B407813111F40E949F
:102D1000A80B80916D03811509F46EC40E94E3062F
:102D20000E94780600910701109108012091090185
:102D300030910A01601B710B820B930B97FD7BC4D2
:102D40000E947806DC01CB0180569444A24FBF4F0D
:102D50008093070190930801A0930901B0930A01A1
:102D600081E00E94DE0B8CB184709091A0019111E2
:102D7000D2C4811519F081E08093A00180916D0388
:102D80008115E9F00E947806462F572FBC018091EB
:102D90002B0290912C02A0912D02B0912E02481787
:102DA00059076A077B0708F416C510926D030E9445
:102DB000E30684E492E00E94340C0E94E50C10913A
:102DC000A501111509F45FC00E9478062091A101A8
:102DD0003091A2014091A3015091A40162177307A1
:102DE0008407950708F44FC00E947806DC01CB01E8
:102DF00080559B4FAF4FBF4F8093A1019093A2018D
:102E0000A093A301B093A401123009F401C51330BB
:102E100009F41FC5113069F580E3CB5CDE4F888370
:102E2000C553D140FE0131965F01CC24C394CE013D
:102E30008B5C9E4F7C0100E010E021E041E067E800
:102E400072E08AE892E00E94C532682F811569F02D
:102E5000C5018ADB811549F080913C0290913D02C9
:102E6000019690933D0280933C0289EA92E00E9491
:102E7000340C0E94C7078091A5018F5F843008F051
:102E8000EDC48093A5018091A601811581F00E9477
:102E900078060091AB011091AC012091AD01309109
:102EA000AE01601B710B820B930B97FFE0C40E9475
:102EB00078080E94C707E091F1018091F001E817BE
:102EC00008F030C581E08E0F8093F101F0E0E0550D
:102ED000FE4F808190E08D30910529F08A30910578
:102EE00011F00C945726F401ED0DF11D1082D11450
:102EF00009F1D4018C91813409F0C1C511968C91EE
:102F00001197811509F4E9C5833709F040C543E0FD
:102F1000BE016F5F7F4FC40102960E9442076B8122
:102F200062956170833009F060E0C4010296C1DCF3
:102F30000E94C707D12CC8CE655D7E4FFB0164910E
:102F4000FC0184910E94A7071E5FB3CD80E0FBCDFA
:102F500010E010CE90919301891714F4809393019F
:102F60009091920198170CF0C5CE80939201C2CE39
:102F700010929001C6CE8FE30E949107C82EE8946C
:102F8000C7F88FEF8C0D8D3308F0C1CEC9820E9437
:102F90008D078FEF0E9487078E010E5F1F4FBB24A6
:102FA000B394780180E00E948707D8018D938D014A
:102FB000B394CB14B8F780E00E948707B82E80E066
:102FC0000E948707A82E289A8A8196E798279A83D5
:102FD00092E0FE013196E90FF11D208139819317AE
:102FE00008F4BDC08B81822780834C2D50E0B7014F
:102FF000C3010E940E36EB2CB7FE03C0EE24E3940F
:10300000EB0CE5940E2C000CFF08BAE4EB1AF10867
:10301000E0E8EE16EFEFFE0624F470E8E72EFF245A
:10302000FA940E94A80B80910402811509F458C0FB
:103030008DE392E00E94340C80919501082E000CE3
:10304000990B0E94D30C85E392E00E94340C80918E
:103050009401082E000C990B0E94D30C8FE292E091
:103060000E94340C80919301082E000C990B0E9451
:10307000D30C89E292E00E94340C80919201082ED8
:10308000000C990B0E94D30C85E292E00E94340C54
:103090006091910170E080E090E00E94750C8EE1FB
:1030A00092E00E94340CC7010E94D30C88E192E0A8
:1030B0000E94340C6C2D70E080E090E00E94750C52
:1030C00082E192E00E94340C8301D8018D918D0140
:1030D0000E94440C802F86198C15B8F30E94E50CD1
:1030E00090912F028091110220910802822B811170
:1030F0003CC0911509F40DCEB6E0CB123BC043E0C5
:1031000050E06AE373E0C3010E940136892B09F0A5
:1031100000CE809142029091430201969093430227
:103120008093420289E092E00E94340CC250DE4F4C
:1031300088819981CE5FD1400E94580C83E092E053
:103140000E94340CC3010E94580C8CEF91E00E9445
:10315000340CC7010E94D30C0E94E50CDACD8452D6
:10316000822780839F5F822F34CF9111C5CF00E0EB
:1031700010E046C0509019015114A1F09E012F5F3C
:103180003F4F4C2DB3018AE892E00E949A3281159C
:1031900009F470C1CE0101967EDB512C80912F0283
:1031A000811529F38091300290913102019690931C
:1031B0003102809330028E0101551E4F9E012B5C1F
:1031C0003E4F4C2DB3018AE892E00E94872F892B55
:1031D00009F058C180913202909133020196909388
:1031E000330280933202C553DE4F8881CB5CD140DD
:1031F000897101E0811101C000E051104DC111E061
:1032000050900802809111028529811509F453C15B
:1032100088E290E00E940707111511F40C946826CB
:10322000511431F02E2DA3016C2D80E50E94EA0C83
:10323000011511F40C94D62688E290E00E9407074D
:10324000C553DE4F8881CB5CD14087FF0AC02091F7
:103250003602309137022F5F3F4F30933702209371
:1032600036028970893049F5CA53DE4F8881C65CC1
:10327000D140811122C0CD53DE4F88819981C35C3A
:10328000D1400597D0F0CB5CDE4F8881C553D1404B
:10329000863899F4C95CDE4F8881C753D1408230AB
:1032A00061F481E0C75CDE4F9881C953D140911130
:1032B00001C080E060E0CADA9DDACE2C80916D0317
:1032C000811509F47AC0CD53DE4F8881C35CD140AB
:1032D0008D3208F472C0CB5CDE4F8881C553D1407B
:1032E000803209F06AC08CE0E5E6F2E0DE0111967A
:1032F00001900D928A95E1F780E1E0E5F2E0DE01D0
:103300001D9601900D928A95E1F78091600290914F
:103310006102A0916202B09163028D8F9E8FAF8F88
:10332000B8A388E0E8E4F2E0DE01919601900D9206
:103330008A95E1F7C95CDE4F88819981AA81BB81BA
:10334000C753D14089A79AA7ABA7BCA788E0FE01C5
:10335000EB5CFE4F3A96DE019D9601900D928A95A8
:10336000E1F780E1FE01EB5CFE4F7296DE01D5963F
:1033700001900D928A95E1F7C25ADE4F88819981BA
:10338000AA81BB81CE55D14029968CAF9DAFAEAFFF
:10339000BFAF2997BE0162537E4FCE0101960E94B6
:1033A000232C81118BC010926D030E94E3068EEDD9
:1033B00091E00E94340C0E94E50C90911901911546
:1033C00009F40EC1C553DE4F8881CB5CD14081FD2D
:1033D00007C0913009F404C18970893009F000C137
:1033E000AE0142535E4FBE0161557E4F8AE892E0C6
:1033F0000E940132873109F0F3C067E1CE018253A8
:103400009E4FB2D8F82E811509F4E1C080913802A0
:1034100090913902019690933902809338028091FD
:103420002602811519F18E010F5F1F4FCD53DE4F1C
:103430002881C35CD140AE014B5C5E4FBE0161553B
:103440007E4F8AE892E00E940B33682F811571F05D
:10345000C8018AD8811509F4C5C080913A029091BB
:103460003B02019690933B0280933A020F2D2A2D46
:103470004C2DA4C04C2DB3018AE892E00E94B932D1
:10348000582E8CCE80913402909135020196909303
:103490003502809334026BCEC453DE4F8881CC5CFE
:1034A000D14081FFACCEC250DE4F88819981CE5F82
:1034B000D140F1D9A4CE1111BFCE2BCCBE016253A5
:1034C0007E4F8AE892E00E945C2FB1018AE892E088
:1034D0000E94672FC65ADE4F688179818A819B815D
:1034E000CA55D1400E942C35AB01BC018AE892E05C
:1034F0000E94762FCE0182539E4F0E943B1043E0E4
:1035000050E06EE271E0C1010E94383644E050E0C4
:1035100061E371E0CF5FDD4F88819981C150D24076
:103520000E94383611E0CB51DE4F1883C55ED14082
:1035300041E050E065E371E0CE018B519E4F0E9467
:10354000383610926D030E94E306CE54DE4F888118
:103550009981AA81C25BD1408093870290938802AF
:10356000A093890243E050E066E371E087E892E0CF
:103570000E94383610931A011093A5010E94780614
:10358000DC01CB0180559B4FAF4FBF4F8093A10112
:103590009093A201A093A301B093A4018BEC91E0BE
:1035A0000E94340CC1010E94580C0E94E50C89E86D
:1035B00091E00E94340C00E02A2D4E2DBE01615591
:1035C0007E4FCE018B5C9E4F0E940B0DA2CB809153
:1035D0003E0290913F02019690933F0280933E02FB
:1035E000F12C1DCF80913E0290913F020196909365
:1035F0003F0280933E023ACFE0906803F090690367
:1036000000916A0310916B03E114F10401051105A7
:1036100009F486CB0E9478066E157F058007910716
:1036200008F47ECB109268031092690310926A032B
:1036300010926B0373CB0E94780600919701109152
:1036400098012091990130919A01601B710B820BB6
:10365000930B97FD88CB0E947806DC01CB01885143
:103660009C4FAF4FBF4F8093970190939801A093C9
:103670009901B0939A0180E00E94DE0B0E94B4078A
:103680008D3009F070CB4B996ECB809196018115EE
:1036900021F081508093960166CB84E30E949C07C1
:1036A00087FD8F5F859546EB480F50E845039001F5
:1036B000112480911701813881F08091F20190915D
:1036C000F301281B390B37FF20C02D5F3F4F359585
:1036D000279535952795280F391F3093F3012093AF
:1036E000F20137FF02C021583F4F220F232F221F24
:1036F000330B209317018091160184171CF0813839
:1037000009F031CB409316012ECB55E03595279526
:103710005A95E1F7E0CF811130C0E0909C01F09024
:103720009D0100919E0110919F01E114F10401059A
:10373000110559F40E94780660939C0170939D01D5
:1037400080939E0190939F0119CB80919B018111E1
:1037500015CB0E9478066E197F09800B910B6F3193
:1037600071058105910508F409CB81E080939B01E7
:1037700084EB90E00E94070701CB80919B018115AB
:10378000B9F00E94780600919C0110919D01209152
:103790009E0130919F01601B710B820B930B613D69
:1037A00077408105910578F00E9467130E94C70752
:1037B00010929B0110929C0110929D0110929E010B
:1037C00010929F01DBCA81E090916C03911180E01F
:1037D00061E03CD8EBCF8091270290912802A09124
:1037E0002902B0912A02481759076A077B0708F493
:1037F000E6CA405C504E6F4F7F4F40932702509374
:1038000028026093290270932A020E94C212D7CA2A
:1038100085E8898380911A0191E0980F90931A01AD
:103820008A83EFE5F2E0DE01139684918D93319661
:10383000C550DE4F88819981CB5FD1408A179B07A5
:10384000A1F760E1CE0101960E94D41384E992E0D1
:103850000ECB0E94FA138DE792E009CB1092A501DE
:103860008DE692E00E94340C0E94C7070CCB1092A8
:10387000A6018091A701898380E88A83809109024B
:10388000811561F043E050E06AE072E088EA91E07F
:103890000E940136892B11F481E88A8382E08B83B0
:1038A00080910E0290910F02A09110028C839D8353
:1038B000AE838091A8019091A901A091AA018F8364
:1038C0009887A9871A866AE0CE0101960E94B412F1
:1038D000811509F4ECCA8091380290913902019661
:1038E00090933902809338028091A701809313024C
:1038F0008091A8019091A901A091AA01809314023E
:1039000090931502A09316020E9478066093170206
:10391000709318028093190290931A0281E08093A9
:103920001202C5CA1092F1011092F0018091AF010C
:10393000843009F0C9C98093E9008091E80082FFD2
:10394000C3C98091F2009091F300892B21F0E0919E
:10395000F001E03488F08091E800982F9B7F9093ED
:10396000E8008F778093E8008091F001811509F4D9
:10397000ABC9E091F101A6CA81E08E0F8093F001FE
:103980008091F100F0E0E055FE4F8083DACF82377E
:1039900031F481E08093110210921B01C9CA88376B
:1039A00019F410921102C4CA8136D9F4F40182814B
:1039B000811561F043E06EE072E0C40102960E945E
:1039C0004207833019F481E080930D0286E599E087
:1039D0000E94340C8EE092E00E94580C0E94E50C8C
:1039E000A7CA873711F512968C918115B9F043E07B
:1039F0006AE072E0C40102960E944207833071F4CB
:103A000080910A0290910B02892B90910C02892BD4
:103A100091E0811101C090E09093090282E599E064
:103A20000E94340C8AE092E0D7CF813709F055C06C
:103A3000F401928180ED890F823030F481E091337E
:103A400009F080E080931B028EE499E00E94340C20
:103A500080911B02811589F081E30E94080C8091FE
:103A60001B02811509F4BACF80910D028111B6CFE6
:103A70008BE399E00E94340CB1CF80E3EECF840158
:103A80008035D1F411968C91811539F1833709F481
:103A90004BCA823741F481E08093080283E399E0C6
:103AA0000E94340C45CA0F5F1F4F883729F41092CB
:103AB00008028BE299E0F4CF843511F40C9495253B
:103AC00004F5823411F40C94E72554F4811509F4BB
:103AD0002FCA8F3311F40C94912589EB98E0E0CF35
:103AE0008334D9F741E0BE016F5F7F4FC801019673
:103AF0000E944207813011F40C94362686EC98E03F
:103B0000CFCF883511F40C94B825C4F4863511F460
:103B10000C948D25873509F742E0BE016F5F7F4F1A
:103B2000C80101960E944207823029F419811F3290
:103B300010F40C9446268EEB98E0B2CF8D3669F6E1
:103B4000F8019181911561F0E1ECE90FE53308F09E
:103B5000E0C70E2E000CFF0BEB59F94C0C94AB3563
:103B60000E947A0DE5C961E070E0943411F060E0E4
:103B700070E08AE892E00E94712F81EA98E00E944A
:103B8000340CD80111968C91843489F58AE998E037
:103B90000E94340C0E94E50CF8018181843409F400
:103BA000C7C9CB5CDE4F1882C553D14041E050E01D
:103BB00065E371E0CE018B5C9E4F0E942836CB5CA2
:103BC000DE4F8881C553D140813009F4B1C980915D
:103BD0006402811509F4ACC98E010F5F1F4FC80143
:103BE0000E940B0F811106C00E94410CA1C981E9FE
:103BF00098E0CECFB8018AE892E00E945C2FC8011D
:103C00000E943B1081E0CB5CDE4F8883C553D140DE
:103C100041E050E065E371E0CE018B5C9E4F0E9475
:103C2000383680E1D8011D928A95E9F784EC92E05C
:103C300037CF43E0BE016B5C7E4FC80102960E9405
:103C40004207833019F083E898E02ACFBE016B5C0D
:103C50007E4F8AE892E00E94672F8AE798E00E94F0
:103C6000340CCE018B5C9E4FB7CEF8018281883533
:103C700061F4198241E050E065E371E0CE01019604
:103C80000E9438368AE398E00BCF80E098E008CFB6
:103C900044E0BE016B5C7E4FC80102960E94420761
:103CA000843019F084EF97E0FBCECB5CDE4F688167
:103CB00079818A819B81C553D1400E942C35AB010B
:103CC000BC018AE892E00E94762F8DEE97E00E9478
:103CD000340C60913D0370913E0380913F039091BD
:103CE00040030E94640C7ACED80112968C918E34D7
:103CF00009F09FC085ED97E00E94340C0E94C70731
:103D00000E944B0F811509F478C0CE0101960E94E4
:103D10007307811509F469C0FE0131969E01255F84
:103D20003F4F85EC9DE9ACE1B1E8AC01BD0115E088
:103D3000440F551F661F771F1A95D1F70BE1B695F3
:103D4000A795979587950A95D1F7842B952BA62B48
:103D5000B72B41918427E217F30739F7AF73BB27DD
:103D60006C017D0180E592E00E940B0F811509F442
:103D700042C005E612E0A70196016BEE70E080E01C
:103D800090E00E94963381E391E5CB5CDE4F99830E
:103D90008883C553D1404CE050E062E071E0C80137
:103DA0000E94383640E150E06EE071E080E592E03C
:103DB0000E94383642E050E060E071E0CE018B5C5A
:103DC0009E4F0E94383681E080936402CB5CDE4FC8
:103DD0001882C553D14041E050E065E371E0CE0167
:103DE0008B5C9E4F0E94383608C0CE0101960E941F
:103DF0000B0F811109C00E94410C80916402811156
:103E0000F0C081E594E04CCE29818A8190E0A0E069
:103E1000B0E0BA2FA92F982F8827A22B2B81822BB5
:103E2000AF73BB276C017D0184EE92E00E94340CDD
:103E300099CF803519F40E9467137AC88B34E9F65C
:103E4000C650DE4F1882CA5FD14041E050E065E3C2
:103E500071E0CE0186509E4F0E9428368091640208
:103E6000811539F0C650DE4F8881CA5FD14081305C
:103E700019F081E893E014CE8FE693E00E94340CB1
:103E80000E94C707CE018B5C9E4F0E940B0F8115CD
:103E900009F4AACECB5CDE4F8881C553D140CE5009
:103EA000DE4F8883C25FD140CA5CDE4F8881C65333
:103EB000D140CD50DE4F8883C35FD140C95CDE4F17
:103EC0008881C753D140CC50DE4F8883C45FD14036
:103ED000C85CDE4F8881C853D140CB50DE4F888309
:103EE000C55FD1407E0122E3E21A2EEFF20AC7013C
:103EF0000E949510811103C082E593E0D1CD5E014F
:103F00005EE8A51A5EEFB50AC5010E94800FAE01FA
:103F10004B515E4FBE016E507E4F85E692E00E948F
:103F2000B22BB501CE0101960E94B0276E0181E54A
:103F3000C81A8EEFD80A00E19601A701BE016B51A5
:103F40007E4FCE0101960E94122A2E019AE0491A54
:103F50009EEF590A820120E1A701BE016B517E4FFD
:103F6000CE0101960E94612B80E1D701E82F1D92BE
:103F7000EA95E9F7D5011D928A95E9F786E493E081
:103F80000E94340C04501109F80134967F01B42CBE
:103F9000A52CD8018D918D010E94440CE016F106EC
:103FA000C1F786017601B0E1EB0EF11CF8018191B9
:103FB0008F010E94440C0E151F05C1F70B2D1A2D01
:103FC0007801F4E0EF0EF11CD8018D918D010E9473
:103FD000440C0E151F05C1F70E94E50C8BE193E020
:103FE0005FCD87E494E00E94340C05E612E0F8010E
:103FF00081918F010E94440CF2E001371F07B9F74D
:104000000E94E50CCE018B5C9E4F7C018E01025319
:104010001E4F9E012B513E4FAE014E585E4FBE01CA
:1040200061557E4F85E692E00E942F3482E394E052
:104030000E94340CCB51DE4F8881C55ED1400E9476
:10404000440C89E294E00E94340CC153DE4F888115
:10405000CF5CD1400E94440CC253DE4F8881CE5CBD
:10406000D1400E94440C8CE194E00E94340CCE5864
:10407000DE4F88819981AA81BB81C257D140BC01A2
:10408000CD0161507F4F8F4F9F4F0E94750C0E9452
:10409000E50C8BE094E00E94340CCE0101960E9466
:1040A0007307811521F10D5C11409AE2E91A91E044
:1040B000F90AD8018D918D010E94440CE016F10699
:1040C000C1F70E94E50C8BEF93E00E94340C00E5F1
:1040D00012E0F80181918F010E94440CF2E0003659
:1040E0001F07B9F70E94E50C86EB93E0D9CC83E07B
:1040F00094E00E94340CE5CFD80112968C91803365
:1041000031F461E080E00E9426140C94981781330A
:1041100019F461E081E0F7CF843539F481E09091C2
:104120006C03911180E061E0EECF8AEC97E00E9491
:10413000340C80916C03811521F081E30E94080CFE
:104140004DCC80E3FBCFA5B058B04BB0BEB1C3504F
:10415000DE4FB883CD5FD140E1B3C050DE4FE8837E
:10416000C050D24084B195B18095892B85B987B173
:1041700098B18095892B88B98AB19BB18095892B9C
:104180008BB98DB19EB18095892B8EB980B391B3D7
:104190008095892B81BB8FE097E20197F1F700C0F2
:1041A0000000D3B0C6B0B9B00CB11FB18FEB97E02F
:1041B0000E94340C8D2D0E94440C8BEB97E00E94E2
:1041C000340C8C2D0E94440C87EB97E00E94340C39
:1041D0008B2D0E94440C83EB97E00E94340C802FBF
:1041E0000E94440C8FEA97E00E94340C812F0E94B9
:1041F000440C8EE897E00E94340C0E94C70740E907
:10420000E42EFF24F3949FE7A8E3B1E09150A0408F
:10421000B040E1F700C0000083B18D110CC086B141
:104220008C1109C089B18B1106C08CB1801303C0F9
:104230008FB1811789F183E897E00E94340C83B134
:104240008D250E94440C8FE797E00E94340C86B1C4
:104250008C250E94440C8BE797E00E94340C89B1B6
:104260008B250E94440C87E797E00E94340C8CB1A8
:1042700080270E94440C83E797E00E94340C8FB1A2
:1042800081270E94440C0E94E50C0E94C707D3B00E
:10429000C6B0B9B00CB11FB1E1E0EE1AF10809F0F7
:1042A000B2CFA5B858B84BB8C350DE4FF881CD5F38
:1042B000D140FEB9C050DE4F2881C050D24021BB52
:1042C00080E697E0EDCBD80112961C9181E0103387
:1042D00009F480E080931B018AE597E00E94340C8A
:1042E00081E3103309F480E30E94080C8EE397E029
:1042F000103309F0BFCB8AE297E0BCCBF8013296CD
:1043000080E0982F81E0890F2191211519F08930E3
:10431000C1F798E0F80182818B3409F065C0838190
:104320008115B1F043E0BE016F5F7F4FC801039676
:104330000E944207833019F081E297E0B1CB898176
:1043400080930B018A8180930C018B8180930D01F6
:1043500083ED96E00E94340C80911501811509F4DB
:10436000B3C081E30E94080C89EC96E00E94340CF3
:1043700060910E0170910F0180E090E00E94750C39
:104380008FE20E94080C609110017091110180E091
:1043900090E00E94750C83EB96E00E94340C8091B3
:1043A0000B010E94440C80910C010E94440C8091EE
:1043B0000D010E94440C80910B0190910C01892BFE
:1043C00090910D01892B811104C08DEA96E00E9425
:1043D000340C83EA96E00E94340C609112017091D3
:1043E000130180E090E049C0913061F490ED980FA6
:1043F000923008F066C091E0813309F090E090932C
:104400001501A6CF08F4A4CF282F2D7F213319F052
:104410008A3509F056C0963018F088E197E040CB15
:10442000F801339640E050E0A1E0BAE0AF5F21919F
:1044300030ED320F3A3018F08FE097E031CBB49F77
:10444000B001B59F700D1124022E000C330BA90191
:1044500040535109460F571F9A13E8CF8A35A9F4E4
:10446000CA010597803F914058F08CEF96E00E947A
:10447000340C64EF71E080E090E00E94750CAECAED
:10448000509313014093120163CF9A012A503109CE
:10449000273C374048F088EE96E00E94340C60EDEF
:1044A00077E080E090E0E9CFE1E0F0E0833311F0E5
:1044B000E0E0F0E0EE0FFF1FE25FFE4F518340832C
:1044C00047CF8FED96E0ECCA80E34CCFD80112962F
:1044D0009C9180ED890F823030F481E0913309F0B6
:1044E00080E0809318010E94840688E996E00E948B
:1044F000340C80911801811509F181E30E94080CA8
:104500008FE896E00E94340C60911C0170911D01AF
:1045100080E090E00E94750C8FE20E94080C64E835
:1045200073E080E090E00E94750C88E896E00E94BD
:10453000340C609124027091250253CF80E3DECFCA
:10454000F801F28061E0F0E3FF1201C060E0953411
:10455000C9F460932F0284E896E00E94340CD801DD
:1045600011968C910E94080C8DE30E94080CF801B2
:104570008181813521F58091190120E3F22EF80E19
:104580008F2DDCCD913539F422E3F21201C062E0C7
:1045900060931901E0CF963419F460932602DBCFC3
:1045A000983419F460930402D6CF9E3419F46093C2
:1045B0004503D1CF8AE892E00E947E2FCCCFF0E372
:1045C000FF16F1F291E3F92EDBCFD80112968C9110
:1045D00012978D3281F513968C9181112EC08FEF39
:1045E0008A83898342E050E060E871E0CE01019661
:1045F0000E943836CE0101960E94560B69818CE0EC
:104600000E94AB0B85E796E00E94340CCE01019628
:104610000E94560B182F89810E94440C81E796E076
:10462000123009F427CA8BE696E0113009F422CA49
:1046300082E696E01FCA811529F341E0BE016F5F53
:104640007F4FC80102960E944207813021F4F80191
:104650008481811519F08BE796E022CA89818095C3
:104660008A8342E050E060E871E0CE0101960E944A
:104670003836C4CFE0E3F2E088E1DF011D928A958D
:10468000E9F781E880931601809317011092F301F6
:104690001092F20183E596E003CA7E01BEE8EB1AB0
:1046A000BEEFFB0A8FEFF7018083CE0101960E94D7
:1046B0007307BE2CAF2C811103C087E396E0F0C9CD
:1046C000CF80D884E984FA84D80112968C91811124
:1046D00019C0C701B6010E942C357B018C018DE207
:1046E00096E00E94340CB701C8010E94640C88E176
:1046F00096E00E94340CB701C8010E94640C8BEE56
:1047000095E0CEC944E0BE016B5C7E4FC8010296C5
:104710000E944207843069F4CB5CDE4F8881998126
:10472000AA81BB81C553D1408C159D05AE05BF053F
:1047300019F089EC95E0B4C900E011E041E050E0E7
:10474000B8018B2D9A2D0E9438360F5F1F4F00380D
:10475000B1E01B0799F78CE895E00E94340C0E94A9
:10476000C707F89488E198E00FB6F894A89580936D
:1047700060000FBE90936000FFCF923609F076C0C4
:10478000F80182818C34F1F58381811569F00E94F2
:104790002E07F82ED80114968C910E942E07BFEF99
:1047A000FB1611F08F3F19F489E795E079C98F70F6
:1047B0008930C1F0ACF48130A9F08330F1F0D12C14
:1047C0000B5F1F4F5801D5018C91833709F443C00B
:1047D000843509F455C0823591F18CE595E060C9C6
:1047E0008B30ECCF80910E0190910F0109966AE019
:1047F00070E00E947535D62EE3CF80911001909124
:104800001101F4CF813371F480910E0190910F0169
:1048100009966AE070E00E947535D62E0D5F1F4F35
:104820005801D1CF833329F4809110019091110167
:10483000EFCFD12C803391F38AE695E031C9950111
:104840002F5F3F4FB1E0C350DE4FB883CD5FD14003
:10485000512C16E032C095012F5F3F4FE1E0C3506D
:10486000DE4FE883CD5FD140512C26C05801FFEFC9
:10487000AF1ABF0A98012E5F3F4FD12C943549F5EE
:10488000D50111968C91811561F00E942E07582E4A
:10489000F50182810E942E07FFEF5F1611F08F3F16
:1048A00019F48CE495E0FCC8C350DE4F8883CD5FDB
:1048B000D14095012D5F3F4F13E04DE3BE016B5C8E
:1048C0007E4FC9010E944207811798F48FE395E05B
:1048D000E7C8923539F051E0C350DE4F5883CD5FC1
:1048E000D140C2CF81E0C350DE4F8883CD5FD1403D
:1048F000AFCF4090420393E0591203C093E89093E6
:104900004203C82EC11A85E3E82EFF24F394EC0E6F
:10491000FD1EE10EF11CD5018C9100E010E0823506
:1049200029F48E010B5C1E4F0D5F1F4FFE01319667
:104930005F01C350DE4F2881CD5FD140452DBE01C0
:104940006B5C7E4F8AE892E00E94C532682F4092ED
:10495000420380E395E0611509F4A2C880911B0130
:10496000811519F081E195E09BC82D2D41E0CE0124
:1049700001960E94FD11823061F480913E02909177
:104980003F02019690933F0280933E0283E095E0C0
:1049900087C8811561F080913C0290913D0201969B
:1049A00090933D0280933C0288EF94E079C8809117
:1049B0003E0290913F02019690933F0280933E0207
:1049C0008CEE94E06DC8D80112968C918B3479F4FA
:1049D00040E164EF71E0C80103960E944207803114
:1049E00019F08FED94E05CC885EC94E059C878012B
:1049F000B2E0EB0EF11C40E1BE016B5C7E4FC701E3
:104A00000E944207803179F4F80182A18A3259F478
:104A1000CE018B5C9E4F40960E94951081110FC075
:104A200088EA94E03DC840E2BE016B5C7E4FC7015E
:104A30000E944207803219F08BE994E031C86E0180
:104A4000FEE8CF1AFEEFDF0A9E012B5C3E4F205F8F
:104A50003F4FAE014B5C5E4F445F5F4F76018E016E
:104A60000F5F1F4FBE016B5C7E4F84EF91E08BD6D2
:104A700085E994E00E94340C21E6E21A21E0F20A72
:104A8000D8018D918D010E94440CE016F106C1F70A
:104A900080E20E94080C86017601B4E0EB0EF11C66
:104AA000F80181918F010E94440CE016F106C1F7D4
:104AB0000C94EE1C40E1BE016B5C7E4FC801029677
:104AC0000E944207803121F088E894E00C94501D48
:104AD000BE016B5C7E4F685F7F4FAE014F5F5F4FE3
:104AE000CE018B5C9E4F9FD682E894E00E94340CEE
:104AF0008E010F5F1F4F7E01F1E1EF0EF11CD80117
:104B00008D918D010E94440CE016F106C1F70C94C2
:104B1000EE1C89E794E00C94501D89E199E00C9417
:104B20003A1D89EE98E00C94501DF8018181803384
:104B3000D9F482818133C1F4838181110AC08091CB
:104B400006020E94440C809107020E94440C0C94BF
:104B5000EE1C42E066E072E0C80103960E94420744
:104B6000823069F70C94981784EE98E00C94501DED
:104B7000D80111968C91811599F041E0BE016F5FCB
:104B80007F4FC80101960E944207813029F4898134
:104B9000809314010C9498178CED98E00C94501DA0
:104BA0000E948406809114010E94440C80E20E94BD
:104BB000080C80911801811529F060911C017091F9
:104BC0001D010FCC64E873E080E090E056CCF80162
:104BD0008181803309F046C08281813309F042C06F
:104BE0008BEA98E00E94340C0E94C7078FE39CE98F
:104BF0000197F1F700C000000E9415088091E000C5
:104C000081608093E0008091D8008F778093D800F6
:104C100019BC8091D8008F7E8093D8001092050235
:104C20009FEFADEEB2E09150A040B040E1F700C080
:104C30000000F8940FB6F894A89580916000886100
:104C400080936000109260000FBE10926E00109270
:104C50006F0014BE81E085BF82E085BFE0E0F8E32D
:104C60000995FFCF8EEC98E00C94501D83E40E94D0
:104C7000080C1981812F0E94440C8DE30E94080CBE
:104C8000812F103388F00E949C075FCF6A81812FAB
:104C90000E94AB0B87E50E94080C812F0E94440CF8
:104CA0008DE30E94080C812F0E9491074ECFF3E8FC
:104CB000DF1610F00C946416F401ED0DF11D8083E5
:104CC000D3940C946416111509F45DC00C941C194E
:104CD0002AE0C21610F40C948916EFE1CE1698F76C
:104CE00080911102811509F446C02B2DA3016C2D72
:104CF00081E40E94EA0C80911B028115E1F1809110
:104D00000D028115C1F1D30111968C91119785FF88
:104D100032C012968C919EEF980F923060F18115FF
:104D200051F143E050E06EE072E0C30106960E944C
:104D30000136892B01F5F30180818093A7018381DE
:104D40009481A5818093A8019093A901A093AA01C1
:104D50000E947806DC01CB018C599F4FAF4FBF4FAB
:104D60008093AB019093AC01A093AD01B093AE01E1
:104D700081E08093A60111110C941C19F2E1CF1669
:104D800010F40C94891680910802811511F40C948A
:104D9000891680912F0281110C9489162E2DA30162
:104DA0006C2D80E50E94EA0C0C9489165AE0C51619
:104DB00010F40C941C1991CF1F920F920FB60F9202
:104DC00011242F933F934F935F936F937F938F9310
:104DD0009F93AF93BF93EF93FF938091DA0080FF8F
:104DE00010C08091D80080FF0CC08091DA008E7FC7
:104DF0008093DA008091D90080FF9BC081E080938E
:104E0000AF018091E10080FF1CC08091E20080FF33
:104E100018C08091E1008E7F8093E1008091E200D4
:104E20008E7F8093E2008091E20080618093E200B7
:104E30008091D80080628093D80019BC85E080936F
:104E4000AF018091E10084FF27C08091E20084FFE0
:104E500023C019BC89B5826089BD09B400FEFDCFAD
:104E60008091D8008F7D8093D8008091E1008F7E63
:104E70008093E1008091E2008F7E8093E200809138
:104E8000E20081608093E20080914601811509F47F
:104E900053C084E08093AF018091E10083FF38C06C
:104EA0008091E20083FF34C08091E100877F80938E
:104EB000E10082E08093AF01109246018091E10011
:104EC0008E7F8093E1008091E2008E7F8093E200EC
:104ED0008091E20080618093E2001092F40080E013
:104EE0008093E9001092F0001092E8009091ED009C
:104EF0009D7F9093ED009091EB009E7F9093EB004F
:104F00008F5F873069F742E060E080E00E946808C8
:104F1000FF91EF91BF91AF919F918F917F916F9191
:104F20005F914F913F912F910F900FBE0F901F9067
:104F300018951092AF0165CF83E0ACCFCF93DF938C
:104F4000FC01DB019C01205F3F4F81919D91EF01AE
:104F500089278A93E217F307C1F7DF91CF9108956C
:104F6000CF93DF93FB01DC01CB014096ED01219152
:104F70002993E817F907D9F741E030E11C962C9105
:104F80001C971D969C911D971E968C911E971F969F
:104F90005C911F97632F6F70611120C0E92FF0E0C3
:104FA000ED54F44F64916427E82FF0E0ED54F44F92
:104FB000E4919E2FE52FF0E0ED54F44FE4918E2F15
:104FC000E22FF0E0ED54F44FE4915E2F742F770F51
:104FD0002BE147FF20E0472F4227262F6C91262701
:104FE00050962C93509711962C9111979227519689
:104FF0009C93519712969C911297892752968C9365
:10500000529713968C911397852753968C935397A9
:105010003C5F1496303B09F0B1CFDF91CF910895FA
:105020008F929F92AF92BF92CF92DF92EF92FF92B8
:105030000F931F93CF93DF938C01EA01FB017A0159
:10504000CB014096DA0121912D938E179F07D9F756
:10505000B801CE0173DF580180E1A80EB11C0056E3
:105060001F4F48016E01A0E1CA0ED11CDE01ED9177
:10507000F0E0ED54F44F2491CD010197FC01208321
:10508000CA16DB06A1F789819D81998399859D8345
:105090009D8599878D878A819A859A838A878E8153
:1050A0009E859E838E878F859B859F879F819B870B
:1050B0009B819F838B83FE0180814181328123818B
:1050C000782F7427632F6227572F5627972F990F12
:1050D00077FF64C07BE19727782F75279727908308
:1050E000742F7327972F990F77FF5AC07BE197276B
:1050F000452794279183962F990F4BE167FF40E056
:1051000094273527932792838227982F990F87FF1B
:1051100049C08BE189272527822783833496CE16C1
:10512000DF0651F6B501CE0109DFF0E1AF0EB11C8B
:105130000A151B0509F09ACFD701ED917D01F0E02A
:10514000ED54F44FE491EE93CE14DF04A9F7898176
:105150009D81998399859D839D8599878D878A8176
:105160009A859A838A878E819E859E838E878F8576
:105170009B859F879F819B879B819F838B83B401A6
:10518000CE01DF91CF911F910F91FF90EF90DF90B3
:10519000CF90BF90AF909F908F90D0CE70E09BCF7C
:1051A00070E0A5CF80E0B6CFEF92FF920F931F93F0
:1051B000CF93DF93CDB7DEB760970FB6F894DEBF1D
:1051C0000FBECDBF8B01DB017A0130E04D9150E085
:1051D000321710F4F7015081BD0161507109452764
:1051E000FB0140833F5FFFEFEF1AFF0A303171F799
:1051F000AE014F5F5F4FB80113DF80E1FE013196D2
:10520000D80101900D928A95E1F760960FB6F89457
:10521000DEBF0FBECDBFDF91CF911F910F91FF90E9
:10522000EF9008958F929F92BF92CF92DF92EF926C
:10523000FF920F931F93CF93DF93CDB7DEB76097A5
:105240000FB6F894DEBF0FBECDBFE82EB92EFB011E
:105250004A01F22E680189E089838DE0DE01129611
:1052600001900D928A95E1F71F86288B80E1F80165
:1052700011928A95E9F720E1AE014F5F5F4FB801C7
:105280008E2D92DF10E01F1590F060960FB6F89407
:10529000DEBF0FBECDBFDF91CF911F910F91FF9069
:1052A000EF90DF90CF90BF909F908F9008952F2D1B
:1052B000211B213108F020E1A401410F511DB6014D
:1052C0008E2D9B2D71DF105FDECF4F925F926F921C
:1052D0007F928F929F92AF92BF92CF92DF92EF9286
:1052E000FF920F931F93CF93DF93CDB7DEB7C055D7
:1052F000D1090FB6F894DEBF0FBECDBFD82EE92E70
:105300003B015A01F22EC12EDE01AF5BBF4F89E493
:105310008D938DE0FB0101900D928A95E1F76096E7
:105320001FAE609761961FAE61974E0181E2880EB5
:10533000911C10E1D401E12F1D92EA95E9F720E1DB
:10534000AE014F5B5F4FB4018D2D2EDFFE01F19654
:10535000DF011D921A95E9F7FAAA1F2D2F01BFE070
:10536000FB1608F01EE0412F50E0B501CE01C396B8
:105370000E940E3620E1A201B4018D2D9E2D14DF76
:105380001F1508F441C081E089838DE0F301DE013F
:10539000129601900D928A95E1F71F86188AAE0148
:1053A0004F5E5F4FBE016F5F7F4F8D2D9E2D38DEAC
:1053B000C401BE016F5E7F4FE02FFC2DAF014C5F3B
:1053C0005F4FDC012D91CD01DB013D91BD01232714
:1053D0002193E417F507A9F7C05BDF4F0FB6F894E8
:1053E000DEBF0FBECDBFDF91CF911F910F91FF9018
:1053F000EF90DF90CF90BF90AF909F908F907F9075
:105400006F905F904F9008952F2D211B213108F050
:1054100020E1A501410F511DB4018D2D9E2DC4DE4B
:10542000105FAECF2F923F924F925F926F927F921A
:105430008F929F92AF92BF92CF92DF92EF92FF92A4
:105440000F931F93CF93DF93CDB7DEB7A0970FB61F
:10545000F894DEBF0FBECDBF782E692E562E472E94
:105460006A015901EE24E394F12C10E022242394E4
:10547000CE0101964C011017C8F0A0960FB6F89413
:10548000DEBF0FBECDBFDF91CF911F910F91FF9077
:10549000EF90DF90CF90BF90AF909F908F907F90D4
:1054A0006F905F904F903F902F900895302E311A5B
:1054B00091E1391610F080E1382E298A8DE0E52D32
:1054C000F42DDE01529601900D928A95E1F79E2D02
:1054D0008F2D98A38F8FA401BE016F5E7F4F872D04
:1054E000962D9EDD9601210F311DA501410F511D05
:1054F000F401D9018D919D0191918927DA018D9354
:10550000AD018E2F88198315A0F3105FBFEFEB1A42
:10551000FB0AB1CF5F926F927F928F929F92AF9270
:10552000BF92CF92DF92EF92FF920F931F93CF9390
:10553000DF93CDB7DEB7E0970FB6F894DEBF0FBEAE
:10554000CDBF6C015B014A01722E502E612E8E017F
:105550000F5D1F4F67DE81E0898B8DE0F501DE0175
:10556000529601900D928A95E1F71F8E18A2AE0116
:105570004F5F5F4FBE016F5E7F4FC60151DDC801B7
:10558000BE016F5F7F4FD701A7014C5F5F4FFC01EA
:105590002191CF01FB013191BF0123272D93A41746
:1055A000B507A9F7072D252D362DA401B501C60194
:1055B00039DFE0960FB6F894DEBF0FBECDBFDF91A6
:1055C000CF911F910F91FF90EF90DF90CF90BF9000
:1055D000AF909F908F907F906F905F9008957F9293
:1055E0008F929F92AF92BF92CF92DF92EF92FF92F3
:1055F0000F931F93CF93DF93CDB7DEB7E4970FB62A
:10560000F894DEBF0FBECDBF6C015B01722E480166
:10561000022F970107DF8E010F5D1F4F272DA70176
:10562000B501C601FFDD81E0898B8DE0F501DE016A
:10563000529601900D928A95E1F71F8E18A2AE0145
:105640004F5F5F4FBE016F5E7F4FC601E9DCF8011F
:10565000005211099E012F5C3F4FBE016B5D7F4FD1
:10566000A9018191D8019D918D018927DA018D933E
:10567000AD01E617F707A9F7F401A4014C5F5F4FEE
:1056800090E0D9018D919D0161918627982B4E174D
:105690005F07B9F781E0911180E0E4960FB6F894C6
:1056A000DEBF0FBECDBFDF91CF911F910F91FF9055
:1056B000EF90DF90CF90BF90AF909F908F907F90B2
:1056C0000895AF92BF92CF92DF92EF92FF920F9325
:1056D0001F93CF93DF93CDB7DEB7E0970FB6F89463
:1056E000DEBF0FBECDBF7C016B0158018E010F5D87
:1056F0001F4F98DD81E0898B8DE0F601DE01529627
:1057000001900D928A95E1F71F8E18A2AE014F5FAE
:105710005F4FBE016F5E7F4FC70182DCC801BE01D3
:105720006F5F7F4FF501A5014C5F5F4FDC012D914D
:10573000CD01DB013D91BD0123272193E417F5073E
:10574000A9F7E0960FB6F894DEBF0FBECDBFDF918C
:10575000CF911F910F91FF90EF90DF90CF90BF906E
:10576000AF900895FC01339689E0DA0101900D9223
:105770008A95E1F7DA01199684E0FB0101900D9218
:105780008A95E1F708957F928F929F92AF92BF9290
:10579000CF92DF92EF92FF920F931F93CF93DF93FD
:1057A000CDB7DEB7CD5BD1090FB6F894DEBF0FBE23
:1057B000CDBF782E892ECB01BA016901902EAE01A2
:1057C0004F545F4FCFDF672D782DCE010196C8DB98
:1057D00000E1292D312FA601BE016F547F4FCE016C
:1057E000019620DEE114F10449F0870120E1A601D1
:1057F000BE016F547F4FCE01019663DFC354DF4F6C
:105800000FB6F894DEBF0FBECDBFDF91CF911F91D1
:105810000F91FF90EF90DF90CF90BF90AF909F904F
:105820008F907F900895FC0188E0DA0101900D923D
:105830008A95E1F7DA01189688E0FB0101900D9254
:105840008A95E1F708954F925F926F927F928F92BF
:105850009F92AF92BF92CF92DF92EF92FF920F93FF
:105860001F93CF93DF93CDB7DEB7C15DD1090FB6DC
:10587000F894DEBF0FBECDBF6C012B013C0188E266
:10588000680E711C46019CE0890E911C5E0181EB43
:10589000A80EB11C96012C5C3F4FE12CF12C850128
:1058A000A301B601C4016FDFAE014F535F4FB301D7
:1058B000C60158DFB401CE0101967C0151DB035EC5
:1058C0001F4F20E1A501BE016F537F4FC701F9DED5
:1058D000F801D601AC5BBF4F9601285B3F4F80E0DB
:1058E0009B2C8E2CBF2C91914D919427892BA21724
:1058F000B307C9F781112DC0B601645D7F4F482DF4
:105900005B2DC60180968FDFA601445E5F4FE12CC0
:10591000F12C82012A2D392DB601882D9B2D33DFE4
:1059200081E0CF52DF4F0FB6F894DEBF0FBECDBF80
:10593000DF91CF911F910F91FF90EF90DF90CF906B
:10594000BF90AF909F908F907F906F905F904F909F
:10595000089580E0E6CF2F923F924F925F926F9230
:105960007F928F929F92AF92BF92CF92DF92EF92EF
:10597000FF920F931F93CF93DF93CDB7DEB7C25D36
:10598000D1090FB6F894DEBF0FBECDBF3B017A013F
:10599000CF52DF4F2883C15DD040CE52DF4F3883D6
:1059A000C25DD040BC01CE0101965C01D9DA8E0106
:1059B0000F531F4F80E1D8011D928A95E9F7C12C42
:1059C000D12C3A2C2B2C5E01B1EBAB0EB11C5A2C16
:1059D0004B2C4801E0E18E0E911CCE14DF0478F1CF
:1059E000F80180818E25808381818F258183CF522C
:1059F000DF4F4881C15DD040CE52DF4F5881C25D3C
:105A0000D040B801832D922D0BDBCE52DF4F0FB665
:105A1000F894DEBF0FBECDBFDF91CF911F910F91E4
:105A2000FF90EF90DF90CF90BF90AF909F908F90BE
:105A30007F906F905F904F903F902F900895D50189
:105A4000E0E11D92EA95E9F7A7014C195D094131A2
:105A5000510510F040E150E0B3016C0D7D1D852D26
:105A6000942D0E940E36F801452D542D8191DA01B6
:105A70009D91AD019F01215031098927D9018C9356
:105A8000E815F90599F7A801B801832D922DC8DA18
:105A9000B0E1CB0ED11CA1CFCF92DF92EF92FF925B
:105AA0000F931F93CF93DF93CDB7DEB760970FB6F9
:105AB000F894DEBF0FBECDBF8C017B016A01892B3C
:105AC00021F1452B11F160347105F8F09E012F5F33
:105AD0003F4FAB01B80187E291E03DDF9601A7019E
