:1000000047C6000062C6000060C600005EC6000071
:100010005CC600005AC6000058C6000056C6000064
:1000200054C6000052C600000C944A264EC600007A
:100030004CC600004AC6000048C6000046C6000084
:1000400044C600000C941D1340C600003EC60000CC
:100050003CC600003AC6000038C6000036C60000A4
:1000600034C6000032C6000030C600002EC60000B4
:100070002CC600002AC6000028C6000026C60000C4
:1000800024C6000022C6000020C600001EC60000D4
:100090001CC600001AC6000018C6000016C60000E4
:1000A00014C6000012C6000010C600001003710044
:1000B0002D00630075006C006600770000001603D9
:1000C00062007500730077006100720065002E0009
:1000D0006400650000000403090409023E000201F7
:1000E0000080320904000001020201000524001012
:1000F0000104240206052406000107058203080006
:10010000FF09040100020A00000007050402400084
:1001100000070583024000001201100102000008E0
:10012000EB03692000020102DC010007010E020658
:10013000030D04E905CA063D070C084509000A003D
:100140000B060C110D210E650F6A10C811931203D6
:10015000132214F815341607170F181819161A6CED
:100160001B431C401D911E8E1F2F207821562210EC
:1001700023E9242A2500261F2741280029592A7F00
:100180002B3F2C812D352E09FF506D204E65747A42
:100190007765726B7363686C75657373656C2067E4
:1001A000657369636865727420E28094206D697478
:1001B0006C6573656E20697374206A65747A742047
:1001C0006D6F65676C6963680D0A00506D20414E64
:1001D00047454C45524E5420616464723D00506D59
:1001E00020416E6765626F743A2050727565667360
:1001F000756D6D652066616C736368002072737342
:10020000693D0020666F723D00504B2066726F6D35
:100210003D00207261773D00206C656E3D002072CC
:100220007373693D00206E3D00206D61783D0020B4
:100230006D696E3D002066697273743D0050482000
:1002400066653D00506D20416E6C65726E656E3A5C
:10025000206B65696E6520416E74776F727400045F
:1002600080000000C80600001606000000506D2047
:10027000616E67656D656C6465740D0A00506D2074
:100280003E3E204B616E616C7A75737461656E647D
:10029000650D0A00506D203E3E2053746172746DEE
:1002A000656C64756E670D0A00506D203E3E2041FE
:1002B0006E6C65726E626573746165746967756E84
:1002C000670D0A00206E706B3D00206E6F697365CC
:1002D0003D0020726563616C3D0020706C6C3D00D8
:1002E0002062757273743D002074786572723D00EF
:1002F0002074783D00206677643D0020616B646F58
:10030000703D00206B3672783D00206B3674783D6E
:10031000002061636B733D00206475703D00206DAB
:1003200069633D00206F6B3D00506D2072783D0089
:10033000206C6F76663D00206372656469743D00D1
:10034000506D206275646765743D002072656C6154
:1003500069733D00206E75726C6573656E3D00209B
:10036000726F757465723D002069636D7061636BB7
:100370003D002061636B3D0020736E3D00206B6586
:10038000793D0020616464723D005A656E7472614B
:100390006C65004765726165740020726F6C6C65F6
:1003A0003D006175730065696E00506D2000506DF1
:1003B000204E65747A7765726B7363686C756573CC
:1003C00073656C2065727A657567740D0A00506DEF
:1003D000206B65696E65205765726B736B656E6E19
:1003E000756E6720E28094206C617566656E646549
:1003F000204E756D6D6572206765777565726665EF
:100400006C740D0A00506D206175737061636B65CB
:100410006E206D69742064656D204175666B6C6536
:100420006265727363686C75657373656C0D0A0041
:10043000506D206E776B2E656E633D00506D206BA6
:1004400065696E204E65747A7765726B7363686C4C
:1004500075657373656C0D0A00506D207061636B78
:10046000652065696E2E2E2E0D0A00506D206B657D
:10047000696E204E65747A7765726B7363686C750C
:10048000657373656C20E2809420657273742061DB
:100490006E6C65726E656E20286D4750290D0A00DE
:1004A000506D2062656964652057657274652069C6
:1004B0006E2064657220454947454E454E205A6579
:1004C0006E7472616C652065696E74726167656EC9
:1004D000202847657261657420616E6C65726E6577
:1004E0006E290D0A00506D206B65793D00286B6503
:1004F000696E652900506D207765726B736B656E50
:100500006E756E673D002067657261657465617226
:10051000743D00206E65686D65723D00506D206809
:1005200065726B756E66742066617373756E673D78
:1005300000506D20736774696E3D00506D206B65CF
:10054000696E65204B656E6E756E6720E280942043
:100550006D474E2065727A657567742065696E65B2
:100560000D0A00506D204552520D0A00506D207941
:100570002000506D20455252206172670D0A0050D4
:100580006D20772000506D20455252206172670D1A
:100590000A00506D206B65696E204E65747A776530
:1005A000726B7363686C75657373656C0D0A0050CC
:1005B0006D2077207363686C75657373656C206755
:1005C000657365747A740D0A00506D20455252208F
:1005D0006B65790D0A00506D204552522074780DDC
:1005E0000A00506D207478206F6B0D0A00506D204A
:1005F000455252204C4F56460D0A00506D204E5524
:10060000522D4C4553454E20286D4C302067696271
:10061000742066726569290D0A00506D204552529A
:1006200020626175656E0D0A00506D2045525220A2
:100630006473740D0A00506D204552522063742F6C
:100640007365630D0A00506D204552522076657225
:10065000620D0A00506D2045525220737475666514
:100660000D0A00506D2045525220686F6572657208
:100670007479700D0A00506D2055727A757374612B
:100680006E6420E28094204B656E6E756E672C2040
:100690005363686C75657373656C20756E64205A5E
:1006A0006165686C65722067656C6F6573636874FB
:1006B0000D0A00506D20455252206D61726B65200D
:1006C000E280942065727374206D562066726167B3
:1006D000656E0D0A002028414C4C45532077656714
:1006E0003A204B656E6E756E672C205363686C758F
:1006F000657373656C2C205A6165686C6572290D91
:100700000A0020E28094206C6F65736368656E2038
:100710006D6974206D5600506D206D61726B653D82
:1007200000506D20455252206B65696E65205365FF
:100730007269656E6E756D6D65720D0A00506D2083
:100740007A6165686C65723D300D0A00506D20005D
:10075000206C6F76663D00206372656469743D00AD
:10076000506D206275646765743D00207A757374FE
:10077000656C6C3D0028617573290020286D62311D
:100780002F6D623329207765636B6B616E616C3D01
:10079000002028417329206D733D00506D20766F35
:1007A000726C6175663D00506D204552520D0A0015
:1007B000506D204552522062657265696368203130
:1007C000302E2E00506D20455252206265726569B0
:1007D000636820352E2E00506D204552520D0A00C0
:1007E000506D204552520D0A00506D204552520D59
:1007F0000A002053454E44454E2046524549474540
:10080000474542454E00206E7572206C6573656EDB
:100810002C2053656E64656E206765737065727217
:100820007400506D204C3D00506D20537563686519
:10083000206265656E6465740D0A0020463D0020E7
:10084000453D0020443D0020433D00506D20414582
:100850004E4420423D0020202D2D20323020732098
:100860005A6569742C206A65747A7420647275659F
:10087000636B656E0D0A0020463D0020453D00205B
:10088000443D0020433D00506D2072756865204254
:100890003D00506D2072656C6169733D00506D20A4
:1008A00065727A65756765204B656E6E756E672E2D
:1008B0002E2E0D0A00506D20736E3D00506D2045A8
:1008C000525220736E0D0A00506D206B65792077AF
:1008D000697264206E6963687420766F6E2061753A
:1008E0007373656E2067657365747A7420E2809413
:1008F00020416E6C65726E656E20286D4750290D23
:100900000A00506D204E65747A7765726B73636868
:100910006C75657373656C20766572776F7266654A
:100920006E20E2809420616C6C6520476572616581
:100930007465206E657520616E6C65726E656E0DF6
:100940000A00506D20616464723D00506D20455274
:100950005220616464720D0A005A656E7472616C93
:10096000650047657261657400506D20726F6C6C34
:10097000653D004220626F6F746C616465720D0AA0
:10098000003F200D0A0057204552520D0A00432017
:100990004552520D0A004220455252202842303121
:1009A000290D0A0058204552520D0A003F200D0A19
:1009B000003F20283F20697320756E6B6E6F776E45
:1009C0002920557365206F6E65206F662041204297
:1009D000204320502054205620572058206D0D0AC7
:1009E000005620712D63756C667720322E302E39BB
:1009F00035005078206F6B0D0A005072206F6B0D20
:100A00000A00204F484E452041445245535345204B
:100A10002841612900417120004177200041612077
:100A2000005620712D63756C667720322E302E397A
:100A300035005073204552520D0A00507320455224
:100A400052204C4F56460D0A004E55522D4C4553E0
:100A5000454E20286D4C30206769627420667265AF
:100A600069290D0A004C454E4552520D0A0020617D
:100A70003D310020663D002061723D002061636BC6
:100A80003D00207669613D0020736E3D0020637457
:100A90003D00207365633D00206473743D00207346
:100AA00072633D00504D00506D20416E6C65726E5A
:100AB000656E206C616575667420E28094204B65DC
:100AC0006E6E756E67206D75737320696E20646538
:100AD00072205A656E7472616C6520737465686506
:100AE0006E0D0A00506D204E55522D4C4553454E0B
:100AF00020286D4C30206769627420667265692910
:100B00000D0A00506D206B65696E65204B656E6E39
:100B1000756E6720E280942065727374206D474E75
:100B20000D0A0003AF8BB08DFBC84765081961DC67
:100B30009433D203AF8BB08DFBC84765081961DCD5
:100B40009433D2506D205A7566616C6C7371756503
:100B50006C6C6520746F7420E280942046756E6B17
:100B600063686970207072756566656E20286D5ABD
:100B7000292C206E69636874732065727A657567C5
:100B8000740D0A00506D2072656C6169733D0063DD
:100B90007C777BF26B6FC53001672BFED7AB76CAD3
:100BA00082C97DFA5947F0ADD4A2AF9CA472C0B7F8
:100BB000FD9326363FF7CC34A5E5F171D831150405
:100BC000C723C31896059A071280E2EB27B275096E
:100BD000832C1A1B6E5AA0523BD6B329E32F8453A1
:100BE000D100ED20FCB15B6ACBBE394A4C58CFD066
:100BF000EFAAFB434D338545F9027F503C9FA85136
:100C0000A3408F929D38F5BCB6DA2110FFF3D2CD08
:100C10000C13EC5F974417C4A77E3D645D197360A5
:100C2000814FDC222A908846EEB814DE5E0BDBE0B2
:100C3000323A0A4906245CC2D3AC629195E479E762
:100C4000C8376D8DD54EA96C56F4EA657AAE08BAF0
:100C500078252E1CA6B4C6E8DD741F4BBD8B8A70A8
:100C60003EB5664803F60E613557B986C11D9EE153
:100C7000F8981169D98E949B1E87E9CE5528DF8C90
:100C8000A1890DBFE6426841992D0FB054BB1600F3
:100C900011241FBECFEFDAE0DEBFCDBF11E0A0E030
:100CA000B1E0E4EAFBE602C005900D92A434B1077E
:100CB000D9F723E0A4E4B1E001C01D92A937B2073F
:100CC000E1F70E9440130C9491359AC92FB7F8941C
:100CD000609171037091720380917303909174031A
:100CE0002FBF08954F925F926F927F928F929F9243
:100CF000AF92BF92CF92DF92EF92FF92E7DF4090E8
:100D000075035090760360907703709078036B01C1
:100D10007C01C418D508E608F70828EEC21623E0BF
:100D2000D206E104F10480F1C701B60128EE33E0F8
:100D300040E050E00E94C134A8EEB3E00E94E934E4
:100D4000460E571E681E791E409275035092760318
:100D5000609277037092780380EAC8168BEBD8060E
:100D60008DE0E806F10450F480911C0190911D0182
:100D7000820F931F843823E0920710F084E893E0F9
:100D800090931D0180931C01FF90EF90DF90CF9016
:100D9000BF90AF909F908F907F906F905F904F909B
:100DA000089580917003811559F090DF28E730E0B5
:100DB00040E050E00E94C13420FF12C0769A0895AE
:100DC00080916F0340916B0350916C0360916D03B0
:100DD00070916E03452B462B472B21F0811571F343
:100DE000769808958115E1F3E9CF0F931F93CF9380
:100DF000DF93EC016BDFDC01CB018C0F9D1FA11D8C
:100E0000B11D00916B0310916C0320916D03309123
:100E10006E03081719072A073B0740F480936B03FA
:100E200090936C03A0936D03B0936E03BADFDF91D0
:100E3000CF911F910F91089590ED980F9A3010F473
:100E4000892F08959FE9980F963010F487550895DB
:100E50009FEB980F963010F4875308958FEF089505
:100E6000A0E0B0E0E6E3F7E00C94FD347B01D42F82
:100E70008C01C12CD12CC0E0F80181918F0181152A
:100E800011F0CD1730F08C2FCDB7DEB7E8E00C9421
:100E90001935803289F38A3379F3CEDF8F3F99F3A6
:100EA000D11441F0F701EC0FF11D8C298083CF5F45
:100EB000D12CE2CFC82EC29480EFC822DD24D39477
:100EC000DBCFDC01EEE0F0E080E031E23093570070
:100ED00094919D93915021E09E3F08F020E0822B59
:100EE0003196E831F10591F708958EBD0DB407FEF6
:100EF000FDCF8EB5089528981B99FECF0895CF9306
:100F0000C82FF9DF8C2F8068F0DF80E0EEDF289AB1
:100F1000CF910895CF93C82FEEDF8C2F806CE5DF43
:100F200080E0E3DF289ACF910895CF93DF93D82F05
:100F3000C62FE1DF8D2FD9DF8C2FD7DF289ADF91E5
:100F4000CF91089585E3E6DF8F710895CF93DF9306
:100F5000EC0168818DE0E9DF69818EE0E6DF6A817E
:100F60008FE0E3DFDF91CF91089580918F018115AC
:100F700031F08091AF01843019F010928F01089503
:100F800083E08093E9008091E80080FFF8CF80E063
:100F900090918F01891750F08091E800982F9E7FE3
:100FA0009093E8008F778093E800E7CFE82FF0E098
:100FB000E15BFE4F90819093F1008F5FE9CF8091CC
:100FC000470187FF17C08091E80082FF0AC0809127
:100FD000E800982F9B7F9093E8008F778093E8003C
:100FE00008958091AF018111EECF08958091AF01F6
:100FF0008115D9F38091E80080FFF8CF8091E80057
:10100000982F9E7FE8CF8091D8008E7F8093D80064
:101010001092E2001092DA001092E1001092AF01FB
:101020001092460110924501109244018AE482BF59
:1010300019BC89B5826089BD09B400FEFDCF8091DD
:10104000D800982F9F779093D80080688093D8001D
:101050008091D70081608093D7008091D8008F7DE8
:101060008093D8008091E0008B7F8093E000809196
:10107000E0008E7F8093E0008091E1008E7F80937E
:10108000E1008091E20081608093E2008091E100C4
:10109000877F8093E1008091E20088608093E20086
:1010A0008091D80081608093D80008958093E900F2
:1010B000EBEEF0E0808181608083EDEEF0E0108265
:1010C0006093EC0040838091EE000895AAE2B0E0C6
:1010D000ECE6F8E00C9402358091AF01811509F43B
:1010E00066C01091E90017701092E9008091E80045
:1010F00083FF5BC087E491E0FC0101962091F10041
:10110000208321E08F349207B9F7809147019091B5
:1011100048019A3008F004C2E92FF0E0ED56FA4C8D
:101120000C94E334803871F0823889F580914B015A
:101130008093E9008091EB0085FB882780F910926D
:10114000E90006C080914501880F90914401892BE8
:101150009091E800977F9093E8008093F1001092BF
:10116000F1008091E800982F9E7F9093E8008F77A0
:101170008093E8008091E80082FF05C08091E8003C
:10118000982F9B7F36C08091AF018111F3CF809162
:10119000E80083FF0AC08091EB0080628093EB003F
:1011A0008091E800877F8093E8001093E900AA9679
:1011B000E3E00C941E3581110BC080914901813010
:1011C00031F781E0933009F080E08093450106C05B
:1011D0008230E9F680914901811589F01092E90089
:1011E0008091E800877F8093E8008091E800982F45
:1011F0009E7F9093E8008F778093E800C8CF80911E
:101200004B018770811519F28093E9002091EB0062
:1012100020FFE4CF9130B9F49091EB00906190936E
:10122000EB0021E030E0A90102C0440F551F8A9570
:10123000E2F74093EA001092EA008091EB008860A8
:101240008093EB00CBCF8091EB008062F9CF8111CE
:101250009ECF809149019091E800977F9093E8009C
:101260009091E800292F2E7F2093E8009F7790939C
:10127000E8009091E80090FF0CC0982F9068909340
:10128000E3008F77811509F482CF83E08093AF016B
:101290007ECF9091AF019111ECCF79CF8058823001
:1012A00008F075CF8091490190914A018C3D53E03F
:1012B000950709F072C08AE2898383E08A83DE01A0
:1012C000139620E03EE041E2E32FF0E04093570028
:1012D000E49120FF03C0E295EF703F5FEF7080E381
:1012E0008E0F8A3310F087E38E0F90E08D939D93DD
:1012F0002F5F243149F78091E800877F8093E800D1
:1013000020914D0130914E012B32310510F02AE22F
:1013100030E090E0FE0131962115310559F491112C
:1013200009C08091E80082FD29CF8091AF01811131
:10133000F8CF24CF8091E80083FD20CF8091E80092
:1013400082FDEFCF8091AF01811509F417CF809115
:10135000E80080FFE1CF2115310531F08091F200E6
:101360009091F300089798F04091F2005091F300AB
:1013700091E04830510509F090E08091E800482F55
:101380004E7F4093E8008F778093E800C5CF81912E
:101390008093F10021503109DECF292F33272230ED
:1013A0003105D1F12330310549F02130310509F003
:1013B000EECEE8E1F1E082E190E012C0FC01FF270F
:1013C000833008F0E4CEEE0FFF1FEF5DFE4F01907B
:1013D000F081E02D2491822F90E0211509F4D7CEE1
:1013E0002091E800277F2093E80020914D01309163
:1013F0004E018217930708F49C0190E021153105F6
:1014000081F491110EC08091E80082FDB7CE8091E9
:10141000AF018111F8CFB2CEEAEDF0E08EE390E0BB
:10142000DFCF8091E80083FDA9CE8091E80082FDA6
:10143000EACF8091AF01811509F4A0CE8091E80038
:1014400080FFDCCF2115310531F08091F2009091C1
:10145000F300089798F04091F2005091F30091E06A
:101460004830510509F090E08091E800482F4E7F08
:101470004093E8008F778093E800C0CF84918093F9
:10148000F100215031093196DDCF803809F07FCE4F
:101490008091E800877F8093E800809146018093E7
:1014A000F1008091E800982F9E7F9093E8008F775D
:1014B0008093E8008091E80082FD60CE8091AF01CA
:1014C0008111F8CF64CE811162CE909149019230A2
:1014D00008F05DCE8091E800877F8093E8009093CC
:1014E00046018091E800982F9E7F9093E8008F77C7
:1014F0008093E80080914601811581F084E080931B
:10150000AF0142E361E883E0D1DD42E360E884E0DB
:10151000CDDD42E061EC82E0C9DD39CE83E0EFCF82
:10152000913209F451C0923209F49FC0903209F00F
:101530002ECE813209F02BCE8091E800877F8093F8
:10154000E8008091E80082FF8BC08091F10090E07C
:10155000A0E0B0E08093000190930101A09302010C
:10156000B09303012091F100922B8093000190939E
:101570000101A0930201B09303012091F100A22B7D
:101580008093000190930101A0930201B0930301A5
:101590002091F100B22B8093000190930101A09360
:1015A0000201B09303018091F100809304018091C6
:1015B000F100809305018091F100809306018091F4
:1015C000E800982F9B7F45C0813A09F0E0CD8091DB
:1015D000E800877F8093E800809100018093F1000C
:1015E0008091000190910101A0910201B09103014D
:1015F000892F9A2FAB2FBB278093F1008091000198
:1016000090910101A0910201B0910301CD01AA279F
:10161000BB278093F1008091000190910101A0917E
:101620000201B09103018B2F9927AA27BB27809332
:10163000F100809104018093F10080910501809375
:10164000F100809106018093F1008091E800982FCD
:101650009E7F9093E8008F778093E800B0DC97CD71
:101660008091AF0181116DCF92CD813209F08FCD84
:101670008091E800877FF0CFCF93C82F3CDC8C2F80
:1016800034DC289ACF910895A4E0B0E0EAE4FBE0CE
:101690000C94FF347B018C010E94643469837A834B
:1016A0008B839C832091860284E0289F90011124E3
:1016B000B901605C7E4F44E050E0CE0101960E948B
:1016C00070352091860230E02F5F3F4F277033271F
:1016D00020938602E0928202F092830200938402B9
:1016E000109385022496E6E00C941B35A0E4B0E04C
:1016F000ECE7FBE00C94F9346C01CE0101967C011F
:101700005E0191E4A90EB11C470108E010E084E3FA
:1017100001DC110F8170182BEFEEF0E03197F1F73B
:1017200000C000000A9599F780918400909185008F
:101730001827F70111937F01EA15FB0531F760E4E3
:1017400070E0C4010E94F62C892B51F4A60160E4DC
:1017500070E0C4010E94BA2C01E0892B09F000E07E
:10176000802FC05CDF4FECE00C941535CF93C4E6BE
:10177000E9DB982F9F7E913051F0863141F087EC64
:1017800090E00197F1F700C00000CA9589F7CF916A
:10179000089586E371DFEADF8BE36EDF8AE36CCFC7
:1017A000F8DF84E369CFCF93C0E0E0DF83E364DF59
:1017B000DDDF85E2A4DB8F3369F0C11549F080914C
:1017C000F6019091F70101969093F7018093F6014D
:1017D000CF91089586E350DFCF5FC33031F780911A
:1017E000F4019091F50101969093F5018093F40135
:1017F000EFCFCF93C82FA6DB8D30A9F44B9913C040
:10180000C11599F08091F2019091F30101969093A6
:10181000F3018093F20186E32FDFC5DF84E32CDF41
:1018200082E080939601CF91089585E268DB8F3343
:10183000D1F78091F8019091F90101969093F90107
:101840008093F801E8CF0F931F93CF93C82F01ED3A
:1018500017E0E0918F01E03478F481E08E0F8093FF
:101860008F01F0E0E15BFE4FC083803409F47DDB43
:10187000CF911F910F91089578DBE0918F01E034B3
:1018800060F38091AF01843041F40150104081F346
:101890008AE18A95F1F700C0DCCFE0E0DECFCF939C
:1018A000DF93EC01FE0184912196811103C0DF9149
:1018B000CF910895C8DFF6CF83E49BE0F0CFA1E09D
:1018C000B0E0E5E6FCE00C94013501E0098380918D
:1018D0008102811127C081E792E008DF182F811172
:1018E00006C0EADF812F2196E4E00C941D3540E12B
:1018F00050E060E671E081E792E00E94703541E0DF
:1019000050E060E771E0CE0101960E9470350093CF
:101910008102198241E050E065E371E0CE01019659
:101920000E94703511E0DECFCF93C82F82958F7063
:10193000C03A50F4805D87DF8C2F8F708A3030F48E
:10194000805D81DFCF910895895CF5CF895CF9CF07
:10195000CF93DF93EC018881E7DF8981E5DF8A811E
:10196000E3DFDF91CF9108951F93CF93DF93EB01D6
:10197000182F892FD9DF812FD7DF8D2FD5DF8C2F1F
:10198000D3DFDF91CF911F9108954F925F926F92B5
:101990007F928F929F92AF92BF92CF92DF92EF92FF
:1019A000FF921F93CF93DF93CDB7DEB72B970FB680
:1019B000F894DEBF0FBECDBF6B017C01C114D10412
:1019C000E104F104C1F480E33EDF2B960FB6F894F6
:1019D000DEBF0FBECDBFDF91CF911F91FF90EF9083
:1019E000DF90CF90BF90AF909F908F907F906F903F
:1019F0005F904F900895CE0101965C0110E04C017C
:101A00008AE0482E512C612C712CC701B601A3012C
:101A100092010E94C1341F5F605DF50161935F0117
:101A2000D701C60169017A010A97A105B10510F035
:101A30001B3059F71150F401E10FF11D808103DFD4
:101A40001111F8CFC2CFCF93DF93EC0197FF05C000
:101A50008DE2F9DED195C195D109BE01DD0F880B6C
:101A6000990B93DFDF91CF9108958DE0ECDE8AE052
:101A7000EADE7BCAEF92FF920F931F93CF93DF931F
:101A8000C62FE42ED52FF22EDEDE8C2F4DDF0E2D4D
:101A90001D2FC00FD12FD11DF80181918F0144DF7F
:101AA0000C171D07C9F78F2D3FDFDFDFCDB7DEB77E
:101AB000E6E00C941B35A0E0B0E0E1E6FDE00C941C
:101AC000FD346C01EB01E42EF22E84EA9AE0E7DEAD
:101AD0008C892ADF10E08C89181708F454C08E2DE9
:101AE00023DF8F2D21DF8EE99AE0D9DECE01039628
:101AF0002FDF88E99AE0D3DECE01069629DF82E95E
:101B00009AE0CDDE6E8970E080E090E03EDF8DE807
:101B10009AE0C5DE6F8970E080E090E036DF88E80B
:101B20009AE0BDDE6C857D858E859F851DDF8C8D61
:101B300085FF06C082E89AE0B2DECE01099608DF92
:101B40008C8D82FF10C08CE79AE0A9DE68897989C4
:101B50008A899B8909DF87E79AE0A1DE6A8D70E0B8
:101B600080E090E012DF83E79AE099DE8C8DDCDE86
:101B7000011519F08EE69AE092DE77DFCDB7DEB779
:101B8000E8E00C941935F601E10FF11D8081CCDEFF
:101B90001F5FA1CFA0EDB0E0E0EDFDE00C94F534C7
:101BA0003C01CE018F549F4F20E1E1E7F2E0DC01E0
:101BB00001900D922A95E1F700E010E07C019CE095
:101BC000A92EB12CA80183E0569547958A95E1F797
:101BD00047019E012F533F4FC12CD12C2901C80131
:101BE0008C0D9D1DFC01EF70FF27ED5CF44FE4911F
:101BF000D401FD914D01B5010E94AD34DC01AB591A
:101C0000BD4FE427EF278C918E27F90181939F0127
:101C1000FFEFCF1ADF0A80E1C816D10401F7B70140
:101C2000CE0101960E941E27A701B201CE010196A6
:101C30000E947E270F5F1F4F0532A1E01A0711F6A1
:101C400080E1F701D30101900D928A95E1F7C0532D
:101C5000DF4FE0E10C941135A0EEB0E0E2E3FEE0EE
:101C60000C94FF348C01E3E2FBE0DE01AF54BF4F84
:101C7000CD014096AD0124912D933196A817B90757
:101C8000D1F7DE01AF53BF4F27E030E07D0189EF90
:101C9000820F6CE00E94A134E92FF0E0EB59FD4F78
:101CA000B9016F707727640F751F8081FB019081E8
:101CB00089278D932F5F3F4F2731310541F7BA01B7
:101CC000CE0101960E941E27AE014F525F4FB70111
:101CD000CE0101960E947E27F801BE016F527F4F10
:101CE0009801205F3F4F8191DB019D91BD01AF01C4
:101CF000415051098927DA018C93E217F30799F7CC
:101D0000C052DF4FE6E00C941B35CF92DF92FF927A
:101D10000F931F93CF93DF93CDB7DEB7C15ED10989
:101D20000FB6F894DEBF0FBECDBFF82E192F6E018F
:101D30008EEDC80ED11C84E0F60111928A95E9F768
:101D4000BEDD811569F1CE018F549F4F23DFAE01B7
:101D50004F525F4FB60185E692E00E94202BBE01F4
:101D60006F547F4FCE0101960E941E2700E19E0115
:101D70002F533F4F4F2D512FBE016F527F4FCE013A
:101D800001960E948029CE018F539F4F65DF40E16D
:101D900050E06EE171E0CE018F539F4F0E9470358D
:101DA000CF51DF4F0FB6F894DEBF0FBECDBFDF912E
:101DB000CF911F910F91FF90DF90CF900895A2EEE9
:101DC000B0E0E5EEFEE00C94FD347C01CE51DF4F37
:101DD0001882C25ED0406E018EEDC80ED11C84E028
:101DE000F60111928A95E9F741E050E065E371E070
:101DF000CE018E519F4F0E946035109164021115E3
:101E0000B9F110918102111599F1CE51DF4F18816E
:101E1000C25ED040113091F540E150E06EE171E0DA
:101E2000CE018F539F4F0E946035CE018F539F4F3D
:101E300013DFCE018F549F4FADDEAE014F525F4F87
:101E4000B60185E692E00E94202BBE016F547F4FC1
:101E5000CE0101960E941E2700E19701AE014F536B
:101E60005F4FBE016F527F4FCE0101960E948029C5
:101E7000812FCE51DF4FE8E00C94193510E0F8CFF8
:101E8000A2E4B0E0E6E4FFE00C94F934792F162FD9
:101E9000F42E022F6983462F50E0682FCE01029660
:101EA0000E9446353B818A8196E789278A8322E012
:101EB000AE014F5F5F4FB42EA52EFA01E20FF11D68
:101EC00090816981261708F441C09327908361DCD3
:101ED000F11409F440C0011509F43FC080910B01D1
:101EE00090910C01892B90910D01892B811509F49A
:101EF00071C08DE004D821968FAF21978EE00E94AB
:101F00007F0722968FAF22978FE00E947F0723964C
:101F10008FAF23978BE091E019D885E3ADDBC12C1F
:101F2000D12C2CE2822E992493940CD8833109F081
:101F300053C0E12C8FE19EE40197F1F700C000004F
:101F4000C5D8E394E016B0F30F2D07C0845289275B
:101F500080832F5FB2CF0111E0CF0E947B078FE714
:101F60000E947507EB2CFA2CF70181917F010E94EA
:101F700075078E2D8B191817B8F7289A85E37CDB27
:101F8000E12CF12C9CE2C92EDD24D3940E94A207FF
:101F90008331D9F59AE0910F80E0EFECF7E03197CB
:101FA000F1F700C000008F5F8917B8F384EFE82EC7
:101FB000FF24F3948AE30E948A078F77811509F43E
:101FC00049C00E94A2078631C9F5011509F44DC028
:101FD00010E042C0F12CA1CF87EC90E00197F1F71F
:101FE00000C00000C601B4010E94AD348B329140A4
:101FF00011F485E341DBFFEFCF1ADF0A28EBC216AD
:102000002BE0D20609F091CF94CF87EC90E00197B6
:10201000F1F700C00000C701B6010E94AD348B3259
:10202000914011F485E328DBFFEFEF1AFF0A28EB5C
:10203000E2162BE0F20609F0A9CFACCF8FEC97E0C7
:102040000197F1F700C0000091E0E91AF10809F0EA
:10205000B1CFBBCF011539F086E30EDBCE01805C3A
:102060009F4F0E94A607111102C093DB10E00E944F
:10207000A2078D3011F084E3FFDA812FCE5BDF4FB2
:10208000ECE00C941535A0E0B0E0E9E4F0E10C944C
:10209000FD347C01C62FD42ED22F411509F443C044
:1020A000211509F440C020910B0180910C01282BCF
:1020B00080910D01282B81E0211101C080E0082FC3
:1020C00010E0809117018115B9F10E94720628E095
:1020D000C29FC001112485549F4F64E670E00E94A6
:1020E000AD34CB018D0F911D22273327201B310BDF
:1020F00026233723280F391F80911C0190911D0141
:102100008217930798F480910E0290910F02019626
:1021100090930F0280930E02C2E08C2FCDB7DEB7F2
:10212000E8E00C94193500E010E0CBCF821B930B54
:1021300090931D0180931C018FEF8C0F8D3330F134
:10214000C0E060913D0370913E0380913F03909108
:102150004003009182021091830220918402309109
:102160008502601771078207930770F06B017C018D
:10217000C01AD10AE20AF30A97018601C11444E0A9
:10218000D406E104F10448F27FDAC7CF2D2F4D2D9C
:102190006C2FC70175DE811599F2D11549F0809138
:1021A000460290914702019690934702809346021F
:1021B00001111DC084EB90E00E94F506C1E0C1CF83
:1021C000EFECF7E03197F1F700C0000001962091A5
:1021D0001501309116018217930790F320E040E03B
:1021E0006C2FC7014DDE811509F4AACFE3CF80E043
:1021F00090E0EDCF20911B01211108C040E043DFAA
:10220000982F81E0913009F080E0089590E0F9CFB7
:10221000A4E3B1E0EEE0F1E10C94FB347E018EEC3E
:10222000E81A8EEFF80A80911E0190911F01A0918B
:102230002001F70180839183A2836E01F1EFCF0E1D
:10224000D11CD60180E18D938CE0E5E6F2E00190AF
:102250000D928A95E1F7F601158681E0868717864B
:10226000108A818B8AEE828B82E0838B98E1948B3B
:10227000858B80E4868B83E0878B809160029091D0
:102280006102A0916202B0916302808F918FA28F50
:10229000B38FAE014F5D5E4F60E672E085E692E07F
:1022A0000E94202B60E572E0CE0101960E941E275D
:1022B0008E01025D1E4F2CE1A601BE016F5D7E4FB7
:1022C000CE0101960E94D328C25DDE4F8881CE5296
:1022D000D140F601848FC15DDE4F8881CF52D1405D
:1022E000858FC05DDE4F8881C053D140868FCF5C23
:1022F000DE4F8881C153D140878FE8E4F2E0D601F8
:10230000909680E592E0B701760121912D938E178A
:102310009F07D9F7CE018F549F4F5C0188E2C82EEA
:1023200000E010E020E041E08AE892E00E94FD3108
:10233000682F811569F0C5015DDF811549F0809135
:102340003C0290913D02019690933D0280933C02A5
:10235000CC5CDE4FEAE00C941735A0E1B0E0E3EB93
:10236000F1E10C94033580916402811107C083E090
:102370009BE095DA6096E2E00C941F3580911B019A
:10238000811519F084EE9AE0F4CFCE010196AED912
:10239000811589F08981809360028A81809361022E
:1023A0008B81809362028C8180936302CE010196BF
:1023B0009DD9811102C080DADDCF88E0FE0131961F
:1023C000A8E4B2E001900D928A95E1F721E030E0B7
:1023D0004EE652E060E070E08AE892E00E94492E0A
:1023E00081E080932F02809370030E946606DC01D7
:1023F000CB01805A9541AF4FBF4F80932B029093F2
:102400002C02A0932D02B0932E020E946606DC01DE
:10241000CB01805C904EAF4FBF4F809327029093CB
:102420002802A0932902B0932A0287EA9AE037DAB9
:10243000EFDEA0CFA0E4B0E0E0E2F2E10C940135E1
:10244000AC01262F8E010F5F1F4F67E872E08AE80C
:1024500092E00E94B732682F811569F0C801CADE88
:10246000811549F080913C0290913D020196909334
:102470003D0280933C02C05CDF4FE4E00C941D35CC
:10248000A0E1B0E0E6E4F2E10C94033585E889834D
:1024900080911A0191E0980F90931A018A8382E04B
:1024A0008B8390E89C8398E09D838E831F8283E0DA
:1024B000888780916F03811188EC898784E08A87FF
:1024C0001B8685E08C871D866DE0CE010196B2DF0C
:1024D0006096E2E00C941F35CF93C62F80936F0374
:1024E0000E94D10684E89BE0DAD980916F038115C0
:1024F000A9F081E3A8D9B9DAC11571F08091480338
:10250000811551F08091870290918802892B9091DA
:102510008902892B8111B4DFCF91089580E3EACF3E
:10252000AEE3B0E0E6E9F2E10C94FD34062F4EE3B1
:10253000BE016F5F7F4F0E943007823028F02981F3
:102540009FEF980F291721F085E69AE0A8D93FC0A0
:1025500010911B01111519F089E49AE0F7CF9091C1
:1025600026029115C1F190911D029115A1F18A30B9
:1025700090F18C81823079F59A8180911E029813B6
:102580002AC043E050E06FE172E0CE0108960E945D
:102590003935892B01F50E946606C0902202D09041
:1025A0002302E0902402F09025026C197D098E0927
:1025B0009F096D3D75408105910568F48091440245
:1025C0009091450201969093450280934402EE96C5
:1025D000E8E00C941935011521F080911901811161
:1025E00014E2212F40E06981CE0102964CDD823059
:1025F00061F480913E0290913F02019690933F02D8
:1026000080933E028BE39AE0A1CF811551F0809137
:102610003C0290913D02019690933D0280933C02D2
:10262000D6CF80913E0290913F02019690933F0257
:1026300080933E0282E39AE089CF1F921FB61F92D9
:1026400011248F939F93AF93BF93809171039091C7
:102650007203A0917303B09174030196A11DB11D83
:102660008093710390937203A0937303B0937403E8
:10267000BF91AF919F918F911F901FBE1F90189592
:10268000CDB7DEB7C250D2400FB6F894DEBF0FBE52
:10269000CDBF84B7877F84BF0FB6F894A89580918B
:1026A0006000886180936000109260000FBE80E837
:1026B00020E030E00FB6F894809361002093610031
:1026C0000FBE6A980E9403088091D80080618093B1
:1026D000D80081E080931002789484B1876084B937
:1026E0002398209A289A80E58CBD1DBC5398529857
:1026F0006E9A289A20E52A95F1F7289850E55A9580
:10270000F1F7289A88E78A95F1F780E30E943C0B5D
:10271000AFE1BEE41197F1F700C0000010E0612FB7
:1027200070E0CB01865D9E4FFC0124912F3F09F0A4
:102730002CC263EC8EE30E94950735D831D81092F5
:1027400080008BE0809381008CE790E0909389007B
:102750008093880082E080936F00789442E050E09C
:1027600060E071E0CE0101960E94603589819A8116
:102770008133914509F013C24CE050E062E071E012
:1027800085E692E00E94603540E150E06EE071E045
:1027900080E592E00E94603581E0809364021982B6
:1027A00041E050E060E771E0CE0101960E946035A3
:1027B0001981113009F0F5C140E150E060E671E0A7
:1027C00081E792E00E946035109381024E0121EB77
:1027D000820E911C83E0D4011D928A95E9F720E0D6
:1027E00030E0A40160E070E08AE892E00E94492EA7
:1027F00000E411E0C12CD12C7601B12C44E050E072
:10280000B801CE0101960E94603549805A806B80E4
:102810007C80C301B2010E946434462F572FBC0153
:10282000B394472046204520409459F0C416D5065D
:10283000E606F70630F48B2D8770809386026A01D6
:102840007B010C5F1F4FE8E0BE12D8CFC114D1044A
:10285000E104F104B1F444E050E061E371E0CE0141
:1028600001960E94603569817A818B819C816F3FDE
:10287000FFEF7F078F079F0721F00E9464346B01F1
:102880007C01B701A6015C5F6F4F7F4F8AE892E041
:102890000E949F2E60913D0370913E0380913F0303
:1028A000909140030E94440BCE01019688DA811575
:1028B00039F0BE016F5F7F4F8AE892E00E94852E5B
:1028C00081E29AE00E944F0CD0D8D12C3E012EE834
:1028D000621A2EEF720AE5E32E2E332433942C0E67
:1028E0003D1E52E2250E311CCE018B5C9E4F85961B
:1028F000C150DE4F99838883CF5FD140D3011396B7
:10290000CF5FDD4FB983A883C150D240FE017196DD
:10291000C550DE4FF983E883CB5FD1404B9B51C15B
:1029200082E30E948A078093950190919001911112
:102930003AC191E09093900180939201809393012A
:102940008093940110929101809191018F3F19F031
:102950008F5F809391014A9937C10E94A20781310C
:1029600011F40E94D00B80917003811509F45FC4AB
:102970000E94D1060E94660600910701109108018D
:102980002091090130910A01601B710B820B930B9E
:1029900097FD6CC40E946606DC01CB01805694440E
:1029A000A24FBF4F8093070190930801A0930901A4
:1029B000B0930A0181E00E94F90B8CB18470909170
:1029C000A0019111C3C4811519F081E08093A00189
:1029D000809170038115E1F00E946606462F572F03
:1029E000BC0180912B0290912C02A0912D02B091FC
:1029F0002E02481759076A077B0708F407C510928B
:102A000070030E94D10684E492E00E944F0C2DD8FE
:102A10001091A501111509F45FC00E94660620916E
:102A2000A1013091A2014091A3015091A40162172C
:102A300073078407950708F44FC00E946606DC01FF
:102A4000CB0180559B4FAF4FBF4F8093A101909317
:102A5000A201A093A301B093A401123009F4F3C41E
:102A6000133009F411C5113069F580E3CB5CDE4FFA
:102A70008883C553D140FE0131965F01CC24C394B5
:102A8000CE018B5C9E4F7C0100E010E021E041E034
:102A900067E872E08AE892E00E94FD31682F8115B4
:102AA00069F0C501A7DB811549F080913C02909146
:102AB0003D02019690933D0280933C0289EA92E0A8
:102AC0000E944F0C0E94B5078091A5018F5F843052
:102AD00008F0DFC48093A5018091A601811581F0E3
:102AE0000E9466060091AB011091AC012091AD01EE
:102AF0003091AE01601B710B820B930B97FFD2C418
:102B00000E9466080E94B507E091F1018091F001F2
:102B1000E81708F022C581E08E0F8093F101F0E004
:102B2000E055FE4F808190E08D30910529F08A308C
:102B3000910511F00C94C525F401ED0DF11D1082E5
:102B4000D11409F1D4018C91813409F0B3C51196E7
:102B50008C911197811509F4DBC5833709F032C5D3
:102B600043E0BE016F5F7F4FC40102960E943007B1
:102B70006B8162956170833009F060E0C401029658
:102B8000CFDC0E94B507D12CC9CE655D7E4FFB011D
:102B90006491FC0184910E9495071E5FC0CD80E086
:102BA000FCCD10E011CE90919301891714F480931D
:102BB00093019091920198170CF0C6CE80939201E8
:102BC000C3CE10929001C7CE8FE30E947F07C82E1C
:102BD000E894C7F88FEF8C0D8D3308F0C2CEC98210
:102BE0000E947B078FEF0E9475078E010E5F1F4FBB
:102BF000BB24B394780180E00E947507D8018D93BF
:102C00008D01B394CB14B8F780E00E947507B82EFD
:102C100080E00E947507A82E289A8A8196E7982757
:102C20009A8392E0FE013196E90FF11D20813981EE
:102C3000931708F4BDC08B81822780834C2D50E010
:102C4000B701C3010E944635EB2CB7FE03C0EE244A
:102C5000E394EB0CE5940E2C000CFF08BAE4EB1A9D
:102C6000F108E0E8EE16EFEFFE0624F470E8E72E38
:102C7000FF24FA940E94D00B80910C02811509F474
:102C800058C08DE392E00E944F0C80919501082E70
:102C9000000C990B0E94230D85E392E00E944F0CDB
:102CA00080919401082E000C990B0E94230D8FE255
:102CB00092E00E944F0C80919301082E000C990B1A
:102CC0000E94230D89E292E00E944F0C80919201B4
:102CD000082E000C990B0E94230D85E292E00E94C1
:102CE0004F0C6091910170E080E090E00E94C50C73
:102CF0008EE192E00E944F0CC7010E94230D88E1F3
:102D000092E00E944F0C6C2D70E080E090E00E94F9
:102D1000C50C82E192E00E944F0C8301D8018D9195
:102D20008D010E94940C802F86198C15B8F30E9497
:102D3000350D90912F0280911C0220911302822B5D
:102D400081113CC0911509F40ECEB6E0CB123BC008
:102D500043E050E06AE373E0C3010E943935892BF8
:102D600009F001CE80914202909143020196909326
:102D700043028093420289E092E00E944F0CCF5FB1
:102D8000DD4F88819981C150D2400E94A80C83E018
:102D900092E00E944F0CC3010E94A80C8CEF91E0BE
:102DA0000E944F0CC7010E94230D0E94350DDBCD00
:102DB0008452822780839F5F822F34CF9111C5CFA9
:102DC00000E010E059C080911001811121C0809174
:102DD000300290913102019690933102809330023B
:102DE0008E0101551E4F9E012B5C3E4F4C2DB301B1
:102DF0008AE892E00E94B02E892B51F18091340232
:102E00009091350201969093350280933402D8CF89
:102E10009E012F5F3F4F4C2DB3018AE892E00E9444
:102E2000B831811579F066E0CE010196E3D98115BC
:102E300049F08091400290914102019690934102A5
:102E40008093400280912F02811509F4B9CFBFCF42
:102E500080913202909133020196909333028093D5
:102E60003202C553DE4F8881CB5CD140897101E0CD
:102E7000811101C000E011E05090130280911C020A
:102E80008529811509F432C188E290E00E94F50697
:102E9000111511F40C944426511431F02E2DA30178
:102EA0006C2D80E50E943A0D011511F40C94D62585
:102EB00088E290E00E94F506C553DE4F8881CB5C26
:102EC000D14087FF0AC020913602309137022F5F30
:102ED0003F4F30933702209336028970893049F58D
:102EE000CA53DE4F8881C65CD140811122C0CD53C8
:102EF000DE4F88819981C35CD1400597D0F0CB5CCF
:102F0000DE4F8881C553D140863899F4C95CDE4FC5
:102F10008881C753D140823061F481E0C75CDE4FC5
:102F20009881C953D140911101C080E060E0D4DAAA
:102F3000A7DACE2C80917003811509F47AC0CD53A5
:102F4000DE4F8881C35CD1408D3208F472C0CB5C07
:102F5000DE4F8881C553D140803209F06AC08CE0D1
:102F6000E5E6F2E0DE01119601900D928A95E1F717
:102F700080E1E0E5F2E0DE011D9601900D928A9578
:102F8000E1F78091600290916102A0916202B0919C
:102F900063028D8F9E8FAF8FB8A388E0E8E4F2E0E4
:102FA000DE01919601900D928A95E1F7C95CDE4FA2
:102FB00088819981AA81BB81C753D14089A79AA7EB
:102FC000ABA7BCA788E0FE01EB5CFE4F3A96DE01A2
:102FD0009D9601900D928A95E1F780E1FE01EB5CF0
:102FE000FE4F7296DE01D59601900D928A95E1F71B
:102FF000C25ADE4F88819981AA81BB81CE55D140CA
:1030000029968CAF9DAFAEAFBFAF2997BE0162537B
:103010007E4FCE0101960E94912B81116AC01092C1
:1030200070030E94D1068EED91E00E944F0C0E9429
:10303000350D90911001911509F4EDC0C553DE4F87
:103040008881CB5CD14081FD07C0913009F4E3C099
:103050008970893009F0DFC0AE0142535E4FBE0176
:1030600061557E4F8AE892E00E941A31873109F05B
:10307000D2C067E1CE0182539E4FBCD8F82E811595
:1030800009F4C0C080913802909139020196909362
:1030900039028093380280910D02811519F18E0159
:1030A0000F5F1F4FCD53DE4F2881C35CD140AE016F
:1030B0004B5C5E4FBE0161557E4F8AE892E00E94F4
:1030C0004332682F811571F0C80194D8811509F435
:1030D000A4C080913A0290913B02019690933B02EA
:1030E00080933A020F2D2A2D4C2D83C01111E0CE72
:1030F0003ACCBE0162537E4F8AE892E00E94852E50
:10310000B1018AE892E00E94902EC65ADE4F688193
:1031100079818A819B81CA55D1400E946434AB0178
:10312000BC018AE892E00E949F2ECE0182539E4FFE
:103130000E94850E43E050E06EE271E0C1010E9402
:10314000703544E050E061E371E0C150DE4F8881AA
:103150009981CF5FD1400E94703511E0CB51DE4F95
:103160001883C55ED14041E050E065E371E0CE01D7
:103170008B519E4F0E947035109270030E94D106B1
:10318000CE54DE4F88819981AA81C25BD140809361
:10319000870290938802A093890243E050E066E39F
:1031A00071E087E892E00E94703510931A01109345
:1031B000A5010E946606DC01CB0180559B4FAF4FF5
:1031C000BF4F8093A1019093A201A093A301B0935C
:1031D000A4018BEC91E00E944F0CC1010E94A80C4D
:1031E0000E94350D89E891E00E944F0C00E02A2DE5
:1031F0004E2DBE0161557E4FCE018B5C9E4F0E94CD
:103200005B0DB1CB80913E0290913F02019690936D
:103210003F0280933E02F12C3ECF80913E0290917E
:103220003F02019690933F0280933E025BCFE09075
:103230006B03F0906C0300916D0310916E03E11429
:10324000F1040105110509F495CB0E9466066E157F
:103250007F058007910708F48DCB10926B031092C5
:103260006C0310926D0310926E0382CB0E9466066F
:1032700000919701109198012091990130919A0144
:10328000601B710B820B930B97FD97CB0E94660618
:10329000DC01CB0188519C4FAF4FBF4F809397010A
:1032A00090939801A0939901B0939A0180E00E94B5
:1032B000F90B0E94A2078D3009F07FCB4B997DCB93
:1032C00080919601811521F081508093960175CBF4
:1032D00084E30E948A0787FD8F5F859546EB480F40
:1032E00050E845039001112480910E01813881F04E
:1032F0008091FA019091FB01281B390B37FF20C008
:103300002D5F3F4F3595279535952795280F391F08
:103310003093FB012093FA0137FF02C021583F4F41
:10332000220F232F221F330B20930E0180910F01B8
:1033300084171CF0813809F040CB40930F013DCB3E
:1033400055E0359527955A95E1F7E0CF811130C0CA
:10335000E0909C01F0909D0100919E0110919F01D1
:10336000E114F1040105110559F40E946606609309
:103370009C0170939D0180939E0190939F0128CBA7
:1033800080919B01811124CB0E9466066E197F09F2
:10339000800B910B6F3171058105910508F418CBF5
:1033A00081E080939B0184EB90E00E94F50610CBB6
:1033B00080919B018115B9F00E94660600919C01E5
:1033C00010919D0120919E0130919F01601B710B16
:1033D000820B930B613D77408105910578F00E9447
:1033E000AD110E94B50710929B0110929C011092A2
:1033F0009D0110929E0110929F01EACA81E0909176
:103400006F03911180E061E067D8EBCF80912702D4
:1034100090912802A0912902B0912A0248175907D9
:103420006A077B0708F4F4CA405C504E6F4F7F4F29
:1034300040932702509328026093290270932A0236
:103440000E940811E5CA85E8898380911A0191E0FC
:10345000980F90931A018A83EFE5F2E0DE0113964C
:1034600084918D933196C550DE4F88819981CB5FD1
:10347000D1408A179B07A1F760E1CE0101960E9417
:103480001A1284E992E01CCB0E9440128DE792E070
:1034900017CB1092A5018DE692E00E944F0C0E947E
:1034A000B5071ACB1092A6018091A701898380E805
:1034B0008A8380911402811561F043E050E065E158
:1034C00072E088EA91E00E943935892B11F481E895
:1034D0008A8382E08B838091190290911A02A091D5
:1034E0001B028C839D83AE838091A8019091A901DA
:1034F000A091AA018F839887A9871A866AE0CE01D6
:1035000001960E94FA10811509F4FACA80913802D6
:1035100090913902019690933902809338028091FC
:10352000A70180931E028091A8019091A901A0910A
:10353000AA0180931F0290932002A09321020E946F
:103540006606609322027093230280932402909374
:10355000250281E080931D02D3CA1092F1011092DE
:10356000F0018091AF01843009F0D8C98093E9005F
:103570008091E80082FFD2C98091F2009091F3001F
:10358000892B21F0E091F001E03488F08091E8008F
:10359000982F9B7F9093E8008F778093E80080912D
:1035A000F001811509F4BAC9E091F101B4CA81E0D2
:1035B0008E0F8093F0018091F100F0E0E055FE4F16
:1035C0008083DACF823731F481E080931C0210923D
:1035D0001B01D7CA883719F410921C02D2CA81364F
:1035E000D9F4F4018281811561F043E069E172E070
:1035F000C40102960E943007833019F481E0809361
:1036000018028DE19AE00E944F0C89E192E00E943D
:10361000A80C0E94350DB5CA873711F512968C910A
:103620008115B9F043E065E172E0C40102960E94A1
:103630003007833071F48091150290911602892B26
:1036400090911702892B91E0811101C090E0909335
:10365000140289E19AE00E944F0C85E192E0D7CFF5
:10366000813709F055C0F401928180ED890F8230D5
:1036700030F481E0913309F080E08093260285E107
:103680009AE00E944F0C80912602811589F081E317
:103690000E94230C80912602811509F4BACF8091F3
:1036A00018028111B6CF82E09AE00E944F0CB1CF90
:1036B00080E3EECF84018035D1F411968C91811591
:1036C00039F1833709F459CA823741F481E0809394
:1036D00013028AEF99E00E944F0C53CA0F5F1F4FED
:1036E000883729F41092130282EF99E0F4CF8435E1
:1036F00011F40C94FD2404F5823411F40C944F253C
:1037000054F4811509F43DCA8F3311F40C94F92453
:1037100081E899E0E0CF8334D9F741E0BE016F5FE3
:103720007F4FC80101960E943007813011F40C943C
:103730009E258EE899E0CFCF883511F40C94202592
:10374000C4F4863511F40C94F524873509F742E06A
:10375000BE016F5F7F4FC80101960E943007823023
:1037600029F419811F3210F40C94AE2586E899E0F3
:10377000B2CF8D3669F6F8019181911569F0E1ECCF
:10378000E90FE53310F00C94F1240E2E000CFF0B22
:10379000E356FA4C0C94E33480913A0390913B0346
:1037A000A0913C0389839A83AB838AEA93E00E94C9
:1037B0004F0C80912F02811509F474C186EA93E0C1
:1037C0000E944F0C8AE993E00E944F0C80914503C0
:1037D000813009F06AC183E993E00E944F0C83E8CD
:1037E00093E00E944F0CCE0101960E94A80C8DE739
:1037F00093E00E944F0C80914803811509F458C151
:1038000081E30E94230C88E793E00E944F0C6091B3
:103810003D0370913E0380913F03909140030E94CD
:10382000B40C82E793E00E944F0C80911001805D00
:103830000E94230C88E693E00E944F0C809149037C
:10384000811509F437C181E30E94230C8FE593E0D1
:103850000E944F0C80910D02811509F42DC181E366
:103860000E94230C84E593E00E944F0C80911B0181
:10387000811509F423C181E30E94230C8BE493E0BA
:103880000E944F0C80916F03811509F419C181E3E7
:103890000E94230C0E94350D0E94720680E493E082
:1038A0000E944F0C80911701811509F40BC181E32F
:1038B0000E94230C87E393E00E944F0C60911C014F
:1038C00070911D0180E090E00E94C50C8FE20E9483
:1038D000230C64E873E080E090E00E94C50C80E374
:1038E00093E00E944F0C60910E0270910F0280E0F5
:1038F00090E00E94C50C0E94350D89E293E00E9481
:103900004F0C609130027091310280E090E00E9493
:10391000C50C84E293E00E944F0C609132027091DA
:10392000330280E090E00E94C50C8EE193E00E949B
:103930004F0C609134027091350280E090E00E945B
:10394000C50C88E193E00E944F0C609136027091A3
:10395000370280E090E00E94C50C81E193E00E9474
:103960004F0C609138027091390280E090E00E9423
:10397000C50C8AE093E00E944F0C60914002709168
:10398000410280E090E00E94C50C83E093E00E9439
:103990004F0C609142027091430280E090E00E94DF
:1039A000C50C8BEF92E00E944F0C60914402709125
:1039B000450280E090E00E94C50C85EF92E00E94F5
:1039C0004F0C60913A0270913B0280E090E00E94BF
:1039D000C50C80EF92E00E944F0C60913C02709108
:1039E0003D0280E090E00E94C50C88EE92E00E94CB
:1039F0004F0C60913E0270913F0280E090E00E9487
:103A0000C50C80EE92E00E944F0C609146027091CE
:103A1000470280E090E00E94C50C8AED92E00E948F
:103A20004F0C6091F8017091F90180E090E00E94E4
:103A3000C50C8FE20E94230C6091F6017091F70192
:103A400080E090E00E94C50C8FE20E94230C609100
:103A5000F4017091F50180E090E00E94C50C82EDC8
:103A600092E00E944F0C6091F2017091F30180E0AE
:103A700090E00E94C50C8AEC92E00E944F0C80916D
:103A80000E01082E000C990B0E94230D84EC92E08D
:103A90000E944F0C80910F01082E000C990B0E9480
:103AA000230DB7CD82EA93E08BCE8AE893E095CEE2
:103AB00080E3A7CE80E3C8CE80E3D2CE80E3DCCE25
:103AC00080E3E6CE80E3F4CE61E070E0943411F060
:103AD00060E070E08AE892E00E949A2E89E699E020
:103AE0000E944F0CD80111968C91843489F582E69E
:103AF00099E00E944F0C0E94350DF80181818434B9
:103B000009F43FC8CB5CDE4F1882C553D14041E079
:103B100050E065E371E0CE018B5C9E4F0E94603502
:103B2000CB5CDE4F8881C553D140813009F429C870
:103B300080916402811509F424C88E010F5F1F4F24
:103B4000C8010E94760B811106C00E945C0C19C846
:103B500089E599E0CECFB8018AE892E00E94852EEF
:103B6000C8010E94850E81E0CB5CDE4F8883C5537F
:103B7000D14041E050E065E371E0CE018B5C9E4FA7
:103B80000E94703580E1D8011D928A95E9F78EEA8E
:103B900093E0A1CD43E0BE016B5C7E4FC80102966D
:103BA0000E943007833019F08BE499E094CDBE0178
:103BB0006B5C7E4F8AE892E00E94902E82E499E04E
:103BC0000E944F0CCE018B5C9E4F21CDF80182816B
:103BD000883561F4198241E050E065E371E0CE017F
:103BE00001960E94703582E099E075CD88EC98E0EE
:103BF00072CD44E0BE016B5C7E4FC80102960E940C
:103C00003007843019F08CEB98E065CDCB5CDE4F4B
:103C1000688179818A819B81C553D1400E94643437
:103C2000AB01BC018AE892E00E949F2E85EB98E0F0
:103C30000E944F0C60913D0370913E0380913F03C1
:103C4000909140030E94B40CE4CCD80112968C9160
:103C50008E3409F09FC08DE998E00E944F0C0E94BD
:103C6000B5070E945F0C811509F478C0CE0101965A
:103C70000E946107811509F469C0FE0131969E0119
:103C8000255F3F4F85EC9DE9ACE1B1E8AC01BD019A
:103C900015E0440F551F661F771F1A95D1F70BE1EA
:103CA000B695A795979587950A95D1F7842B952B6F
:103CB000A62BB72B41918427E217F30739F7AF738F
:103CC000BB276C017D0180E592E00E94760B811597
:103CD00009F442C005E612E0A70196016BEE70E020
:103CE00080E090E00E94CE3281E391E5CB5CDE4F34
:103CF00099838883C553D1404CE050E062E071E085
:103D0000C8010E94703540E150E06EE071E080E54E
:103D100092E00E94703542E050E060E071E0CE0138
:103D20008B5C9E4F0E94703581E080936402CB5C77
:103D3000DE4F1882C553D14041E050E065E371E0A9
:103D4000CE018B5C9E4F0E94703508C0CE0101965B
:103D50000E94760B811109C00E945C0C8091640264
:103D60008111F0C08BE395E0B6CC29818A8190E087
:103D7000A0E0B0E0BA2FA92F982F8827A22B2B8183
:103D8000822BAF73BB276C017D018EEC93E00E9408
:103D90004F0C99CF803521F40E94AD110C94C115C0
:103DA0008B34E1F6C650DE4F1882CA5FD14041E045
:103DB00050E065E371E0CE0186509E4F0E94603571
:103DC00080916402811539F0C650DE4F8881CA5F48
:103DD000D140813019F08BE694E07DCC89E594E008
:103DE0000E944F0C0E94B507CE018B5C9E4F0E9433
:103DF000760B811509F4A9CECB5CDE4F8881C553C3
:103E0000D140CE50DE4F8883C25FD140CA5CDE4FC6
:103E10008881C653D140CD50DE4F8883C35FD140E7
:103E2000C95CDE4F8881C753D140CC50DE4F8883B8
:103E3000C45FD140C85CDE4F8881C853D140CB50AD
:103E4000DE4F8883C55FD1407E0122E3E21A2EEF68
:103E5000F20AC7010E94DF0E811103C08CE394E0D7
:103E60003ACC5E015EE8A51A5EEFB50AC5010E9474
:103E7000CA0DAE014B515E4FBE016E507E4F85E6BE
:103E800092E00E94202BB501CE010196D7D76E019A
:103E900081E5C81A8EEFD80A00E19601A701BE019C
:103EA0006B517E4FCE0101960E9480292E019AE02F
:103EB000491A9EEF590A820120E1A701BE016B5108
:103EC0007E4FCE0101960E94CF2A80E1D701E82FD4
:103ED0001D92EA95E9F7D5011D928A95E9F780E3ED
:103EE00094E00E944F0C04501109F80134967F01B0
:103EF000B42CA52CD8018D918D010E94940CE01654
:103F0000F106C1F786017601B0E1EB0EF11CF80174
:103F100081918F010E94940C0E151F05C1F70B2D86
:103F20001A2D7801F4E0EF0EF11CD8018D918D016E
:103F30000E94940C0E151F05C1F70E94350D85E0F7
:103F400094E0C9CB81E395E00E944F0C05E612E0B6
:103F5000F80181918F010E94940CF2E001371F0754
:103F6000B9F70E94350DCE018B5C9E4F7C018E010E
:103F700002531E4F9E012B513E4FAE014E585E4FD5
:103F8000BE0161557E4F85E692E00E9467338CE169
:103F900095E00E944F0CCB51DE4F8881C55ED14029
:103FA0000E94940C83E195E00E944F0CC153DE4FB8
:103FB0008881CF5CD1400E94940CC253DE4F88812F
:103FC000CE5CD1400E94940C86E095E00E944F0C9C
:103FD000CE58DE4F88819981AA81BB81C257D140DA
:103FE000BC01CD0161507F4F8F4F9F4F0E94C50C88
:103FF0000E94350D85EF94E00E944F0CCE01019692
:104000000E946107811521F10D5C11409AE2E91AC5
:1040100091E0F90AD8018D918D010E94940CE0166F
:10402000F106C1F70E94350D85EE94E00E944F0C19
:1040300000E512E0F80181918F010E94940CF2E0FA
:1040400000361F07B9F70E94350D80EA94E043CB94
:104050008DEE94E00E944F0CE5CFD80112968C9122
:10406000803331F461E080E00E946C120C94C11541
:10407000813319F461E081E0F7CF843539F481E0D0
:1040800090916F03911180E061E0EECF82E998E0BA
:104090000E944F0C80916F03811521F081E30E94F3
:1040A000230CB7CA80E3FBCFA5B058B04BB0BEB16C
:1040B000C350DE4FB883CD5FD140E1B3C250DE4F75
:1040C000E883CE5FD14084B195B18095892B85B9C5
:1040D00087B198B18095892B88B98AB19BB18095B9
:1040E000892B8BB98DB19EB18095892B8EB980B308
:1040F00091B38095892B81BB8FE097E20197F1F70F
:1041000000C00000D3B0C6B0B9B00CB11FB187E891
:1041100098E00E944F0C8D2D0E94940C83E898E04B
:104120000E944F0C8C2D0E94940C8FE798E00E9407
:104130004F0C8B2D0E94940C8BE798E00E944F0C43
:10414000802F0E94940C87E798E00E944F0C812FEB
:104150000E94940C86E598E00E944F0C0E94B507DF
:1041600040E9E42EFF24F3949FE7A8E3B1E09150E7
:10417000A040B040E1F700C0000083B18D110CC039
:1041800086B18C1109C089B18B1106C08CB1801326
:1041900003C08FB1811789F18BE498E00E944F0C26
:1041A00083B18D250E94940C87E498E00E944F0C07
:1041B00086B18C250E94940C83E498E00E944F0CF9
:1041C00089B18B250E94940C8FE398E00E944F0CDC
:1041D0008CB180270E94940C8BE398E00E944F0CD6
:1041E0008FB181270E94940C0E94350D0E94B50763
:1041F000D3B0C6B0B9B00CB11FB1E1E0EE1AF1080E
:1042000009F0B2CFA5B858B84BB8C350DE4FF8810B
:10421000CD5FD140FEB9C250DE4F2881CE5FD14084
:1042200021BB88E298E057CAD80112961C9181E020
:10423000103309F480E080931B0182E298E00E9431
:104240004F0C81E3103309F480E30E94230C86E0D5
:1042500098E0103309F029CA82EF97E026CAF801E6
:10426000329680E0982F81E0890F2191211519F075
:104270008930C1F798E0F80182818B3409F065C07C
:1042800083818115B1F043E0BE016F5F7F4FC801AC
:1042900003960E943007833019F089EE97E01BCA1D
:1042A000898180930B018A8180930C018B8180939B
:1042B0000D018BE997E00E944F0C80911901811547
:1042C00009F4B3C081E30E94230C81E997E00E94C6
:1042D0004F0C609111017091120180E090E00E94FA
:1042E000C50C8FE20E94230C6091130170911401A0
:1042F00080E090E00E94C50C8BE797E00E944F0C95
:1043000080910B010E94940C80910C010E94940CEE
:1043100080910D010E94940C80910B0190910C01F1
:10432000892B90910D01892B811104C085E797E0BD
:104330000E944F0C8BE697E00E944F0C6091150194
:104340007091160180E090E049C0913061F490EDE9
:10435000980F923008F066C091E0813309F090E048
:1043600090931901A6CF08F4A4CF282F2D7F2133D5
:1043700019F08A3509F056C0963018F080EE97E0B3
:10438000AAC9F801339640E050E0A1E0BAE0AF5F7F
:10439000219130ED320F3A3018F087ED97E09BC94C
:1043A000B49FB001B59F700D1124022E000C330B89
:1043B000A90140535109460F571FA913E8CF8A3569
:1043C000A9F4CA010597803F914058F084EC97E02A
:1043D0000E944F0C64EF71E080E090E00E94C50CF9
:1043E00018C9509316014093150163CF9A012A50C2
:1043F0003109273C374048F080EB97E00E944F0C92
:1044000060ED77E080E090E0E9CFE1E0F0E0833339
:1044100011F0E0E0F0E0EE0FFF1FEF5EFE4F518382
:10442000408347CF87EA97E056C980E34CCFD80155
:1044300012969C9180ED890F823030F481E09133A7
:1044400009F080E0809317010E94720680E697E0F1
:104450000E944F0C80911701811509F181E30E94A0
:10446000230C87E597E00E944F0C60911C0170912E
:104470001D0180E090E00E94C50C8FE20E94230C99
:1044800064E873E080E090E00E94C50C80E597E06E
:104490000E944F0C60910E0270910F0253CF80E387
:1044A000DECFF801F28061E0F0E3FF1201C060E0CE
:1044B0009534C9F460932F028CE497E00E944F0C6E
:1044C000D80111968C910E94230C8DE30E94230C3D
:1044D000F8018181813521F58091100120E3F22ED0
:1044E000F80E8F2DDCCD913539F422E3F21201C0A4
:1044F00062E060931001E0CF963419F460930D02EE
:10450000DBCF983419F460930C02D6CF9E3419F4A3
:1045100060934903D1CF8AE892E00E94A72ECCCFC6
:10452000F0E3FF16F1F291E3F92EDBCFE0E3F2E0E6
:1045300088E1DF011D928A95E9F781E880930F01F8
:1045400080930E011092FB011092FA018DE397E027
:10455000C2C87E01BEE8EB1ABEEFFB0A8FEFF7017F
:104560008083CE0101960E946107BE2CAF2C811181
:1045700003C081E297E0AFC8CF80D884E984FA8491
:10458000D80112968C91811119C0C701B6010E9401
:1045900064347B018C0187E197E00E944F0CB701E6
:1045A000C8010E94B40C82E097E00E944F0CB70152
:1045B000C8010E94B40C85ED96E08DC844E0BE01B0
:1045C0006B5C7E4FC80102960E943007843069F40C
:1045D000CB5CDE4F88819981AA81BB81C553D140D4
:1045E000C816D906EA06FB0619F083EB96E073C8F5
:1045F00000E011E041E050E0B8018B2D9A2D0E94BF
:1046000070350F5F1F4F0038B1E01B0799F786E741
:1046100096E00E944F0C0E94B507F89488E198E05C
:104620000FB6F894A895809360000FBE9093600039
:10463000FFCF923609F077C0F80182818C34F1F512
:104640008381811569F00E941C07F82ED801149609
:104650008C910E941C07BFEFFB1611F08F3F19F4DD
:1046600083E696E038C88F708930C1F0ACF48130B1
:10467000A9F08330F1F0D12C0B5F1F4F5801D50109
:104680008C91833709F444C0843509F456C08235CF
:1046900099F186E496E01FC88B30ECCF8091110130
:1046A0009091120109966AE070E00E94AD34D62E16
:1046B000E3CF8091130190911401F4CF813371F411
:1046C000809111019091120109966AE070E00E94B8
:1046D000AD34D62E0D5F1F4F5801D1CF833329F44F
:1046E0008091130190911401EFCFD12C803391F37D
:1046F00084E596E00C946B1B95012F5F3F4FB1E072
:10470000C350DE4FB883CD5FD140512C16E033C08B
:1047100095012F5F3F4FE1E0C350DE4FE883CD5F4F
:10472000D140512C27C05801FFEFAF1ABF0A9801A2
:104730002E5F3F4FD12C943559F5D50111968C91B0
:10474000811561F00E941C07582EF50182810E949C
:104750001C07FFEF5F1611F08F3F21F486E396E010
:104760000C946B1BC350DE4F8883CD5FD140950105
:104770002D5F3F4F13E04DE3BE016B5C7E4FC901DF
:104780000E9430078117A0F489E296E00C946B1B1D
:10479000923539F051E0C350DE4F5883CD5FD140A0
:1047A000C0CF81E0C350DE4F8883CD5FD140ADCF15
:1047B0004090460393E0591203C093E89093460358
:1047C000C82EC11A85E3E82EFF24F394EC0EFD1EDB
:1047D000E10EF11CD5018C9100E010E0823529F446
:1047E0008E010B5C1E4F0D5F1F4FFE0131965F0166
:1047F000C350DE4F2881CD5FD140452DBE016B5C9B
:104800007E4F8AE892E00E94FD31682F4092460375
:104810008AE196E0611511F40C946B1B80911B01E9
:10482000811521F08BEF95E00C946B1B2D2D41E051
:10483000CE0101960E944310823069F480913E02BD
:1048400090913F02019690933F0280933E028DEE3D
:1048500095E00C946B1B811569F080913C0290915E
:104860003D02019690933D0280933C0282EE95E0DA
:104870000C946B1B80913E0290913F0201969093A5
:104880003F0280933E0286ED95E00C946B1BD801AD
:1048900012968C918B3489F440E16CEF71E0C80181
:1048A00003960E943007803121F089EC95E00C944A
:1048B0006B1B8FEA95E00C946B1B7801B2E0EB0E5A
:1048C000F11C40E1BE016B5C7E4FC7010E943007C6
:1048D000803181F4F80182A18A3261F4CE018B5CCF
:1048E0009E4F40960E94DF0E811111C082E995E033
:1048F0000C946B1B40E2BE016B5C7E4FC7010E94B3
:104900003007803221F085E895E00C946B1B6E0136
:10491000FEE8CF1AFEEFDF0A9E012B5C3E4F205FC0
:104920003F4FAE014B5C5E4F445F5F4F76018E019F
:104930000F5F1F4FBE016B5C7E4F8CEF91E091D6F5
:104940008FE795E00E944F0C21E6E21A21E0F20A7F
:10495000D8018D918D010E94940CE016F106C1F7EB
:1049600080E20E94230C86017601B4E0EB0EF11C7C
:10497000F80181918F010E94940CE016F106C1F7B5
:104980000C94091B40E1BE016B5C7E4FC80102968E
:104990000E943007803121F082E795E00C946B1B78
:1049A000BE016B5C7E4F685F7F4FAE014F5F5F4F14
:1049B000CE018B5C9E4FA5D68CE695E00E944F0CF5
:1049C0008E010F5F1F4F7E01F1E1EF0EF11CD80148
:1049D0008D918D010E94940CE016F106C1F70C94A4
:1049E000091B83E695E00C946B1B81EE99E00C9417
:1049F000551B81EB99E00C946B1BF801818180338E
:104A0000D9F482818133C1F4838181110AC08091FC
:104A100011020E94940C809112020E94940C0C943A
:104A2000091B42E061E172E0C80103960E94300771
:104A3000823069F70C94C1158CEA99E00C946B1BD9
:104A4000D80111968C91811599F041E0BE016F5FFC
:104A50007F4FC80101960E943007813029F4898177
:104A6000809318010C94C11584EA99E00C946B1B97
:104A70000E947206809118010E94940C80E20E94AC
:104A8000230C80911701811529F060911C01709110
:104A90001D0158CC64E873E080E090E09FCCF80101
:104AA0008181803309F046C08281813309F042C0A0
:104AB00083E799E00E944F0C0E94B5078FE39CE9C1
:104AC0000197F1F700C000000E9403088091E00008
:104AD00081608093E0008091D8008F778093D80028
:104AE00019BC8091D8008F7E8093D800109210025C
:104AF0009FEFADEEB2E09150A040B040E1F700C0B2
:104B00000000F8940FB6F894A89580916000886131
:104B100080936000109260000FBE10926E001092A1
:104B20006F0014BE81E085BF82E085BFE0E0F8E35E
:104B30000995FFCF86E999E00C946B1B83E40E94F2
:104B4000230C1981812F0E94940C8DE30E94230C69
:104B5000812F1033B8F00E948A075FCF0A8186E365
:104B60000E943C0B602F812F0E9495070E94D00B62
:104B700087E50E94230C812F0E94940C8DE30E94F4
:104B8000230C812F0E947F0748CFF3E8DF1610F037
:104B90000C948E14F401ED0DF11D8083D3940C94CC
:104BA0008E14111509F45DC00C9458172AE0C21632
:104BB00010F40C945817EFE1CE1698F780911C0270
:104BC000811509F446C02B2DA3016C2D81E40E94B0
:104BD0003A0D809126028115E1F18091180281152C
:104BE000C1F1D30111968C91119785FF32C01296B5
:104BF0008C919EEF980F923060F1811551F143E056
:104C000050E069E172E0C30106960E943935892BB4
:104C100001F5F30180818093A70183819481A581AF
:104C20008093A8019093A901A093AA010E9466060F
:104C3000DC01CB018C599F4FAF4FBF4F8093AB012D
:104C40009093AC01A093AD01B093AE0181E080934D
:104C5000A60111110C945817F2E1CF1610F40C9420
:104C6000B31480911302811511F40C94B314809144
:104C70002F0281110C94B3142E2DA3016C2D80E50D
:104C80000E943A0D0C94B3145AE0C51608F093CF65
:104C90000C94B3141F920F920FB60F9211242F93FE
:104CA0003F934F935F936F937F938F939F93AF93B4
:104CB000BF93EF93FF938091DA0080FF10C0809143
:104CC000D80080FF0CC08091DA008E7F8093DA00DC
:104CD0008091D90080FF9BC081E08093AF018091DB
:104CE000E10080FF1CC08091E20080FF18C080912D
:104CF000E1008E7F8093E1008091E2008E7F8093BF
:104D0000E2008091E20080618093E2008091D8000F
:104D100080628093D80019BC85E08093AF018091B8
:104D2000E10084FF27C08091E20084FF23C019BC0A
:104D300089B5826089BD09B400FEFDCF8091D8009D
:104D40008F7D8093D8008091E1008F7E8093E10079
:104D50008091E2008F7E8093E2008091E20081608A
:104D60008093E20080914601811509F453C084E0EC
:104D70008093AF018091E10083FF38C08091E20011
:104D800083FF34C08091E100877F8093E10082E05F
:104D90008093AF01109246018091E1008E7F809355
:104DA000E1008091E2008E7F8093E2008091E2003A
:104DB00080618093E2001092F40080E08093E9002B
:104DC0001092F0001092E8009091ED009D7F90937A
:104DD000ED009091EB009E7F9093EB008F5F87300A
:104DE00069F742E060E080E00E945608FF91EF9191
:104DF000BF91AF919F918F917F916F915F914F91F3
:104E00003F912F910F900FBE0F901F901895109209
:104E1000AF0165CF83E0ACCFCF93DF93FC01DB0123
:104E20009C01205F3F4F81919D91EF0189278A93DB
:104E3000E217F307C1F7DF91CF910895CF93DF9386
:104E4000FB01DC01CB014096ED0121912993E8178C
:104E5000F907D9F741E030E11C962C911C971D967B
:104E60009C911D971E968C911E971F965C911F9783
:104E7000632F6F70611120C0E92FF0E0E157F44F0C
:104E800064916427E82FF0E0E157F44FE4919E2FFE
:104E9000E52FF0E0E157F44FE4918E2FE22FF0E0A0
:104EA000E157F44FE4915E2F742F770F2BE147FF0A
:104EB00020E0472F4227262F6C91262750962C93CF
:104EC000509711962C911197922751969C93519738
:104ED00012969C911297892752968C93529713960B
:104EE0008C911397852753968C9353973C5F149618
:104EF000303B09F0B1CFDF91CF9108958F929F920F
:104F0000AF92BF92CF92DF92EF92FF920F931F93D7
:104F1000CF93DF938C01EA01FB017A01CB0140962C
:104F2000DA0121912D938E179F07D9F7B801CE0191
:104F300073DF580180E1A80EB11C00561F4F4801D5
:104F40006E01A0E1CA0ED11CDE01ED91F0E0E15747
:104F5000F44F2491CD010197FC012083CA16DB0692
:104F6000A1F789819D81998399859D839D859987E5
:104F70008D878A819A859A838A878E819E859E8372
:104F80008E878F859B859F879F819B879B819F8332
:104F90008B83FE018081418132812381782F7427A8
:104FA000632F6227572F5627972F990F77FF64C0DB
:104FB0007BE19727782F752797279083742F732786
:104FC000972F990F77FF5AC07BE1972745279427A2
:104FD0009183962F990F4BE167FF40E09427352787
:104FE000932792838227982F990F87FF49C08BE1DF
:104FF00089272527822783833496CE16DF0651F62C
:10500000B501CE0109DFF0E1AF0EB11C0A151B0599
:1050100009F09ACFD701ED917D01F0E0E157F44F0F
:10502000E491EE93CE14DF04A9F789819D819983E1
:1050300099859D839D8599878D878A819A859A8395
:105040008A878E819E859E838E878F859B859F878D
:105050009F819B879B819F838B83B401CE01DF91CE
:10506000CF911F910F91FF90EF90DF90CF90BF9065
:10507000AF909F908F90D0CE70E09BCF70E0A5CF87
:1050800080E0B6CFEF92FF920F931F93CF93DF9301
:10509000CDB7DEB760970FB6F894DEBF0FBECDBFB9
:1050A0008B01DB017A0130E04D9150E0321710F4B2
:1050B000F7015081BD01615071094527FB01408313
:1050C0003F5FFFEFEF1AFF0A303171F7AE014F5F1C
:1050D0005F4FB80113DF80E1FE013196D8010190E6
:1050E0000D928A95E1F760960FB6F894DEBF0FBE79
:1050F000CDBFDF91CF911F910F91FF90EF90089559
:105100008F929F92BF92CF92DF92EF92FF920F9376
:105110001F93CF93DF93CDB7DEB760970FB6F894A8
:10512000DEBF0FBECDBFE82EB92EFB014A01F22E25
:10513000680189E089838DE0DE01129601900D926D
:105140008A95E1F71F86288B80E1F80111928A95F4
:10515000E9F720E1AE014F5F5F4FB8018E2D92DF7E
:1051600010E01F1590F060960FB6F894DEBF0FBEEA
:10517000CDBFDF91CF911F910F91FF90EF90DF9006
:10518000CF90BF909F908F9008952F2D211B21319C
:1051900008F020E1A401410F511DB6018E2D9B2D79
:1051A00071DF105FDECF4F925F926F927F928F928E
:1051B0009F92AF92BF92CF92DF92EF92FF920F93A6
:1051C0001F93CF93DF93CDB7DEB7C055D1090FB68C
:1051D000F894DEBF0FBECDBFD82EE92E3B015A0199
:1051E000F22EC12EDE01AF5BBF4F89E48D938DE0BF
:1051F000FB0101900D928A95E1F760961FAE6097D2
:1052000061961FAE61974E0181E2880E911C10E1FC
:10521000D401E12F1D92EA95E9F720E1AE014F5B41
:105220005F4FB4018D2D2EDFFE01F196DF011D923F
:105230001A95E9F7FAAA1F2D2F01BFE0FB1608F017
:105240001EE0412F50E0B501CE01C3960E944635C5
:1052500020E1A201B4018D2D9E2D14DF1F1508F44D
:1052600041C081E089838DE0F301DE011296019057
:105270000D928A95E1F71F86188AAE014F5E5F4F47
:10528000BE016F5F7F4F8D2D9E2D38DEC401BE01A4
:105290006F5E7F4FE02FFC2DAF014C5F5F4FDC0155
:1052A0002D91CD01DB013D91BD0123272193E41711
:1052B000F507A9F7C05BDF4F0FB6F894DEBF0FBE4E
:1052C000CDBFDF91CF911F910F91FF90EF90DF90B5
:1052D000CF90BF90AF909F908F907F906F905F9096
:1052E0004F9008952F2D211B213108F020E1A501B9
:1052F000410F511DB4018D2D9E2DC4DE105FAECF28
:105300002F923F924F925F926F927F928F929F92D5
:10531000AF92BF92CF92DF92EF92FF920F931F93C3
:10532000CF93DF93CDB7DEB7A0970FB6F894DEBF6B
:105330000FBECDBF782E692E562E472E6A01590119
:10534000EE24E394F12C10E022242394CE01019664
:105350004C011017C8F0A0960FB6F894DEBF0FBE30
:10536000CDBFDF91CF911F910F91FF90EF90DF9014
:10537000CF90BF90AF909F908F907F906F905F90F5
:105380004F903F902F900895302E311A91E13916A9
:1053900010F080E1382E298A8DE0E52DF42DDE0114
:1053A000529601900D928A95E1F79E2D8F2D98A32C
:1053B0008F8FA401BE016F5E7F4F872D962D9EDDDE
:1053C0009601210F311DA501410F511DF401D90195
:1053D0008D919D0191918927DA018D93AD018E2FD9
:1053E00088198315A0F3105FBFEFEB1AFB0AB1CF4A
:1053F0005F926F927F928F929F92AF92BF92CF9265
:10540000DF92EF92FF920F931F93CF93DF93CDB76D
:10541000DEB7E0970FB6F894DEBF0FBECDBF6C01CC
:105420005B014A01722E502E612E8E010F5D1F4FBF
:1054300067DE81E0898B8DE0F501DE0152960190F7
:105440000D928A95E1F71F8E18A2AE014F5F5F4F54
:10545000BE016F5E7F4FC60151DDC801BE016F5FA7
:105460007F4FD701A7014C5F5F4FFC012191CF0116
:10547000FB013191BF0123272D93A417B507A9F78D
:10548000072D252D362DA401B501C60139DFE09683
:105490000FB6F894DEBF0FBECDBFDF91CF911F9145
:1054A0000F91FF90EF90DF90CF90BF90AF909F90C3
:1054B0008F907F906F905F9008957F928F929F92D0
:1054C000AF92BF92CF92DF92EF92FF920F931F9312
:1054D000CF93DF93CDB7DEB7E4970FB6F894DEBF76
:1054E0000FBECDBF6C015B01722E4801022F9701E8
:1054F00007DF8E010F5D1F4F272DA701B501C601E4
:10550000FFDD81E0898B8DE0F501DE01529601908F
:105510000D928A95E1F71F8E18A2AE014F5F5F4F83
:10552000BE016F5E7F4FC601E9DCF8010052110930
:105530009E012F5C3F4FBE016B5D7F4FA9018191A2
:10554000D8019D918D018927DA018D93AD01E61770
:10555000F707A9F7F401A4014C5F5F4F90E0D90170
:105560008D919D0161918627982B4E175F07B9F7A2
:1055700081E0911180E0E4960FB6F894DEBF0FBE93
:10558000CDBFDF91CF911F910F91FF90EF90DF90F2
:10559000CF90BF90AF909F908F907F900895AF92E3
:1055A000BF92CF92DF92EF92FF920F931F93CF9310
:1055B000DF93CDB7DEB7E0970FB6F894DEBF0FBE2E
:1055C000CDBF7C016B0158018E010F5D1F4F98DD2F
:1055D00081E0898B8DE0F601DE01529601900D92FB
:1055E0008A95E1F71F8E18A2AE014F5F5F4FBE0193
:1055F0006F5E7F4FC70182DCC801BE016F5F7F4FC6
:10560000F501A5014C5F5F4FDC012D91CD01DB0160
:105610003D91BD0123272193E417F507A9F7E096F3
:105620000FB6F894DEBF0FBECDBFDF91CF911F91B3
:105630000F91FF90EF90DF90CF90BF90AF900895C3
:10564000FC01339689E0DA0101900D928A95E1F729
:10565000DA01199684E0FB0101900D928A95E1F739
:1056600008957F928F929F92AF92BF92CF92DF92D6
:10567000EF92FF920F931F93CF93DF93CDB7DEB7D7
:10568000CD5BD1090FB6F894DEBF0FBECDBF782E2B
:10569000892ECB01BA016901902EAE014F545F4FA4
:1056A000CFDF672D782DCE010196C8DB00E1292DD3
:1056B000312FA601BE016F547F4FCE01019620DE2F
:1056C000E114F10449F0870120E1A601BE016F5405
:1056D0007F4FCE01019663DFC354DF4F0FB6F894BE
:1056E000DEBF0FBECDBFDF91CF911F910F91FF9015
:1056F000EF90DF90CF90BF90AF909F908F907F9072
:105700000895FC0188E0DA0101900D928A95E1F795
:10571000DA01189688E0FB0101900D928A95E1F775
:1057200008954F925F926F927F928F929F92AF9265
:10573000BF92CF92DF92EF92FF920F931F93CF937E
:10574000DF93CDB7DEB7C15DD1090FB6F894DEBFE8
:105750000FBECDBF6C012B013C0188E2680E711CAD
:1057600046019CE0890E911C5E0181EBA80EB11CE4
:1057700096012C5C3F4FE12CF12C8501A301B60171
:10578000C4016FDFAE014F535F4FB301C60158DF55
:10579000B401CE0101967C0151DB035E1F4F20E175
:1057A000A501BE016F537F4FC701F9DEF801D60195
:1057B000AC5BBF4F9601285B3F4F80E09B2C8E2C4B
:1057C000BF2C91914D919427892BA217B307C9F74C
:1057D00081112DC0B601645D7F4F482D5B2DC60140
:1057E00080968FDFA601445E5F4FE12CF12C820191
:1057F0002A2D392DB601882D9B2D33DF81E0CF5224
:10580000DF4F0FB6F894DEBF0FBECDBFDF91CF9153
:105810001F910F91FF90EF90DF90CF90BF90AF90CE
:105820009F908F907F906F905F904F90089580E051
:10583000E6CF2F923F924F925F926F927F928F921C
:105840009F92AF92BF92CF92DF92EF92FF920F930F
:105850001F93CF93DF93CDB7DEB7C25DD1090FB6EB
:10586000F894DEBF0FBECDBF3B017A01CF52DF4FB0
:105870002883C15DD040CE52DF4F3883C25DD04017
:10588000BC01CE0101965C01D9DA8E010F531F4F86
:1058900080E1D8011D928A95E9F7C12CD12C3A2CD0
:1058A0002B2C5E01B1EBAB0EB11C5A2C4B2C4801DA
:1058B000E0E18E0E911CCE14DF0478F1F8018081B6
:1058C0008E25808381818F258183CF52DF4F488150
:1058D000C15DD040CE52DF4F5881C25DD040B8018B
:1058E000832D922D0BDBCE52DF4F0FB6F894DEBF27
:1058F0000FBECDBFDF91CF911F910F91FF90EF9021
:10590000DF90CF90BF90AF909F908F907F906F90DF
:105910005F904F903F902F900895D501E0E11D9248
:10592000EA95E9F7A7014C195D094131510510F0DD
:1059300040E150E0B3016C0D7D1D852D942D0E943A
:105940004635F801452D542D8191DA019D91AD0127
:105950009F01215031098927D9018C93E815F90558
:1059600099F7A801B801832D922DC8DAB0E1CB0ECA
:10597000D11CA1CFCF92DF92EF92FF920F931F9392
:10598000CF93DF93CDB7DEB760970FB6F894DEBF45
:105990000FBECDBF8C017B016A01892B21F1452B04
:1059A00011F160347105F8F09E012F5F3F4FAB019C
:1059B000B80187E291E03DDF9601A701B801CE0171
:1059C000019637DF80E090E060960FB6F894DEBF76
:1059D0000FBECDBFDF91CF911F910F91FF90EF9040
:1059E000DF90CF9008958FEF9FEFEECF0F931F932F
:1059F000CF93DF93CDB7DEB7A0970FB6F894DEBF95
:105A00000FBECDBFFC01CB01309709F440C0009719
:105A1000F1F1AE014F5F5F4F60E2DA011D926A95CE
:105A2000E9F78E0F9F1F61E070E02191A22FA695EC
:105A3000A695A695A40FB52FB11D27708B0102C0A6
:105A4000000F111F2A95E2F798013C91232B2C930C
:105A50008E179F0751F7FA01BE016F5D7F4F40E03F
:105A6000219130E080E090E0D901082E02C0B69587
:105A7000A7950A94E2F7A0FF03C04F5F4830A0F457
:105A800001968830910581F76E177F0749F781E00D
:105A900090E0A0960FB6F894DEBF0FBECDBFDF91A9
:105AA000CF911F910F91089580E090E0F2CFCF93B6
:105AB000DF93FC01DB0180818C9381818E7F1196C5
:105AC0008C931197EF01229612963D9689918D93B2
:105AD000CE17DF07D9F7DF91CF9108952F923F922C
