:100000000C94A5070C94C2070C94C2070C94C20769
:100010000C94C2070C94C2070C94C2070C94C2073C
:100020000C94C2070C94C2070C94A5210C94C2072F
:100030000C94C2070C94C2070C94C2070C94C2071C
:100040000C94C2070C9450110C94C2070C94C20774
:100050000C94C2070C94C2070C94C2070C94C207FC
:100060000C94C2070C94C2070C94C2070C94C207EC
:100070000C94C2070C94C2070C94C2070C94C207DC
:100080000C94C2070C94C2070C94C2070C94C207CC
:100090000C94C2070C94C2070C94C2070C94C207BC
:1000A0000C94C2070C94C2070C94C2071003710091
:1000B0002D00630075006C006600770000001603D9
:1000C00062007500730077006100720065002E0009
:1000D000640065000000040309040007010E020625
:1000E000030D04E905CA063D070C084509000A008E
:1000F0000B060C000D210E650F6A10C81193120338
:10010000132214F815341607170F181819161A6C3D
:100110001B431C401D911E8E1F2F2078215622103C
:1001200023E9242A2500261F2741280029592A7F50
:100130002B3F2C812D352E09FF506D204E65747A92
:100140007765726B7363686C75657373656C206734
:10015000657369636865727420E28094206D6974C8
:100160006C6573656E20697374206A65747A742097
:100170006D6F65676C6963680D0A00506D20414EB4
:1001800047454C45524E5420616464723D00506DA9
:1001900020416E6765626F743A20507275656673B0
:1001A000756D6D652066616C73636800506D2041EC
:1001B0006E6C65726E656E3A206B65696E65204186
:1001C0006E74776F7274000480000000C80600002F
:1001D0001606000000506D20616E67656D656C64E9
:1001E00065740D0A00506D203E3E204B616E616CBF
:1001F0007A75737461656E64650D0A00506D203EFA
:100200003E2053746172746D656C64756E670D0A7F
:1002100000506D203E3E20416E6C65726E626573CB
:10022000746165746967756E670D0A0009023E00A6
:1002300002010080320904000001020201000524CD
:1002400000100104240206052406000107058203AC
:100250000800FF09040100020A000000070504026B
:100260004000000705830240000012011001020057
:100270000008EB03692000020102DC016D492064E3
:10028000657620712D63756C667720312043554C5F
:1002900020616C7320486D49502D4D41432D4C61B8
:1002A0007965720D0A6D49206469616C656374201B
:1002B000506D2D6F7074696F6E616C20426566655C
:1002C000686C652061756368206D69742050726187
:1002D0006566697820500D0A6D49207374617475E4
:1002E00073202D205A757374616E6420756E6420BE
:1002F0005A6165686C7765726B650D0A6D4920728D
:100300006F6C6520437C4420526F6C6C65205A658D
:100310006E7472616C65206F6465722047657261EE
:1003200065740D0A6D4920616464722036686578D1
:1003300020656967656E652046756E6B61647265E0
:100340007373650D0A6D492073657120386865788F
:100350002053657175656E7A7A6165686C65722087
:100360007365747A656E0D0A6D4920656E61626C05
:100370006520307C31204D41432D4C6179657220E0
:10038000617573206F6465722065696E0D0A6D4931
:10039000206175746F61636B20307C312051756909
:1003A0007474756E67656E2073656C627374207308
:1003B000656E64656E0D0A6D4920706967677962C4
:1003C00061636B20307C312070696767796261639B
:1003D0006B41434B2D426974206B75656E66746981
:1003E0006765722053656E64756E67656E0D0A6D84
:1003F0004920726F7574657220307C3120447572AB
:10040000636867616E67737665726B656872207783
:1004100065697465727265696368656E2028526FDC
:10042000757465722D526F6C6C65290D0A6D4920CB
:100430006C697374656E20307C31204E75722D4C62
:100440006573656E2D52696567656C3B203120735D
:100450007065727274206A656465732053656E649A
:10046000656E2028566F7267616265290D0A6D49B5
:10047000207461737465206B75727A7C6C616E6731
:10048000206B75727A20736368616C746574206484
:1004900061732052656C6169732C206C616E6720FA
:1004A0006C65726E7420616E0D0A6D492072656C08
:1004B00061697320307C317C542052656C616973B2
:1004C00020616266726167656E2C207365747A655F
:1004D0006E2C20756D736368616C74656E0D0A6DAA
:1004E00049206C657563687465202D207A6569679D
:1004F00074206461732052656C6169733B2046759A
:100500006E6B7665726B656872206B6568727420BD
:10051000736965206B75727A20756D0D0A6D4920BF
:100520006964656E74202D204B656E6E6E756D6D01
:10053000657220756E64204175666B6C65626572CC
:100540007363686C75657373656C207A656967653C
:100550006E0D0A6D49206964656E746E6577204E74
:10056000206E657565204B656E6E756E67207775BC
:10057000657266656C6E20756E642073696368656C
:10058000726E0D0A6D49206E776B6578706F7274AC
:10059000204B204E65747A7765726B7363686C7557
:1005A000657373656C2C207665727363686C756512
:1005B0007373656C7420676567656E2064656E2073
:1005C0004175666B6C656265720D0A6D49206173D9
:1005D0006B73696E2041727C417820726F68652070
:1005E000426964436F532D4D656C64756E67206579
:1005F000696E206F646572206175730D0A6D492004
:10060000686D69707261772050727C507820726FCB
:10061000686520486D49502D4D656C64756E672086
:1006200065696E206F646572206175730D0A6D498E
:100630002073656E642041737C50732B686578204D
:100640004672616D652073656E64656E0D0A6D4955
:10065000206E65747A6861757368616C74204E30C1
:100660007C4E312052756E647275662D4E616368E2
:10067000626172736368616674207175697474690C
:100680006572656E0D0A6D49207265736574202D63
:10069000205A6165686C7765726B65207A75727532
:1006A00065636B7365747A656E0D0A6D49207365B9
:1006B0006E6420366865782B68657820416E7765B2
:1006C0006E64756E6773646174656E2076657273AF
:1006D00063686C75657373656C742073656E6465AF
:1006E0006E0D0A6D492073656E6472617720316802
:1006F00065782B316865782B366865782B68657866
:100700002062656C69656269676572204672616D19
:10071000650D0A6D492073656E64766961203668DF
:1007200065782B366865782B686578206765726F09
:10073000757465742073656E64656E0D0A6D49206D
:10074000626F6F746C6F6164657220423031206932
:100750006E2064656E20426F6F746C6164657220F8
:10076000737072696E67656E0D0A6D4920657665F6
:100770006E7420504D204672616D6520656D706607
:10078000616E67656E20756E6420656E7473636854
:100790006C75657373656C740D0A6D49202E0D0AB6
:1007A000002074786572723D002074783D002066E8
:1007B00077643D002061636B733D00206475703D7C
:1007C00000206D69633D00206F6B3D00506D20720D
:1007D000783D00206C6F76663D0020637265646929
:1007E000743D00506D206275646765743D00207231
:1007F000656C6169733D00206E75726C6573656E22
:100800003D0020726F757465723D002069636D70E4
:1008100061636B3D002061636B3D0020736E3D00A2
:10082000206B65793D0020616464723D005A656EFD
:100830007472616C65004765726165740020726F47
:100840006C6C653D006175730065696E00506D20CC
:1008500000506D204E65747A7765726B7363686CB7
:1008600075657373656C2065727A657567740D0ABA
:1008700000506D206B65696E65205765726B736BF8
:10088000656E6E756E6720E28094206C617566659A
:100890006E6465204E756D6D657220676577756550
:1008A0007266656C740D0A00506D2061757370611D
:1008B000636B656E206D69742064656D204175669B
:1008C0006B6C656265727363686C75657373656C78
:1008D0000D0A00506D206E776B2E656E633D0050E3
:1008E0006D206B65696E204E65747A7765726B73E7
:1008F00063686C75657373656C0D0A00506D2070CC
:1009000061636B652065696E2E2E2E0D0A00506D99
:10091000206B65696E204E65747A7765726B7363C0
:10092000686C75657373656C20E2809420657273E2
:100930007420616E6C65726E656E20286D4750295B
:100940000D0A00506D2062656964652057657274F8
:100950006520696E2064657220454947454E454EC5
:10096000205A656E7472616C652065696E7472617F
:1009700067656E202847657261657420616E6C65DD
:10098000726E656E290D0A00506D206B65793D0011
:10099000286B65696E652900506D207765726B73F1
:1009A0006B656E6E756E673D00206765726165747C
:1009B000656172743D00206E65686D65723D005022
:1009C0006D206865726B756E6674206661737375F1
:1009D0006E673D00506D20736774696E3D00506D09
:1009E000206B65696E65204B656E6E756E6720E2E3
:1009F0008094206D474E2065727A65756774206516
:100A0000696E650D0A00506D204552520D0A005066
:100A10006D20792000506D20455252206172670D83
:100A20000A00506D20772000506D20455252206101
:100A300072670D0A00506D206B65696E204E6574FB
:100A40007A7765726B7363686C75657373656C0D2B
:100A50000A00506D2077207363686C756573736549
:100A60006C2067657365747A740D0A00506D2045BB
:100A70005252206B65790D0A00506D20455252206C
:100A800074780D0A00506D207478206F6B0D0A0089
:100A9000506D204E55522D4C4553454E20286D4CDF
:100AA0003020676962742066726569290D0A0050FA
:100AB0006D2045525220626175656E0D0A00506DC1
:100AC00020455252206473740D0A00506D20455227
:100AD000522063742F7365630D0A00506D207A6194
:100AE00065686C65723D300D0A00506D2000206C09
:100AF0006F76663D00206372656469743D00506DD9
:100B0000206275646765743D002053454E44454E30
:100B100020465245494745474542454E00206E759F
:100B200072206C6573656E2C2053656E64656E2053
:100B3000676573706572727400506D204C3D005093
:100B40006D205375636865206265656E6465740D1C
:100B50000A0020463D0020453D0020443D00204342
:100B60003D00506D2041454E4420423D0020202D47
:100B70002D2032302073205A6569742C206A6574E8
:100B80007A742064727565636B656E0D0A00204689
:100B90003D0020453D0020443D0020433D00506D78
:100BA000207275686520423D00506D2072656C6151
:100BB00069733D00506D2065727A65756765204BDD
:100BC000656E6E756E672E2E2E0D0A00506D2073A9
:100BD0006E3D00506D2045525220736E0D0A00503C
:100BE0006D206B65792077697264206E6963687423
:100BF00020766F6E2061757373656E20676573650F
:100C0000747A7420E2809420416E6C65726E656E19
:100C100020286D4750290D0A00506D204E65747ACA
:100C20007765726B7363686C75657373656C20763A
:100C30006572776F7266656E20E2809420616C6CDD
:100C4000652047657261657465206E657520616E0B
:100C50006C65726E656E0D0A00506D206164647281
:100C60003D00506D2045525220616464720D0A00AF
:100C70005A656E7472616C650047657261657400D7
:100C8000506D20726F6C6C653D004220626F6F7416
:100C90006C616465720D0A003F200D0A0043204517
:100CA00052520D0A0042204552522028423031292A
:100CB0000D0A00712D63756C667720322E302E314F
:100CC00036005078206F6B0D0A005072206F6B0D4C
:100CD0000A004178206F6B0D0A004172206F6B0D86
:100CE0000A00712D63756C667720322E302E3136F6
:100CF000005073204552520D0A004E55522D4C455E
:100D000053454E20286D4C3020676962742066720E
:100D10006569290D0A004C454E4552520D0A0020C6
:100D2000613D310020663D002061723D002061631D
:100D30006B3D00207669613D0020736E3D002063AD
:100D4000743D00207365633D00206473743D002092
:100D50007372633D00504D00506D20416E6C6572A2
:100D60006E656E206C616575667420E28094204B20
:100D7000656E6E756E67206D75737320696E206485
:100D80006572205A656E7472616C65207374656853
:100D9000656E0D0A00506D204E55522D4C45534541
:100DA0004E20286D4C302067696274206672656938
:100DB000290D0A00506D206B65696E65204B656ECC
:100DC0006E756E6720E280942065727374206D47A3
:100DD0004E0D0A0003AF8BB08DFBC8476508196143
:100DE000DC9433D203AF8BB08DFBC8476508196123
:100DF000DC9433D2506D205A7566616C6C737175DA
:100E0000656C6C6520746F7420E280942046756E6A
:100E10006B63686970207072756566656E20286DF9
:100E20005A292C206E69636874732065727A65751F
:100E300067740D0A00506D2072656C6169733D0026
:100E4000506D204C4F56460D0A00637C777BF26B49
:100E50006FC53001672BFED7AB76CA82C97DFA59C0
:100E600047F0ADD4A2AF9CA472C0B7FD9326363F25
:100E7000F7CC34A5E5F171D8311504C723C3189612
:100E8000059A071280E2EB27B27509832C1A1B6EB4
:100E90005AA0523BD6B329E32F8453D100ED20FC56
:100EA000B15B6ACBBE394A4C58CFD0EFAAFB434D59
:100EB000338545F9027F503C9FA851A3408F929DF6
:100EC00038F5BCB6DA2110FFF3D2CD0C13EC5F97E6
:100ED0004417C4A77E3D645D197360814FDC222AEC
:100EE000908846EEB814DE5E0BDBE0323A0A490623
:100EF000245CC2D3AC629195E479E7C8376D8DD597
:100F00004EA96C56F4EA657AAE08BA78252E1CA66E
:100F1000B4C6E8DD741F4BBD8B8A703EB5664803CE
:100F2000F60E613557B986C11D9EE1F8981169D951
:100F30008E949B1E87E9CE5528DF8CA1890DBFE6D4
:100F4000426841992D0FB054BB1611241FBECFEF3C
:100F5000DAE0DEBFCDBF11E0A0E0B1E0E4E7F1E60A
:100F600002C005900D92A233B107D9F723E0A2E3A6
:100F7000B1E001C01D92AC32B207E1F70E947311DB
:100F80000C9479300C9400002FB7F89460913D02D6
:100F900070913E0280913F02909140022FBF0895D0
:100FA0004F925F926F927F928F929F92AF92BF9279
:100FB000CF92DF92EF92FF920E94C40740902803E5
:100FC0005090290360902A0370902B036B017C01E1
:100FD000C418D508E608F70828EEC21623E0D206A2
:100FE000E104F10480F1C701B60128EE33E040E0EE
:100FF00050E00E94DD2FA8EEB3E00E940530460EBF
:10100000571E681E791E4092280350922903609251
:101010002A0370922B0380EAC8168BEBD8068DE06A
:10102000E806F10450F480910B0190910C01820FBD
:10103000931F843823E0920710F084E893E09093A4
:101040000C0180930B01FF90EF90DF90CF90BF9049
:10105000AF909F908F907F906F905F904F9008958A
:1010600080913C02811561F00E94C40728E730E0BE
:1010700040E050E00E94DD2F20FF12C0769A0895D4
:1010800080913B02409137025091380260913902C1
:1010900070913A02452B462B472B21F0811571F3B5
:1010A000769808958115E1F3E9CF0F931F93CF93BD
:1010B000DF93EC010E94C407DC01CB018C0F9D1F64
:1010C000A11DB11D00913702109138022091390203
:1010D00030913A02081719072A073B0740F480931A
:1010E000370290933802A0933902B0933A02DF910D
:1010F000CF911F910F910C94300890ED980F9A307A
:1011000010F4892F08959FE9980F963010F48755B1
:1011100008959FEB980F963010F4875308958FEF42
:101120000895CF92DF92EF92FF920F931F93CF9388
:10113000DF937B01D42F8C01C12CD12CC0E0F801AE
:1011400081918F01811511F0CD1750F08C2FDF9117
:10115000CF911F910F91FF90EF90DF90CF90089566
:10116000803269F38A3359F30E947D088F3F71F30F
:10117000D11441F0F701EC0FF11D8C298083CF5F72
:10118000D12CDDCFC82EC29480EFC822DD24D394A9
:10119000D6CFDC01EEE0F0E080E031E230935700A2
:1011A00094919D93915021E09E3F08F020E0822B86
:1011B0003196E831F10591F708958EBD0DB407FE23
:1011C000FDCF8EB5089528981B99FECF0895CF9333
:1011D000C82F0E94E3088C2F806C0E94DD0880E0FD
:1011E0000E94DD08289ACF91089585E30E94E708C0
:1011F0008F71089580917201811531F0809189017C
:10120000843019F010927201089583E08093E90010
:101210008091E80080FFF8CF80E0909172018917FB
:1012200050F08091E800982F9E7F9093E8008F7790
:101230008093E800E7CFE82FF0E0EE5CFE4F90816E
:101240009093F1008F5FE9CF8091810187FF17C0F4
:101250008091E80082FF0AC08091E800982F9B7F70
:101260009093E8008F778093E8000895809189013A
:101270008111EECF0895809189018115D9F3809174
:10128000E80080FFF8CF8091E800982F9E7FE8CF9C
:101290008091D8008E7F8093D8001092E200109247
:1012A000DA001092E10010928901109280011092F0
:1012B0007F0110927E018AE482BF19BC89B58260E9
:1012C00089BD09B400FEFDCF8091D800982F9F778B
:1012D0009093D80080688093D8008091D700816077
:1012E0008093D7008091D8008F7D8093D800809123
:1012F000E0008B7F8093E0008091E0008E7F809300
:10130000E0008091E1008E7F8093E1008091E20017
:1013100081608093E2008091E100877F8093E1000B
:101320008091E20088608093E2008091D800816023
:101330008093D80008958093E900EBEEF0E080817F
:1013400081608083EDEEF0E010826093EC004083DA
:101350008091EE000895CF93C82F0E94E3088C2F50
:101360000E94DD08289ACF910895CF9386E30E94CA
:10137000AB09C4E60E94F508982F9F7E913051F08A
:10138000863141F087EC90E00197F1F700C0000052
:10139000CA9581F78BE30E94AB098AE3CF910C9445
:1013A000AB090E94B50984E30C94AB090F931F931A
:1013B000CF93C82F01ED17E0E0917201E03478F48B
:1013C00081E08E0F80937201F0E0EE5CFE4FC083EF
:1013D0008034C9F4CF911F910F910C94FA080E94A8
:1013E000FA08E0917201E03458F380918901843069
:1013F00041F40150104039F08AE18A95F1F700C0BC
:10140000DBCFE0E0DDCFCF911F910F910895CF9317
:10141000DF93EC01FE0184912196811103C0DF91DD
:10142000CF9108950E94D609F5CF84EF9DE00C94EA
:10143000070ACF93C82F82958F70C03A58F4805D09
:101440000E94D6098C2F8F708A3030F4805DCF9146
:101450000C94D609895CF4CF895CF9CFCF93DF93E4
:10146000EC0188810E94190A89810E94190A8A81E7
:10147000DF91CF910C94190A1F93CF93DF93EB0167
:10148000182F892F0E94190A812F0E94190A8D2F67
:101490000E94190A8C2FDF91CF911F910C94190A89
:1014A0004F925F926F927F928F929F92AF92BF9274
:1014B000CF92DF92EF92FF921F93CF93DF93CDB73E
:1014C000DEB72B970FB6F894DEBF0FBECDBF6B0112
:1014D0007C01C114D104E104F104C1F480E32B9632
:1014E0000FB6F894DEBF0FBECDBFDF91CF911F9135
:1014F000FF90EF90DF90CF90BF90AF909F908F9034
:101500007F906F905F904F900C94D609CE0101961A
:101510005C0110E04C018AE0482E512C612C712CAA
:10152000C701B601A30192010E94DD2F1F5F605D1C
:10153000F50161935F01D701C60169017A010A973C
:10154000A105B10510F01B3059F71150F401E10F5E
:10155000F11D80810E94D6091111F7CF2B960FB68D
:10156000F894DEBF0FBECDBFDF91CF911F91FF90EA
:10157000EF90DF90CF90BF90AF909F908F907F9033
:101580006F905F904F9008958DE00E94D6098AE099
:101590000E94D6090C94FA08EF92FF920F931F93C2
:1015A000CF93DF93C62FE42ED52FF22E0E94D609BB
:1015B0008C2F0E94190A0E2D1D2FC00FD12FD11D67
:1015C000F80181918F010E94190A0C171D07C1F7BC
:1015D0008F2D0E94190ADF91CF911F910F91FF90DB
:1015E000EF900C94C40ACF92DF92EF92FF920F9388
:1015F0001F93CF93DF936C01EB01E42EF22E85E570
:101600009DE00E94070A8C890E94190A10E08C89CB
:10161000181708F46DC08E2D0E94190A8F2D0E9494
:10162000190A8FE49DE00E94070ACE0103960E94EA
:101630002E0A89E49DE00E94070ACE0106960E94C8
:101640002E0A83E49DE00E94070A6E8970E080E024
:1016500090E00E94500A8EE39DE00E94070A6F8985
:1016600070E080E090E00E94500A89E39DE00E94D3
:10167000070A6C857D858E859F850E943C0A8C8D2E
:1016800085FF08C083E39DE00E94070ACE0109960A
:101690000E942E0A8C8D82FF14C08DE29DE00E9474
:1016A000070A688979898A899B890E943C0A88E2AD
:1016B0009DE00E94070A6A8D70E080E090E00E9441
:1016C000500A84E29DE00E94070A8C8D0E94190A4C
:1016D000011521F08FE19DE00E94070ADF91CF9173
:1016E0001F910F91FF90EF90DF90CF900C94C40A60
:1016F000F601E10FF11D80810E94190A1F5F87CF5B
:10170000EF92FF920F931F93CF93DF9300D000D0FF
:10171000CDB7DEB77B018C010E94802F69837A836D
:101720008B839C832091330284E0289F90011124B5
:10173000B901605C7E4F44E050E0CE0101960E940A
:1017400057302091330230E02F5F3F4F277033270F
:1017500020933302E0924102F0924202009343024E
:10176000109344020F900F900F900F90DF91CF9144
:101770001F910F91FF90EF900895CF92DF92EF921B
:10178000FF920F931F93CF93DF93CDB7DEB7EF9701
:101790000FB6F894DEBF0FBECDBF7C01162F0091AF
:1017A0000A01011126C0809109018115C9F10E9429
:1017B000D00728E0129FC001112485549F4F64E692
:1017C00070E00E94C92F20910B0130910C01261767
:1017D000370700F580912603909127030196909397
:1017E00027038093260380E49EE00E94070A0E945C
:1017F000FA0800E0802FEF960FB6F894DEBF0FBE18
:10180000CDBFDF91CF911F910F91FF90EF90DF90AF
:10181000CF900895261B370B30930C0120930B01BA
:101820008FEF810F8D3308F087C01983412F50E06F
:10183000B701CE0102960E942C302B818A8196E757
:1018400089278A8392E0AE014F5F5F4F7A01F701EB
:10185000E90FF11D30814981941708F445C0822FAA
:10186000832780830E94B5090E94E3088FE70E94C6
:10187000DD086701F60181916F010E94DD088C2D62
:101880008E191817B8F7289A85E30E94AB09E12C46
:10189000F12C9CE2C92EDD24D3940E94F5088331FB
:1018A00041F59AE0910F80E0EFECF7E03197F1F726
:1018B00000C000008F5F8917B8F384EFE82EFF2483
:1018C000F3948AE30E94E7088F7781112CC00E946D
:1018D000F5088D3019F084E30E94AB0984EB90E0A9
:1018E0000E945508012F28C08452832780839F5F60
:1018F000AECF87EC90E00197F1F700C00000C70180
:10190000B6010E94C92F8B32914019F485E30E94E1
:10191000AB09FFEFEF1AFF0A28EBE2162BE0F20605
:1019200009F0BBCFBECF0E94F508863161F50E9459
:10193000B50984E30E94AB096091F8027091F90245
:101940008091FA029091FB02C0904102D090420235
:10195000E0904302F09044026C157D058E059F05D2
:1019600078F09B01AC012C193D094E095F09690112
:101970007A01C11434E0D306E104F10408F43ACF4B
:101980000E94800B37CF8FEC97E00197F1F700C0F2
:10199000000091E0E91AF10809F093CFC8CFCF9386
:1019A000DF93CDB7DEB7EE970FB6F894DEBF0FBE6C
:1019B000CDBF4EE3BE016F5F7F4F0E949108823022
:1019C00020F069818150681729F086E19DE00E942E
:1019D000070A16C080910A01811519F08AEF9CE070
:1019E000F6CFCE0102960E94BD0B811591F0809139
:1019F000F5019091F60101969093F6018093F5011F
:101A0000EE960FB6F894DEBF0FBECDBFDF91CF913B
:101A100008958091F7019091F80101969093F80153
:101A20008093F70181EF9CE0D2CF8F929F92AF928B
:101A3000BF92CF92DF92EF92FF920F931F93CF93BB
:101A4000DF93CDB7DEB7C054D1090FB6F894DEBF2F
:101A50000FBECDBF6C01CE0101967C015E0191E409
:101A6000A90EB11C470108E010E084E30E94E708DA
:101A7000110F8170182BEFEEF0E03197F1F700C0F5
:101A800000000A9591F780918400909185001827B5
:101A9000F70111937F01EA15FB0529F760E470E077
:101AA000C4010E947328892B51F4A60160E470E000
:101AB000C4010E94352801E0892B09F000E0802F45
:101AC000C05CDF4F0FB6F894DEBF0FBECDBFDF9115
:101AD000CF911F910F91FF90EF90DF90CF90BF902B
:101AE000AF909F908F9008950F931F93CF93DF93A4
:101AF0000F92CDB7DEB701E00983809132028111E8
:101B00002BC082E292E00E94150D182F811109C0AE
:101B10000E94150A812F0F90DF91CF911F910F9195
:101B2000089540E150E060E671E082E292E00E94B8
:101B3000573041E050E060E771E0CE0101960E942D
:101B4000573000933202198241E050E065E371E0C2
:101B5000CE0101960E94573011E0DCCF4F925F9288
:101B60006F927F928F929F92AF92BF92CF92DF92AD
:101B7000EF92FF920F931F93CF93DF93CDB7DEB712
:101B8000C05DD1090FB6F894DEBF0FBECDBF3C01DA
:101B9000CE018F549F4F20E1E2E2F2E0DC010190A0
:101BA0000D922A95E1F700E010E07C019CE0A92E5F
:101BB000B12CA80183E0569547958A95E1F7470136
:101BC0009E012F533F4FC12CD12C2901C8018C0DF0
:101BD0009D1DFC01EF70FF27EC51F24FE491D40101
:101BE000FD914D01B5010E94C92FDC01AA5EBD4FD8
:101BF000E427EF278C918E27F90181939F01FFEF56
:101C0000CF1ADF0A80E1C816D10401F7B701CE016F
:101C100001960E947922A701B201CE0101960E948D
:101C2000D9220F5F1F4F0532A1E01A0711F680E19C
:101C3000F701D30101900D928A95E1F7C053DF4F70
:101C40000FB6F894DEBF0FBECDBFDF91CF911F91CD
:101C50000F91FF90EF90DF90CF90BF90AF909F904B
:101C60008F907F906F905F904F900895EF92FF92CA
:101C70000F931F93CF93DF93CDB7DEB7C05ED1092B
:101C80000FB6F894DEBF0FBECDBF8C01E4EDFDE0D2
:101C9000DE01AF54BF4FCD014096AD0124912D938D
:101CA0003196A817B907D1F7DE01AF53BF4F27E030
:101CB00030E07D0189EF820F6CE00E94BD2FE92F9B
:101CC000F0E0EA5EFD4FB9016F707727640F751F72
:101CD0008081FB01908189278D932F5F3F4F2731B2
:101CE000310541F7BA01CE0101960E947922AE0179
:101CF0004F525F4FB701CE0101960E94D922F801E1
:101D0000BE016F527F4F9801205F3F4F8191DB01F1
:101D10009D91BD01AF01415051098927DA018C9392
:101D2000E217F30799F7C052DF4F0FB6F894DEBF02
:101D30000FBECDBFDF91CF911F910F91FF90EF901C
:101D40000895CF92DF92FF920F931F93CF93DF936B
:101D5000CDB7DEB7C15ED1090FB6F894DEBF0FBEB6
:101D6000CDBFF82E192F6E018EEDC80ED11C84E068
:101D7000F60111928A95E9F70E94740D811579F1A7
:101D8000CE018F549F4F0E94AE0DAE014F525F4F58
:101D9000B60186E192E00E948E26BE016F547F4F0D
:101DA000CE0101960E94792200E19E012F533F4F00
:101DB0004F2D512FBE016F527F4FCE0101960E94D1
:101DC000E524CE018F539F4F0E94360E40E150E034
:101DD0006EE171E0CE018F539F4F0E945730CF517B
:101DE000DF4F0FB6F894DEBF0FBECDBFDF91CF91AE
:101DF0001F910F91FF90DF90CF900895CF92DF92C7
:101E0000EF92FF920F931F93CF93DF93CDB7DEB77F
:101E1000C25ED1090FB6F894DEBF0FBECDBF7C0104
:101E2000CE51DF4F1882C25ED0406E018EEDC80EDB
:101E3000D11C84E0F60111928A95E9F741E050E067
:101E400065E371E0CE018E519F4F0E9447301091A3
:101E500015021115D1F1109132021115B1F1CE51C7
:101E6000DF4F1881C25ED040113009F03FC040E121
:101E700050E06EE171E0CE018F539F4F0E944730DA
:101E8000CE018F539F4F0E94360ECE018F549F4F2D
:101E90000E94AE0DAE014F525F4FB60186E192E057
:101EA0000E948E26BE016F547F4FCE0101960E9484
:101EB000792200E19701AE014F535F4FBE016F528F
:101EC0007F4FCE0101960E94E524812FCE51DF4F36
:101ED0000FB6F894DEBF0FBECDBFDF91CF911F913B
:101EE0000F91FF90EF90DF90CF90089510E0EDCF2D
:101EF000AF92BF92CF92DF92EF92FF920F931F9318
:101F0000CF93DF93CDB7DEB7C453D1400FB6F8946B
:101F1000DEBF0FBECDBF7E018EECE81A8EEFF80A51
:101F200080910D0190910E01A0910F01F701808326
:101F30009183A2836E01F1EFCF0ED11CD60180E117
:101F40008D938CE0E6E1F2E001900D928A95E1F745
:101F5000F601158681E086871786108A818B8AEEC6
:101F6000828B82E0838B98E1948B858B80E4868BD7
:101F700083E0878B8091110290911202A09113024D
:101F8000B0911402808F918FA28FB38FAE014F5DFD
:101F90005E4F61E172E086E192E00E948E2661E090
:101FA00072E0CE0101960E9479228E01025D1E4FE1
:101FB0002CE1A601BE016F5D7E4FCE0101960E940D
:101FC0003424C25DDE4F8881CE52D140F601848F29
:101FD000C15DDE4F8881CF52D140858FC05DDE4F1D
:101FE0008881C053D140868FCF5CDE4F8881C1533A
:101FF000D140878FE9EFF1E0D601909681E092E041
:10200000B701760121912D938E179F07D9F7CE0145
:102010008F549F4F5C0188E2C82E00E010E020E062
:1020200041E085E492E00E94082D682F811571F04F
:10203000C5010E94BD0B811549F08091F501909179
:10204000F60101969093F6018093F501CC5CDE4F8A
:102050000FB6F894DEBF0FBECDBFDF91CF911F91B9
:102060000F91FF90EF90DF90CF90BF90AF900895C9
:10207000CF93DF93CDB7DEB760970FB6F894DEBF8E
:102080000FBECDBF8091150281110CC084EB9DE085
:1020900060960FB6F894DEBF0FBECDBFDF91CF9133
:1020A0000C94070A80910A01811519F085E99DE0D9
:1020B000EFCFCE0101960E94150D811591F0898117
:1020C000809311028A81809312028B818093130284
:1020D0008C8180931402CE0101960E94150D81110E
:1020E0000BC00E94150A60960FB6F894DEBF0FBEB3
:1020F000CDBFDF91CF91089588E0FE013196A9EF21
:10210000B1E001900D928A95E1F721E030E04FE1D6
:1021100052E060E070E085E492E00E94CB2981E02B
:102120008093E80180933C020E94C407DC01CB014C
:10213000805A9541AF4FBF4F8093E4019093E501E2
:10214000A093E601B093E7010E94C407DC01CB0134
:10215000805C904EAF4FBF4F8093E0019093E101C0
:10216000A093E201B093E30188E59DE00E94070A95
:102170000E94780FB8CF0F931F93CF93DF93CDB703
:10218000DEB7C054D1090FB6F894DEBF0FBECDBF85
:10219000AC01262F8E010F5F1F4F64E372E085E4D0
:1021A00092E00E94C62D682F811571F0C8010E942F
:1021B000BD0B811549F08091F5019091F6010196D2
:1021C0009093F6018093F501C05CDF4F0FB6F89451
:1021D000DEBF0FBECDBFDF91CF911F910F9108954C
:1021E000CF93DF93CDB7DEB760970FB6F894DEBF1D
:1021F0000FBECDBF85E889838091080191E0980FDB
:10220000909308018A8382E08B8390E89C8398E016
:102210009D838E831F8283E0888780913B0281119A
:1022200088EC898784E08A871B8685E08C871D86F9
:102230006DE0CE0101960E94BB1060960FB6F89437
:10224000DEBF0FBECDBFDF91CF910895CF93C62FD4
:1022500080933B020E94300885E39EE00E94070ABB
:1022600080913B028115C1F081E30E94D6090E9452
:10227000C40AC11599F080910303811579F080910A
:10228000340290913502892B90913602892B811569
:1022900029F0CF910C94F01080E3E7CFCF9108950F
:1022A0001F921FB61F9211248F939F93AF93BF93DA
:1022B00080913D0290913E02A0913F02B091400278
:1022C0000196A11DB11D80933D0290933E02A09303
:1022D0003F02B0934002BF91AF919F918F911F90A9
:1022E0001FBE1F901895CDB7DEB7C350D2400FB6B2
:1022F000F894DEBF0FBECDBF84B7877F84BF0FB613
:10230000F894A89580916000886180936000109295
:1023100060000FBE80E820E030E00FB6F8948093B4
:102320006100209361000FBE0E9448098091D8008F
:1023300080618093D80081E08093DD01789484B13E
:10234000876084B92398209A289A80E58CBD1DBCAB
:10235000539852986E9A289A20E52A95F1F7289872
:1023600040E54A95F1F7289A58E75A95F1F780E346
:102370000E94AB098FE19EE40197F1F700C00000D5
:10238000F12C2F2D30E0C90186529F4FFC01449162
:102390004F3F09F0CAC10E94E3088EE30E94DD08A6
:1023A00083EC0E94DD08289A83E30E94AB098FE347
:1023B0009FE10197F1F700C000000E94D1096A98DF
:1023C000109280008BE0809381008CE790E09093E6
:1023D00089008093880082E080936F00789442E0C7
:1023E00050E060E071E0DE0111964D01CD010E94E8
:1023F000473089819A818133914509F0A8C14CE029
:1024000050E062E071E086E192E00E94473040E1F6
:1024100050E06EE071E081E092E00E94473081E0A0
:1024200080931502198241E050E060E771E0C40139
:102430000E9447301981113009F08BC140E150E012
:1024400060E671E082E292E00E944730109332022F
:102450003E01E1EB6E0E711C83E0D3011D928A9563
:10246000E9F720E030E0A30160E070E085E492E06D
:102470000E94CB2900E411E0C12CD12C7601B12CB3
:1024800044E050E0B801C4010E94473029803A80FE
:102490004B805C80C201B1010E94802F462F572FD4
:1024A000BC01B394252024202320209459F0C41685
:1024B000D506E606F70630F48B2D8770809333023D
:1024C0006A017B010C5F1F4FE8E0BE12D9CFC11437
:1024D000D104E104F104A9F444E050E061E371E0C7
:1024E000C4010E94473069817A818B819C816F3F52
:1024F000FFEF7F078F079F0721F00E94802F6B015E
:102500007C01B701A6015C5F6F4F7F4F85E492E0CD
:102510000E94232A6091F8027091F9028091FA02D8
:102520009091FB020E94800BC4010E94FE0E811557
:1025300029F0B40185E492E00E94082A82EE9CE032
:102540000E94070A0E94C40AD12C1E012EE8221AFA
:102550002EEF320AAE014B5C5E4F4E5D5F4FC450B2
:10256000DE4F59834883CC5FD140CE018B5C9E4FB8
:102570008596C050DE4F99838883C050D240DE01DB
:102580005196C650DE4FB983A883CA5FD140CE5F53
:10259000DD4F6882C250D240CD5FDD4F7882C3509C
:1025A000D2404A99D8C00E94F508813111F40E94A6
:1025B000D10980913C02811509F450C30E94300872
:1025C0008CB1847090917801911167C3811519F0D5
:1025D00081E08093780180913C028115E9F00E94AE
:1025E000C407462F572FBC018091E4019091E5016B
:1025F000A091E601B091E701481759076A077B07E8
:1026000008F4ACC310923C020E9430088CEA91E0BE
:102610000E94070A0E94C40A10917D01111509F455
:102620005EC00E94C4072091790130917A014091E7
:102630007B0150917C01621773078407950708F4AA
:102640004EC00E94C407DC01CB0180559B4FAF4FA9
:10265000BF4F8093790190937A01A0937B01B0934F
:102660007C01123009F497C3133009F4B4C311305C
:1026700061F580E3CB5CDE4F8883C553D1405401C4
:10268000CC24C394FE01EB5CFE4F7F0100E010E020
:1026900021E041E064E372E085E492E00E94082DCD
:1026A000682F811571F0C4010E94BD0B811549F09E
:1026B0008091F5019091F60101969093F601809337
:1026C000F50181E192E00E94070A0E94FA088091D8
:1026D0007D018F5F843008F083C380937D018091FA
:1026E0008901811509F4CAC31091E900177010928D
:1026F000E9008091E80083FFBFC381E891E0FC011D
:1027000001962091F100208351E089389507B9F7AF
:1027100080918101909182019A3008F09DC5E92F46
:10272000F0E0E558FF4C0C94FF2FF901E552FF4F04
:102730001491FC0104910E94E308802F0E94DD089F
:10274000812F0E94DD08289AF394F3941ACE80E03A
:1027500067CE10E07BCE0E94E3088FEB0E94DD087D
:1027600080E00E94DD08289AE82EE894E7F88FEFD1
:102770008E0D8D3308F01BCFE9820E94E3088FEFA6
:102780000E94DD088E010E5F1F4FFF24F394580155
:1027900080E00E94DD08F80181938F01F394EF142B
:1027A000B8F780E00E94DD08F82E80E00E94DD0886
:1027B000C82E289A8A8196E798279A8392E0F40196
:1027C000E90FF11D20813981931708F47EC18B81B7
:1027D000822780834E2D50E0B501C1010E942C302C
:1027E000B22CA32CF7FE77C1F394F594F6EBFF0E11
:1027F0000E94D1099091E8018091DF012091DE01D2
:10280000822B81116CC1911509F4D3CE8091E9011D
:102810009091EA0101969093EA018093E9018E017B
:1028200001551E4F9E012B5C3E4F4E2D6B2D7A2D78
:1028300085E492E00E94342A892B09F055C18091E9
:10284000EB019091EC0101969093EC018093EB01E8
:10285000C553DE4F8881CB5CD140897101E0811185
:1028600001C000E011E05090DE018091DF01852978
:10287000811509F443C188E290E00E9455081115C2
:1028800011F40C94A021511439F02F2D4B2D5A2DF9
:102890006E2D80E50E94CC0A011511F40C94712173
:1028A00088E290E00E945508C553DE4F8881CB5CDA
:1028B000D14087FF0AC02091EF013091F0012F5FD6
:1028C0003F4F3093F0012093EF018970893059F523
:1028D000CA53DE4F8881C65CD140811124C0CD53DC
:1028E000DE4F88819981C35CD1400597E0F0CB5CD5
:1028F000DE4F8881C553D1408638A9F4C95CDE4FCC
:102900008881C753D140823071F481E0C75CDE4FCB
:102910009881C953D140911101C080E060E00E94CC
:1029200026110E94F01080913C02811509F478C0B4
:10293000CD53DE4F8881C35CD1408D3208F470C026
:10294000CB5CDE4F8881C553D140803209F068C02E
:102950008CE0E6E1F2E0D40101900D928A95E1F776
:1029600080E1E1E0F2E0DE011D9601900D928A9592
:10297000E1F78091110290911202A0911302B0919F
:1029800014028D8F9E8FAF8FB8A388E0E9EFF1E03E
:10299000DE01919601900D928A95E1F7C95CDE4FB8
:1029A00088819981AA81BB81C753D14089A79AA701
:1029B000ABA7BCA788E0FE01EB5CFE4F3A96DE01B8
:1029C0009D9601900D928A95E1F780E1FE01EB5C06
:1029D000FE4F7296DE01D59601900D928A95E1F731
:1029E000C25ADE4F88819981AA81BB81CE55D140E0
:1029F00029968CAF9DAFAEAFBFAF2997BE01635391
:102A00007E4FC4010E94032781117BC010923C02BB
:102A10000E9430088EE891E00E94070A0E94C40AD2
:102A200080910701811509F40DC1C553DE4F8881DE
:102A3000CB5CD14081FF06C1AE0143535E4FBE0166
:102A400061557E4F85E492E00E94692C873109F040
:102A5000F9C067E1CE0183539E4F0E94BD0B8115E3
:102A600009F4E7C08091F1019091F20101969093F1
:102A7000F2018093F101EE24E3948091DC01811551
:102A800011F18401CD53DE4F2881C35CD140AE01EA
:102A90004B5C5E4FBE0161557E4F85E492E00E9423
:102AA0004F2D682F811579F0C4010E94BD0B81154F
:102AB00009F4CAC08091F3019091F40101969093BA
:102AC000F4018093F3010E2DA9C0845282278083E4
:102AD0009F5F822F74CEF59426EFF20E89CE91116E
:102AE00095CE00E010E0BFCE8091ED019091EE0117
:102AF00001969093EE018093ED01F3CF1111D0CEAA
:102B000058CDBE0163537E4F85E492E00E94082AAF
:102B1000C450DE4F68817981CC5FD14085E492E07A
:102B20000E94142AC65ADE4F688179818A819B816E
:102B3000CA55D1400E94802FAB01BC0185E492E0D0
:102B40000E94232ACE0183539E4F0E94A10E43E090
:102B500050E06EE271E0C450DE4F88819981CC5F15
:102B6000D1400E94573044E050E061E371E0C05032
:102B7000DE4F88819981C050D2400E94573011E0C9
:102B8000CC51DE4F1883C45ED14041E050E065E394
:102B900071E0CE018C519E4F0E94573010923C0242
:102BA0000E943008CE54DE4F88819981AA81C25B91
:102BB000D1408093340290933502A093360243E0D3
:102BC00050E066E371E084E392E00E945730109396
:102BD000080110937D010E94C407DC01CB018055E0
:102BE0009B4FAF4FBF4F8093790190937A01A09391
:102BF0007B01B0937C018BE791E00E94070AC450EF
:102C0000DE4F88819981CC5FD1400E942E0A0E94BC
:102C1000C40A89E391E00E94070A00E02C2D4F2DA1
:102C2000BE0161557E4FCE018B5C9E4F0E94F30A20
:102C3000C0CC8091F7019091F80101969093F80132
:102C40008093F701E12C19CF8091F7019091F80161
:102C500001969093F8018093F70135CFE090370209
:102C6000F09038020091390210913A02E114F10417
:102C70000105110509F4A4CC0E94C4076E157F0557
:102C80008007910708F49CCC10923702109238020A
:102C90001092390210923A0291CC811130C0E0902A
:102CA0007401F09075010091760110917701E114A3
:102CB000F1040105110559F40E94C40760937401E1
:102CC00070937501809376019093770184CC809105
:102CD0007301811180CC0E94C4076E197F09800B9B
:102CE000910B6F3171058105910508F474CC81E079
:102CF0008093730184EB90E00E9455086CCC809126
:102D000073018115B9F00E94C407009174011091FC
:102D100075012091760130917701601B710B820B58
:102D2000930B613D77408105910578F00E94381042
:102D30000E94FA08109273011092740110927501AA
:102D4000109276011092770146CC81E090913B027F
:102D5000911180E061E00E942611EACF8091E001AC
:102D60009091E101A091E201B091E3014817590768
:102D70006A077B0708F450CC405C504E6F4F7F4F82
:102D80004093E0015093E1016093E2017093E3010D
:102D90000E94780F41CC85E889838091080191E0F9
:102DA000980F909308018A83E7ECF1E0DE01139617
:102DB00084918D933196C650DE4F48815981CA5F08
:102DC000D1404A175B07A1F760E1C4010E94BB1024
:102DD0008CEF91E078CC0E94F01085EE91E073CCFE
:102DE00010927D0185ED91E00E94070A0E94FA0889
:102DF00076CC803871F0823889F580918501809396
:102E0000E9008091EB0085FB882780F91092E900AA
:102E100006C080917F01880F90917E01892B90914F
:102E2000E800977F9093E8008093F1001092F10002
:102E30008091E800982F9E7F9093E8008F77809391
:102E4000E8008091E80082FF05C08091E800982F9B
:102E50009B7F68C0809189018111F3CF8091E80048
:102E600083FF0AC08091EB0080628093EB00809129
:102E7000E800877F8093E8001093E9000E94FA0839
:102E8000E091CB018091CA01E81708F092C281E07D
:102E90008E0F8093CB01F0E0E657FE4F808190E0EB
:102EA0008D30910529F08A30910511F00C94612143
:102EB000F301ED0DF11D1082D11491F0F301808129
:102EC000813409F0BCC28181811509F4E6C28337DF
:102ED00009F0A4C2C30102960E94CF0C0E94FA0816
:102EE000D12C5FCB81110CC080918301813009F01E
:102EF000B5CF81E0933009F080E080937F0107C077
:102F0000823009F0ABCF80918301811589F0109256
:102F1000E9008091E800877F8093E8008091E800D5
:102F2000982F9E7F9093E8008F778093E80096CF4C
:102F3000809185018770811509F490CF8093E90015
:102F40002091EB0020FFE3CF9130B9F49091EB009A
:102F500090619093EB0021E030E0D90102C0AA0F0C
:102F6000BB1F8A95E2F7A093EA001092EA008091D5
:102F7000EB0088608093EB00CACF8091EB00806209
:102F8000F9CF81116BCF809183019091E800977FF9
:102F90009093E8009091E800292F2E7F2093E8007D
:102FA0009F779093E8009091E80090FF0CC0982FD5
:102FB00090689093E3008F77811509F44FCF83E0F9
:102FC000809389014BCF909189019111ECCF46CF2D
:102FD0008058823008F042CF809183019091840123
:102FE0008C3DB3E09B0709F071C08AE2898383E0DE
:102FF0008A83DE01139620E03EE041E2E32FF0E019
:1030000040935700E49120FF03C0E295EF703F5FCB
:10301000EF7080E38E0F8A3310F087E38E0F90E01D
:103020008D939D932F5F243149F78091E800877F2E
:103030008093E80080918701909188018B329105FF
:1030400010F08AE290E030E0A401009759F43111C9
:1030500009C08091E80082FDF8CE8091890181113C
:10306000F8CFF3CE2091E80023FDEFCE2091E800C9
:1030700022FDEFCF20918901211509F4E6CE2091A0
:10308000E80020FFE2CF009739F02091F200309164
:10309000F3002830310598F06091F2007091F30050
:1030A00031E06830710509F030E02091E800622FCE
:1030B0006E7F6093E8002F772093E800C6CFFA0177
:1030C00021912093F1000197AF01DDCF292F332704
:1030D00022303105D1F12330310549F0213031055D
:1030E00009F0BCCEEAE6F2E082E190E012C0FC0119
:1030F000FF27833008F0B2CEEE0FFF1FE05FFE4FD8
:103100000190F081E02D2491822F90E0211509F4A7
:10311000A5CE2091E800277F2093E8002091870129
:10312000309188018217930708F49C0190E02115E3
:10313000310581F491110EC08091E80082FD85CEA9
:10314000809189018111F8CF80CEECE2F2E08EE32C
:1031500090E0DFCF8091E80083FD77CE8091E8009A
:1031600082FDEACF80918901811509F46ECE8091AC
:10317000E80080FFDCCF2115310531F08091F200AD
:103180009091F300089798F04091F2005091F3006D
:1031900091E04830510509F090E08091E800482F17
:1031A0004E7F4093E8008F778093E800C0CF8491F2
:1031B0008093F100215031093196DDCF803809F03C
:1031C0004DCE8091E800877F8093E8008091800158
:1031D0008093F1008091E800982F9E7F9093E80003
:1031E0008F778093E8008091E80082FD2ECE809159
:1031F00089018111F8CF32CE811130CE90918301B7
:10320000923008F02BCE8091E800877F8093E80011
:10321000909380018091E800982F9E7F9093E80022
:103220008F778093E80080918001811599F084E088
:103230008093890142E361E883E00E949B0942E3B5
:1032400060E884E00E949B0942E061EC82E00E9419
:103250009B0904CE83E0ECCF913209F451C0923245
:1032600009F4A0C0903209F0F9CD813209F0F6CD11
:103270008091E800877F8093E8008091E80082FFDA
:103280008CC08091F10090E0A0E0B0E0809300015C
:1032900090930101A0930201B09303012091F100EA
:1032A000922B8093000190930101A0930201B093AF
:1032B00003012091F100A22B809300019093010162
:1032C000A0930201B09303012091F100B22B8093EF
:1032D000000190930101A0930201B093030180913A
:1032E000F100809304018091F100809305018091A9
:1032F000F100809306018091E800982F9B7F45C0E4
:10330000813A09F0ABCD8091E800877F8093E80097
:10331000809100018093F100809100019091010162
:10332000A0910201B0910301892F9A2FAB2FBB27E7
:103330008093F1008091000190910101A091020120
:10334000B0910301CD01AA27BB278093F1008091A2
:10335000000190910101A0910201B09103018B2F16
:103360009927AA27BB278093F100809104018093BD
:10337000F100809105018093F10080910601809316
:10338000F1008091E800982F9E7F9093E8008F775E
:103390008093E8000E94240961CD80918901811108
:1033A0006CCF5CCD813209F059CD8091E800877FE8
:1033B000EFCF1092CB011092CA0180918901843025
:1033C00009F0EFC88093E9008091E80082FFE9C826
:1033D0008091F2009091F300892B21F0E091CA01D5
:1033E000E03488F08091E800982F9B7F9093E8006C
:1033F0008F778093E8008091CA01811509F4D1C8C4
:10340000E091CB0144CD81E08E0F8093CA01809181
:10341000F100F0E0E657FE4F8083DACF823741F4C7
:1034200081E08093DF018AED9CE00E94070A56CD7F
:10343000883799F51092DF0182ED9CE0F6CFCE5FE0
:10344000DD4F0881C250D240CD5FDD4F1881C3509F
:10345000D2408035C1F481818115F9F0833709F4B8
:1034600039CD823731F481E08093DE018AEC9CE033
:10347000DCCF83010F5F1F4F883729F41092DE01E4
:1034800082EC9CE0D2CF833409F4F9C64CF4811568
:1034900009F424CD823409F4A4C688E99CE0C5CFA0
:1034A000863509F49BC68D36C1F7F801F180F9E441
:1034B000FF1207C08CE792E00E94070A0E94FA08F8
:1034C0000DCDF11461F0E1ECEF0DE53308F083C6AA
:1034D0000E2E000CFF0BEB57FF4C0C94FF2F80912E
:1034E000F5029091F602A091F70289839A83AB834B
:1034F0008DE498E00E94070A8091E801811509F4A3
:1035000002C189E498E00E94070A8DE398E00E94D6
:10351000070A80910003813009F0F8C086E398E043
:103520000E94070A86E298E00E94070AC4010E94EE
:103530002E0A80E298E00E94070A80910303811519
:1035400009F4E7C081E30E94D6098BE198E00E946C
:10355000070A6091F8027091F9028091FA02909145
:10356000FB020E943C0A85E198E00E94070A8091D4
:103570000701811509F4CFC081E30E94D6098BE0D1
:1035800098E00E94070A80910403811509F4C5C0E0
:1035900081E30E94D60982E098E00E94070A8091A8
:1035A000DC01811509F4BBC081E30E94D60987EFD5
:1035B00097E00E94070A80910A01811509F4B1C0C1
:1035C00081E30E94D6098EEE97E00E94070A80915F
:1035D0003B02811509F4A7C081E30E94D6090E942D
:1035E000C40A0E94D00783EE97E00E94070A8091E8
:1035F0000901811509F499C081E30E94D6098AED79
:1036000097E00E94070A60910B0170910C0180E025
:1036100090E00E94500A8FE20E94D60964E873E0AD
:1036200080E090E00E94500A83ED97E00E94070A34
:10363000609126037091270380E090E00E94500A79
:103640000E94C40A8CEC97E00E94070A6091E9018D
:103650007091EA0180E090E00E94500A87EC97E0C8
:103660000E94070A6091EB017091EC0180E090E00C
:103670000E94500A81EC97E00E94070A6091ED01D8
:103680007091EE0180E090E00E94500A8BEB97E091
:103690000E94070A6091EF017091F00180E090E0D4
:1036A0000E94500A84EB97E00E94070A6091F101A2
:1036B0007091F20180E090E00E94500A8EEA97E05B
:1036C0000E94070A6091F3017091F40180E090E09C
:1036D0000E94500A89EA97E00E94070A6091F5016A
:1036E0007091F60180E090E00E94500A81EA97E034
:1036F0000E94070A6091F7017091F80180E090E064
:103700000E94500A98C085E498E0FDCE8DE298E0D2
:1037100007CF80E318CF80E330CF80E33ACF80E358
:1037200044CF80E34ECF80E358CF80E366CF61E0A3
:1037300070E024E4F21611F060E070E085E492E0BD
:103740000E941E2A80E89CE00E94070AD801119678
:103750008C91843489F589E79CE00E94070A0E94D5
:10376000C40AF8018181843409F4B8CBCB5CDE4F04
:103770001882C553D14041E050E065E371E0CE01CD
:103780008B5C9E4F0E944730CB5CDE4F8881C553D7
:10379000D140813009F4A2CB80911502811509F442
:1037A0009DCB8E010F5F1F4FC8010E94150D811127
:1037B00006C00E94150A92CB80E79CE0CECFB801EC
:1037C00085E492E00E94082AC8010E94A10E81E0CF
:1037D000CB5CDE4F8883C553D14041E050E065E3C8
:1037E00071E0CE018B5C9E4F0E94573080E1D80182
:1037F0001D928A95E9F781E598E017CE43E0BE0176
:103800006B5C7E4FC80102960E949108833019F0CC
:1038100082E69CE00ACEBE016B5C7E4F85E492E0BE
:103820000E94142A89E59CE00E94070ACE018B5C65
:103830009E4F0E942E0A0E94C40A50CBF80182813A
:10384000883559F4198241E050E065E371E0C40124
:103850000E94573089E19CE0E8CD8FED9BE0E5CDFB
:1038600044E0BE016B5C7E4FC80102960E94910845
:10387000843019F083ED9BE0D8CDCB5CDE4F6881BE
:1038800079818A819B81C553D1400E94802FAB01F1
:10389000BC0185E492E00E94232A8CEC9BE00E940C
:1038A000070A6091F8027091F9028091FA029091F2
:1038B000FB020E943C0ABFCFD80112968C918E3435
:1038C00009F09CC084EB9BE00E94070A0E94FA0862
:1038D0000E94740D811509F475C0C4010E94C908C5
:1038E000811509F468C0F4019E01255F3F4F85EC06
:1038F0009DE9ACE1B1E8AC01BD0115E0440F551FF5
:10390000661F771F1A95D1F70BE1B695A795979586
:1039100087950A95D1F7842B952BA62BB72B419130
:103920008427E217F30739F7AF73BB276C017D01DA
:1039300081E092E00E94150D811509F441C006E175
:1039400012E0A70196016BEE70E080E090E00E942B
:10395000DE2D81E391E5CB5CDE4F99838883C553EF
:10396000D1404CE050E062E071E0C8010E94573065
:1039700040E150E06EE071E081E092E00E9457305B
:1039800042E050E060E071E0CE018B5C9E4F0E940F
:10399000573081E080931502CB5CDE4F1882C5530F
:1039A000D14041E050E065E371E0CE018B5C9E4F79
:1039B0000E94573007C0C4010E94150D811109C033
:1039C0000E94150A809115028111EEC08EED99E0DA
:1039D0002CCD29818A8190E0A0E0B0E0BA2FA92FF8
:1039E000982F8827A22B2B81822BAF73BB276C01CA
:1039F0007D0181E798E00E94070A9ACF803519F48B
:103A00000E9438106BCA8B34E9F6C750DE4F18821B
:103A1000C95FD14041E050E065E371E0CE018750DD
:103A20009E4F0E94473080911502811539F0C75092
:103A3000DE4F8881C95FD140813019F08EE099E076
:103A4000F4CC8CEF98E00E94070A0E94FA08CE019D
:103A50008B5C9E4F0E94150D811509F4AACECB5C9C
:103A6000DE4F8881C553D140CF50DE4F8883C15F80
:103A7000D140CA5CDE4F8881C653D140CE50DE4F64
:103A80008883C25FD140C95CDE4F8881C753D14073
:103A9000CD50DE4F8883C35FD140C85CDE4F888144
:103AA000C853D140CC50DE4F8883C45FD1407E01E3
:103AB00023E3E21A2EEFF20AC7010E94FE0E8111E3
:103AC00003C08FED98E0B1CC6E014EE8C41A4EEF02
:103AD000D40AC6010E94AE0DAE014C515E4FBE012C
:103AE0006F507E4F86E192E00E948E26B601CE0195
:103AF00001960E9479225E0151E5A51A5EEFB50A92
:103B000000E19501A701BE016C517E4FCE010196E7
:103B10000E94E5242E018BE0481A8EEF580A82019C
:103B200020E1A701BE016C517E4FCE0101960E949B
:103B30003B2680E1D701E82F1D92EA95E9F7D601EF
:103B40001D928A95E9F783ED98E00E94070A0450D8
:103B50001109F80134967F016201D8018D918D0120
:103B60000E94190AE016F106C1F785017501B0E15E
:103B7000EB0EF11CF80181918F010E94190AE016E9
:103B8000F106C1F786017601F4E0EF0EF11CD801D1
:103B90008D918D010E94190A0E151F05C1F70E9413
:103BA000C40A88EA98E041CC84ED99E00E94070AB3
:103BB00006E112E0F80181918F010E94190AF2E0FA
:103BC00002321F07B9F70E94C40AAE014B5C5E4F78
:103BD0007A018E0103531E4F9E012C513E4F435CD0
:103BE0005F4FBE0161557E4F86E192E00E947A2EC2
:103BF0008FEB99E00E94070ACC51DE4F8881C45EAA
:103C0000D1400E94190A86EB99E00E94070AC2532C
:103C1000DE4F8881CE5CD1400E94190AC353DE4F2B
:103C20008881CD5CD1400E94190A89EA99E00E94FE
:103C3000070ACE58DE4F88819981AA81BB81C2577D
:103C4000D140BC01CD0161507F4F8F4F9F4F0E94EB
:103C5000500A0E94C40A88E999E00E94070ACE012E
:103C600001960E94C908811521F10C5C11405AE2AD
:103C7000E51A51E0F50AD8018D918D010E94190ACB
:103C8000E016F106C1F70E94C40A88E899E00E9494
:103C9000070A01E012E0F80181918F010E94190AE0
:103CA000F2E001311F07B9F70E94C40A83E499E0EA
:103CB000BCCB80E999E00E94070AE5CFD8011296B3
:103CC0008C91803329F461E080E00E94261106C9BE
:103CD000813319F461E081E0F8CF843539F481E073
:103CE00090913B02911180E061E0EFCF89EA9BE087
:103CF0000E94070A80913B02811521F081E30E9416
:103D0000D60999CD80E3FBCFB5B1C250DE4FB88361
:103D1000CE5FD140E8B1C150DE4FE883CF5FD140E4
:103D20004BB05EB0A1B284B195B18095892B85B9B5
:103D300087B198B18095892B88B98AB19BB180955C
:103D4000892B8BB98DB19EB18095892B8EB980B3AB
:103D500091B38095892B81BB8FE097E20197F1F7B2
:103D600000C0000013B106B1F9B0ECB0BFB08EE9ED
:103D70009BE00E94070A812F0E94190A8AE99BE0B2
:103D80000E94070A802F0E94190A86E99BE00E9480
:103D9000070A8F2D0E94190A82E99BE00E94070AF8
:103DA0008E2D0E94190A8EE89BE00E94070A8B2D37
:103DB0000E94190A8DE69BE00E94070A0E94FA08F9
:103DC00050E9C52EDD24D3949FE7A8E3B1E09150DC
:103DD000A040B040E1F700C0000083B181130CC0E7
:103DE00086B1801309C089B18F1106C08CB18E11C4
:103DF00003C08FB18B1589F182E69BE00E94070A10
:103E000083B181270E94190A8EE59BE00E94070A70
:103E100086B180270E94190A8AE59BE00E94070A62
:103E200089B18F250E94190A86E59BE00E94070A46
:103E30008CB18E250E94190A82E59BE00E94070A38
:103E40008FB18B250E94190A0E94C40A0E94FA08A9
:103E500013B106B1F9B0ECB0BFB0E1E0CE1AD108B1
:103E600009F0B2CFC250DE4FF881CE5FD140F5B934
:103E7000C150DE4F2881CF5FD14028B94BB85EB822
:103E8000A1BA8FE39BE0D1CAD80112961C9181E0C0
:103E9000103309F480E080930A0189E39BE00E94DB
:103EA000070A81E3103309F480E30E94D6098DE10B
:103EB0009BE0103311F489E09BE00E94070ABBCC21
:103EC000F801928180ED890F823030F481E09133E6
:103ED00009F080E0809309010E94D0078EEF9AE0FC
:103EE0000E94070A80910901811509F181E30E946E
:103EF000D60985EF9AE00E94070A60910B01709144
:103F00000C0180E090E00E94500A8FE20E94D609E6
:103F100064E873E080E090E00E94500A8EEE9AE040
:103F20000E94070A6091260370912703E7CB80E384
:103F3000DECFD8011296EC9061E0B0E3EB1201C045
:103F400060E0E5E4FE1215C06093E8018AEE9AE0B5
:103F50000E94070AD80111968C910E94D6098DE320
:103F60000E94D609B0E3EB1611F041E3E42E8E2D4A
:103F7000C6CEF1E5FF1203C060930701E7CF26E448
:103F8000F21203C06093DC01E1CF4EE4F41203C0EF
:103F900060930403DBCF85E492E00E942B2AD6CF06
:103FA000E9EEF1E080E1DF011D928A95E9F78BED02
:103FB0009AE03BCAC8010296B4E5FB121AC0F801A8
:103FC0008281811569F00E947D08D82ED801139650
:103FD0008C910E947D08BFEFDB1611F08F3F19F422
:103FE0008BEC9AE022CA582EC801049633E0E32EE7
:103FF00008C0E2E555245394D12C26E0E22EFE12AF
:10400000F5CF8E010B5C1E4F4DE3B8010E94910865
:10401000B8018E1518F48EEB9AE007CAC82ECE1898
:10402000C8018E0D911DF2E50D5F1F4FFF1611F0B7
:1040300000E010E054017C01252D4D2D85E492E037
:104040000E94082D682F8FEA9AE0611509F4EDC9E6
:1040500080910A01811519F080E99AE0E6C9C4014E
:104060000E94BD0B811561F08091F5019091F601E0
:1040700001969093F6018093F50185E89AE0D5C901
:104080008091F7019091F80101969093F801809347
:10409000F70189E79AE0C9C9D80112968C918B344F
:1040A00079F440E16CEC71E0C80103960E9491083C
:1040B000803119F08CE69AE0B8C982E59AE0B5C97A
:1040C0007801B2E0EB0EF11C40E1BE016B5C7E4F6B
:1040D000C7010E949108803179F4F80182A18A32E7
:1040E00059F4CE018B5C9E4F40960E94FE0E8111CA
:1040F0000FC085E39AE099C940E2BE016B5C7E4F38
:10410000C7010E949108803219F088E29AE08DC9B7
:104110006E01FEE8CF1AFEEFDF0A9E012B5C3E4FD8
:10412000205F3F4FAE014B5C5E4F445F5F4F7601B7
:104130008401BE016B5C7E4F8CEC91E00E949F2657
:1041400082E29AE00E94070A74018E010F5E1F4FFF
:10415000D7018D917D010E94190A0E151F05C1F727
:1041600080E20E94D60986017601B4E0EB0EF11CD4
:10417000F80181918F010E94190A0E151F05C1F7E0
:104180005ACB40E1BE016B5C7E4FC80102960E9493
:104190009108803119F085E19AE047C9BE016B5C56
:1041A0007E4F685F7F4FA401CE018B5C9E4F0E94C3
:1041B000F3268FE09AE00E94070A84017E01F1E174
:1041C000EF0EF11CD8018D918D010E94190AE016A5
:1041D000F106C1F730CB86E09AE027C983EB9CE07B
:1041E0006CCEF8018181803309F046C08281813331
:1041F00009F042C08AE89CE00E94070A0E94FA087F
:104200008FE39CE90197F1F700C000000E94480984
:104210008091E00081608093E0008091D8008F77EA
:104220008093D80019BC8091D8008F7E8093D800ED
:104230001092DD019FEFADEEB2E09150A040B04092
:10424000E1F700C00000F8940FB6F894A8958091AB
:104250006000886180936000109260000FBE109231
:104260006E0010926F0014BE81E085BF82E085BFB2
:10427000E0E0F8E30995FFCF85EA9CE0D6C841E08D
:10428000B401C80101960E949108813019F08DE9AE
:104290009CE0CBC883E40E94D6091981812F0E943B
:1042A000190A8DE30E94D6090E94E308812F8068D5
:1042B0000E94DD0880E00E94DD08289A0E94190A09
:1042C000BACAF3E8DF1610F00C94D112F301ED0D29
:1042D000F11D8083D3940C94D1121115E9F00C9444
:1042E00050142AE0E21610F40C9450144FE1E41636
:1042F000A0F78091DF01811539F02F2D4B2D5A2D1C
:104300006E2D81E40E94CC0A11110C94501452E1DC
:10431000E51610F40C94D9128091DE01811511F488
:104320000C94D9128091E80181110C94D9122F2D8F
:104330004B2D5A2D6E2D80E50E94CC0A0C94D9127B
:104340004AE0E41698F60C94D9121F920F920FB619
:104350000F9211242F933F934F935F936F937F930B
:104360008F939F93AF93BF93EF93FF938091DA0066
:1043700080FF10C08091D80080FF0CC08091DA00CF
:104380008E7F8093DA008091D90080FF9BC081E00E
:10439000809389018091E10080FF1CC08091E20040
:1043A00080FF18C08091E1008E7F8093E1008091B2
:1043B000E2008E7F8093E2008091E2008061809332
:1043C000E2008091D80080628093D80019BC85E01B
:1043D000809389018091E10084FF27C08091E200F1
:1043E00084FF23C019BC89B5826089BD09B400FE71
:1043F000FDCF8091D8008F7D8093D8008091E1001F
:104400008F7E8093E1008091E2008F7E8093E200B6
:104410008091E20081608093E200809180018115AB
:1044200009F453C084E0809389018091E10083FF07
:1044300038C08091E20083FF34C08091E100877F23
:104440008093E10082E08093890110928001809145
:10445000E1008E7F8093E1008091E2008E7F809367
:10446000E2008091E20080618093E2001092F4000B
:1044700080E08093E9001092F0001092E8009091A3
:10448000ED009D7F9093ED009091EB009E7F9093C7
:10449000EB008F5F873069F742E060E080E00E94C8
:1044A0009B09FF91EF91BF91AF919F918F917F9168
:1044B0006F915F914F913F912F910F900FBE0F9091
:1044C0001F9018951092890165CF83E0ACCFCF93F0
:1044D000DF93FC01DB019C01205F3F4F81919D91A7
:1044E000EF0189278A93E217F307C1F7DF91CF9194
:1044F0000895CF93DF93FB01DC01CB014096ED01E2
:1045000021912993E817F907D9F741E030E11C968A
:104510002C911C971D969C911D971E968C911E9711
:104520001F965C911F97632F6F70611120C0E92F58
:10453000F0E0E65BF14F64916427E82FF0E0E65B82
:10454000F14FE4919E2FE52FF0E0E65BF14FE4910F
:104550008E2FE22FF0E0E65BF14FE4915E2F742F97
:10456000770F2BE147FF20E0472F4227262F6C9142
:10457000262750962C93509711962C91119792279D
:1045800051969C93519712969C9112978927529617
:104590008C93529713968C911397852753968C93EF
:1045A00053973C5F1496303B09F0B1CFDF91CF9128
:1045B00008958F929F92AF92BF92CF92DF92EF9227
:1045C000FF920F931F93CF93DF938C01EA01FB01BE
:1045D0007A01CB014096DA0121912D938E179F0726
:1045E000D9F7B801CE010E946722580180E1A80ED8
:1045F000B11C00561F4F48016E01A0E1CA0ED11C2C
:10460000DE01ED91F0E0E65BF14F2491CD010197E1
:10461000FC012083CA16DB06A1F789819D8199835D
:1046200099859D839D8599878D878A819A859A83AF
:104630008A878E819E859E838E878F859B859F87A7
:104640009F819B879B819F838B83FE01808141811A
:1046500032812381782F7427632F6227572F5627A3
:10466000972F990F77FF66C07BE19727782F7527E3
:1046700097279083742F7327972F990F77FF5CC02C
:104680007BE19727452794279183962F990F4BE13C
:1046900067FF40E094273527932792838227982F3E
:1046A000990F87FF4BC08BE18927252782278383BA
:1046B0003496CE16DF0651F6B501CE010E94672270
:1046C000F0E1AF0EB11C0A151B0509F099CFD70117
:1046D000ED917D01F0E0E65BF14FE491EE93CE14B5
:1046E000DF04A9F789819D81998399859D839D85A3
:1046F00099878D878A819A859A838A878E819E85FC
:104700009E838E878F859B859F879F819B879B81BB
:104710009F838B83B401CE01DF91CF911F910F91C5
:10472000FF90EF90DF90CF90BF90AF909F908F90D1
:104730000C94672270E099CF70E0A3CF80E0B4CFF3
:10474000EF92FF920F931F93CF93DF93CDB7DEB716
:1047500060970FB6F894DEBF0FBECDBF8B01DB01B3
:104760007A0130E04D9150E0321710F4F70150819A
:10477000BD01615071094527FB0140833F5FFFEF99
:10478000EF1AFF0A303171F7AE014F5F5F4FB8018A
:104790000E94D92280E1FE013196D80101900D924C
:1047A0008A95E1F760960FB6F894DEBF0FBECDBFD5
:1047B000DF91CF911F910F91FF90EF9008958F920D
:1047C0009F92BF92CF92DF92EF92FF920F931F932F
:1047D000CF93DF93CDB7DEB760970FB6F894DEBF07
:1047E0000FBECDBFE82EB92EFB014A01F22E6801A3
:1047F00089E089838DE0DE01129601900D928A9501
:10480000E1F71F86288B80E1F80111928A95E9F77C
:1048100020E1AE014F5F5F4FB8018E2D0E94A023B3
:1048200010E01F1590F060960FB6F894DEBF0FBE33
:10483000CDBFDF91CF911F910F91FF90EF90DF904F
:10484000CF90BF909F908F9008952F2D211B2131E5
:1048500008F020E1A401410F511DB6018E2D9B2DC2
:104860000E94A023105FDDCF4F925F926F927F92E4
:104870008F929F92AF92BF92CF92DF92EF92FF9270
:104880000F931F93CF93DF93CDB7DEB7C055D109F8
:104890000FB6F894DEBF0FBECDBFD82EE92E3B0178
:1048A0005A01F22EC12EDE01AF5BBF4F89E48D931A
:1048B0008DE0FB0101900D928A95E1F760961FAEA5
:1048C000609761961FAE61974E0181E2880E911C40
:1048D00010E1D401E12F1D92EA95E9F720E1AE0144
:1048E0004F5B5F4FB4018D2D0E94A023FE01F19616
:1048F000DF011D921A95E9F7FAAA1F2D2F01BFE0DB
:10490000FB1608F01EE0412F50E0B501CE01C39622
:104910000E942C3020E1A201B4018D2D9E2D0E9419
:10492000A0231F1508F442C081E089838DE0F301C4
:10493000DE01129601900D928A95E1F71F86188A82
:10494000AE014F5E5F4FBE016F5F7F4F8D2D9E2D7D
:104950000E94D922C401BE016F5E7F4FE02FFC2D63
:10496000AF014C5F5F4FDC012D91CD01DB013D912B
:10497000BD0123272193E417F507A9F7C05BDF4F9B
:104980000FB6F894DEBF0FBECDBFDF91CF911F9160
:104990000F91FF90EF90DF90CF90BF90AF909F90DE
:1049A0008F907F906F905F904F9008952F2D211BD7
:1049B000213108F020E1A501410F511DB4018D2DD9
:1049C0009E2D0E94A023105FACCF2F923F924F925A
:1049D0005F926F927F928F929F92AF92BF92CF928F
:1049E000DF92EF92FF920F931F93CF93DF93CDB798
:1049F000DEB7A0970FB6F894DEBF0FBECDBF782EFE
:104A0000692E562E472E6A015901EE24E394F12CAB
:104A100010E022242394CE0101964C011017C8F017
:104A2000A0960FB6F894DEBF0FBECDBFDF91CF9139
:104A30001F910F91FF90EF90DF90CF90BF90AF90BC
:104A40009F908F907F906F905F904F903F902F90AE
:104A50000895302E311A91E1391610F080E1382E88
:104A6000298A8DE0E52DF42DDE01529601900D92FC
:104A70008A95E1F79E2D8F2D98A38F8FA401BE01FB
:104A80006F5E7F4F872D962D0E94D9229601210FB0
:104A9000311DA501410F511DF401D9018D919D01D9
:104AA00091918927DA018D93AD018E2F8819831595
:104AB000A0F3105FBFEFEB1AFB0AB0CF5F926F92CB
:104AC0007F928F929F92AF92BF92CF92DF92EF929E
:104AD000FF920F931F93CF93DF93CDB7DEB7E0978D
:104AE0000FB6F894DEBF0FBECDBF6C015B014A016B
:104AF000722E502E612E8E010F5D1F4F0E94DF23FC
:104B000081E0898B8DE0F501DE01529601900D92D6
:104B10008A95E1F71F8E18A2AE014F5F5F4FBE016D
:104B20006F5E7F4FC6010E94D922C801BE016F5F30
:104B30007F4FD701A7014C5F5F4FFC012191CF014F
:104B4000FB013191BF0123272D93A417B507A9F7C6
:104B5000072D252D362DA401B501C6010E94E5249F
:104B6000E0960FB6F894DEBF0FBECDBFDF91CF91B8
:104B70001F910F91FF90EF90DF90CF90BF90AF907B
:104B80009F908F907F906F905F9008957F928F920B
:104B90009F92AF92BF92CF92DF92EF92FF920F93CC
:104BA0001F93CF93DF93CDB7DEB7E4970FB6F8949A
:104BB000DEBF0FBECDBF6C015B01722E4801022F1C
:104BC00097010E94E5248E010F5D1F4F272DA7013D
:104BD000B501C6010E94DF2381E0898B8DE0F501DC
:104BE000DE01529601900D928A95E1F71F8E18A270
:104BF000AE014F5F5F4FBE016F5E7F4FC6010E94E7
:104C0000D922F801005211099E012F5C3F4FBE01CD
:104C10006B5D7F4FA9018191D8019D918D018927FD
:104C2000DA018D93AD01E617F707A9F7F401A401A6
:104C30004C5F5F4F90E0D9018D919D016191862776
:104C4000982B4E175F07B9F781E0911180E0E49649
:104C50000FB6F894DEBF0FBECDBFDF91CF911F918D
:104C60000F91FF90EF90DF90CF90BF90AF909F900B
:104C70008F907F900895AF92BF92CF92DF92EF9284
:104C8000FF920F931F93CF93DF93CDB7DEB7E097DB
:104C90000FB6F894DEBF0FBECDBF7C016B0158018B
:104CA0008E010F5D1F4F0E94DF2381E0898B8DE015
:104CB000F601DE01529601900D928A95E1F71F8E62
:104CC00018A2AE014F5F5F4FBE016F5E7F4FC701FD
:104CD0000E94D922C801BE016F5F7F4FF501A50177
:104CE0004C5F5F4FDC012D91CD01DB013D91BD019A
:104CF00023272193E417F507A9F7E0960FB6F89458
:104D0000DEBF0FBECDBFDF91CF911F910F91FF90FE
:104D1000EF90DF90CF90BF90AF900895FC01339655
:104D200089E0DA0101900D928A95E1F7DA0119968E
:104D300084E0FB0101900D928A95E1F708957F923E
:104D40008F929F92AF92BF92CF92DF92EF92FF929B
:104D50000F931F93CF93DF93CDB7DEB7CD5BD10910
:104D60000FB6F894DEBF0FBECDBF782E892ECB01D3
:104D7000BA016901902EAE014F545F4F0E948E26FA
:104D8000672D782DCE0101960E94792200E1292D10
:104D9000312FA601BE016F547F4FCE0101960E94B4
:104DA000E524E114F10451F0870120E1A601BE01E0
:104DB0006F547F4FCE0101960E943B26C354DF4FB4
:104DC0000FB6F894DEBF0FBECDBFDF91CF911F911C
:104DD0000F91FF90EF90DF90CF90BF90AF909F909A
:104DE0008F907F900895FC0188E0DA0101900D9288
:104DF0008A95E1F7DA01189688E0FB0101900D929F
:104E00008A95E1F708954F925F926F927F928F9209
:104E10009F92AF92BF92CF92DF92EF92FF920F9349
:104E20001F93CF93DF93CDB7DEB7C15DD1090FB626
:104E3000F894DEBF0FBECDBF6C012B013C0188E2B0
:104E4000680E711C46019CE0890E911C5E0181EB8D
:104E5000A80EB11C96012C5C3F4FE12CF12C850172
:104E6000A301B601C4010E949F26AE014F535F4FBC
:104E7000B301C6010E948E26B401CE0101967C01C9
:104E80000E947922035E1F4F20E1A501BE016F53EE
:104E90007F4FC7010E943B26F801D601AC5BBF4F94
:104EA0009601285B3F4F80E09B2C8E2CBF2C91916C
:104EB0004D919427892BA217B307C9F781112FC0F1
:104EC000B601645D7F4F482D5B2DC60180960E9420
:104ED000F326A601445E5F4FE12CF12C82012A2DBE
:104EE000392DB601882D9B2D0E949F2681E0CF523F
:104EF000DF4F0FB6F894DEBF0FBECDBFDF91CF916D
:104F00001F910F91FF90EF90DF90CF90BF90AF90E7
:104F10009F908F907F906F905F904F90089580E06A
:104F2000E6CF2F923F924F925F926F927F928F9235
:104F30009F92AF92BF92CF92DF92EF92FF920F9328
:104F40001F93CF93DF93CDB7DEB7C25DD1090FB604
:104F5000F894DEBF0FBECDBF3B017A01CF52DF4FC9
:104F60002883C15DD040CE52DF4F3883C25DD04030
:104F7000BC01CE0101965C010E9479228E010F5383
:104F80001F4F80E1D8011D928A95E9F7C12CD12CE1
:104F90003A2C2B2C5E01B1EBAB0EB11C5A2C4B2CD6
:104FA0004801E0E18E0E911CCE14DF0480F1F8017F
:104FB00080818E25808381818F258183CF52DF4F31
:104FC0004881C15DD040CE52DF4F5881C25DD04094
:104FD000B801832D922D0E94D922CE52DF4F0FB6F9
:104FE000F894DEBF0FBECDBFDF91CF911F910F911F
:104FF000FF90EF90DF90CF90BF90AF909F908F90F9
:105000007F906F905F904F903F902F900895D501C3
:10501000E0E11D92EA95E9F7A7014C195D094131DC
:10502000510510F040E150E0B3016C0D7D1D852D60
:10503000942D0E942C30F801452D542D8191DA01D8
:105040009D91AD019F01215031098927D9018C9390
:10505000E815F90599F7A801B801832D922D0E9452
:10506000D922B0E1CB0ED11C9FCFCF92DF92EF922D
:10507000FF920F931F93CF93DF93CDB7DEB7609767
:105080000FB6F894DEBF0FBECDBF8C017B016A0165
:10509000892B31F1452B21F16034710508F19E0116
:1050A0002F5F3F4FAB01B80186E191E00E9491274D
:1050B0009601A701B801CE0101960E94912780E0D8
:1050C00090E060960FB6F894DEBF0FBECDBFDF91C3
:1050D000CF911F910F91FF90EF90DF90CF900895A7
:1050E0008FEF9FEFEECF0F931F93CF93DF93CDB74B
:1050F000DEB7A0970FB6F894DEBF0FBECDBFFC01A0
:10510000CB01309709F440C00097F1F1AE014F5F39
:105110005F4F60E2DA011D926A95E9F78E0F9F1FDB
:1051200061E070E02191A22FA695A695A695A40F07
:10513000B52FB11D27708B0102C0000F111F2A95DA
:10514000E2F798013C91232B2C938E179F0751F780
:10515000FA01BE016F5D7F4F40E0219130E080E0B9
:1051600090E0D901082E02C0B695A7950A94E2F7FF
:10517000A0FF03C04F5F4830A0F40196883091052E
:1051800081F76E177F0749F781E090E0A0960FB690
:10519000F894DEBF0FBECDBFDF91CF911F910F916D
:1051A000089580E090E0F2CFCF93DF93FC01DB0124
:1051B00080818C9381818E7F11968C931197EF0162
:1051C000229612963D9689918D93CE17DF07D9F7D7
:1051D000DF91CF9108952F923F924F925F926F92FD
:1051E0007F928F929F92AF92BF92CF92DF92EF9277
:1051F000FF920F931F93CF93DF93CDB7DEB7CD54BC
:10520000D1090FB6F894DEBF0FBECDBF3C01362EDC
:10521000472E542E922E202EF701FC2CB501A49679
:105220000EAD1FADA49783E0309709F480E0C82E3F
:10523000C80C21E4C21608F0A2C031E091E193123B
:1052400099E0D92EDC0C91E4D91608F098C08115AC
:1052500039F093E0DE01119601900D929A95E1F7F5
:10526000811449F0482D50E0FE013196E80FF11D00
:10527000CF010E942C30892D82958073F52DFF700F
:105280005F2E582AF8015082F301E354FF4F8081CA
:105290008170220C220C220C282AF8012182F28231
:1052A000D801139683E0F301E055FF4F01900D9272
:1052B0008A95E1F7D801169683E0E32DF42D01904D
:1052C0000D928A95E1F7F1E09F1631F1C11449F092
:1052D0004C2D50E0BE016F5F7F4FC80109960E94C0
:1052E0002C308D2DC35BDF4F0FB6F894DEBF0FBEA1
:1052F000CDBFDF91CF911F910F91FF90EF90DF9085
:10530000CF90BF90AF909F908F907F906F905F9065
:105310004F903F902F900895230123EB420E511C94
:10532000F20160817181828193810E94802FF80156
:105330006187728783879487BE016F5B7F4FC80147
:105340000E94D4287801FDE0EF0EF11C0F5E1F4F84
:105350002C2DAE014F5F5F4FBE016F5B7F4FC301CE
:105360000E945E25F20180819181A281B381019624
:10537000A11DB11D80839183A283B383B2CFD12CB1
:10538000B0CF8C3030F4E82FF0E0EA5DFE4F808142
:1053900008958FEF0895FF920F931F93CF93DF939C
:1053A000EC01CB018A01F22E21EEFE0111922A9529
:1053B000E9F7892B41F0CE010E94792281E0FE01BC
:1053C000E254FF4F80830115110549F083E0F80195
:1053D000DE01A055BF4F01900D928A95E1F7FE01C5
:1053E000ED54FF4F81E090E0A0E0B0E08083918336
:1053F000A283B3833896F1928EE88083C154DF4F45
:1054000081E08883DF91CF911F910F91FF900895E4
:10541000CF93DF93EC010E947922C254DF4F81E0E9
:105420008883DF91CF910895FB01DC01A055BF4F28
:1054300083E001900D928A95E1F70895FC01E5540F
:10544000FF4F60830895FC01ED54FF4F408351836B
:10545000628373830895FC01E354FF4F81E061117F
:1054600001C080E0808308952F923F924F925F9217
:105470006F927F928F929F92AF92BF92CF92DF9264
:10548000EF92FF920F931F93CF93DF93CDB7DEB7C9
:105490002F970FB6F894DEBF0FBECDBF5C017B0126
:1054A000342E49016801892B09F407C26115710581
:1054B00009F403C2232B09F400C20115110509F4F4
:1054C000FCC18EE1D8011D928A95E9F7B9E04B172E
:1054D000D8F48EEF9FEF2F960FB6F894DEBF0FBE75
:1054E000CDBFDF91CF911F910F91FF90EF90DF9093
:1054F000CF90BF90AF909F908F907F906F905F9074
:105500004F903F902F900895FB018081D8018C939C
:10551000818111968C931197828112968C931297A8
:1055200010811295137056961C93569790819F7018
:1055300057969C93579781818695869586958F700F
:1055400058968C93589722812695277059962C93BC
:10555000F6013396FF87EE8723E0FB013396AE8595
:10556000BF8501900D922A95E1F73601F6E06F0EA6
:10557000711C23E0FB013696D30101900D922A9510
:10558000E1F7DB0111962C9120FF03C020E4F60126
:10559000248FD60116962C9116972F7E203E59F413
:1055A00017962C911797211106C05C962C915C9749
:1055B00020615C962C93911539F0943009F408C160
:1055C000913009F007C192E0F601958F0E94C12940
:1055D000282EFFEF8F1709F473C11111FDC027EFBB
:1055E000320E432D50E0B701675F7F4FC4010E9428
:1055F0002C302114C1F0321408F46BCF83E0F40195
:10560000D601199601900D928A95E1F7F601848DE5
:105610008062848F3218432D50E0B401620D711DF9
:10562000C4010E943530D6018C9186FF0EC0311422
:1056300009F44FCFF4018191BF015B968C933A94AA
:10564000432D50E0C4010E943530832D90E0D601F7
:1056500055969C938E9354977501B0EBEB0EF11C0D
:1056600043E050E0B701C3010E941F30F601148DE2
:10567000892B09F0EEC01160148FD60157968C91DA
:105680008430D1F4B6E03B16B8F0F401808181118A
:1056900013C01460D6015C961C935C9781815A9666
:1056A0008C9362817381848195810E94802FF601A1
:1056B000608B718B828B938B13FF62C0D6011C961B
:1056C0004D905D906D907C901F977501B0ECEB0E46
:1056D000F11C4501E0EE8E0E911CD7018C918115D5
:1056E000B1F014968D919D910D90BC91A02D48160E
:1056F00059066A067B0659F443E050E06E857F85C3
:10570000C70101960E941F30892B09F4B6C0B8E08A
:10571000EB0EF11C8E149F0401F7F401A081B0E0A0
:10572000FD01789683E0EE0FFF1F8A95E1F7EA0D01
:10573000FB1D81E0808393E0AA0FBB1F9A95E1F7E0
:10574000AF53BF4FAA0DBB1D83E0EE85FF850190CF
:105750000D928A95E1F7D401EC918E2F90E0B8E09C
:10576000EB9FF0011124EA0DFB1DEC53FF4F40822B
:10577000518262827382019683709927F40180833B
:10578000F601848D982F9970993009F07BC0978924
:105790009430C1F4F501E554FF4F90819130A9F4A4
:1057A00082FF10C0D60150968D909D90AD90BC9018
:1057B0005397729162915291429184169506A60672
:1057C000B70619F08260F601848F80E090E083CE06
:1057D00091E0FACE93E0F8CE113009F071C0F501F6
:1057E000E254FF4F8081811509F46DC031E1331619
:1057F00008F46FCED70119966D917D918D919C9192
:105800001C970E94802FF60164877587868797878B
:10581000FFEE3F0EBE016F5F7F4FC7010E94D4288D
:105820008701035F1F4FA7014F5E5F4F7401232D58
:10583000BE016F5F7F4FC5010E94C625811509F427
:1058400045C0D6015C968C915C9788605C968C9381
:10585000D0CE15FF12CF808D8150823008F00DCF51
:1058600043E050E0B701C60109960E941F30892B22
:1058700009F003CF1160F601FFCE1068D6015C96E7
:105880001C937ECFF501E154FF4F9081911509F4EF
:105890009CCF34979081911198CF982F987198311F
:1058A00009F093CFD60157969C915797923009F003
:1058B0008CCF82605C968C9388CF8FEF9FEF0BCE5E
:1058C0008DEF9FEF08CE8BEF9FEF05CE8CEF9FEF14
:1058D00002CEAF92BF92CF92DF92EF92FF920F93E0
:1058E0001F93CF93DF93CDB7DEB763970FB6F894CE
:1058F000DEBF0FBECDBF6C019B018A01009709F48A
:1059000085C0672B09F482C0452B09F47FC0FC01D8
:10591000E254FF4F8081811509F467C01E863397DA
:105920008081813009F083E08F87F9016485758576
:10593000868597850E94802F688B798B8A8B9B8BBD
:1059400084E1F80180831182F601E454FF4F8081E5
:10595000F8018283D8011396F601E055FF4F83E0EA
:1059600001900D928A95E1F7D8011696F9013396C8
:1059700083E001900D928A95E1F75601F3EBAF0EAB
:10598000B11CF50160817181828193810E94802F19
:10599000F8016187728783879487BE016F5F7F4FAD
:1059A000C8010E94D4287801FDE0EF0EF11C0F5EC3
:1059B0001F4F26E0AE01425F5F4FBE016F5F7F4F1A
:1059C000C6010E945E25F50181919191A191B1914D
:1059D00080839183A283B3830196A11DB11DF5013C
:1059E00080839183A283B38387E163960FB6F89493
:1059F000DEBF0FBECDBFDF91CF911F910F91FF9002
:105A0000EF90DF90CF90BF90AF90089580E0EDCF02
:105A10006F927F928F92AF92BF92CF92EF92FF924E
:105A20000F931F93CF93DF93FC01E80137018C2C78
:105A30007501892B91F16115710579F1AB2869F137
:105A4000C11419F06114710441F1213039F4CF010E
:105A500082549F4FDC018C91811591F0CF018454C9
:105A60009F4F01E0209709F400E0FF92EF9253016D
:105A7000DC01CC907E01CF010E94EB280F900F90AB
:105A8000DF91CF911F910F91FF90EF90CF90BF903A
:105A9000AF908F907F906F90089580E0F1CF4F92FC
:105AA0005F926F927F928F92AF92BF92CF92EF925E
:105AB000FF920F931F93CF93DF933C01EB015A01A9
:105AC000822E7801892B09F45FC0209709F45CC00D
:105AD000012B09F459C0211519F0452B09F454C0C4
