:1000000056C6000071C600006FC600006DC6000035
:100010006BC6000069C6000067C6000065C6000028
:1000200063C6000061C600000C94A5265DC60000F2
:100030005BC6000059C6000057C6000055C6000048
:1000400053C600000C949C144FC600004DC600001F
:100050004BC6000049C6000047C6000045C6000068
:1000600043C6000041C600003FC600003DC6000078
:100070003BC6000039C6000037C6000035C6000088
:1000800033C6000031C600002FC600002DC6000098
:100090002BC6000029C6000027C6000025C60000A8
:1000A00023C6000021C600001FC600001003710017
:1000B0002D00630075006C006600770000001603D9
:1000C00062007500730077006100720065002E0009
:1000D0006400650000000403090409023E000201F7
:1000E0000080320904000001020201000524001012
:1000F0000104240206052406000107058203080006
:10010000FF09040100020A00000007050402400084
:1001100000070583024000001201100102000008E0
:10012000EB03692000020102DC010007010E020658
:10013000030D04E905CA063D070C084509000A003D
:100140000B060C110D210E650F6A10C811931203D6
:10015000132214F815341607170F181819161A6CED
:100160001B431C401D911E8E1F2F207821562210EC
:1001700023E9242A2500261F2741280029592A7F00
:100180002B3F2C812D352E09FF506D204E65747A42
:100190007765726B7363686C75657373656C2067E4
:1001A000657369636865727420E28094206D697478
:1001B0006C6573656E20697374206A65747A742047
:1001C0006D6F65676C6963680D0A00506D20414E64
:1001D00047454C45524E5420616464723D00506D59
:1001E00020416E6765626F743A2050727565667360
:1001F000756D6D652066616C736368002072737342
:10020000693D0020666F723D00504B2066726F6D35
:100210003D00207261773D00206C656E3D002072CC
:100220007373693D00206E3D00206D61783D0020B4
:100230006D696E3D002066697273743D0050482000
:1002400066653D00506D20416E6C65726E656E3A5C
:10025000206B65696E6520416E74776F727400045F
:1002600080000000C80600001606000000506D2047
:10027000616E67656D656C6465740D0A00506D2074
:100280003E3E204B616E616C7A75737461656E647D
:10029000650D0A00506D203E3E2053746172746DEE
:1002A000656C64756E670D0A00506D203E3E2041FE
:1002B0006E6C65726E626573746165746967756E84
:1002C000670D0A00506D204E65747A7765726B7306
:1002D00063686C75657373656C2065727A657567A4
:1002E000740D0A00506D206B65696E65205765724C
:1002F0006B736B656E6E756E6720E28094206C6127
:100300007566656E6465204E756D6D6572206765F6
:100310007775657266656C740D0A00506D206175A5
:10032000737061636B656E206D69742064656D2008
:100330004175666B6C656265727363686C75657335
:1003400073656C0D0A00506D206E776B2E656E63C1
:100350003D00506D206B65696E204E65747A77653F
:10036000726B7363686C75657373656C0D0A00500E
:100370006D207061636B652065696E2E2E2E0D0AEF
:1003800000506D206B65696E204E65747A776572DA
:100390006B7363686C75657373656C20E280942081
:1003A0006572737420616E6C65726E656E20286D67
:1003B0004750290D0A00506D206265696465205719
:1003C0006572746520696E206465722045494745F1
:1003D0004E454E205A656E7472616C652065696E7B
:1003E00074726167656E202847657261657420616B
:1003F0006E6C65726E656E290D0A00506D206B651E
:10040000793D00286B65696E652900506D20776520
:10041000726B736B656E6E756E673D0020676572FB
:10042000616574656172743D00206E65686D65720A
:100430003D00506D206865726B756E667420666154
:100440007373756E673D00506D20736774696E3D00
:1004500000506D206B65696E65204B656E6E756E24
:100460006720E28094206D474E2065727A6575673B
:10047000742065696E650D0A00506D204552520D5D
:100480000A00506D20792000506D204552522061A5
:1004900072670D0A00506D20772000506D20455284
:1004A00052206172670D0A00506D206B65696E20E5
:1004B0004E65747A7765726B7363686C7565737378
:1004C000656C0D0A00506D2077207363686C75654C
:1004D0007373656C2067657365747A740D0A0050D8
:1004E0006D20455252206B65790D0A00506D2045F4
:1004F00052522074780D0A00506D207478206F6B72
:100500000D0A00506D20455252204C4F56460D0AA0
:1005100000506D204E55522D4C4553454E20286DB0
:100520004C3020676962742066726569290D0A0083
:10053000506D2045525220626175656E0D0A005063
:100540006D20455252206473740D0A00506D204591
:1005500052522063742F7365630D0A00506D20455D
:10056000525220766572620D0A00506D204552523B
:100570002073747566650D0A00506D204552522037
:10058000686F657265727479700D0A00506D205540
:10059000727A757374616E6420E28094204B656E8C
:1005A0006E756E672C205363686C75657373656C2C
:1005B00020756E64205A6165686C65722067656C91
:1005C0006F65736368740D0A00506D2045525220A8
:1005D0006D61726B6520E280942065727374206D8A
:1005E000562066726167656E0D0A002028414C4CEA
:1005F0004553207765673A204B656E6E756E672CA4
:10060000205363686C75657373656C2C205A616543
:10061000686C6572290D0A0020E28094206C6F6579
:10062000736368656E206D6974206D5600506D208F
:100630006D61726B653D00506D20455252206B65B7
:10064000696E652053657269656E6E756D6D657254
:100650000D0A00506D207A6165686C65723D300D41
:100660000A0020706C6174696E6500206565005039
:100670006D204A3D00506D204552520D0A00506DCC
:100680002000206C6F76663D00206372656469749B
:100690003D00506D206275646765743D00207A7579
:1006A0007374656C6C3D0028617573290020286D9A
:1006B00062312F6D623329207765636B6B616E61E8
:1006C0006C3D002028417329206D733D00506D2042
:1006D000766F726C6175663D00506D204552520D0B
:1006E0000A00506D20455252206265726569636848
:1006F0002031302E2E00506D2045525220626572FE
:100700006569636820352E2E00506D204552520DCC
:100710000A00506D204552520D0A00506D2045527E
:10072000520D0A002053454E44454E20465245493D
:100730004745474542454E00206E7572206C6573F3
:10074000656E2C2053656E64656E206765737065F9
:1007500072727400506D204C3D00506D20537563D3
:100760006865206265656E6465740D0A0020463D0B
:100770000020453D0020443D0020433D00506D20B9
:1007800041454E4420423D0020202D2D2032302076
:1007900073205A6569742C206A65747A74206472B7
:1007A0007565636B656E0D0A0020463D0020453D72
:1007B0000020443D0020433D00506D207275686567
:1007C00020423D00506D2072656C6169733D0050A0
:1007D0006D2065727A65756765204B656E6E756E06
:1007E000672E2E2E0D0A00506D20736E3D00506D49
:1007F0002045525220736E0D0A00506D206B6579B2
:100800002077697264206E6963687420766F6E2049
:1008100061757373656E2067657365747A7420E221
:10082000809420416E6C65726E656E20286D475015
:10083000290D0A00506D204E65747A7765726B73CE
:1008400063686C75657373656C20766572776F721B
:1008500066656E20E2809420616C6C65204765724D
:1008600061657465206E657520616E6C65726E657C
:100870006E0D0A00506D20616464723D00506D2061
:1008800045525220616464720D0A005A656E74729A
:10089000616C650047657261657400506D20726F10
:1008A0006C6C653D004220626F6F746C61646572B0
:1008B0000D0A003F200D0A0057204552520D0A0034
:1008C00043204552520D0A004220455252202842F0
:1008D0003031290D0A0058204552520D0A003F20A0
:1008E0000D0A003F20283F20697320756E6B6E6FE4
:1008F000776E2920557365206F6E65206F662041E5
:100900002042204320502054205620572058206D4C
:100910000D0A005620712D63756C667720322E30DB
:100920002E313031005078206F6B0D0A005072204C
:100930006F6B0D0A00204F484E45204144524553ED
:100940005345202841612900417120004177200052
:10095000416120005620712D63756C667720322E20
:10096000302E313031005073204552520D0A005064
:100970007320455252204C4F56460D0A004E555298
:100980002D4C4553454E20286D4C302067696274CC
:100990002066726569290D0A004C454E4552520D7C
:1009A0000A00206E706B3D00206E6F6973653D001C
:1009B00020726563616C3D0020706C6C3D002062AC
:1009C000757273743D002074786572723D002074F6
:1009D000783D00206677643D0020616B646F703D58
:1009E00000206B3672783D00206B3674783D002015
:1009F00061636B733D00206475703D00206D696319
:100A00003D00206F6B3D00506D2072783D00206CE2
:100A10006F76663D00206372656469743D00506DB9
:100A2000206275646765743D002072656C6169734E
:100A30003D00206E75726C6573656E3D0020726FAF
:100A4000757465723D002069636D7061636B3D0074
:100A50002061636B3D0020736E3D00206B65793D26
:100A60000020616464723D005A656E7472616C6549
:100A7000004765726165740020726F6C6C653D00A3
:100A80006175730065696E00506D200020613D3115
:100A90000020663D002061723D002061636B3D00D7
:100AA000207669613D0020736E3D002063743D0037
:100AB000207365633D00206473743D00207372638E
:100AC0003D00504D00506D20416E6C65726E656E3C
:100AD000206C616575667420E28094204B656E6EB3
:100AE000756E67206D75737320696E206465722062
:100AF0005A656E7472616C652073746568656E0DFD
:100B00000A00506D204E55522D4C4553454E20281D
:100B10006D4C3020676962742066726569290D0A20
:100B200000506D206B65696E65204B656E6E756E4D
:100B30006720E280942065727374206D474E0D0A21
:100B40000003AF8BB08DFBC84765081961DC943397
:100B5000D203AF8BB08DFBC84765081961DC9433B5
:100B6000D2506D205A7566616C6C737175656C6CD2
:100B70006520746F7420E280942046756E6B636804
:100B80006970207072756566656E20286D5A292C13
:100B9000206E69636874732065727A657567740D79
:100BA0000A00506D2072656C6169733D00637C774B
:100BB0007BF26B6FC53001672BFED7AB76CA82C95B
:100BC0007DFA5947F0ADD4A2AF9CA472C0B7FD9393
:100BD00026363FF7CC34A5E5F171D8311504C7238B
:100BE000C31896059A071280E2EB27B27509832C89
:100BF0001A1B6E5AA0523BD6B329E32F8453D1005F
:100C0000ED20FCB15B6ACBBE394A4C58CFD0EFAA7D
:100C1000FB434D338545F9027F503C9FA851A340CB
:100C20008F929D38F5BCB6DA2110FFF3D2CD0C13AC
:100C3000EC5F974417C4A77E3D645D197360814FD4
:100C4000DC222A908846EEB814DE5E0BDBE0323AF6
:100C50000A4906245CC2D3AC629195E479E7C837AF
:100C60006D8DD54EA96C56F4EA657AAE08BA782532
:100C70002E1CA6B4C6E8DD741F4BBD8B8A703EB532
:100C8000664803F60E613557B986C11D9EE1F89896
:100C90001169D98E949B1E87E9CE5528DF8CA189D6
:100CA0000DBFE6426841992D0FB054BB16001124C8
:100CB0001FBECFEFDAE0DEBFCDBF11E0A0E0B1E0B4
:100CC000EAE5FCE602C005900D92A434B107D9F71D
:100CD00023E0A4E4B1E001C01D92A937B207E1F717
:100CE0000E94BF140C94EC358BC92FB7F894609117
:100CF00071037091720380917303909174032FBFFD
:100D000008954F925F926F927F928F929F92AF92CF
:100D1000BF92CF92DF92EF92FF92E7DF4090750390
:100D20005090760360907703709078036B017C019C
:100D3000C418D508E608F70828EEC21623E0D20644
:100D4000E104F10480F1C701B60128EE33E040E090
:100D500050E00E941C35A8EEB3E00E944435460ED8
:100D6000571E681E791E409275035092760360925A
:100D700077037092780380EAC8168BEBD8068DE073
:100D8000E806F10450F480911C0190911D01820F3E
:100D9000931F843823E0920710F084E893E0909347
:100DA0001D0180931C01FF90EF90DF90CF90BF90CA
:100DB000AF909F908F907F906F905F904F9008952D
:100DC00080917003811559F090DF28E730E040E012
:100DD00050E00E941C3520FF12C0769A0895809141
:100DE0006F0340916B0350916C0360916D037091A0
:100DF0006E03452B462B472B21F0811571F3769816
:100E000008958115E1F3E9CF0F931F93CF93DF93FB
:100E1000EC016BDFDC01CB018C0F9D1FA11DB11D0F
:100E200000916B0310916C0320916D0330916E0360
:100E3000081719072A073B0740F480936B03909328
:100E40006C03A0936D03B0936E03BADFDF91CF9173
:100E50001F910F91089590ED980F9A3010F4892FFB
:100E600008959FE9980F963010F4875508959FEBE9
:100E7000980F963010F4875308958FEF0895A0E0EF
:100E8000B0E0E5E4F7E00C9458357B01D42F8C01F9
:100E9000C12CD12CC0E0F80181918F01811511F096
:100EA000CD1730F08C2FCDB7DEB7E8E00C94743559
:100EB000803289F38A3379F3CEDF8F3F99F3D114EF
:100EC00041F0F701EC0FF11D8C298083CF5FD12C0D
:100ED000E2CFC82EC29480EFC822DD24D394DBCFAA
:100EE000DC01EEE0F0E080E031E2309357009491D5
:100EF0009D93915021E09E3F08F020E0822B319697
:100F0000E831F10591F708958EBD0DB407FEFDCFD0
:100F10008EB5089528981B99FECF0895CF93C82FBA
:100F2000F9DF8C2F8068F0DF80E0EEDF289ACF9128
:100F30000895CF93C82FEEDF8C2F806CE5DF80E023
:100F4000E3DF289ACF910895CF93DF93D82FC62F50
:100F5000E1DF8D2FD9DF8C2FD7DF289ADF91CF915A
:100F6000089585E3E6DF8F710895CF93DF93EC0159
:100F700068818DE0E9DF69818EE0E6DF6A818FE0DC
:100F8000E3DFDF91CF91089580918F01811531F0DA
:100F90008091AF01843019F010928F01089583E0A1
:100FA0008093E9008091E80080FFF8CF80E0909185
:100FB0008F01891750F08091E800982F9E7F9093C1
:100FC000E8008F778093E800E7CFE82FF0E0E15B5F
:100FD000FE4F90819093F1008F5FE9CF80914701A0
:100FE00087FF17C08091E80082FF0AC08091E80067
:100FF000982F9B7F9093E8008F778093E800089567
:101000008091AF018111EECF08958091AF018115DC
:10101000D9F38091E80080FFF8CF8091E800982F05
:101020009E7FE8CF8091D8008E7F8093D800109269
:10103000E2001092DA001092E1001092AF011092DB
:10104000460110924501109244018AE482BF19BC06
:1010500089B5826089BD09B400FEFDCF8091D800BA
:10106000982F9F779093D80080688093D8008091C4
:10107000D70081608093D7008091D8008F7D8093C6
:10108000D8008091E0008B7F8093E0008091E000A9
:101090008E7F8093E0008091E1008E7F8093E1005D
:1010A0008091E20081608093E2008091E100877F7F
:1010B0008093E1008091E20088608093E20080915B
:1010C000D80081608093D80008958093E900EBEE0A
:1010D000F0E0808181608083EDEEF0E0108260932B
:1010E000EC0040838091EE000895AAE2B0E0EBE7C7
:1010F000F8E00C945D358091AF01811509F466C06C
:101100001091E90017701092E9008091E80083FFC8
:101110005BC087E491E0FC0101962091F1002083FF
:1011200021E08F349207B9F78091470190914801EF
:101130009A3008F004C2E92FF0E0E251FA4C0C9426
:101140003E35803871F0823889F580914B0180936B
:10115000E9008091EB0085FB882780F91092E90077
:1011600006C080914501880F90914401892B909190
:10117000E800977F9093E8008093F1001092F100CF
:101180008091E800982F9E7F9093E8008F7780935E
:10119000E8008091E80082FF05C08091E800982F68
:1011A0009B7F36C08091AF018111F3CF8091E80021
:1011B00083FF0AC08091EB0080628093EB008091F6
:1011C000E800877F8093E8001093E900AA96E3E0A7
:1011D0000C94793581110BC080914901813031F730
:1011E00081E0933009F080E08093450106C08230B1
:1011F000E9F680914901811589F01092E90080910A
:10120000E800877F8093E8008091E800982F9E7F18
:101210009093E8008F778093E800C8CF80914B01CE
:101220008770811519F28093E9002091EB0020FF6F
:10123000E4CF9130B9F49091EB0090619093EB0082
:1012400021E030E0A90102C0440F551F8A95E2F762
:101250004093EA001092EA008091EB00886080934E
:10126000EB00CBCF8091EB008062F9CF81119ECF54
:10127000809149019091E800977F9093E8009091C8
:10128000E800292F2E7F2093E8009F779093E800B5
:101290009091E80090FF0CC0982F90689093E30025
:1012A0008F77811509F482CF83E08093AF017ECFE1
:1012B0009091AF019111ECCF79CF8058823008F036
:1012C00075CF8091490190914A018C3D53E095077B
:1012D00009F072C08AE2898383E08A83DE01139673
:1012E00020E03EE041E2E32FF0E040935700E4913C
:1012F00020FF03C0E295EF703F5FEF7080E38E0F39
:101300008A3310F087E38E0F90E08D939D932F5FCB
:10131000243149F78091E800877F8093E80020918D
:101320004D0130914E012B32310510F02AE230E0B0
:1013300090E0FE0131962115310559F4911109C053
:101340008091E80082FD29CF8091AF018111F8CF13
:1013500024CF8091E80083FD20CF8091E80082FDBA
:10136000EFCF8091AF01811509F417CF8091E8008C
:1013700080FFE1CF2115310531F08091F20090918D
:10138000F300089798F04091F2005091F30091E03B
:101390004830510509F090E08091E800482F4E7FD9
:1013A0004093E8008F778093E800C5CF81918093C8
:1013B000F10021503109DECF292F332722303105AA
:1013C000D1F12330310549F02130310509F0EECE5D
:1013D000E8E1F1E082E190E012C0FC01FF278330F8
:1013E00008F0E4CEEE0FFF1FEF5DFE4F0190F0819D
:1013F000E02D2491822F90E0211509F4D7CE209181
:10140000E800277F2093E80020914D0130914E01A4
:101410008217930708F49C0190E02115310581F4AF
:1014200091110EC08091E80082FDB7CE8091AF018E
:101430008111F8CFB2CEEAEDF0E08EE390E0DFCF9D
:101440008091E80083FDA9CE8091E80082FDEACF7B
:101450008091AF01811509F4A0CE8091E80080FF52
:10146000DCCF2115310531F08091F2009091F3002D
:10147000089798F04091F2005091F30091E04830C5
:10148000510509F090E08091E800482F4E7F40938D
:10149000E8008F778093E800C0CF84918093F100BB
:1014A000215031093196DDCF803809F07FCE80910F
:1014B000E800877F8093E800809146018093F100E7
:1014C0008091E800982F9E7F9093E8008F7780931B
:1014D000E8008091E80082FD60CE8091AF0181112B
:1014E000F8CF64CE811162CE90914901923008F01C
:1014F0005DCE8091E800877F8093E800909346015D
:101500008091E800982F9E7F9093E8008F778093DA
:10151000E80080914601811581F084E08093AF015D
:1015200042E361E883E0D1DD42E360E884E0CDDDC1
:1015300042E061EC82E0C9DD39CE83E0EFCF913249
:1015400009F451C0923209F49FC0903209F02ECEB6
:10155000813209F02BCE8091E800877F8093E800EC
:101560008091E80082FF8BC08091F10090E0A0E0C4
:10157000B0E08093000190930101A0930201B09329
:1015800003012091F100922B8093000190930101BF
:10159000A0930201B09303012091F100A22B80934C
:1015A000000190930101A0930201B09303012091E7
:1015B000F100B22B8093000190930101A0930201EE
:1015C000B09303018091F100809304018091F100B8
:1015D000809305018091F100809306018091E800DD
:1015E000982F9B7F45C0813A09F0E0CD8091E800BB
:1015F000877F8093E800809100018093F1008091C3
:10160000000190910101A0910201B0910301892F85
:101610009A2FAB2FBB278093F1008091000190910E
:101620000101A0910201B0910301CD01AA27BB27BE
:101630008093F1008091000190910101A09102013D
:10164000B09103018B2F9927AA27BB278093F10024
:10165000809104018093F100809105018093F10055
:10166000809106018093F1008091E800982F9E7F81
:101670009093E8008F778093E800B0DC97CD80915D
:10168000AF0181116DCF92CD813209F08FCD809164
:10169000E800877FF0CFCF93C82F3CDC8C2F34DC61
:1016A000289ACF910895A4E0B0E0E9E5FBE00C941E
:1016B0005A357B018C010E94BF3469837A838B8306
:1016C0009C832091860284E0289F90011124B90117
:1016D000605C7E4F44E050E0CE0101960E94CB3525
:1016E0002091860230E02F5F3F4F277033272093F1
:1016F0008602E0928202F0928302009384021093A9
:1017000085022496E6E00C947635A0E4B0E0EBE8A0
:10171000FBE00C9454356C01CE0101967C015E0116
:1017200091E4A90EB11C470108E010E084E301DC5C
:10173000110F8170182BEFEEF0E03197F1F700C038
:1017400000000A9599F780918400909185001827F0
:10175000F70111937F01EA15FB0531F760E470E0B2
:10176000C4010E94512D892B51F4A60160E470E060
:10177000C4010E94152D01E0892B09F000E0802FA3
:10178000C05CDF4FECE00C947035CF93C4E6E9DB2E
:10179000982F9F7E913051F0863141F087EC90E098
:1017A0000197F1F700C00000CA9589F7CF9108951D
:1017B00086E371DFEADF8BE36EDF8AE36CCFF8DF6D
:1017C00084E369CFCF93DF93C82FD62F86E363DFFF
:1017D0006D2F8C2FB9DBF3DFDF91CF910895CF937D
:1017E000C0E0D3DF83E357DFD0DF85E297DB8F33C1
:1017F00069F0C11549F08091200290912102019673
:101800009093210280932002CF91089586E343DFD5
:10181000CF5FC33031F780911E0290911F02019675
:1018200090931F0280931E02EFCFCF93C82F99DBB6
:101830008D30A9F44B9913C0C11599F080911C0209
:1018400090911D02019690931D0280931C0286E3E5
:1018500022DFC5DF84E31FDF82E080939601CF9112
:10186000089585E25BDB8F33D1F78091220290915E
:10187000230201969093230280932202E8CF0F93D4
:101880001F93CF93C82F01ED17E0E0918F01E03453
:1018900078F481E08E0F80938F01F0E0E15BFE4FE2
:1018A000C083803409F470DBCF911F910F910895AC
:1018B0006BDBE0918F01E03460F38091AF01843005
:1018C00041F40150104081F38AE18A95F1F700C09C
:1018D000DCCFE0E0DECFCF93DF93EC01FE0184911B
:1018E0002196811103C0DF91CF910895C8DFF6CF13
:1018F00081E69BE0F0CFA1E0B0E0E1E8FCE00C94F1
:101900005C3501E0098380918102811127C081E764
:1019100092E0FBDE182F811106C0EADF812F2196AD
:10192000E4E00C94783540E150E060E671E081E756
:1019300092E00E94CB3541E050E060E771E0CE01DB
:1019400001960E94CB3500938102198241E050E05C
:1019500065E371E0CE0101960E94CB3511E0DECF48
:10196000CF93C82F82958F70C03A50F4805D87DF87
:101970008C2F8F708A3030F4805D81DFCF91089595
:10198000895CF5CF895CF9CFCF93DF93EC01888137
:10199000E7DF8981E5DF8A81E3DFDF91CF91089579
:1019A0001F93CF93DF93EB01182F892FD9DF812F5E
:1019B000D7DF8D2FD5DF8C2FD3DFDF91CF911F9114
:1019C00008954F925F926F927F928F929F92AF9203
:1019D000BF92CF92DF92EF92FF921F93CF93DF934C
:1019E000CDB7DEB72B970FB6F894DEBF0FBECDBFD5
:1019F0006B017C01C114D104E104F104C1F480E362
:101A00003EDF2B960FB6F894DEBF0FBECDBFDF9141
:101A1000CF911F91FF90EF90DF90CF90BF90AF904C
:101A20009F908F907F906F905F904F900895CE0120
:101A300001965C0110E04C018AE0482E512C612C8B
:101A4000712CC701B601A30192010E941C351F5FD2
:101A5000605DF50161935F01D701C60169017A01FB
:101A60000A97A105B10510F01B3059F71150F40188
:101A7000E10FF11D808103DF1111F8CFC2CFCF93A9
:101A8000DF93EC0197FF05C08DE2F9DED195C1959A
:101A9000D109BE01DD0F880B990B93DFDF91CF9148
:101AA00008958DE0ECDE8AE0EADE6ECAEF92FF92E6
:101AB0000F931F93CF93DF93C62FE42ED52FF22ED3
:101AC000DEDE8C2F4DDF0E2D1D2FC00FD12FD11D2F
:101AD000F80181918F0144DF0C171D07C9F78F2D85
:101AE0003FDFDFDFCDB7DEB7E6E00C947635A0E070
:101AF000B0E0EDE7FDE00C9458356C01EB01E42E0D
:101B0000F22E82EC9AE0E7DE8C892ADF10E08C89E5
:101B1000181708F454C08E2D23DF8F2D21DF8CEB96
:101B20009AE0D9DECE0103962FDF86EB9AE0D3DE72
:101B3000CE01069629DF80EB9AE0CDDE6E8970E05B
:101B400080E090E03EDF8BEA9AE0C5DE6F8970E0CE
:101B500080E090E036DF86EA9AE0BDDE6C857D8528
:101B60008E859F851DDF8C8D85FF06C080EA9AE0FB
:101B7000B2DECE01099608DF8C8D82FF10C08AE9A3
:101B80009AE0A9DE688979898A899B8909DF85E9D4
:101B90009AE0A1DE6A8D70E080E090E012DF81E9DA
:101BA0009AE099DE8C8DDCDE011519F08CE89AE064
:101BB00092DE77DFCDB7DEB7E8E00C947435F6013E
:101BC000E10FF11D8081CCDE1F5FA1CFA3E0B0E06B
:101BD000ECEEFDE00C945E3580913A0390913B036E
:101BE000A0913C0389839A83AB8388E89AE073DEF3
:101BF00080912F02811509F436C184E89AE06BDEEA
:101C000088E79AE068DE80914503813009F02EC1B3
:101C100081E79AE060DE81E69AE05DDECE01019622
:101C2000B3DE8BE59AE057DE80914803811509F415
:101C300020C181E324DE86E59AE04DDE60913D031C
:101C400070913E0380913F0390914003A9DE80E5AF
:101C50009AE041DE80911901805D11DE86E49AE010
:101C60003ADE80914903811509F405C181E307DE5D
:101C70008DE39AE030DE80912602811509F4FDC0E3
:101C800081E3FDDD82E39AE026DE80911B01811570
:101C900009F4F5C081E3F3DD89E29AE01CDE80916E
:101CA0006F03811509F4EDC081E3E9DDFADE29D87F
:101CB0008EE19AE010DE80911801811509F4E3C0ED
:101CC00081E3DDDD85E19AE006DE60911C01709123
:101CD0001D0180E090E075DE8FE2D1DD64E873E005
:101CE00080E090E06EDE8EE09AE0F5DD6091240207
:101CF0007091250280E090E064DED3DE87E09AE018
:101D0000EADD609130027091310280E090E059DEAE
:101D100082E09AE0E0DD609132027091330280E06F
:101D200090E04FDE8CEF99E0D6DD60913402709147
:101D3000350280E090E045DE86EF99E0CCDD6091F1
:101D400036027091370280E090E03BDE8FEE99E042
:101D5000C2DD609138027091390280E090E031DE9E
:101D600088EE99E0B8DD609140027091410280E018
:101D700090E027DE81EE99E0AEDD60914202709145
:101D8000430280E090E01DDE89ED99E0A4DD6091E2
:101D900044027091450280E090E013DE83ED99E00B
:101DA0009ADD60913A0270913B0280E090E009DE9A
:101DB0008EEC99E090DD60913C0270913D0280E0F4
:101DC00090E0FFDD86EC99E086DD60913E02709147
:101DD0003F0280E090E0F5DD8EEB99E07CDD6091E4
:101DE00046027091470280E090E0EBDD88EB99E0DD
:101DF00072DD609122027091230280E090E0E1DDCB
:101E00008FE23DDD609120027091210280E090E040
:101E1000D8DD8FE234DD60911E0270911F0280E0F8
:101E200090E0CFDD80EB99E056DD60911C0270916F
:101E30001D0280E090E0C5DD88EA99E04CDD8091EC
:101E40001701082E000C990B1ADE82EA99E043DD97
:101E500080911601082E000C990B11DE22DE2396CC
:101E6000E2E00C947A3580E89AE0C9CE88E69AE000
:101E7000D1CE80E3DFCE80E3FACE80E302CF80E3F1
:101E80000ACF80E312CF80E31CCFA0EDB0E0EBE4FB
:101E9000FFE00C9450353C01CE018F549F4F20E160
:101EA000E1E7F2E0DC0101900D922A95E1F700E014
:101EB00010E07C019CE0A92EB12CA80183E056958E
:101EC00047958A95E1F747019E012F533F4FC12C5B
:101ED000D12C2901C8018C0D9D1DFC01EF70FF273D
:101EE000EF5AF44FE491D401FD914D01B5010E94E8
:101EF0000835DC01AB59BD4FE427EF278C918E27C5
:101F0000F90181939F01FFEFCF1ADF0A80E1C81624
:101F1000D10401F7B701CE0101960E947927A701EC
:101F2000B201CE0101960E94D9270F5F1F4F0532E3
:101F3000A1E01A0711F680E1F701D30101900D929B
:101F40008A95E1F7C053DF4FE0E10C946C35A0EEC9
:101F5000B0E0EDEAFFE00C945A358C01E1E4FBE0DF
:101F6000DE01AF54BF4FCD014096AD0124912D93BA
:101F70003196A817B907D1F7DE01AF53BF4F27E05D
:101F800030E07D0189EF820F6CE00E94FC34E92F84
:101F9000F0E0EB59FD4FB9016F707727640F751FA3
:101FA0008081FB01908189278D932F5F3F4F2731DF
:101FB000310541F7BA01CE0101960E947927AE01A1
:101FC0004F525F4FB701CE0101960E94D927F80109
:101FD000BE016F527F4F9801205F3F4F8191DB011F
:101FE0009D91BD01AF01415051098927DA018C93C0
:101FF000E217F30799F7C052DF4FE6E00C9476350D
:10200000CF92DF92FF920F931F93CF93DF93CDB7C1
:10201000DEB7C15ED1090FB6F894DEBF0FBECDBFEB
:10202000F82E192F6E018EEDC80ED11C84E0F6013A
:1020300011928A95E9F75FDC811569F1CE018F5421
:102040009F4F23DFAE014F525F4FB60185E692E00E
:102050000E947B2BBE016F547F4FCE0101960E94E0
:10206000792700E19E012F533F4F4F2D512FBE0185
:102070006F527F4FCE0101960E94DB29CE018F5314
:102080009F4F65DF40E150E06EE171E0CE018F537C
:102090009F4F0E94CB35CF51DF4F0FB6F894DEBF74
:1020A0000FBECDBFDF91CF911F910F91FF90DF90B9
:1020B000CF900895A2EEB0E0E0E6F0E10C94583540
:1020C0007C01CE51DF4F1882C25ED0406E018EED92
:1020D000C80ED11C84E0F60111928A95E9F741E01F
:1020E00050E065E371E0CE018E519F4F0E94BB35F9
:1020F000109164021115B9F110918102111599F135
:10210000CE51DF4F1881C25ED040113091F540E1D1
:1021100050E06EE171E0CE018F539F4F0E94BB35BE
:10212000CE018F539F4F13DFCE018F549F4FADDEF3
:10213000AE014F525F4FB60185E692E00E947B2BC5
:10214000BE016F547F4FCE0101960E94792700E1B6
:102150009701AE014F535F4FBE016F527F4FCE01CB
:1021600001960E94DB29812FCE51DF4FE8E00C94CD
:10217000743510E0F8CFA2E4B0E0E1ECF0E10C94AB
:102180005435792F162FF42E022F6983462F50E0F5
:10219000682FCE0102960E94A1353B818A8196E785
:1021A00089278A8322E0AE014F5F5F4FB42EA52EB0
:1021B000FA01E20FF11D90816981261708F445C0EC
:1021C00093279083F5DAF11409F444C0011509F45A
:1021D00043C080910B0190910C01892B90910D01CE
:1021E000892B811509F475C08DE00E948E07219618
:1021F0008FAF21978EE00E948E0722968FAF229795
:102200008FE00E948E0723968FAF23978BE091E09B
:102210000E94B50785E33FDAC12CD12C2CE2822E37
:10222000992493940E94B107833109F054C0E12CA2
:102230008FE19EE40197F1F700C000000E9475084D
:10224000E394E016A8F30F2D07C0845289278083FA
:102250002F5FAECF0111DECF0E948A078FE70E9469
:102260008407EB2CFA2CF70181917F010E948407EF
:102270008E2D8B191817B8F7289A85E30CDAE12C04
:10228000F12C9CE2C92EDD24D3940E94B107833146
:10229000D9F59AE0910F80E0EFECF7E03197F1F794
:1022A00000C000008F5F8917B8F384EFE82EFF2489
:1022B000F3948AE30E9499078F77811509F449C046
:1022C0000E94B1078631C9F5011509F44DC010E02F
:1022D00042C0F12C9FCF87EC90E00197F1F700C04E
:1022E0000000C601B4010E9408358B32914011F400
:1022F00085E3D1D9FFEFCF1ADF0A28EBC2162BE016
:10230000D20609F08FCF93CF87EC90E00197F1F7D9
:1023100000C00000C701B6010E9408358B32914011
:1023200011F485E3B8D9FFEFEF1AFF0A28EBE216A4
:102330002BE0F20609F0A9CFACCF8FEC97E0019724
:10234000F1F700C0000091E0E91AF10809F0B1CFFF
:10235000BBCF011539F086E39ED9CE01805C9F4F3B
:102360000E94B507111102C023DA10E00E94B107E4
:102370008D3011F084E38FD9812FCE5BDF4FECE0FD
:102380000C947035A0E0B0E0E8ECF1E10C94583525
:102390007C01C62FD42ED22F411509F443C021153C
:1023A00009F440C020910B0180910C01282B8091F1
:1023B0000D01282B81E0211101C080E0082F10E0E1
:1023C000809118018115B9F10E94810628E0C29F11
:1023D000C001112485549F4F64E670E00E940835C7
:1023E000CB018D0F911D22273327201B310B262374
:1023F0003723280F391F80911C0190911D018217EE
:10240000930798F48091240290912502019690936D
:10241000250280932402C2E08C2FCDB7DEB7E8E01E
:102420000C94743500E010E0CBCF821B930B90939B
:102430001D0180931C018FEF8C0F8D3330F1C0E0B4
:1024400060913D0370913E0380913F039091400362
:1024500000918202109183022091840230918502C2
:10246000601771078207930770F06B017C01C01A37
:10247000D10AE20AF30A97018601C11444E0D406A6
:10248000E104F10448F20FD9C7CF2D2F4D2D6C2F49
:10249000C70171DE811599F2D11549F0809146028C
:1024A0009091470201969093470280934602011152
:1024B0001DC084EB90E00E940407C1E0C1CFEFECA7
:1024C000F7E03197F1F700C000000196209112016A
:1024D000309113018217930790F320E040E06C2FB6
:1024E000C70149DE811509F4AACFE3CF80E090E06F
:1024F000EDCF20911B01211108C040E043DF982F50
:1025000081E0913009F080E0089590E0F9CFA4E3F4
:10251000B1E0EDE8F2E10C9456357E018EECE81A5C
:102520008EEFF80A80911E0190911F01A091200169
:10253000F70180839183A2836E01F1EFCF0ED11C4E
:10254000D60180E18D938CE0E5E6F2E001900D92FA
:102550008A95E1F7F601158681E086871786108A4D
:10256000818B8AEE828B82E0838B98E1948B858BC2
:1025700080E4868B83E0878B80916002909161027A
:10258000A0916202B0916302808F918FA28FB38F6E
:10259000AE014F5D5E4F60E672E085E692E00E941C
:1025A0007B2B60E572E0CE0101960E9479278E01B7
:1025B000025D1E4F2CE1A601BE016F5D7E4FCE0174
:1025C00001960E942E29C25DDE4F8881CE52D140F5
:1025D000F601848FC15DDE4F8881CF52D140858F57
:1025E000C05DDE4F8881C053D140868FCF5CDE4F07
:1025F0008881C153D140878FE8E4F2E0D6019096FC
:1026000080E592E0B701760121912D938E179F0707
:10261000D9F7CE018F549F4F5C0188E2C82E00E0AD
:1026200010E020E041E08AE892E00E945832682FF2
:10263000811569F0C5015DDF811549F080913C028B
:1026400090913D02019690933D0280933C02CC5CB8
:10265000DE4FEAE00C947235A0E1B0E0E2E3F3E192
:102660000C945E3580916402811107C081E29BE089
:1026700032D96096E2E00C947A3580911B01811585
:1026800019F082E09BE0F4CFCE0101963ED881158F
:1026900089F08981809360028A81809361028B81B5
:1026A000809362028C8180936302CE0101962DD8C3
:1026B000811102C01DD9DDCF88E0FE013196A8E46A
:1026C000B2E001900D928A95E1F721E030E04EE60C
:1026D00052E060E070E08AE892E00E94A42E81E07F
:1026E00080932F02809370030E947506DC01CB015A
:1026F000805A9541AF4FBF4F80932B0290932C028D
:10270000A0932D02B0932E020E947506DC01CB012E
:10271000805C904EAF4FBF4F80932702909328026A
:10272000A0932902B0932A0285EC9AE0D4D8EFDE78
:10273000A0CFA0E4B0E0EFE9F3E10C945C35AC018C
:10274000262F8E010F5F1F4F67E872E08AE892E044
:102750000E941233682F811569F0C801CADE811505
:1027600049F080913C0290913D02019690933D0288
:1027700080933C02C05CDF4FE4E00C947835A0E12C
:10278000B0E0E5ECF3E10C945E3585E88983809157
:102790001A0191E0980F90931A018A8382E08B834B
:1027A00090E89C8398E09D838E831F8283E08887D6
:1027B00080916F03811188EC898784E08A871B866A
:1027C00085E08C871D866DE0CE010196B2DF6096B4
:1027D000E2E00C947A35CF93C62F80936F030E946A
:1027E000E00682EA9BE077D880916F038115A9F01B
:1027F00081E345D856D9C11571F080914803811500
:1028000051F08091870290918802892B90918902E2
:10281000892B8111B4DFCF91089580E3EACFAEE335
:10282000B0E0E5E1F4E10C945835062F4EE3BE012B
:102830006F5F7F4F0E943F07823028F029819FEF12
:10284000980F291721F089E999E045D83FC01091E8
:102850001B01111519F08DE799E0F7CF90911B023C
:102860009115C1F1909112029115A1F18A3090F168
:102870008C81823079F59A818091130298132AC055
:1028800043E050E064E172E0CE0108960E94943586
:10289000892B01F50E947506C0901702D09018028E
:1028A000E0901902F0901A026C197D098E099F09B7
:1028B0006D3D75408105910568F4809144029091C9
:1028C000450201969093450280934402EE96E8E01B
:1028D0000C947435011521F080911501811114E2D9
:1028E000212F40E06981CE0102964CDD823061F4F7
:1028F00080913E0290913F02019690933F02809317
:102900003E028FE699E0A1CF811551F080913C0203
:1029100090913D02019690933D0280933C02D6CF68
:1029200080913E0290913F02019690933F028093E6
:102930003E0286E699E089CF1F921FB61F921124AE
:102940008F939F93AF93BF93809171039091720384
:10295000A0917303B09174030196A11DB11D8093E2
:10296000710390937203A0937303B0937403BF91A8
:10297000AF919F918F911F901FBE1F901895CDB75B
:10298000DEB7C250D2400FB6F894DEBF0FBECDBF47
:1029900084B7877F84BF0FB6F894A89580916000B4
:1029A000886180936000109260000FBE80E820E094
:1029B00030E00FB6F89480936100209361000FBE61
:1029C0006A980E9412088091D80080618093D80094
:1029D00081E080930502789484B1876084B923985C
:1029E000209A289A80E58CBD1DBC539852986E9A07
:1029F000289A20E52A95F1F7289850E55A95F1F79D
:102A0000289A88E78A95F1F780E30E944B0BAFE1A3
:102A1000BEE41197F1F700C0000010E0612F70E0F4
:102A2000CB01865D9E4FFC0124912F3F09F040C2EF
:102A300063EC8EE30E94A4070E94EF0B0E94DF0B61
:102A400042E050E060E871E0CE0101960E94BB35A3
:102A500069818A8186278F3F19F48CE00E94E20BFE
:102A6000109280008BE0809381008CE790E090933F
:102A700089008093880082E080936F00789442E020
:102A800050E060E071E0CE0101960E94BB35898183
:102A90009A818133914509F015C24CE050E062E023
:102AA00071E085E692E00E94BB3540E150E06EE0C7
:102AB00071E080E592E00E94BB3581E08093640282
:102AC000198241E050E060E771E0CE0101960E947A
:102AD000BB351981113009F0F7C140E150E060E6E3
:102AE00071E081E792E00E94BB35109381024E01B4
:102AF00021EB820E911C83E0D4011D928A95E9F7A7
:102B000020E030E0A40160E070E08AE892E00E94FA
:102B1000A42E00E411E0C12CD12C7601B12C44E0AC
:102B200050E0B801CE0101960E94BB3549805A8021
:102B30006B807C80C301B2010E94BF34462F572FA7
:102B4000BC01B394472046204520409459F0C41658
:102B5000D506E606F70630F48B2D87708093860243
:102B60006A017B010C5F1F4FE8E0BE12D8CFC11491
:102B7000D104E104F104B1F444E050E061E371E018
:102B8000CE0101960E94BB3569817A818B819C813F
:102B90006F3FFFEF7F078F079F0721F00E94BF3431
:102BA0006B017C01B701A6015C5F6F4F7F4F8AE824
:102BB00092E00E94FA2E60913D0370913E03809155
:102BC0003F03909140030E94530BCE01019672DAAD
:102BD000811539F0BE016F5F7F4F8AE892E00E9455
:102BE000E02E84E599E00E946B0C0E94510DD12CDF
:102BF0003E012EE8621A2EEF720AE5E32E2E3324F0
:102C000033942C0E3D1E52E2250E311CCE018B5CFE
:102C10009E4F8596C150DE4F99838883CF5FD14008
:102C2000D3011396CF5FDD4FB983A883C150D24043
:102C3000FE017196C550DE4FF983E883CB5FD1402A
:102C40004B9B52C182E30E9499078093950190911A
:102C5000900191113BC191E090939001809392017A
:102C6000809393018093940110929101809191013E
:102C70008F3F19F08F5F809391014A9938C10E946C
:102C8000B107813111F40E94DF0B8091700381152F
:102C900009F460C40E94E0060E94750600910701D5
:102CA000109108012091090130910A01601B710BFC
:102CB000820B930B97FD6DC40E947506DC01CB015E
:102CC00080569444A24FBF4F809307019093080110
:102CD000A0930901B0930A0181E00E94150C8CB108
:102CE00084709091A0019111C4C4811519F081E004
:102CF0008093A001809170038115E9F00E94750610
:102D0000462F572FBC0180912B0290912C02A0914D
:102D10002D02B0912E02481759076A077B0708F465
:102D200008C5109270030E94E00684E492E00E94BD
:102D30006B0C0E94510D1091A501111509F45FC093
:102D40000E9475062091A1013091A2014091A3013A
:102D50005091A401621773078407950708F44FC0C8
:102D60000E947506DC01CB0180559B4FAF4FBF4FD2
:102D70008093A1019093A201A093A301B093A40119
:102D8000123009F4F3C4133009F411C5113069F598
:102D900080E3CB5CDE4F8883C553D140FE01319682
:102DA0005F01CC24C394CE018B5C9E4F7C0100E07C
:102DB00010E021E041E067E872E08AE892E00E94DA
:102DC0005832682F811569F0C50193DB811549F0F0
:102DD00080913C0290913D02019690933D02809338
:102DE0003C0289EA92E00E946B0C0E94C407809129
:102DF000A5018F5F843008F0DFC48093A501809126
:102E0000A601811581F00E9475060091AB01109119
:102E1000AC012091AD013091AE01601B710B820BB2
:102E2000930B97FFD2C40E9475080E94C407E091DB
:102E3000F1018091F001E81708F022C581E08E0FC2
:102E40008093F101F0E0E055FE4F808190E08D30FD
:102E5000910529F08A30910511F00C942026F40197
:102E6000ED0DF11D1082D11409F1D4018C91813442
:102E700009F0B3C511968C911197811509F4DBC542
:102E8000833709F032C543E0BE016F5F7F4FC40155
:102E900002960E943F076B8162956170833009F052
:102EA00060E0C4010296BBDC0E94C407D12CC8CEEE
:102EB000655D7E4FFB016491FC0184910E94A40733
:102EC0001E5FACCD80E0FACD10E00FCE9091930163
:102ED000891714F4809393019091920198170CF044
:102EE000C5CE80939201C2CE10929001C6CE8FE3E0
:102EF0000E948E07C82EE894C7F88FEF8C0D8D3393
:102F000008F0C1CEC9820E948A078FEF0E94840711
:102F10008E010E5F1F4FBB24B394780180E00E94A6
:102F20008407D8018D938D01B394CB14B8F780E05A
:102F30000E948407B82E80E00E948407A82E289A59
:102F40008A8196E798279A8392E0FE013196E90FED
:102F5000F11D20813981931708F4BDC08B81822730
:102F600080834C2D50E0B701C3010E94A135EB2CAA
:102F7000B7FE03C0EE24E394EB0CE5940E2C000C9A
:102F8000FF08BAE4EB1AF108E0E8EE16EFEFFE06F0
:102F900024F470E8E72EFF24FA940E94DF0B80915E
:102FA0000402811509F458C08DE392E00E946B0C75
:102FB00080919501082E000C990B0E943F0D85E32E
:102FC00092E00E946B0C80919401082E000C990BEA
:102FD0000E943F0D8FE292E00E946B0C8091930162
:102FE000082E000C990B0E943F0D89E292E00E948E
:102FF0006B0C80919201082E000C990B0E943F0DE2
:1030000085E292E00E946B0C6091910170E080E09B
:1030100090E00E94E10C8EE192E00E946B0CC701EF
:103020000E943F0D88E192E00E946B0C6C2D70E0D5
:1030300080E090E00E94E10C82E192E00E946B0C43
:103040008301D8018D918D010E94B00C802F8619CB
:103050008C15B8F30E94510D90912F0280911102AE
:1030600020910802822B81113CC0911509F40DCEEC
:10307000B6E0CB123BC043E050E06AE373E0C3012B
:103080000E949435892B09F000CE809142029091E4
:1030900043020196909343028093420289E092E0BA
:1030A0000E946B0CCF5FDD4F88819981C150D24067
:1030B0000E94C40C83E092E00E946B0CC3010E944A
:1030C000C40C8CEF91E00E946B0CC7010E943F0D75
:1030D0000E94510DDACD8452822780839F5F822F18
:1030E00034CF9111C5CF00E010E059C08091190193
:1030F000811121C08091300290913102019690930C
:103100003102809330028E0101551E4F9E012B5CCF
:103110003E4F4C2DB3018AE892E00E940B2F892B81
:1031200051F18091340290913502019690933502CD
:1031300080933402D8CF9E012F5F3F4F4C2DB301B7
:103140008AE892E00E941332811579F066E0CE01A0
:103150000196CFD9811549F08091400290914102AA
:103160000196909341028093400280912F02811535
:1031700009F4B9CFBFCF809132029091330201960A
:103180009093330280933202C553DE4F8881CB5C2B
:10319000D140897101E0811101C000E011E050903F
:1031A0000802809111028529811509F432C188E253
:1031B00090E00E940407111511F40C94312651146B
:1031C00031F02E2DA3016C2D80E50E94560D0115C6
:1031D00011F40C949F2688E290E00E940407C553E6
:1031E000DE4F8881CB5CD14087FF0AC02091360238
:1031F000309137022F5F3F4F3093370220933602D2
:103200008970893049F5CA53DE4F8881C65CD14048
:10321000811122C0CD53DE4F88819981C35CD1409A
:103220000597D0F0CB5CDE4F8881C553D1408638FE
:1032300099F4C95CDE4F8881C753D140823061F474
:1032400081E0C75CDE4F9881C953D140911101C024
:1032500080E060E0C0DA93DACE2C809170038115B3
:1032600009F47AC0CD53DE4F8881C35CD1408D32E2
:1032700008F472C0CB5CDE4F8881C553D1408032E8
:1032800009F06AC08CE0E5E6F2E0DE0111960190FB
:103290000D928A95E1F780E1E0E5F2E0DE011D960E
:1032A00001900D928A95E1F7809160029091610200
:1032B000A0916202B09163028D8F9E8FAF8FB8A3F1
:1032C00088E0E8E4F2E0DE01919601900D928A95A3
:1032D000E1F7C95CDE4F88819981AA81BB81C75320
:1032E000D14089A79AA7ABA7BCA788E0FE01EB5CF9
:1032F000FE4F3A96DE019D9601900D928A95E1F778
:1033000080E1FE01EB5CFE4F7296DE01D5960190E6
:103310000D928A95E1F7C25ADE4F88819981AA8180
:10332000BB81CE55D14029968CAF9DAFAEAFBFAF1C
:103330002997BE0162537E4FCE0101960E94EC2B6D
:1033400081116AC0109270030E94E0068EED91E038
:103350000E946B0C0E94510D90911901911509F476
:10336000EDC0C553DE4F8881CB5CD14081FD07C0E5
:10337000913009F4E3C08970893009F0DFC0AE01F3
:1033800042535E4FBE0161557E4F8AE892E00E9433
:103390007531873109F0D2C067E1CE0182539E4F6B
:1033A000A8D8F82E811509F4C0C0809138029091F8
:1033B0003902019690933902809338028091260257
:1033C000811519F18E010F5F1F4FCD53DE4F2881FC
:1033D000C35CD140AE014B5C5E4FBE0161557E4F78
:1033E0008AE892E00E949E32682F811571F0C80130
:1033F00080D8811509F4A4C080913A0290913B02D3
:10340000019690933B0280933A020F2D2A2D4C2D6A
:1034100083C01111E0CE39CCBE0162537E4F8AE8E1
:1034200092E00E94E02EB1018AE892E00E94EB2E29
:10343000C65ADE4F688179818A819B81CA55D14005
:103440000E94BF34AB01BC018AE892E00E94FA2ED0
:10345000CE0182539E4F0E94001043E050E06EE286
:1034600071E0C1010E94CB3544E050E061E371E0BE
:10347000C150DE4F88819981CF5FD1400E94CB350A
:1034800011E0CB51DE4F1883C55ED14041E050E0E2
:1034900065E371E0CE018B519E4F0E94CB351092B7
:1034A00070030E94E006CE54DE4F88819981AA8184
:1034B000C25BD1408093870290938802A0938902D7
:1034C00043E050E066E371E087E892E00E94CB358C
:1034D00010931A011093A5010E947506DC01CB011F
:1034E00080559B4FAF4FBF4F8093A1019093A20196
:1034F000A093A301B093A4018BEC91E00E946B0C0C
:10350000C1010E94C40C0E94510D89E891E00E9403
:103510006B0C00E02A2D4E2DBE0161557E4FCE0171
:103520008B5C9E4F0E94770DB0CB80913E029091B4
:103530003F02019690933F0280933E02F12C3ECFD2
:1035400080913E0290913F02019690933F028093BA
:103550003E025BCFE0906B03F0906C0300916D0333
:1035600010916E03E114F1040105110509F494CBE7
:103570000E9475066E157F058007910708F48CCBB5
:1035800010926B0310926C0310926D0310926E03F5
:1035900081CB0E94750600919701109198012091AE
:1035A000990130919A01601B710B820B930B97FD6F
:1035B00096CB0E947506DC01CB0188519C4FAF4F22
:1035C000BF4F8093970190939801A0939901B09376
:1035D0009A0180E00E94150C0E94B1078D3009F01D
:1035E0007ECB4B997CCB80919601811521F0815047
:1035F0008093960174CB84E30E94990787FD8F5FC7
:10360000859546EB480F50E84503900111248091C1
:103610001701813881F08091F2019091F301281B0C
:10362000390B37FF20C02D5F3F4F359527953595D6
:103630002795280F391F3093F3012093F20137FFAC
:1036400002C021583F4F220F232F221F330B2093FC
:1036500017018091160184171CF0813809F03FCBC7
:10366000409316013CCB55E0359527955A95E1F7E7
:10367000E0CF811130C0E0909C01F0909D0100915D
:103680009E0110919F01E114F1040105110559F407
:103690000E94750660939C0170939D0180939E012A
:1036A00090939F0127CB80919B01811123CB0E9496
:1036B00075066E197F09800B910B6F3171058105BD
:1036C000910508F417CB81E080939B0184EB90E097
:1036D0000E9404070FCB80919B018115B9F00E94D5
:1036E000750600919C0110919D0120919E013091E1
:1036F0009F01601B710B820B930B613D774081052D
:10370000910578F00E942C130E94C40710929B012F
:1037100010929C0110929D0110929E0110929F01A7
:10372000E9CA81E090916F03911180E061E053D884
:10373000EBCF8091270290912802A0912902B091AD
:103740002A02481759076A077B0708F4F4CA405C45
:10375000504E6F4F7F4F4093270250932802609343
:10376000290270932A020E948712E5CA85E889839C
:1037700080911A0191E0980F90931A018A83EFE5E6
:10378000F2E0DE01139684918D933196C550DE4FA1
:1037900088819981CB5FD1408A179B07A1F760E1AF
:1037A000CE0101960E94991384E992E01CCB0E94FD
:1037B000BF138DE792E017CB1092A5018DE692E042
:1037C0000E946B0C0E94C4071ACB1092A601809134
:1037D000A701898380E88A8380910902811561F0BD
:1037E00043E050E06AE072E088EA91E00E9494359C
:1037F000892B11F481E88A8382E08B8380910E0209
:1038000090910F02A09110028C839D83AE838091D2
:10381000A8019091A901A091AA018F839887A987F7
:103820001A866AE0CE0101960E947912811509F488
:10383000FACA809138029091390201969093390228
:10384000809338028091A701809313028091A80190
:103850009091A901A091AA0180931402909315025E
:10386000A09316020E9475066093170270931802C7
:103870008093190290931A0281E080931202D3CAB6
:103880001092F1011092F0018091AF01843009F0A3
:10389000D7C98093E9008091E80082FFD1C9809167
:1038A000F2009091F300892B21F0E091F001E034D7
:1038B00088F08091E800982F9B7F9093E8008F77A5
:1038C0008093E8008091F001811509F4B9C9E09175
:1038D000F101B4CA81E08E0F8093F0018091F10074
:1038E000F0E0E055FE4F8083DACF823731F481E09B
:1038F0008093110210921B01D7CA883719F41092D5
:103900001102D2CA8136D9F4F4018281811561F0A5
:1039100043E06EE072E0C40102960E943F078330EC
:1039200019F481E080930D0280E599E00E946B0C10
:103930008EE092E00E94C40C0E94510DB5CA8737F8
:1039400011F512968C918115B9F043E06AE072E0AE
:10395000C40102960E943F07833071F480910A02ED
:1039600090910B02892B90910C02892B91E081118F
:1039700001C090E0909309028CE499E00E946B0CE6
:103980008AE092E0D7CF813709F055C0F4019281E7
:1039900080ED890F823030F481E0913309F080E0CE
:1039A00080931B0288E499E00E946B0C80911B02BB
:1039B000811589F081E30E943F0C80911B028115E3
:1039C00009F4BACF80910D028111B6CF85E399E059
:1039D0000E946B0CB1CF80E3EECF84018035D1F42F
:1039E00011968C91811539F1833709F459CA8237C0
:1039F00041F481E0809308028DE299E00E946B0C13
:103A000053CA0F5F1F4F883729F41092080285E2CE
:103A100099E0F4CF843511F40C945E2504F58234DA
:103A200011F40C94B02554F4811509F43DCA8F3378
:103A300011F40C945A2583EB98E0E0CF8334D9F746
:103A400041E0BE016F5F7F4FC80101960E943F07B2
:103A5000813011F40C94FF2580EC98E0CFCF8835AD
:103A600011F40C948125C4F4863511F40C94562578
:103A7000873509F742E0BE016F5F7F4FC8010196AD
:103A80000E943F07823029F419811F3210F40C94F0
:103A90000F2688EB98E0B2CF8D3669F6F801918158
:103AA000911561F0E1ECE90FE53308F0FBC70E2E4C
:103AB000000CFF0BE850FA4C0C943E350E94E60DCA
:103AC000F3C961E070E0943411F060E070E08AE8DE
:103AD00092E00E94F52E8BE998E00E946B0CD801D1
:103AE00011968C91843489F584E998E00E946B0CDE
:103AF0000E94510DF8018181843409F4D5C9CB5C51
:103B0000DE4F1882C553D14041E050E065E371E0DB
:103B1000CE018B5C9E4F0E94BB35CB5CDE4F888113
:103B2000C553D140813009F4BFC980916402811529
:103B300009F4BAC98E010F5F1F4FC8010E94850B9F
:103B4000811106C00E94780CAFC98BE898E0CECFF7
:103B5000B8018AE892E00E94E02EC8010E9400109D
:103B600081E0CB5CDE4F8883C553D14041E050E01B
:103B700065E371E0CE018B5C9E4F0E94CB3580E106
:103B8000D8011D928A95E9F784EC92E037CF43E0A3
:103B9000BE016B5C7E4FC80102960E943F078330D6
:103BA00019F08DE798E02ACFBE016B5C7E4F8AE862
:103BB00092E00E94EB2E84E798E00E946B0CCE010D
:103BC0008B5C9E4FB7CEF8018281883561F41982F3
:103BD00041E050E065E371E0CE0101960E94CB35F3
:103BE00084E398E00BCF8AEF97E008CF44E0BE0172
:103BF0006B5C7E4FC80102960E943F07843019F02B
:103C00008EEE97E0FBCECB5CDE4F688179818A81B6
:103C10009B81C553D1400E94BF34AB01BC018AE8EF
:103C200092E00E94FA2E87EE97E00E946B0C609162
:103C30003D0370913E0380913F03909140030E94A9
:103C4000D00C7ACED80112968C918E3409F09FC098
:103C50008FEC97E00E946B0C0E94C4070E947B0CC3
:103C6000811509F478C0CE0101960E947007811574
:103C700009F469C0FE0131969E01255F3F4F85EC36
:103C80009DE9ACE1B1E8AC01BD0115E0440F551F61
:103C9000661F771F1A95D1F70BE1B695A7959795F3
:103CA00087950A95D1F7842B952BA62BB72B41919D
:103CB0008427E217F30739F7AF73BB276C017D0147
:103CC00080E592E00E94850B811509F442C005E66B
:103CD00012E0A70196016BEE70E080E090E00E9498
:103CE000293381E391E5CB5CDE4F99838883C5530B
:103CF000D1404CE050E062E071E0C8010E94CB3559
:103D000040E150E06EE071E080E592E00E94CB354A
:103D100042E050E060E071E0CE018B5C9E4F0E947B
:103D2000CB3581E080936402CB5CDE4F1882C553B3
:103D3000D14041E050E065E371E0CE018B5C9E4FE5
:103D40000E94CB3508C0CE0101960E94850B8111DF
:103D500009C00E94780C809164028111F0C081E555
:103D600094E04CCE29818A8190E0A0E0B0E0BA2FA7
:103D7000A92F982F8827A22B2B81822BAF73BB27CB
:103D80006C017D0184EE92E00E946B0C99CF80352E
:103D900019F40E942C1388C88B34E9F6C650DE4F04
:103DA0001882CA5FD14041E050E065E371E0CE0186
:103DB00086509E4F0E94BB3580916402811539F078
:103DC000C650DE4F8881CA5FD140813019F081E84A
:103DD00093E014CE8FE693E00E946B0C0E94C40720
:103DE000CE018B5C9E4F0E94850B811509F4AACEF3
:103DF000CB5CDE4F8881C553D140CE50DE4F8883E7
:103E0000C25FD140CA5CDE4F8881C653D140CD50DD
:103E1000DE4F8883C35FD140C95CDE4F8881C753C2
:103E2000D140CC50DE4F8883C45FD140C85CDE4FA8
:103E30008881C853D140CB50DE4F8883C55FD140C5
:103E40007E0122E3E21A2EEFF20AC7010E945A1005
:103E5000811103C082E593E0D1CD5E015EE8A51A31
:103E60005EEFB50AC5010E94450FAE014B515E4F92
:103E7000BE016E507E4F85E692E00E947B2BB5011D
:103E8000CE0101960E9479276E0181E5C81A8EEF56
:103E9000D80A00E19601A701BE016B517E4FCE0109
:103EA00001960E94DB292E019AE0491A9EEF590AD9
:103EB000820120E1A701BE016B517E4FCE01019628
:103EC0000E942A2B80E1D701E82F1D92EA95E9F79D
:103ED000D5011D928A95E9F786E493E00E946B0C68
:103EE00004501109F80134967F01B42CA52CD80197
:103EF0008D918D010E94B00CE016F106C1F786018C
:103F00007601B0E1EB0EF11CF80181918F010E9466
:103F1000B00C0E151F05C1F70B2D1A2D7801F4E01A
:103F2000EF0EF11CD8018D918D010E94B00C0E1581
:103F30001F05C1F70E94510D8BE193E05FCD87E42F
:103F400094E00E946B0C05E612E0F80181918F016C
:103F50000E94B00CF2E001371F07B9F70E94510D23
:103F6000CE018B5C9E4F7C018E0102531E4F9E0141
:103F70002B513E4FAE014E585E4FBE0161557E4FF4
:103F800085E692E00E94C23382E394E00E946B0CCB
:103F9000CB51DE4F8881C55ED1400E94B00C89E2D2
:103FA00094E00E946B0CC153DE4F8881CF5CD140FE
:103FB0000E94B00CC253DE4F8881CE5CD1400E947B
:103FC000B00C8CE194E00E946B0CCE58DE4F8881DF
:103FD0009981AA81BB81C257D140BC01CD016150FA
:103FE0007F4F8F4F9F4F0E94E10C0E94510D8BE03D
:103FF00094E00E946B0CCE0101960E94700781151F
:1040000021F10D5C11409AE2E91A91E0F90AD80118
:104010008D918D010E94B00CE016F106C1F70E944F
:10402000510D8BEF93E00E946B0C00E512E0F8015C
:1040300081918F010E94B00CF2E000361F07B9F7A2
:104040000E94510D86EB93E0D9CC83E094E00E946E
:104050006B0CE5CFD80112968C91803331F461E07E
:1040600080E00E94EB130C945417813319F461E043
:1040700081E0F7CF843539F481E090916F0391119D
:1040800080E061E0EECF84EC97E00E946B0C8091C1
:104090006F03811521F081E30E943F0C4DCC80E33A
:1040A000FBCFA5B058B04BB0BEB1C350DE4FB88304
:1040B000CD5FD140E1B3C250DE4FE883CE5FD14047
:1040C00084B195B18095892B85B987B198B18095D8
:1040D000892B88B98AB19BB18095892B8BB98DB119
:1040E0009EB18095892B8EB980B391B38095892B31
:1040F00081BB8FE097E20197F1F700C0000013B198
:1041000006B1D9B0CCB0BFB089EB97E00E946B0C80
:10411000812F0E94B00C85EB97E00E946B0C802FE2
:104120000E94B00C81EB97E00E946B0C8D2D0E94D9
:10413000B00C8DEA97E00E946B0C8C2D0E94B00CA5
:1041400089EA97E00E946B0C8B2D0E94B00C88E8E6
:1041500097E00E946B0C0E94C40740E9E42EFF2404
:10416000F3949FE7A8E3B1E09150A040B040E1F79D
:1041700000C0000083B181130CC086B1801309C058
:1041800089B18D1106C08CB18C1103C08FB18B1514
:1041900089F18DE797E00E946B0C83B181270E9423
:1041A000B00C89E797E00E946B0C86B180270E94D3
:1041B000B00C85E797E00E946B0C89B18D250E94B9
:1041C000B00C81E797E00E946B0C8CB18C250E94AB
:1041D000B00C8DE697E00E946B0C8FB18B250E948E
:1041E000B00C0E94510D0E94C40713B106B1D9B0A2
:1041F000CCB0BFB0E1E0EE1AF10809F0B2CFA5B83B
:1042000058B84BB8C350DE4FF881CD5FD140FEB9EE
:10421000C250DE4F2881CE5FD14021BB8AE597E0B6
:10422000EDCBD80112961C9181E0103309F480E0A7
:1042300080931B0184E597E00E946B0C81E31033AF
:1042400009F480E30E943F0C88E397E0103309F003
:10425000BFCB84E297E0BCCBF801329680E0982F88
:1042600081E0890F2191211519F08930C1F798E07B
:10427000F80182818B3409F065C083818115B1F02A
:1042800043E0BE016F5F7F4FC80103960E943F0766
:10429000833019F08BE197E0B1CB898180930B01DA
:1042A0008A8180930C018B8180930D018DEC96E0C7
:1042B0000E946B0C80911501811509F4B3C081E354
:1042C0000E943F0C83EC96E00E946B0C60910E0103
:1042D00070910F0180E090E00E94E10C8FE20E945B
:1042E0003F0C609110017091110180E090E00E94FC
:1042F000E10C8DEA96E00E946B0C80910B010E940C
:10430000B00C80910C010E94B00C80910D010E94B4
:10431000B00C80910B0190910C01892B90910D01B3
:10432000892B811104C087EA96E00E946B0C8DE90D
:1043300096E00E946B0C609112017091130180E075
:1043400090E049C0913061F490ED980F923008F000
:1043500066C091E0813309F090E090931501A6CFFB
:1043600008F4A4CF282F2D7F213319F08A3509F0C6
:1043700056C0963018F082E197E040CBF8013396B2
:1043800040E050E0A1E0BAE0AF5F219130ED320FA4
:104390003A3018F089E097E031CBB49FB001B59F77
:1043A000700D1124022E000C330BA901405351094A
:1043B000460F571FA913E8CF8A35A9F4CA010597FC
:1043C000803F914058F086EF96E00E946B0C64EFBE
:1043D00071E080E090E00E94E10CAECA50931301BE
:1043E0004093120163CF9A012A503109273C37408C
:1043F00048F082EE96E00E946B0C60ED77E080E082
:1044000090E0E9CFE1E0F0E0833311F0E0E0F0E0AC
:10441000EE0FFF1FE25FFE4F5183408347CF89EDD0
:1044200096E0ECCA80E34CCFD80112969C9180EDC7
:10443000890F823030F481E0913309F080E080937D
:1044400018010E94810682E996E00E946B0C80911F
:104450001801811509F181E30E943F0C89E896E07B
:104460000E946B0C60911C0170911D0180E090E036
:104470000E94E10C8FE20E943F0C64E873E080E050
:1044800090E00E94E10C82E896E00E946B0C609143
:1044900024027091250253CF80E3DECFF801F28031
:1044A00061E0F0E3FF1201C060E09534C9F460936D
:1044B0002F028EE796E00E946B0CD80111968C912A
:1044C0000E943F0C8DE30E943F0CF80181818135F1
:1044D00021F58091190120E3F22EF80E8F2DDCCD0D
:1044E000913539F422E3F21201C062E060931901C0
:1044F000E0CF963419F460932602DBCF983419F498
:1045000060930402D6CF9E3419F460934903D1CF4F
:104510008AE892E00E94022FCCCFF0E3FF16F1F27E
:1045200091E3F92EDBCFD80112968C9112978D3240
:10453000B9F513968C91811135C08FEFCA5CDE4FAF
:104540008883C653D140CB5CDE4F8883C553D140AE
:1045500042E050E060E871E0CE018B5C9E4F0E942B
:10456000CB3561E18CE00E94E20B8FE696E00E9481
:104570006B0C42E050E060E871E0CE0101960E94D1
:10458000BB3589819A8198279F3FB9F5CB5CDE4F77
:104590008883C553D1400E94B00C8BE696E018CAC0
:1045A000811519F341E0BE016B5C7E4FC801029694
:1045B0000E943F07813021F4F8018481811519F0B0
:1045C00085E796E01BCACB5CDE4F8881C553D1409E
:1045D0008095CA5CDE4F8883C653D14042E050E0EC
:1045E00060E871E0CE018B5C9E4F0E94CB35CB5CC6
:1045F000DE4F6881C553D140B5CF81E10E94B00C38
:1046000082E696E0E5C9E0E3F2E088E1DF011D9291
:104610008A95E9F781E8809316018093170110923B
:10462000F3011092F20183E596E0E8C97E01BEE84D
:10463000EB1ABEEFFB0A8FEFF7018083CE010196E4
:104640000E947007BE2CAF2C811103C087E396E057
:10465000D5C9CF80D884E984FA84D80112968C9188
:10466000811119C0C701B6010E94BF347B018C01C2
:104670008DE296E00E946B0CB701C8010E94D00C3D
:1046800088E196E00E946B0CB701C8010E94D00C33
:104690008BEE95E0B3C944E0BE016B5C7E4FC80170
:1046A00002960E943F07843069F4CB5CDE4F88811C
:1046B0009981AA81BB81C553D140C816D906EA06A3
:1046C000FB0619F089EC95E099C900E011E041E0A2
:1046D00050E0B8018B2D9A2D0E94CB350F5F1F4FF4
:1046E0000038B1E01B0799F78CE895E00E946B0C4D
:1046F0000E94C407F89488E198E00FB6F894A89552
:10470000809360000FBE90936000FFCF923609F057
:1047100076C0F80182818C34F1F58381811569F0CE
:104720000E942B07F82ED80114968C910E942B071B
:10473000BFEFFB1611F08F3F19F489E795E05EC9D2
:104740008F708930C1F0ACF48130A9F08330F1F082
:10475000D12C0B5F1F4F5801D5018C91833709F481
:1047600043C0843509F455C0823591F18CE595E05C
:1047700045C98B30ECCF80910E0190910F010996C5
:104780006AE070E00E940835D62EE3CF80911001D8
:1047900090911101F4CF813371F480910E019091C9
:1047A0000F0109966AE070E00E940835D62E0D5F71
:1047B0001F4F5801D1CF833329F48091100190917C
:1047C0001101EFCFD12C803391F38AE695E016C921
:1047D00095012F5F3F4FB1E0C350DE4FB883CD5FEF
:1047E000D140512C16E032C095012F5F3F4FE1E0E0
:1047F000C350DE4FE883CD5FD140512C26C0580115
:10480000FFEFAF1ABF0A98012E5F3F4FD12C9435AE
:1048100049F5D50111968C91811561F00E942B0705
:10482000582EF50182810E942B07FFEF5F1611F0D1
:104830008F3F19F48CE495E0E1C8C350DE4F8883C4
:10484000CD5FD14095012D5F3F4F13E04DE3BE0199
:104850006B5C7E4FC9010E943F07811798F48FE37C
:1048600095E0CCC8923539F051E0C350DE4F588303
:10487000CD5FD140C2CF81E0C350DE4F8883CD5F92
:10488000D140AFCF4090460393E0591203C093E864
:1048900090934603C82EC11A85E3E82EFF24F394B3
:1048A000EC0EFD1EE10EF11CD5018C9100E010E034
:1048B000823529F48E010B5C1E4F0D5F1F4FFE01E8
:1048C00031965F01C350DE4F2881CD5FD140452D29
:1048D000BE016B5C7E4F8AE892E00E945832682FDE
:1048E0004092460380E395E0611509F487C8809102
:1048F0001B01811519F081E195E080C82D2D41E063
:10490000CE0101960E94C211823061F480913E0274
:1049100090913F02019690933F0280933E0283E084
:1049200095E06CC8811561F080913C0290913D0248
:10493000019690933D0280933C0288EF94E05EC81C
:1049400080913E0290913F02019690933F028093A6
:104950003E028CEE94E052C8D80112968C918B34B2
:1049600079F440E164EF71E0C80103960E943F07CB
:10497000803119F08FED94E041C885EC94E03EC899
:104980007801B2E0EB0EF11C40E1BE016B5C7E4FA2
:10499000C7010E943F07803179F4F80182A18A3271
:1049A00059F4CE018B5C9E4F40960E945A108111A3
:1049B0000FC088EA94E022C840E2BE016B5C7E4FE3
:1049C000C7010E943F07803219F08BE994E016C8B6
:1049D0006E01FEE8CF1AFEEFDF0A9E012B5C3E4F10
:1049E000205F3F4FAE014B5C5E4F445F5F4F7601EF
:1049F0008E010F5F1F4FBE016B5C7E4F84EF91E015
:104A00008BD685E994E00E946B0C21E6E21A21E046
:104A1000F20AD8018D918D010E94B00CE016F106CA
:104A2000C1F780E20E943F0C86017601B4E0EB0EF4
:104A3000F11CF80181918F010E94B00CE016F10683
:104A4000C1F70C949C1C40E1BE016B5C7E4FC80119
:104A500002960E943F07803121F088E894E00C9490
:104A6000FE1CBE016B5C7E4F685F7F4FAE014F5FE7
:104A70005F4FCE018B5C9E4F9FD682E894E00E94F0
:104A80006B0C8E010F5F1F4F7E01F1E1EF0EF11CE9
:104A9000D8018D918D010E94B00CE016F106C1F78E
:104AA0000C949C1C89E794E00C94FE1C83E199E033
:104AB0000C94E81C83EE98E00C94FE1CF8018181B4
:104AC0008033D9F482818133C1F4838181110AC09A
:104AD000809106020E94B00C809107020E94B00CE7
:104AE0000C949C1C42E066E072E0C80103960E94B0
:104AF0003F07823069F70C9454178EED98E00C94C0
:104B0000FE1CD80111968C91811599F041E0BE01EF
:104B10006F5F7F4FC80101960E943F07813029F4E3
:104B20008981809314010C94541786ED98E00C94BD
:104B3000FE1C0E948106809114010E94B00C80E24C
:104B40000E943F0C80911801811529F060911C0191
:104B500070911D01F4CB64E873E080E090E03BCC01
:104B6000F8018181803309F046C08281813309F0E8
:104B700042C085EA98E00E946B0C0E94C4078FE354
:104B80009CE90197F1F700C000000E941208809193
:104B9000E00081608093E0008091D8008F7780935F
:104BA000D80019BC8091D8008F7E8093D8001092D5
:104BB00005029FEFADEEB2E09150A040B040E1F7AA
:104BC00000C00000F8940FB6F894A895809160009A
:104BD000886180936000109260000FBE10926E009A
:104BE00010926F0014BE81E085BF82E085BFE0E0D7
:104BF000F8E30995FFCF88EC98E00C94FE1C83E461
:104C00000E943F0C1981812F0E94B00C8DE30E94FD
:104C10003F0C812F103388F00E9499075FCF6A8183
:104C2000812F0E94E20B87E50E943F0C812F0E949A
:104C3000B00C8DE30E943F0C812F0E948E074ECF57
:104C4000F3E8DF1610F00C942016F401ED0DF11DC1
:104C50008083D3940C942016111509F45DC00C9434
:104C6000EB182AE0C21610F40C944516EFE1CE16AC
:104C700098F780911102811509F446C02B2DA301EC
:104C80006C2D81E40E94560D80911B028115E1F18B
:104C900080910D028115C1F1D30111968C9111976C
:104CA00085FF32C012968C919EEF980F923060F182
:104CB000811551F143E050E06EE072E0C3010696C9
:104CC0000E949435892B01F5F30180818093A7011F
:104CD00083819481A5818093A8019093A901A093D9
:104CE000AA010E947506DC01CB018C599F4FAF4F82
:104CF000BF4F8093AB019093AC01A093AD01B093F3
:104D0000AE0181E08093A60111110C94EB18F2E141
:104D1000CF1610F40C94451680910802811511F4F9
:104D20000C94451680912F0281110C9445162E2D5E
:104D3000A3016C2D80E50E94560D0C9445165AE097
:104D4000C51610F40C94EB1891CF1F920F920FB66A
:104D50000F9211242F933F934F935F936F937F9301
:104D60008F939F93AF93BF93EF93FF938091DA005C
:104D700080FF10C08091D80080FF0CC08091DA00C5
:104D80008E7F8093DA008091D90080FF9BC081E004
:104D90008093AF018091E10080FF1CC08091E20010
:104DA00080FF18C08091E1008E7F8093E1008091A8
:104DB000E2008E7F8093E2008091E2008061809328
:104DC000E2008091D80080628093D80019BC85E011
:104DD0008093AF018091E10084FF27C08091E200C1
:104DE00084FF23C019BC89B5826089BD09B400FE67
:104DF000FDCF8091D8008F7D8093D8008091E10015
:104E00008F7E8093E1008091E2008F7E8093E200AC
:104E10008091E20081608093E200809146018115DB
:104E200009F453C084E08093AF018091E10083FFD7
:104E300038C08091E20083FF34C08091E100877F19
:104E40008093E10082E08093AF011092460180914F
:104E5000E1008E7F8093E1008091E2008E7F80935D
:104E6000E2008091E20080618093E2001092F40001
:104E700080E08093E9001092F0001092E800909199
:104E8000ED009D7F9093ED009091EB009E7F9093BD
:104E9000EB008F5F873069F742E060E080E00E94BE
:104EA0006508FF91EF91BF91AF919F918F917F9195
:104EB0006F915F914F913F912F910F900FBE0F9087
:104EC0001F9018951092AF0165CF83E0ACCFCF93C0
:104ED000DF93FC01DB019C01205F3F4F81919D919D
:104EE000EF0189278A93E217F307C1F7DF91CF918A
:104EF0000895CF93DF93FB01DC01CB014096ED01D8
:104F000021912993E817F907D9F741E030E11C9680
:104F10002C911C971D969C911D971E968C911E9707
:104F20001F965C911F97632F6F70611120C0E92F4E
:104F3000F0E0E355F44F64916427E82FF0E0E35587
:104F4000F44FE4919E2FE52FF0E0E355F44FE49108
:104F50008E2FE22FF0E0E355F44FE4915E2F742F93
:104F6000770F2BE147FF20E0472F4227262F6C9138
:104F7000262750962C93509711962C911197922793
:104F800051969C93519712969C911297892752960D
:104F90008C93529713968C911397852753968C93E5
:104FA00053973C5F1496303B09F0B1CFDF91CF911E
:104FB00008958F929F92AF92BF92CF92DF92EF921D
:104FC000FF920F931F93CF93DF938C01EA01FB01B4
:104FD0007A01CB014096DA0121912D938E179F071C
:104FE000D9F7B801CE0173DF580180E1A80EB11CDA
:104FF00000561F4F48016E01A0E1CA0ED11CDE0110
:10500000ED91F0E0E355F44F2491CD010197FC01BF
:105010002083CA16DB06A1F789819D819983998532
:105020009D839D8599878D878A819A859A838A87B2
:105030008E819E859E838E878F859B859F879F818E
:105040009B879B819F838B83FE018081418132817D
:105050002381782F7427632F6227572F5627972F86
:10506000990F77FF64C07BE19727782F75279727E3
:105070009083742F7327972F990F77FF5AC07BE186
:105080009727452794279183962F990F4BE167FF28
:1050900040E094273527932792838227982F990FF2
:1050A00087FF49C08BE18927252782278383349690
:1050B000CE16DF0651F6B501CE0109DFF0E1AF0EE5
:1050C000B11C0A151B0509F09ACFD701ED917D019E
:1050D000F0E0E355F44FE491EE93CE14DF04A9F72A
:1050E00089819D81998399859D839D8599878D87E8
:1050F0008A819A859A838A878E819E859E838E87F0
:105100008F859B859F879F819B879B819F838B83B7
:10511000B401CE01DF91CF911F910F91FF90EF90DD
:10512000DF90CF90BF90AF909F908F90D0CE70E0E7
:105130009BCF70E0A5CF80E0B6CFEF92FF920F93A8
:105140001F93CF93DF93CDB7DEB760970FB6F89478
:10515000DEBF0FBECDBF8B01DB017A0130E04D9188
:1051600050E0321710F4F7015081BD016150710910
:105170004527FB0140833F5FFFEFEF1AFF0A303105
:1051800071F7AE014F5F5F4FB80113DF80E1FE01A1
:105190003196D80101900D928A95E1F760960FB68D
:1051A000F894DEBF0FBECDBFDF91CF911F910F915D
:1051B000FF90EF9008958F929F92BF92CF92DF92CF
:1051C000EF92FF920F931F93CF93DF93CDB7DEB78C
:1051D00060970FB6F894DEBF0FBECDBFE82EB92E94
:1051E000FB014A01F22E680189E089838DE0DE012E
:1051F000129601900D928A95E1F71F86288B80E127
:10520000F80111928A95E9F720E1AE014F5F5F4FF7
:10521000B8018E2D92DF10E01F1590F060960FB64A
:10522000F894DEBF0FBECDBFDF91CF911F910F91DC
:10523000FF90EF90DF90CF90BF909F908F90089558
:105240002F2D211B213108F020E1A401410F511D18
:10525000B6018E2D9B2D71DF105FDECF4F925F92D6
:105260006F927F928F929F92AF92BF92CF92DF9276
:10527000EF92FF920F931F93CF93DF93CDB7DEB7DB
:10528000C055D1090FB6F894DEBF0FBECDBFD82EE2
:10529000E92E3B015A01F22EC12EDE01AF5BBF4F5A
:1052A00089E48D938DE0FB0101900D928A95E1F7E1
:1052B00060961FAE609761961FAE61974E0181E2C6
:1052C000880E911C10E1D401E12F1D92EA95E9F7B7
:1052D00020E1AE014F5B5F4FB4018D2D2EDFFE014B
:1052E000F196DF011D921A95E9F7FAAA1F2D2F01F9
:1052F000BFE0FB1608F01EE0412F50E0B501CE01E3
:10530000C3960E94A13520E1A201B4018D2D9E2DEE
:1053100014DF1F1508F441C081E089838DE0F3019B
:10532000DE01129601900D928A95E1F71F86188A88
:10533000AE014F5E5F4FBE016F5F7F4F8D2D9E2D83
:1053400038DEC401BE016F5E7F4FE02FFC2DAF0140
:105350004C5F5F4FDC012D91CD01DB013D91BD0123
:1053600023272193E417F507A9F7C05BDF4F0FB69A
:10537000F894DEBF0FBECDBFDF91CF911F910F918B
:10538000FF90EF90DF90CF90BF90AF909F908F9065
:105390007F906F905F904F9008952F2D211B2131AA
:1053A00008F020E1A501410F511DB4018D2D9E2D66
:1053B000C4DE105FAECF2F923F924F925F926F92FA
:1053C0007F928F929F92AF92BF92CF92DF92EF9295
:1053D000FF920F931F93CF93DF93CDB7DEB7A097C4
:1053E0000FB6F894DEBF0FBECDBF782E692E562EB5
:1053F000472E6A015901EE24E394F12C10E0222497
:105400002394CE0101964C011017C8F0A0960FB658
:10541000F894DEBF0FBECDBFDF91CF911F910F91EA
:10542000FF90EF90DF90CF90BF90AF909F908F90C4
:105430007F906F905F904F903F902F900895302E07
:10544000311A91E1391610F080E1382E298A8DE069
:10545000E52DF42DDE01529601900D928A95E1F72B
:105460009E2D8F2D98A38F8FA401BE016F5E7F4F5D
:10547000872D962D9EDD9601210F311DA501410F2F
:10548000511DF401D9018D919D0191918927DA0176
:105490008D93AD018E2F88198315A0F3105FBFEF98
:1054A000EB1AFB0AB1CF5F926F927F928F929F921D
:1054B000AF92BF92CF92DF92EF92FF920F931F9322
:1054C000CF93DF93CDB7DEB7E0970FB6F894DEBF8A
:1054D0000FBECDBF6C015B014A01722E502E612EB2
:1054E0008E010F5D1F4F67DE81E0898B8DE0F50136
:1054F000DE01529601900D928A95E1F71F8E18A257
:10550000AE014F5F5F4FBE016F5E7F4FC60151DD41
:10551000C801BE016F5F7F4FD701A7014C5F5F4F8E
:10552000FC012191CF01FB013191BF0123272D9374
:10553000A417B507A9F7072D252D362DA401B50110
:10554000C60139DFE0960FB6F894DEBF0FBECDBFBF
:10555000DF91CF911F910F91FF90EF90DF90CF904F
:10556000BF90AF909F908F907F906F905F900895C5
:105570007F928F929F92AF92BF92CF92DF92EF92E3
:10558000FF920F931F93CF93DF93CDB7DEB7E497CE
:105590000FB6F894DEBF0FBECDBF6C015B01722E5B
:1055A0004801022F970107DF8E010F5D1F4F272D46
:1055B000A701B501C601FFDD81E0898B8DE0F50112
:1055C000DE01529601900D928A95E1F71F8E18A286
:1055D000AE014F5F5F4FBE016F5E7F4FC601E9DCDA
:1055E000F801005211099E012F5C3F4FBE016B5D17
:1055F0007F4FA9018191D8019D918D018927DA0101
:105600008D93AD01E617F707A9F7F401A4014C5FEC
:105610005F4F90E0D9018D919D0161918627982B74
:105620004E175F07B9F781E0911180E0E4960FB65D
:10563000F894DEBF0FBECDBFDF91CF911F910F91C8
:10564000FF90EF90DF90CF90BF90AF909F908F90A2
:105650007F900895AF92BF92CF92DF92EF92FF9228
:105660000F931F93CF93DF93CDB7DEB7E0970FB6BD
:10567000F894DEBF0FBECDBF7C016B0158018E01D7
:105680000F5D1F4F98DD81E0898B8DE0F601DE0113
:10569000529601900D928A95E1F71F8E18A2AE01E5
:1056A0004F5F5F4FBE016F5E7F4FC70182DCC80155
:1056B000BE016F5F7F4FF501A5014C5F5F4FDC01BD
:1056C0002D91CD01DB013D91BD0123272193E417ED
:1056D000F507A9F7E0960FB6F894DEBF0FBECDBF71
:1056E000DF91CF911F910F91FF90EF90DF90CF90BE
:1056F000BF90AF900895FC01339689E0DA010190E4
:105700000D928A95E1F7DA01199684E0FB01019088
:105710000D928A95E1F708957F928F929F92AF92B2
:10572000BF92CF92DF92EF92FF920F931F93CF938E
:10573000DF93CDB7DEB7CD5BD1090FB6F894DEBFEE
:105740000FBECDBF782E892ECB01BA016901902EF4
:10575000AE014F545F4FCFDF672D782DCE010196FC
:10576000C8DB00E1292D312FA601BE016F547F4F08
:10577000CE01019620DEE114F10449F0870120E119
:10578000A601BE016F547F4FCE01019663DFC35463
:10579000DF4F0FB6F894DEBF0FBECDBFDF91CF91C4
:1057A0001F910F91FF90EF90DF90CF90BF90AF903F
:1057B0009F908F907F900895FC0188E0DA0101901E
:1057C0000D928A95E1F7DA01189688E0FB010190C5
:1057D0000D928A95E1F708954F925F926F927F92B2
:1057E0008F929F92AF92BF92CF92DF92EF92FF92F1
:1057F0000F931F93CF93DF93CDB7DEB7C15DD10970
:105800000FB6F894DEBF0FBECDBF6C012B013C017B
:1058100088E2680E711C46019CE0890E911C5E01B5
:1058200081EBA80EB11C96012C5C3F4FE12CF12CB2
:105830008501A301B601C4016FDFAE014F535F4F75
:10584000B301C60158DFB401CE0101967C0151DBE2
:10585000035E1F4F20E1A501BE016F537F4FC701BB
:10586000F9DEF801D601AC5BBF4F9601285B3F4FD4
:1058700080E09B2C8E2CBF2C91914D919427892BED
:10588000A217B307C9F781112DC0B601645D7F4F20
:10589000482D5B2DC60180968FDFA601445E5F4FC9
:1058A000E12CF12C82012A2D392DB601882D9B2D5A
:1058B00033DF81E0CF52DF4F0FB6F894DEBF0FBE6B
:1058C000CDBFDF91CF911F910F91FF90EF90DF90AF
:1058D000CF90BF90AF909F908F907F906F905F9090
:1058E0004F90089580E0E6CF2F923F924F925F92C3
:1058F0006F927F928F929F92AF92BF92CF92DF92E0
:10590000EF92FF920F931F93CF93DF93CDB7DEB744
:10591000C25DD1090FB6F894DEBF0FBECDBF3B010B
:105920007A01CF52DF4F2883C15DD040CE52DF4F86
:105930003883C25DD040BC01CE0101965C01D9DA4A
:105940008E010F531F4F80E1D8011D928A95E9F710
:10595000C12CD12C3A2C2B2C5E01B1EBAB0EB11C1F
:105960005A2C4B2C4801E0E18E0E911CCE14DF0422
:1059700078F1F80180818E25808381818F25818354
:10598000CF52DF4F4881C15DD040CE52DF4F5881AA
:10599000C25DD040B801832D922D0BDBCE52DF4F7C
:1059A0000FB6F894DEBF0FBECDBFDF91CF911F9130
:1059B0000F91FF90EF90DF90CF90BF90AF909F90AE
:1059C0008F907F906F905F904F903F902F900895B1
:1059D000D501E0E11D92EA95E9F7A7014C195D09AF
:1059E0004131510510F040E150E0B3016C0D7D1DD7
:1059F000852D942D0E94A135F801452D542D8191BE
:105A0000DA019D91AD019F01215031098927D9010A
:105A10008C93E815F90599F7A801B801832D922D0B
:105A2000C8DAB0E1CB0ED11CA1CFCF92DF92EF92BA
:105A3000FF920F931F93CF93DF93CDB7DEB760979D
:105A40000FB6F894DEBF0FBECDBF8C017B016A019B
:105A5000892B21F1452B11F160347105F8F09E017D
:105A60002F5F3F4FAB01B80187E291E03DDF960128
:105A7000A701B801CE01019637DF80E090E0609683
:105A80000FB6F894DEBF0FBECDBFDF91CF911F914F
:105A90000F91FF90EF90DF90CF9008958FEF9FEFE1
:105AA000EECF0F931F93CF93DF93CDB7DEB7A097C1
:105AB0000FB6F894DEBF0FBECDBFFC01CB0130970F
:105AC00009F440C00097F1F1AE014F5F5F4F60E213
:105AD000DA011D926A95E9F78E0F9F1F61E070E071
