:100000000C9448060C9465060C9465060C946506E1
:100010000C9465060C9465060C9465060C946506B4
:100020000C9465060C9465060C94FC270C946506EC
:100030000C9465060C9465060C9465060C94650694
:100040000C9465060C94BE140C9465060C9465061D
:100050000C9465060C9465060C9465060C94650674
:100060000C9465060C9465060C9465060C94650664
:100070000C9465060C9465060C9465060C94650654
:100080000C9465060C9465060C9465060C94650644
:100090000C9465060C9465060C9465060C94650634
:1000A0000C9465060C9465060C94650610037100AB
:1000B0002D00630075006C006600770000001603D9
:1000C00062007500730077006100720065002E0009
:1000D0006400650000000403090409023E000201F7
:1000E0000080320904000001020201000524001012
:1000F0000104240206052406000107058203080006
:10010000FF09040100020A00000007050402400084
:1001100000070583024000001201100102000008E0
:10012000EB03692000020102DC010007010E020658
:10013000030D04E905CA063D070C084509000A003D
:100140000B060C110D210E650F6A10C811931203D6
:10015000132214F815341607170F181819161A6CED
:100160001B431C401D911E8E1F2F207821562210EC
:1001700023E9242A2500261F2741280029592A7F00
:100180002B3F2C812D352E09FF506D204E65747A42
:100190007765726B7363686C75657373656C2067E4
:1001A000657369636865727420E28094206D697478
:1001B0006C6573656E20697374206A65747A742047
:1001C0006D6F65676C6963680D0A00506D20414E64
:1001D00047454C45524E5420616464723D00506D59
:1001E00020416E6765626F743A2050727565667360
:1001F000756D6D652066616C736368002072737342
:10020000693D0020666F723D00504B2066726F6D35
:100210003D00207261773D00206C656E3D002072CC
:100220007373693D00206E3D00206D61783D0020B4
:100230006D696E3D002066697273743D0050482000
:1002400066653D00506D20416E6C65726E656E3A5C
:10025000206B65696E6520416E74776F727400045F
:1002600080000000C80600001606000000506D2047
:10027000616E67656D656C6465740D0A00506D2074
:100280003E3E204B616E616C7A75737461656E647D
:10029000650D0A00506D203E3E2053746172746DEE
:1002A000656C64756E670D0A00506D203E3E2041FE
:1002B0006E6C65726E626573746165746967756E84
:1002C000670D0A00206E706B3D00206E6F697365CC
:1002D0003D0020726563616C3D0020706C6C3D00D8
:1002E0002062757273743D002074786572723D00EF
:1002F0002074783D00206677643D0020616B646F58
:10030000703D00206B3672783D00206B3674783D6E
:10031000002061636B733D00206475703D00206DAB
:1003200069633D00206F6B3D00506D2072783D0089
:10033000206C6F76663D00206372656469743D00D1
:10034000506D206275646765743D002072656C6154
:1003500069733D00206E75726C6573656E3D00209B
:10036000726F757465723D002069636D7061636BB7
:100370003D002061636B3D0020736E3D00206B6586
:10038000793D0020616464723D005A656E7472614B
:100390006C65004765726165740020726F6C6C65F6
:1003A0003D006175730065696E00506D2000506DF1
:1003B000204E65747A7765726B7363686C756573CC
:1003C00073656C2065727A657567740D0A00506DEF
:1003D000206B65696E65205765726B736B656E6E19
:1003E000756E6720E28094206C617566656E646549
:1003F000204E756D6D6572206765777565726665EF
:100400006C740D0A00506D206175737061636B65CB
:100410006E206D69742064656D204175666B6C6536
:100420006265727363686C75657373656C0D0A0041
:10043000506D206E776B2E656E633D00506D206BA6
:1004400065696E204E65747A7765726B7363686C4C
:1004500075657373656C0D0A00506D207061636B78
:10046000652065696E2E2E2E0D0A00506D206B657D
:10047000696E204E65747A7765726B7363686C750C
:10048000657373656C20E2809420657273742061DB
:100490006E6C65726E656E20286D4750290D0A00DE
:1004A000506D2062656964652057657274652069C6
:1004B0006E2064657220454947454E454E205A6579
:1004C0006E7472616C652065696E74726167656EC9
:1004D000202847657261657420616E6C65726E6577
:1004E0006E290D0A00506D206B65793D00286B6503
:1004F000696E652900506D207765726B736B656E50
:100500006E756E673D002067657261657465617226
:10051000743D00206E65686D65723D00506D206809
:1005200065726B756E66742066617373756E673D78
:1005300000506D20736774696E3D00506D206B65CF
:10054000696E65204B656E6E756E6720E280942043
:100550006D474E2065727A657567742065696E65B2
:100560000D0A00506D204552520D0A00506D207941
:100570002000506D20455252206172670D0A0050D4
:100580006D20772000506D20455252206172670D1A
:100590000A00506D206B65696E204E65747A776530
:1005A000726B7363686C75657373656C0D0A0050CC
:1005B0006D2077207363686C75657373656C206755
:1005C000657365747A740D0A00506D20455252208F
:1005D0006B65790D0A00506D204552522074780DDC
:1005E0000A00506D207478206F6B0D0A00506D204A
:1005F000455252204C4F56460D0A00506D204E5524
:10060000522D4C4553454E20286D4C302067696271
:10061000742066726569290D0A00506D204552529A
:1006200020626175656E0D0A00506D2045525220A2
:100630006473740D0A00506D204552522063742F6C
:100640007365630D0A00506D204552522076657225
:10065000620D0A00506D2045525220737475666514
:100660000D0A00506D2045525220686F6572657208
:100670007479700D0A00506D2055727A757374612B
:100680006E6420E28094204B656E6E756E672C2040
:100690005363686C75657373656C20756E64205A5E
:1006A0006165686C65722067656C6F6573636874FB
:1006B0000D0A00506D20455252206D61726B65200D
:1006C000E280942065727374206D562066726167B3
:1006D000656E0D0A002028414C4C45532077656714
:1006E0003A204B656E6E756E672C205363686C758F
:1006F000657373656C2C205A6165686C6572290D91
:100700000A0020E28094206C6F65736368656E2038
:100710006D6974206D5600506D206D61726B653D82
:1007200000506D20455252206B65696E65205365FF
:100730007269656E6E756D6D65720D0A00506D2083
:100740007A6165686C65723D300D0A00506D20005D
:10075000206C6F76663D00206372656469743D00AD
:10076000506D206275646765743D00207A757374FE
:10077000656C6C3D0028617573290020286D62311D
:100780002F6D623329207765636B6B616E616C3D01
:10079000002028417329206D733D00506D20766F35
:1007A000726C6175663D00506D204552520D0A0015
:1007B000506D204552522062657265696368203130
:1007C000302E2E00506D20455252206265726569B0
:1007D000636820352E2E00506D204552520D0A00C0
:1007E000506D204552520D0A00506D204552520D59
:1007F0000A002053454E44454E2046524549474540
:10080000474542454E00206E7572206C6573656EDB
:100810002C2053656E64656E206765737065727217
:100820007400506D204C3D00506D20537563686519
:10083000206265656E6465740D0A0020463D0020E7
:10084000453D0020443D0020433D00506D20414582
:100850004E4420423D0020202D2D20323020732098
:100860005A6569742C206A65747A7420647275659F
:10087000636B656E0D0A0020463D0020453D00205B
:10088000443D0020433D00506D2072756865204254
:100890003D00506D2072656C6169733D00506D20A4
:1008A00065727A65756765204B656E6E756E672E2D
:1008B0002E2E0D0A00506D20736E3D00506D2045A8
:1008C000525220736E0D0A00506D206B65792077AF
:1008D000697264206E6963687420766F6E2061753A
:1008E0007373656E2067657365747A7420E2809413
:1008F00020416E6C65726E656E20286D4750290D23
:100900000A00506D204E65747A7765726B73636868
:100910006C75657373656C20766572776F7266654A
:100920006E20E2809420616C6C6520476572616581
:100930007465206E657520616E6C65726E656E0DF6
:100940000A00506D20616464723D00506D20455274
:100950005220616464720D0A005A656E7472616C93
:10096000650047657261657400506D20726F6C6C34
:10097000653D004220626F6F746C616465720D0AA0
:10098000003F200D0A0057204552520D0A00432017
:100990004552520D0A004220455252202842303121
:1009A000290D0A0058204552520D0A003F200D0A19
:1009B000003F20283F20697320756E6B6E6F776E45
:1009C0002920557365206F6E65206F662041204297
:1009D000204320502054205620572058206D0D0AC7
:1009E000005620712D63756C667720322E302E39BB
:1009F00032005078206F6B0D0A005072206F6B0D23
:100A00000A00204F484E452041445245535345204B
:100A10002841612900417120004177200041612077
:100A2000005620712D63756C667720322E302E397A
:100A300032005073204552520D0A00507320455227
:100A400052204C4F56460D0A004E55522D4C4553E0
:100A5000454E20286D4C30206769627420667265AF
:100A600069290D0A004C454E4552520D0A0020617D
:100A70003D310020663D002061723D002061636BC6
:100A80003D00207669613D0020736E3D0020637457
:100A90003D00207365633D00206473743D00207346
:100AA00072633D00504D00506D20416E6C65726E5A
:100AB000656E206C616575667420E28094204B65DC
:100AC0006E6E756E67206D75737320696E20646538
:100AD00072205A656E7472616C6520737465686506
:100AE0006E0D0A00506D204E55522D4C4553454E0B
:100AF00020286D4C30206769627420667265692910
:100B00000D0A00506D206B65696E65204B656E6E39
:100B1000756E6720E280942065727374206D474E75
:100B20000D0A0003AF8BB08DFBC84765081961DC67
:100B30009433D203AF8BB08DFBC84765081961DCD5
:100B40009433D2506D205A7566616C6C7371756503
:100B50006C6C6520746F7420E280942046756E6B17
:100B600063686970207072756566656E20286D5ABD
:100B7000292C206E69636874732065727A657567C5
:100B8000740D0A00506D2072656C6169733D0063DD
:100B90007C777BF26B6FC53001672BFED7AB76CAD3
:100BA00082C97DFA5947F0ADD4A2AF9CA472C0B7F8
:100BB000FD9326363FF7CC34A5E5F171D831150405
:100BC000C723C31896059A071280E2EB27B275096E
:100BD000832C1A1B6E5AA0523BD6B329E32F8453A1
:100BE000D100ED20FCB15B6ACBBE394A4C58CFD066
:100BF000EFAAFB434D338545F9027F503C9FA85136
:100C0000A3408F929D38F5BCB6DA2110FFF3D2CD08
:100C10000C13EC5F974417C4A77E3D645D197360A5
:100C2000814FDC222A908846EEB814DE5E0BDBE0B2
:100C3000323A0A4906245CC2D3AC629195E479E762
:100C4000C8376D8DD54EA96C56F4EA657AAE08BAF0
:100C500078252E1CA6B4C6E8DD741F4BBD8B8A70A8
:100C60003EB5664803F60E613557B986C11D9EE153
:100C7000F8981169D98E949B1E87E9CE5528DF8C90
:100C8000A1890DBFE6426841992D0FB054BB1600F3
:100C900011241FBECFEFDAE0DEBFCDBF11E0A0E030
:100CA000B1E0EAE3FFE602C005900D92A434B1077B
:100CB000D9F723E0A4E4B1E001C01D92A937B2073F
:100CC000E1F70E94E1140C945C370C9400002FB7FC
:100CD000F894609171037091720380917303909105
:100CE00074032FBF08954F925F926F927F928F92FD
:100CF0009F92AF92BF92CF92DF92EF92FF920E94AB
:100D0000670640907503509076036090770370906B
:100D100078036B017C01C418D508E608F70828EEB3
:100D2000C21623E0D206E104F10480F1C701B60146
:100D300028EE33E040E050E00E94C036A8EEB3E079
:100D40000E94E836460E571E681E791E40927503B3
:100D500050927603609277037092780380EAC81607
:100D60008BEBD8068DE0E806F10450F480911C016D
:100D700090911D01820F931F843823E0920710F099
:100D800084E893E090931D0180931C01FF90EF9005
:100D9000DF90CF90BF90AF909F908F907F906F909B
:100DA0005F904F90089580917003811561F00E94CB
:100DB000670628E730E040E050E00E94C03620FFA0
:100DC00012C0769A089580916F0340916B03509101
:100DD0006C0360916D0370916E03452B462B472B7E
:100DE00021F0811571F3769808958115E1F3E9CF2B
:100DF0000F931F93CF93DF93EC010E946706DC01F2
:100E0000CB018C0F9D1FA11DB11D00916B03109193
:100E10006C0320916D0330916E03081719072A07A0
:100E20003B0740F480936B0390936C03A0936D0396
:100E3000B0936E03DF91CF911F910F910C94D30665
:100E400090ED980F9A3010F4892F08959FE9980F2C
:100E5000963010F4875508959FEB980F963010F454
:100E6000875308958FEF0895CF92DF92EF92FF920C
:100E70000F931F93CF93DF937B01D42F8C01C12C51
:100E8000D12CC0E0F80181918F01811511F0CD17AF
:100E900050F08C2FDF91CF911F910F91FF90EF9029
:100EA000DF90CF900895803269F38A3359F30E941E
:100EB00020078F3F71F3D11441F0F701EC0FF11DC2
:100EC0008C298083CF5FD12CDDCFC82EC29480EFD8
:100ED000C822DD24D394D6CFDC01EEE0F0E080E040
:100EE00031E23093570094919D93915021E09E3FC1
:100EF00008F020E0822B3196E831F10591F7089552
:100F00008EBD0DB407FEFDCF8EB5089528981B99B0
:100F1000FECF0895CF93C82F0E9486078C2F80683C
:100F20000E94800780E00E948007289ACF91089550
:100F3000CF93C82F0E9486078C2F806C0E94800759
:100F400080E00E948007289ACF910895CF93DF9385
:100F5000D82FC62F0E9486078D2F0E9480078C2FC6
:100F60000E948007289ADF91CF91089585E30E941F
:100F700098078F710895CF93DF93EC0168818DE01E
:100F80000E94A60769818EE00E94A6076A818FE011
:100F9000DF91CF910C94A60780918F01811531F0DC
:100FA0008091AF01843019F010928F01089583E091
:100FB0008093E9008091E80080FFF8CF80E0909175
:100FC0008F01891750F08091E800982F9E7F9093B1
:100FD000E8008F778093E800E7CFE82FF0E0E15B4F
:100FE000FE4F90819093F1008F5FE9CF8091470190
:100FF00087FF17C08091E80082FF0AC08091E80057
:10100000982F9B7F9093E8008F778093E800089556
:101010008091AF018111EECF08958091AF018115CC
:10102000D9F38091E80080FFF8CF8091E800982FF5
:101030009E7FE8CF8091D8008E7F8093D800109259
:10104000E2001092DA001092E1001092AF011092CB
:10105000460110924501109244018AE482BF19BCF6
:1010600089B5826089BD09B400FEFDCF8091D800AA
:10107000982F9F779093D80080688093D8008091B4
:10108000D70081608093D7008091D8008F7D8093B6
:10109000D8008091E0008B7F8093E0008091E00099
:1010A0008E7F8093E0008091E1008E7F8093E1004D
:1010B0008091E20081608093E2008091E100877F6F
:1010C0008093E1008091E20088608093E20080914B
:1010D000D80081608093D80008958093E900EBEEFA
:1010E000F0E0808181608083EDEEF0E0108260931B
:1010F000EC0040838091EE0008951F93CF93DF931F
:10110000CDB7DEB7AA970FB6F894DEBF0FBECDBF3E
:101110008091AF01811509F466C01091E900177044
:101120001092E9008091E80083FF5BC087E491E0C2
:10113000FC0101962091F100208321E08F34920779
:10114000B9F780914701909148019A3008F00EC29A
:10115000E92FF0E0E25AF84C0C94E236803871F056
:10116000823889F580914B018093E9008091EB00F2
:1011700085FB882780F91092E90006C0809145011F
:10118000880F90914401892B9091E800977F90936C
:10119000E8008093F1001092F1008091E800982F10
:1011A0009E7F9093E8008F778093E8008091E8001D
:1011B00082FF05C08091E800982F9B7F3CC0809102
:1011C000AF018111F3CF8091E80083FF0AC08091C5
:1011D000EB0080628093EB008091E800877F809332
:1011E000E8001093E900AA960FB6F894DEBF0FBE90
:1011F000CDBFDF91CF911F91089581110BC08091D8
:101200004901813001F781E0933009F080E080935B
:10121000450106C08230B9F680914901811589F0F7
:101220001092E9008091E800877F8093E800809128
:10123000E800982F9E7F9093E8008F778093E800D6
:10124000C2CF80914B018770811509F4BCCF809388
:10125000E9002091EB0020FFE3CF9130B9F49091A9
:10126000EB0090619093EB0021E030E0A90102C017
:10127000440F551F8A95E2F74093EA001092EA0066
:101280008091EB0088608093EB00CACF8091EB00E7
:101290008062F9CF811197CF809149019091E80048
:1012A000977F9093E8009091E800292F2E7F20935C
:1012B000E8009F779093E8009091E80090FF0CC0C1
:1012C000982F90689093E3008F77811509F47BCF76
:1012D00083E08093AF0177CF9091AF019111ECCF74
:1012E00072CF8058823008F06ECF80914901909182
:1012F0004A018C3D53E0950709F072C08AE2898368
:1013000083E08A83DE01139620E03EE041E2E32F92
:10131000F0E040935700E49120FF03C0E295EF70A6
:101320003F5FEF7080E38E0F8A3310F087E38E0FFC
:1013300090E08D939D932F5F243149F78091E800D1
:10134000877F8093E80020914D0130914E012B3230
:10135000310510F02AE230E090E0FE0131962115CF
:10136000310559F4911109C08091E80082FD22CF26
:101370008091AF018111F8CF1DCF8091E80083FDEE
:1013800019CF8091E80082FDEFCF8091AF018115E8
:1013900009F410CF8091E80080FFE1CF21153105DD
:1013A00031F08091F2009091F300089798F040910D
:1013B000F2005091F30091E04830510509F090E0BF
:1013C0008091E800482F4E7F4093E8008F7780930C
:1013D000E800C5CF81918093F10021503109DECF23
:1013E000292F332722303105D1F12330310549F03F
:1013F0002130310509F0E7CEE8E1F1E082E190E04B
:1014000012C0FC01FF27833008F0DDCEEE0FFF1F76
:10141000EF5DFE4F0190F081E02D2491822F90E04E
:10142000211509F4D0CE2091E800277F2093E80011
:1014300020914D0130914E018217930708F49C01D1
:1014400090E02115310581F491110EC08091E800E2
:1014500082FDB0CE8091AF018111F8CFABCEEAED25
:10146000F0E08EE390E0DFCF8091E80083FDA2CE34
:101470008091E80082FDEACF8091AF01811509F4E7
:1014800099CE8091E80080FFDCCF2115310531F045
:101490008091F2009091F300089798F04091F2004B
:1014A0005091F30091E04830510509F090E08091AF
:1014B000E800482F4E7F4093E8008F778093E80044
:1014C000C0CF84918093F100215031093196DDCF56
:1014D000803809F078CE8091E800877F8093E8001B
:1014E000809146018093F1008091E800982F9E7FC3
:1014F0009093E8008F778093E8008091E80082FD68
:1015000059CE8091AF018111F8CF5DCE81115BCEB4
:1015100090914901923008F056CE8091E800877F83
:101520008093E800909346018091E800982F9E7F79
:101530009093E8008F778093E800809146018115B1
:1015400099F084E08093AF0142E361E883E00E9478
:101550006D0842E360E884E00E946D0842E061ECBF
:1015600082E00E946D082FCE83E0ECCF913209F427
:1015700051C0923209F4A0C0903209F024CE8132D9
:1015800009F021CE8091E800877F8093E800809168
:10159000E80082FF8CC08091F10090E0A0E0B0E014
:1015A0008093000190930101A0930201B093030185
:1015B0002091F100922B8093000190930101A09360
:1015C0000201B09303012091F100A22B809300014E
:1015D00090930101A0930201B09303012091F100C7
:1015E000B22B8093000190930101A0930201B0936C
:1015F00003018091F100809304018091F1008093B8
:1016000005018091F100809306018091E800982FF8
:101610009B7F45C0813A09F0D6CD8091E800877F55
:101620008093E800809100018093F1008091000197
:1016300090910101A0910201B0910301892F9A2F8D
:10164000AB2FBB278093F1008091000190910101A5
:10165000A0910201B0910301CD01AA27BB2780937D
:10166000F1008091000190910101A0910201B091DF
:1016700003018B2F9927AA27BB278093F100809124
:1016800004018093F100809105018093F100809125
:1016900006018093F1008091E800982F9E7F90933F
:1016A000E8008F778093E8000E94F6078CCD809148
:1016B000AF0181116CCF87CD813209F084CD80914B
:1016C000E800877FEFCFCF93C82F0E9486078C2F2B
:1016D0000E948007289ACF910895EF92FF920F936E
:1016E0001F93CF93DF9300D000D0CDB7DEB77B013F
:1016F0008C010E94633669837A838B839C8320915B
:10170000860284E0289F90011124B901605C7E4F1D
:1017100044E050E0CE0101960E943A3720918602C3
:1017200030E02F5F3F4F2770332720938602E092EF
:101730008202F092830200938402109385020F903C
:101740000F900F900F90DF91CF911F910F91FF900D
:10175000EF9008958F929F92AF92BF92CF92DF92B7
:10176000EF92FF920F931F93CF93DF93CDB7DEB726
:10177000C054D1090FB6F894DEBF0FBECDBF6C01C7
:10178000CE0101967C015E0191E4A90EB11C4701D6
:1017900008E010E084E30E949807110F8170182B75
:1017A000EFEEF0E03197F1F700C000000A9591F7F5
:1017B00080918400909185001827F70111937F0193
:1017C000EA15FB0529F760E470E0C4010E94CA2E07
:1017D000892B51F4A60160E470E0C4010E948C2EB4
:1017E00001E0892B09F000E0802FC05CDF4F0FB6CD
:1017F000F894DEBF0FBECDBFDF91CF911F910F9147
:10180000FF90EF90DF90CF90BF90AF909F908F9020
:101810000895CF93C4E60E94B607982F9F7E91301B
:1018200051F0863141F087EC90E00197F1F700C06C
:101830000000CA9581F7CF91089586E30E94630B5B
:101840000E94090C8BE30E94630B8AE30C94630BE8
:101850000E941D0C84E30C94630BCF93C0E00E94A4
:10186000090C83E30E94630B0E94090C85E20E942D
:101870008A078F3369F0C11549F08091F601909184
:10188000F70101969093F7018093F601CF910895A7
:1018900086E30E94630BCF5FC33009F78091F401A8
:1018A0009091F50101969093F5018093F401EECFAC
:1018B000CF93C82F0E94B6078D30C1F44B9916C044
:1018C000C115B1F08091F2019091F30101969093CE
:1018D000F3018093F20186E30E94630B0E942D0CBA
:1018E00084E30E94630B82E080939601CF91089578
:1018F00085E20E948A078F33C9F78091F8019091A1
:10190000F90101969093F9018093F801E4CF0F93C8
:101910001F93CF93C82F01ED17E0E0918F01E034C2
:1019200078F481E08E0F80938F01F0E0E15BFE4F51
:10193000C0838034C9F4CF911F910F910C94CC07D0
:101940000E94CC07E0918F01E03458F38091AF0101
:10195000843041F40150104039F08AE18A95F1F762
:1019600000C0DBCFE0E0DDCFCF911F910F91089554
:10197000CF93DF93EC01FE0184912196811103C086
:10198000DF91CF9108950E94870CF5CF83E49BE00F
:101990000C94B80C0F931F93CF93DF930F92CDB796
:1019A000DEB701E009838091810281112BC081E7BC
:1019B00092E00E94AA0B182F811109C00E94C60C48
:1019C000812F0F90DF91CF911F910F91089540E1EA
:1019D00050E060E671E081E792E00E943A3741E032
:1019E00050E060E771E0CE0101960E943A37009323
:1019F0008102198241E050E065E371E0CE01019679
:101A00000E943A3711E0DCCFCF93C82F82958F70B8
:101A1000C03A58F4805D0E94870C8C2F8F708A30FA
:101A200030F4805DCF910C94870C895CF4CF895C95
:101A3000F9CFCF93DF93EC0188810E94040D898157
:101A40000E94040D8A81DF91CF910C94040D1F93A5
:101A5000CF93DF93EB01182F892F0E94040D812F64
:101A60000E94040D8D2F0E94040D8C2FDF91CF91C9
:101A70001F910C94040D4F925F926F927F928F9200
:101A80009F92AF92BF92CF92DF92EF92FF921F93FD
:101A9000CF93DF93CDB7DEB72B970FB6F894DEBFA9
:101AA0000FBECDBF6B017C01C114D104E104F10470
:101AB000C1F480E32B960FB6F894DEBF0FBECDBF06
:101AC000DF91CF911F91FF90EF90DF90CF90BF906B
:101AD000AF909F908F907F906F905F904F900C94FD
:101AE000870CCE0101965C0110E04C018AE0482E83
:101AF000512C612C712CC701B601A30192010E94E7
:101B0000C0361F5F605DF50161935F01D701C601BB
:101B100069017A010A97A105B10510F01B3059F748
:101B20001150F401E10FF11D80810E94870C111109
:101B3000F7CF2B960FB6F894DEBF0FBECDBFDF9167
:101B4000CF911F91FF90EF90DF90CF90BF90AF901B
:101B50009F908F907F906F905F904F900895CF935C
:101B6000DF93EC0197FF06C08DE20E94870CD195B0
:101B7000C195D109BE01DD0F880B990BDF91CF9183
:101B80000C943B0D8DE00E94870C8AE00E94870C2C
:101B90000C94CC07EF92FF920F931F93CF93DF9398
:101BA000C62FE42ED52FF22E0E94870C8C2F0E9478
:101BB000040D0E2D1D2FC00FD12FD11DF8018191C5
:101BC0008F010E94040D0C171D07C1F78F2D0E9475
:101BD000040DDF91CF911F910F91FF90EF900C9426
:101BE000C20DCF92DF92EF92FF920F931F93CF938C
:101BF000DF936C01EB01E42EF22E84EA9AE00E945E
:101C0000B80C8C890E94040D10E08C89181708F418
:101C10006DC08E2D0E94040D8F2D0E94040D8EE943
:101C20009AE00E94B80CCE0103960E94190D88E933
:101C30009AE00E94B80CCE0106960E94190D82E926
:101C40009AE00E94B80C6E8970E080E090E00E94FB
:101C50003B0D8DE89AE00E94B80C6F8970E080E03F
:101C600090E00E943B0D88E89AE00E94B80C6C85D9
:101C70007D858E859F850E94270D8C8D85FF08C0F0
:101C800082E89AE00E94B80CCE0109960E94190DD4
:101C90008C8D82FF14C08CE79AE00E94B80C688992
:101CA00079898A899B890E94270D87E79AE00E949B
:101CB000B80C6A8D70E080E090E00E943B0D83E7F5
:101CC0009AE00E94B80C8C8D0E94040D011521F041
:101CD0008EE69AE00E94B80CDF91CF911F910F9190
:101CE000FF90EF90DF90CF900C94C20DF601E10FC2
:101CF000F11D80810E94040D1F5F87CF4F925F927C
:101D00006F927F928F929F92AF92BF92CF92DF920B
:101D1000EF92FF920F931F93CF93DF93CDB7DEB770
:101D2000C05DD1090FB6F894DEBF0FBECDBF3C0138
:101D3000CE018F549F4F20E1E1E7F2E0DC010190FA
:101D40000D922A95E1F700E010E07C019CE0A92EBD
:101D5000B12CA80183E0569547958A95E1F7470194
:101D60009E012F533F4FC12CD12C2901C8018C0D4E
:101D70009D1DFC01EF70FF27ED5CF44FE491D40151
:101D8000FD914D01B5010E94AC36DC01AB59BD4F50
:101D9000E427EF278C918E27F90181939F01FFEFB4
:101DA000CF1ADF0A80E1C816D10401F7B701CE01CE
:101DB00001960E94D028A701B201CE0101960E948F
:101DC00030290F5F1F4F0532A1E01A0711F680E19D
:101DD000F701D30101900D928A95E1F7C053DF4FCF
:101DE0000FB6F894DEBF0FBECDBFDF91CF911F912C
:101DF0000F91FF90EF90DF90CF90BF90AF909F90AA
:101E00008F907F906F905F904F900895EF92FF9228
:101E10000F931F93CF93DF93CDB7DEB7C05ED10989
:101E20000FB6F894DEBF0FBECDBF8C01E3E2FBE03E
:101E3000DE01AF54BF4FCD014096AD0124912D93EB
:101E40003196A817B907D1F7DE01AF53BF4F27E08E
:101E500030E07D0189EF820F6CE00E94A036E92F0F
:101E6000F0E0EB59FD4FB9016F707727640F751FD4
:101E70008081FB01908189278D932F5F3F4F273110
:101E8000310541F7BA01CE0101960E94D028AE017A
:101E90004F525F4FB701CE0101960E943029F801E1
:101EA000BE016F527F4F9801205F3F4F8191DB0150
:101EB0009D91BD01AF01415051098927DA018C93F1
:101EC000E217F30799F7C052DF4F0FB6F894DEBF61
:101ED0000FBECDBFDF91CF911F910F91FF90EF907B
:101EE0000895CF92DF92FF920F931F93CF93DF93CA
:101EF000CDB7DEB7C15ED1090FB6F894DEBF0FBE15
:101F0000CDBFF82E192F6E018EEDC80ED11C84E0C6
:101F1000F60111928A95E9F70E94CA0C811579F1B0
:101F2000CE018F549F4F0E947E0EAE014F525F4FE5
:101F3000B60185E692E00E94E52CBE016F547F4F0A
:101F4000CE0101960E94D02800E19E012F533F4F01
:101F50004F2D512FBE016F527F4FCE0101960E942F
:101F60003C2BCE018F539F4F0E94060F40E150E063
:101F70006EE171E0CE018F539F4F0E943A37CF51EF
:101F8000DF4F0FB6F894DEBF0FBECDBFDF91CF910C
:101F90001F910F91FF90DF90CF900895CF92DF9225
:101FA000EF92FF920F931F93CF93DF93CDB7DEB7DE
:101FB000C25ED1090FB6F894DEBF0FBECDBF7C0163
:101FC000CE51DF4F1882C25ED0406E018EEDC80E3A
:101FD000D11C84E0F60111928A95E9F741E050E0C6
:101FE00065E371E0CE018E519F4F0E942A37109118
:101FF00064021115D1F1109181021115B1F1CE5188
:10200000DF4F1881C25ED040113009F03FC040E17F
:1020100050E06EE171E0CE018F539F4F0E942A374E
:10202000CE018F539F4F0E94060FCE018F549F4FBA
:102030000E947E0EAE014F525F4FB60185E692E0E0
:102040000E94E52CBE016F547F4FCE0101960E9485
:10205000D02800E19701AE014F535F4FBE016F5290
:102060007F4FCE0101960E943C2B812FCE51DF4F36
:102070000FB6F894DEBF0FBECDBFDF91CF911F9199
:102080000F91FF90EF90DF90CF90089510E0EDCF8B
:102090008F929F92AF92BF92CF92DF92EF92FF9278
:1020A0000F931F93CF93DF93CDB7DEB7C254D109FF
:1020B0000FB6F894DEBF0FBECDBF792F162FF42ECA
:1020C000022F6983462F50E0682FCE0102960E94AE
:1020D0000F373B818A8196E789278A8322E0AE0108
:1020E0004F5F5F4FB42EA52EFA01E20FF11D9081D4
:1020F0006981261708F447C0932790830E941D0C1E
:10210000F11409F445C0011509F444C080910B0194
:1021100090910C01892B90910D01892B811509F467
:1021200077C08DE00E948A0721968FAF21978EE0BD
:102130000E948A0722968FAF22978FE00E948A071B
:1021400023968FAF23978BE091E00E94BB0785E336
:102150000E94630BC12CD12C2CE2822E99249394E3
:102160000E94B607833109F055C0E12C8FE19EE44F
:102170000197F1F700C000000E947D08E394E0168B
:10218000A8F30F2D07C08452892780832F5FACCF1F
:102190000111DDCF0E9486078FE70E948007EB2C9C
:1021A000FA2CF70181917F010E9480078E2D8B19F7
:1021B0001817B8F7289A85E30E94630BE12CF12CDD
:1021C0009CE2C92EDD24D3940E94B6078331E1F549
:1021D0009AE0910F80E0EFECF7E03197F1F700C063
:1021E00000008F5F8917B8F384EFE82EFF24F39483
:1021F0008AE30E9498078F77811509F44BC00E94EB
:10220000B6078631D9F5011509F450C010E044C075
:10221000F12C9DCF87EC90E00197F1F700C0000012
:10222000C601B4010E94AC368B32914019F485E3AB
:102230000E94630BFFEFCF1ADF0A28EBC2162BE0D8
:10224000D20609F08DCF91CF87EC90E00197F1F79E
:1022500000C00000C701B6010E94AC368B3291402D
:1022600019F485E30E94630BFFEFEF1AFF0A28EBD6
:10227000E2162BE0F20609F0A7CFAACF8FEC97E089
:102280000197F1F700C0000091E0E91AF10809F0A8
:10229000AFCFB9CF011541F086E30E94630BCE01A9
:1022A000805C9F4F0E94BB07111103C00E941D0C50
:1022B00010E00E94B6078D3019F084E30E94630B92
:1022C000812FCE5BDF4F0FB6F894DEBF0FBECDBFC0
:1022D000DF91CF911F910F91FF90EF90DF90CF9002
:1022E000BF90AF909F908F900895CF92DF92EF9222
:1022F000FF920F931F93CF93DF93D82EE92ED62F03
:10230000C42FF22E411509F447C0211509F444C029
:1023100020910B0180910C01282B80910D01282B1D
:1023200081E0211101C080E0082F10E080911701A9
:102330008115D9F10E94730628E0D29FC0011124B3
:1023400085549F4F64E670E00E94AC36CB018F0D40
:10235000911D22273327201B310B26233723280FDB
:10236000391F80911C0190911D0182179307B8F4C9
:1023700080910E0290910F02019690930F0280932C
:102380000E02C2E08C2FDF91CF911F910F91FF9031
:10239000EF90DF90CF90089500E010E0C7CF821B50
:1023A000930B90931D0180931C018FEF8D0F8D3344
:1023B00028F1C0E060913D0370913E0380913F039E
:1023C0009091400300918202109183022091840237
:1023D00030918502601771078207930760F06B01E7
:1023E0007C01C01AD10AE20AF30AC11444E0D406FF
:1023F000E104F10438F20E946D0BC4CF2F2D4C2F55
:102400006D2F8D2D9E2D0E944810C82F811589F2A9
:10241000F11449F080914602909147020196909301
:1024200047028093460201111FC084EB90E00E9496
:10243000F806C0CFEFECF7E03197F1F700C00000ED
:10244000019620911501309116018217930790F3A0
:1024500020E040E06D2F8D2D9E2D0E944810C82F4A
:10246000811509F4A6CFE1CF80E090E0EACF20917A
:102470001B01211103C040E00C94751180E0089508
:10248000AF92BF92CF92DF92EF92FF920F931F9382
:10249000CF93DF93CDB7DEB7C453D1400FB6F894D6
:1024A000DEBF0FBECDBF7E018EECE81A8EEFF80ABC
:1024B00080911E0190911F01A0912001F70180835E
:1024C0009183A2836E01F1EFCF0ED11CD60180E182
:1024D0008D938CE0E5E6F2E001900D928A95E1F7AC
:1024E000F601158681E086871786108A818B8AEE31
:1024F000828B82E0838B98E1948B858B80E4868B42
:1025000083E0878B8091600290916102A0916202CA
:10251000B0916302808F918FA28FB38FAE014F5D18
:102520005E4F60E672E085E692E00E94E52C60E591
:1025300072E0CE0101960E94D0288E01025D1E4FEE
:102540002CE1A601BE016F5D7E4FCE0101960E9477
:102550008B2AC25DDE4F8881CE52D140F601848F36
:10256000C15DDE4F8881CF52D140858FC05DDE4F87
:102570008881C053D140868FCF5CDE4F8881C153A4
:10258000D140878FE8E4F2E0D601909680E592E0B2
:10259000B701760121912D938E179F07D9F7CE01B0
:1025A0008F549F4F5C0188E2C82E00E010E020E0CD
:1025B00041E08AE892E00E94EB33682F811571F0C8
:1025C000C5010E943712811549F080913C0290911B
:1025D0003D02019690933D0280933C02CC5CDE4F1D
:1025E0000FB6F894DEBF0FBECDBFDF91CF911F9124
:1025F0000F91FF90EF90DF90CF90BF90AF90089534
:10260000CF93DF93CDB7DEB760970FB6F894DEBFF8
:102610000FBECDBF8091640281110CC083E09BE0AE
:1026200060960FB6F894DEBF0FBECDBFDF91CF919D
:102630000C94B80C80911B01811519F084EE9AE07E
:10264000EFCFCE0101960E94AA0B811591F08981EE
:10265000809360028A81809361028B818093620201
:102660008C8180936302CE0101960E94AA0B811196
:102670000BC00E94C60C60960FB6F894DEBF0FBE6A
:10268000CDBFDF91CF91089588E0FE013196A8E497
:10269000B2E001900D928A95E1F721E030E04EE63C
:1026A00052E060E070E08AE892E00E94223081E02F
:1026B00080932F02809370030E946706DC01CB0198
:1026C000805A9541AF4FBF4F80932B0290932C02BD
:1026D000A0932D02B0932E020E946706DC01CB016D
:1026E000805C904EAF4FBF4F80932702909328029B
:1026F000A0932902B0932A0287EA9AE00E94B80CBC
:102700000E944012B8CF0F931F93CF93DF93CDB7A2
:10271000DEB7C054D1090FB6F894DEBF0FBECDBFEF
:10272000AC01262F8E010F5F1F4F67E872E08AE829
:1027300092E00E94A934682F811571F0C8010E94AF
:102740003712811549F080913C0290913D0201962B
:1027500090933D0280933C02C05CDF4F0FB6F8942B
:10276000DEBF0FBECDBFDF91CF911F910F910895B6
:10277000CF93DF93CDB7DEB760970FB6F894DEBF87
:102780000FBECDBF85E8898380911A0191E0980F33
:1027900090931A018A8382E08B8390E89C8398E06F
:1027A0009D838E831F8283E0888780916F038111D0
:1027B00088EC898784E08A871B8685E08C871D8664
:1027C0006DE0CE0101960E94831360960FB6F894D7
:1027D000DEBF0FBECDBFDF91CF910895CF93C62F3F
:1027E00080936F030E94D30684E89BE00E94B80C9C
:1027F00080916F038115C1F081E30E94870C0E94D4
:10280000C20DC11599F080914803811579F080912E
:10281000870290918802892B90918902892B8115DA
:1028200029F0CF910C94B81380E3E7CFCF910895AE
:10283000CF92DF92EF92FF920F931F93CF93DF938C
:10284000CDB7DEB7EE970FB6F894DEBF0FBECDBFA3
:10285000062F4EE3BE016F5F7F4F0E943407823028
:1028600028F029819FEF980F291729F085E69AE033
:102870000E94B80C41C010911B01111519F089E498
:102880009AE0F6CF90912602911509F444C09091F8
:102890001D02911509F43FC08A30E8F18C81823025
:1028A000D1F59A8180911E02981335C043E050E023
:1028B0006FE172E0CE0108960E940237892B59F52C
:1028C0000E946706C0902202D0902302E09024026A
:1028D000F09025026C197D098E099F096D3D7540A8
:1028E00081059105C0F480914402909145020196C2
:1028F0009093450280934402EE960FB6F894DEBFA3
:102900000FBECDBFDF91CF911F910F91FF90EF9040
:10291000DF90CF900895011521F080911901811168
:1029200014E2212F40E06981CE0102960E947511C8
:10293000823061F480913E0290913F020196909323
:102940003F0280933E028BE39AE092CF811551F0D3
:1029500080913C0290913D02019690933D028093BC
:102960003C02CACF80913E0290913F020196909323
:102970003F0280933E0282E39AE07ACF1F921FB615
:102980001F9211248F939F93AF93BF9380917103F4
:1029900090917203A0917303B09174030196A11DED
:1029A000B11D8093710390937203A0937303B0934E
:1029B0007403BF91AF919F918F911F901FBE1F9085
:1029C0001895CDB7DEB7C250D2400FB6F894DEBF2F
:1029D0000FBECDBF84B7877F84BF0FB6F894A8958C
:1029E00080916000886180936000109260000FBE4B
:1029F00080E820E030E00FB6F894809361002093E7
:102A000061000FBE6A980E941A088091D800806108
:102A10008093D80081E080931002789484B187601D
:102A200084B92398209A289A80E58CBD1DBC5398C0
:102A300052986E9A289A20E52A95F1F7289850E541
:102A40005A95F1F7289A88E78A95F1F780E30E9472
:102A5000630BAFE1BEE41197F1F700C0000010E096
:102A6000612F70E0CB01865D9E4FFC0124912F3FCA
:102A700009F033C263EC8EE30E94A6070E942D0C7E
:102A80000E94280C109280008BE0809381008CE7DC
:102A900090E0909389008093880082E080936F009B
:102AA000789442E050E060E071E0CE0101960E942F
:102AB0002A3789819A818133914509F018C24CE007
:102AC00050E062E071E085E692E00E942A3740E142
:102AD00050E06EE071E080E592E00E942A3781E0EC
:102AE00080936402198241E050E060E771E0CE011A
:102AF00001960E942A371981113009F0FAC140E18C
:102B000050E060E671E081E792E00E942A3710937E
:102B100081024E0121EB820E911C83E0D4011D92B3
:102B20008A95E9F720E030E0A40160E070E08AE8EF
:102B300092E00E94223000E411E0C12CD12C7601F9
:102B4000B12C44E050E0B801CE0101960E942A3732
:102B500049805A806B807C80C301B2010E94633639
:102B6000462F572FBC01B394472046204520409460
:102B700059F0C416D506E606F70630F48B2D87709B
:102B8000809386026A017B010C5F1F4FE8E0BE1252
:102B9000D8CFC114D104E104F104B1F444E050E011
:102BA00061E371E0CE0101960E942A3769817A8142
:102BB0008B819C816F3FFFEF7F078F079F0721F07D
:102BC0000E9463366B017C01B701A6015C5F6F4F09
:102BD0007F4F8AE892E00E947A3060913D037091C5
:102BE0003E0380913F03909140030E946D0BCE0104
:102BF00001960E94CE0F811539F0BE016F5F7F4FA5
:102C00008AE892E00E945F3081E29AE00E94B80C6C
:102C10000E94C20DD12C3E012EE8621A2EEF720ADC
:102C2000E5E32E2E332433942C0E3D1E52E2250E66
:102C3000311CCE018B5C9E4F8596C150DE4F99832F
:102C40008883CF5FD140D3011396CF5FDD4FB98327
:102C5000A883C150D240FE017196C550DE4FF98362
:102C6000E883CB5FD1404B9B54C182E30E9498071D
:102C7000809395019091900191113DC191E09093C5
:102C8000900180939201809393018093940110921C
:102C90009101809191018F3F19F08F5F8093910195
:102CA0004A993AC10E94B607813111F40E94280C5A
:102CB00080917003811509F468C40E94D3060E94B4
:102CC00067060091070110910801209109013091D8
:102CD0000A01601B710B820B930B97FD75C40E9458
:102CE0006706DC01CB0180569444A24FBF4F80930E
:102CF000070190930801A0930901B0930A0181E0B4
:102D00000E94580C8CB184709091A0019111CCC498
:102D1000811519F081E08093A001809170038115E5
:102D2000E9F00E946706462F572FBC0180912B02C5
:102D300090912C02A0912D02B0912E0248175907B4
:102D40006A077B0708F411C5109270030E94D3062E
:102D500084E492E00E94B80C0E94C20D1091A5017B
:102D6000111509F460C00E9467062091A1013091FD
:102D7000A2014091A3015091A40162177307840737
:102D8000950708F450C00E946706DC01CB0180550E
:102D90009B4FAF4FBF4F8093A1019093A201A0938F
:102DA000A301B093A401123009F4FCC4133009F458
:102DB0001AC5113071F580E3CB5CDE4F8883C553B3
:102DC000D140FE0131965F01CC24C394CE018B5CCF
:102DD0009E4F7C0100E010E021E041E067E872E0F6
:102DE0008AE892E00E94EB33682F811571F0C501EB
:102DF0000E943712811549F080913C0290913D026A
:102E0000019690933D0280933C0289EA92E00E94F1
:102E1000B80C0E94CC078091A5018F5F843008F028
:102E2000E7C48093A5018091A601811581F00E94DD
:102E300067060091AB011091AC012091AD0130917A
:102E4000AE01601B710B820B930B97FFDAC40E94DB
:102E50007D080E94CC07E091F1018091F001E81714
:102E600008F02AC581E08E0F8093F101F0E0E05573
:102E7000FE4F808190E08D30910529F08A309105D8
:102E800011F00C947727F401ED0DF11D1082D1148F
:102E900011F1D4018C91813409F0BBC511968C914C
:102EA0001197811509F4E3C5833709F03AC543E06A
:102EB000BE016F5F7F4FC40102960E9434076B8191
:102EC00062956170833009F060E0C40102960E944F
:102ED00018140E94CC07D12CC6CE655D7E4FFB0135
:102EE0006491FC0184910E94A6071E5FB9CD80E029
:102EF000F7CD10E00CCE90919301891714F48093D4
:102F000093019091920198170CF0C3CE8093920197
:102F1000C0CE10929001C4CE8FE30E948A07C82EC3
:102F2000E894C7F88FEF8C0D8D3308F0BFCEC982BF
:102F30000E9486078FEF0E9480078E010E5F1F4F51
:102F4000BB24B394780180E00E948007D8018D9360
:102F50008D01B394CB14B8F780E00E948007B82E9F
:102F600080E00E948007A82E289A8A8196E79827F9
:102F70009A8392E0FE013196E90FF11D208139819B
:102F8000931708F4BDC08B81822780834C2D50E0BD
:102F9000B701C3010E940F37EB2CB7FE03C0EE242C
:102FA000E394EB0CE5940E2C000CFF08BAE4EB1A4A
:102FB000F108E0E8EE16EFEFFE0624F470E8E72EE5
:102FC000FF24FA940E94280C80910C02811509F4C8
:102FD00058C08DE392E00E94B80C80919501082EB4
:102FE000000C990B0E94AF0D85E392E00E94B80C93
:102FF00080919401082E000C990B0E94AF0D8FE276
:1030000092E00E94B80C80919301082E000C990B5D
:103010000E94AF0D89E292E00E94B80C809192016B
:10302000082E000C990B0E94AF0D85E292E00E94E1
:10303000B80C6091910170E080E090E00E943B0D3F
:103040008EE192E00E94B80CC7010E94AF0D88E1AA
:1030500092E00E94B80C6C2D70E080E090E00E943D
:103060003B0D82E192E00E94B80C8301D8018D9162
:103070008D010E94040D802F86198C15B8F30E94D3
:10308000C20D90912F0280911C0220911302822B7D
:1030900081113CC0911509F40BCEB6E0CB123BC0B8
:1030A00043E050E06AE373E0C3010E940237892BDA
:1030B00009F0FECD809142029091430201969093D7
:1030C00043028093420289E092E00E94B80CCF5FF5
:1030D000DD4F88819981C150D2400E94190D83E053
:1030E00092E00E94B80CC3010E94190D8CEF91E090
:1030F0000E94B80CC7010E94AF0D0E94C20DD8CD2E
:103100008452822780839F5F822F34CF9111C5CF55
:1031100000E010E05AC080911001811121C080911F
:1031200030029091310201969093310280933002E7
:103130008E0101551E4F9E012B5C3E4F4C2DB3015D
:103140008AE892E00E948B30892B59F180913402F9
:103150009091350201969093350280933402D8CF36
:103160009E012F5F3F4F4C2DB3018AE892E00E94F1
:10317000A433811581F066E0CE0101960E943712DA
:10318000811549F0809140029091410201969093FF
:1031900041028093400280912F02811509F4B8CF3B
:1031A000BECF809132029091330201969093330208
:1031B00080933202C553DE4F8881CB5CD140897148
:1031C00001E0811101C000E011E0509013028091F4
:1031D0001C028529811509F437C188E290E00E941C
:1031E000F806111511F40C94F627511431F02E2D18
:1031F000A3016C2D80E50E94CA0D011511F40C94F9
:10320000882788E290E00E94F806C553DE4F888147
:10321000CB5CD14087FF0AC0209136023091370243
:103220002F5F3F4F309337022093360289708930E9
:1032300059F5CA53DE4F8881C65CD140811124C044
:10324000CD53DE4F88819981C35CD1400597E0F072
:10325000CB5CDE4F8881C553D1408638A9F4C95C68
:10326000DE4F8881C753D140823071F481E0C75C62
:10327000DE4F9881C953D140911101C080E060E0D8
:103280000E94EE130E94B813CE2C8091700381151A
:1032900009F47AC0CD53DE4F8881C35CD1408D32B2
:1032A00008F472C0CB5CDE4F8881C553D1408032B8
:1032B00009F06AC08CE0E5E6F2E0DE0111960190CB
:1032C0000D928A95E1F780E1E0E5F2E0DE011D96DE
:1032D00001900D928A95E1F78091600290916102D0
:1032E000A0916202B09163028D8F9E8FAF8FB8A3C1
:1032F00088E0E8E4F2E0DE01919601900D928A9573
:10330000E1F7C95CDE4F88819981AA81BB81C753EF
:10331000D14089A79AA7ABA7BCA788E0FE01EB5CC8
:10332000FE4F3A96DE019D9601900D928A95E1F747
:1033300080E1FE01EB5CFE4F7296DE01D5960190B6
:103340000D928A95E1F7C25ADE4F88819981AA8150
:10335000BB81CE55D14029968CAF9DAFAEAFBFAFEC
:103360002997BE0162537E4FCE0101960E945A2DCD
:1033700081116DC0109270030E94D3068EED91E012
:103380000E94B80C0E94C20D90911001911509F491
:10339000F0C0C553DE4F8881CB5CD14081FD07C0B2
:1033A000913009F4E6C08970893009F0E2C0AE01BD
:1033B00042535E4FBE0161557E4F8AE892E00E9403
:1033C0000233873109F0D5C067E1CE0182539E4FA9
:1033D0000E943712811509F4C3C080913802909180
:1033E000390201969093390280933802FF24F394B6
:1033F00080910D02811521F18E010F5F1F4FCD537A
:10340000DE4F2881C35CD140AE014B5C5E4FBE01F4
:1034100061557E4F8AE892E00E943234682F811510
:1034200079F0C8010E943712811509F4A4C0809177
:103430003A0290913B02019690933B0280933A02AC
:103440000F2D2A2D4C2D83C01111DBCE31CCBE01A6
:1034500062537E4F8AE892E00E945F30B1018AE8B1
:1034600092E00E946B30C65ADE4F688179818A8172
:103470009B81CA55D1400E946336AB01BC018AE8EA
:1034800092E00E947A30CE0182539E4F0E94710FCB
:1034900043E050E06EE271E0C1010E943A3744E03F
:1034A00050E061E371E0C150DE4F88819981CF5FC8
:1034B000D1400E943A3711E0CB51DE4F1883C55EF0
:1034C000D14041E050E065E371E0CE018B519E4F69
:1034D0000E943A37109270030E94D306CE54DE4FFA
:1034E00088819981AA81C25BD140809387029093A1
:1034F0008802A093890243E050E066E371E087E828
:1035000092E00E943A3710931A011093A5010E948D
:103510006706DC01CB0180559B4FAF4FBF4F8093B7
:10352000A1019093A201A093A301B093A4018BECFD
:1035300091E00E94B80CC1010E94190D0E94C20DB9
:1035400089E891E00E94B80C00E02A2D4E2DBE01C2
:1035500061557E4FCE018B5C9E4F0E94F10DA8CB32
:1035600080913E0290913F02019690933F0280939A
:103570003E02F12C3DCF80913E0290913F02019698
:1035800090933F0280933E025BCFE0906B03F090FC
:103590006C0300916D0310916E03E114F1040105B9
:1035A000110509F48CCB0E9467066E157F05800714
:1035B000910708F484CB10926B0310926C03109265
:1035C0006D0310926E0379CB0E94670600919701FC
:1035D000109198012091990130919A01601B710B13
:1035E000820B930B97FD8ECB0E946706DC01CB010B
:1035F00088519C4FAF4FBF4F809397019093980194
:10360000A0939901B0939A0180E00E94580C0E9407
:10361000B6078D3009F076CB4B9974CB809196012B
:10362000811521F08150809396016CCB84E30E9438
:10363000980787FD8F5F859546EB480F50E8450357
:103640009001112480910E01813881F08091FA015E
:103650009091FB01281B390B37FF20C02D5F3F4F96
:103660003595279535952795280F391F3093FB0100
:103670002093FA0137FF02C021583F4F220F232F1A
:10368000221F330B20930E0180910F0184171CF031
:10369000813809F037CB40930F0134CB55E0359595
:1036A00027955A95E1F7E0CF811130C0E0909C0159
:1036B000F0909D0100919E0110919F01E114F10491
:1036C0000105110559F40E94670660939C017093EF
:1036D0009D0180939E0190939F011FCB80919B0140
:1036E00081111BCB0E9467066E197F09800B910B1D
:1036F0006F3171058105910508F40FCB81E080934E
:103700009B0184EB90E00E94F80607CB80919B011F
:103710008115B9F00E94670600919C0110919D01EE
:1037200020919E0130919F01601B710B820B930BC6
:10373000613D77408105910578F00E9400130E9459
:10374000CC0710929B0110929C0110929D01109247
:103750009E0110929F01E1CA81E090916F03911147
:1037600080E061E00E94EE13EACF80912702909101
:103770002802A0912902B0912A02481759076A0726
:103780007B0708F4EBCA405C504E6F4F7F4F40936D
:103790002702509328026093290270932A020E9404
:1037A0004012DCCA85E8898380911A0191E0980F64
:1037B00090931A018A83EFE5F2E0DE01139684917B
:1037C0008D933196C550DE4F88819981CB5FD14072
:1037D0008A179B07A1F760E1CE0101960E9483132F
:1037E00084E992E014CB0E94B8138DE792E00FCBEE
:1037F0001092A5018DE692E00E94B80C0E94CC07C1
:1038000012CB1092A6018091A701898380E88A8358
:1038100080911402811561F043E050E065E172E0AF
:1038200088EA91E00E940237892B11F481E88A83AB
:1038300082E08B838091190290911A02A0911B0261
:103840008C839D83AE838091A8019091A901A09162
:10385000AA018F839887A9871A866AE0CE0101960C
:103860000E943712811509F4F2CA809138029091B2
:103870003902019690933902809338028091A70112
:1038800080931E028091A8019091A901A091AA01A4
:1038900080931F0290932002A09321020E9467064A
:1038A0006093220270932302809324029093250256
:1038B00081E080931D02CBCA1092F1011092F001B9
:1038C0008091AF01843009F0CEC98093E9008091E6
:1038D000E80082FFC8C98091F2009091F300892B23
:1038E00021F0E091F001E03488F08091E800982F19
:1038F0009B7F9093E8008F778093E8008091F001A0
:10390000811509F4B0C9E091F101ACCA81E08E0FD4
:103910008093F0018091F100F0E0E055FE4F80834C
:10392000DACF823731F481E080931C0210921B01C0
:10393000D0CA883719F410921C02CBCA8136D9F448
:10394000F4018281811561F043E069E172E0C40114
:1039500002960E943407833019F481E080931802A4
:103960008DE19AE00E94B80C89E192E00E94190D65
:103970000E94C20DAECA873711F512968C9181153F
:10398000B9F043E065E172E0C40102960E94340799
:10399000833071F48091150290911602892B9091D9
:1039A0001702892B91E0811101C090E090931402DD
:1039B00089E19AE00E94B80C85E192E0D7CF813787
:1039C00009F055C0F401928180ED890F823030F406
:1039D00081E0913309F080E08093260285E19AE04E
:1039E0000E94B80C80912602811589F081E30E9423
:1039F000870C80912602811509F4BACF80911802B4
:103A00008111B6CF82E09AE00E94B80CB1CF80E37A
:103A1000EECF84018035D1F411968C91811539F166
:103A2000833709F451CA823741F481E0809313024D
:103A30008AEF99E00E94B80C4CCA0F5F1F4F88377D
:103A400029F41092130282EF99E0F4CF843511F437
:103A50000C94AF2604F5823411F40C94012754F42D
:103A6000811509F436CA8F3311F40C94AB2681E822
:103A700099E0E0CF8334D9F741E0BE016F5F7F4F1B
:103A8000C80101960E943407813011F40C9450272C
:103A90008EE899E0CFCF883511F40C94D226C4F487
:103AA000863511F40C94A726873509F742E0BE014C
:103AB0006F5F7F4FC80101960E943407823029F45E
:103AC00019811F3210F40C94602786E899E0B2CF78
:103AD0008D3669F6F8019181911569F0E1ECE90FF5
:103AE000E53310F00C94A3260E2E000CFF0BE859C2
:103AF000F84C0C94E23680913A0390913B03A091EC
:103B00003C0389839A83AB838AEA93E00E94B80CD2
:103B100080912F02811509F474C186EA93E00E9416
:103B2000B80C8AE993E00E94B80C8091450381307B
:103B300009F06AC183E993E00E94B80C83E893E03E
:103B40000E94B80CCE0101960E94190D8DE793E0FA
:103B50000E94B80C80914803811509F458C181E393
:103B60000E94870C88E793E00E94B80C60913D03A7
:103B700070913E0380913F03909140030E94270D76
:103B800082E793E00E94B80C80911001805D0E9452
:103B9000870C88E693E00E94B80C80914903811558
:103BA00009F437C181E30E94870C8FE593E00E94FE
:103BB000B80C80910D02811509F42DC181E30E949A
:103BC000870C84E593E00E94B80C80911B0181155D
:103BD00009F423C181E30E94870C8BE493E00E94E7
:103BE000B80C80916F03811509F419C181E30E941B
:103BF000870C0E94C20D0E94730680E493E00E942D
:103C0000B80C80911701811509F40BC181E30E9462
:103C1000870C87E393E00E94B80C60911C017091BF
:103C20001D0180E090E00E943B0D8FE20E94870C16
:103C300064E873E080E090E00E943B0D80E393E055
:103C40000E94B80C60910E0270910F0280E090E02B
:103C50000E943B0D0E94C20D89E293E00E94B80CC5
:103C6000609130027091310280E090E00E943B0D43
:103C700084E293E00E94B80C6091320270913302AA
:103C800080E090E00E943B0D8EE193E00E94B80C32
:103C9000609134027091350280E090E00E943B0D0B
:103CA00088E193E00E94B80C60913602709137026F
:103CB00080E090E00E943B0D81E193E00E94B80C0F
:103CC000609138027091390280E090E00E943B0DD3
:103CD0008AE093E00E94B80C60914002709141022A
:103CE00080E090E00E943B0D83E093E00E94B80CDE
:103CF000609142027091430280E090E00E943B0D8F
:103D00008BEF92E00E94B80C6091440270914502E2
:103D100080E090E00E943B0D85EF92E00E94B80C9D
:103D200060913A0270913B0280E090E00E943B0D6E
:103D300080EF92E00E94B80C60913C0270913D02CD
:103D400080E090E00E943B0D88EE92E00E94B80C6B
:103D500060913E0270913F0280E090E00E943B0D36
:103D600080EE92E00E94B80C60914602709147028A
:103D700080E090E00E943B0D8AED92E00E94B80C3A
:103D80006091F8017091F90180E090E00E943B0D94
:103D90008FE20E94870C6091F6017091F70180E03C
:103DA00090E00E943B0D8FE20E94870C6091F4012D
:103DB0007091F50180E090E00E943B0D82ED92E071
:103DC0000E94B80C6091F2017091F30180E090E0E4
:103DD0000E943B0D8AEC92E00E94B80C80910E018B
:103DE000082E000C990B0E94AF0D84EC92E00E940B
:103DF000B80C80910F01082E000C990B0E94AF0D9A
:103E0000B7CD82EA93E08BCE8AE893E095CE80E34B
:103E1000A7CE80E3C8CE80E3D2CE80E3DCCE80E3C1
:103E2000E6CE80E3F4CE61E070E0943411F060E01F
:103E300070E08AE892E00E94753089E699E00E947D
:103E4000B80CD80111968C91843489F582E699E0FA
:103E50000E94B80C0E94C20DF8018181843409F4DB
:103E600038C8CB5CDE4F1882C553D14041E050E0EA
:103E700065E371E0CE018B5C9E4F0E942A37CB5CDC
:103E8000DE4F8881C553D140813009F422C880912A
:103E90006402811509F41DC88E010F5F1F4FC80110
:103EA0000E94AA0B811106C00E94C60C12C889E5A7
:103EB00099E0CECFB8018AE892E00E945F30C80155
:103EC0000E94710F81E0CB5CDE4F8883C553D140E7
:103ED00041E050E065E371E0CE018B5C9E4F0E94B3
:103EE0003A3780E1D8011D928A95E9F78EEA93E08E
:103EF000A1CD43E0BE016B5C7E4FC80102960E94DB
:103F00003407833019F08BE499E094CDBE016B5CEB
:103F10007E4F8AE892E00E946B3082E499E00E9432
:103F2000B80CCE018B5C9E4F21CDF8018281883583
:103F300061F4198241E050E065E371E0CE01019641
:103F40000E943A3782E099E075CD88EC98E072CD16
:103F500044E0BE016B5C7E4FC80102960E943407AC
:103F6000843019F08CEB98E065CDCB5CDE4F688136
:103F700079818A819B81C553D1400E946336AB0110
:103F8000BC018AE892E00E947A3085EB98E00E94BA
:103F9000B80C60913D0370913E0380913F03909176
:103FA00040030E94270DE4CCD80112968C918E34E8
:103FB00009F09FC08DE998E00E94B80C0E94CC07E0
:103FC0000E94CA0C811509F478C0CE0101960E94A6
:103FD0006C07811509F469C0FE0131969E01255FC9
:103FE0003F4F85EC9DE9ACE1B1E8AC01BD0115E0C6
:103FF000440F551F661F771F1A95D1F70BE1B69531
:10400000A795979587950A95D1F7842B952BA62B85
:10401000B72B41918427E217F30739F7AF73BB271A
:104020006C017D0180E592E00E94AA0B811509F4E4
:1040300042C005E612E0A70196016BEE70E080E059
:1040400090E00E94C13481E391E5CB5CDE4F99831F
:104050008883C553D1404CE050E062E071E0C80174
:104060000E943A3740E150E06EE071E080E592E076
:104070000E943A3742E050E060E071E0CE018B5C94
:104080009E4F0E943A3781E080936402CB5CDE4F02
:104090001882C553D14041E050E065E371E0CE01A4
:1040A0008B5C9E4F0E943A3708C0CE0101960E9459
:1040B000AA0B811109C00E94C60C80916402811173
:1040C000F1C08BE395E0B6CC29818A8190E0A0E035
:1040D000B0E0BA2FA92F982F8827A22B2B81822BF3
:1040E000AF73BB276C017D018EEC93E00E94B80C8E
:1040F00099CF803521F40E9400130C9469178B34FA
:10410000E1F6C650DE4F1882CA5FD14041E050E070
:1041100065E371E0CE0186509E4F0E942A37809160
:104120006402811539F0C650DE4F8881CA5FD140E4
:10413000813019F08BE694E07DCC89E594E00E9413
:10414000B80C0E94CC07CE018B5C9E4F0E94AA0B3C
:10415000811509F4A9CECB5CDE4F8881C553D140CF
:10416000CE50DE4F8883C25FD140CA5CDE4F88816B
:10417000C653D140CD50DE4F8883C35FD140C95C68
:10418000DE4F8881C753D140CC50DE4F8883C45F57
:10419000D140C85CDE4F8881C853D140CB50DE4F40
:1041A0008883C55FD1407E0122E3E21A2EEFF20A36
:1041B000C7010E94CE0F811103C08CE394E03ACC7A
:1041C0005E015EE8A51A5EEFB50AC5010E947E0E8B
:1041D000AE014B515E4FBE016E507E4F85E692E0C0
:1041E0000E94E52CB501CE0101960E94D0286E01F7
:1041F00081E5C81A8EEFD80A00E19601A701BE0139
:104200006B517E4FCE0101960E943C2B2E019AE00D
:10421000491A9EEF590A820120E1A701BE016B51A4
:104220007E4FCE0101960E94922C80E1D701E82FAB
:104230001D92EA95E9F7D5011D928A95E9F780E389
:1042400094E00E94B80C04501109F80134967F01E3
:10425000B42CA52CD8018D918D010E94040DE0167F
:10426000F106C1F786017601B0E1EB0EF11CF80111
:1042700081918F010E94040D0E151F05C1F70B2DB2
:104280001A2D7801F4E0EF0EF11CD8018D918D010B
:104290000E94040D0E151F05C1F70E94C20D85E096
:1042A00094E0C8CB81E395E00E94B80C05E612E0EB
:1042B000F80181918F010E94040DF2E001371F0780
:1042C000B9F70E94C20DCE018B5C9E4F7C018E011E
:1042D00002531E4F9E012B513E4FAE014E585E4F72
:1042E000BE0161557E4F85E692E00E945D358CE10E
:1042F00095E00E94B80CCB51DE4F8881C55ED1405D
:104300000E94040D83E195E00E94B80CC153DE4F7A
:104310008881CF5CD1400E94040DC253DE4F88815A
:10432000CE5CD1400E94040D86E095E00E94B80C5E
:10433000CE58DE4F88819981AA81BB81C257D14076
:10434000BC01CD0161507F4F8F4F9F4F0E943B0DAD
:104350000E94C20D85EF94E00E94B80CCE01019638
:104360000E946C07811521F10D5C11409AE2E91A57
:1043700091E0F90AD8018D918D010E94040DE0169B
:10438000F106C1F70E94C20D85EE94E00E94B80CC0
:1043900000E512E0F80181918F010E94040DF2E026
:1043A00000361F07B9F70E94C20D80EA94E042CBA5
:1043B0008DEE94E00E94B80CE5CFD80112968C9156
:1043C000803331F461E080E00E94EE130C946917B1
:1043D000813319F461E081E0F7CF843539F481E06D
:1043E00090916F03911180E061E0EECF82E998E057
:1043F0000E94B80C80916F03811521F081E30E9427
:10440000870CB6CA80E3FBCFA5B058B04BB0BEB1A5
:10441000C350DE4FB883CD5FD140E1B3C250DE4F11
:10442000E883CE5FD14084B195B18095892B85B961
:1044300087B198B18095892B88B98AB19BB1809555
:10444000892B8BB98DB19EB18095892B8EB980B3A4
:1044500091B38095892B81BB8FE097E20197F1F7AB
:1044600000C00000D3B0C6B0B9B00CB11FB187E82E
:1044700098E00E94B80C8D2D0E94040D83E898E00E
:104480000E94B80C8C2D0E94040D8FE798E00E94CA
:10449000B80C8B2D0E94040D8BE798E00E94B80C9D
:1044A000802F0E94040D87E798E00E94B80C812FAE
:1044B0000E94040D86E598E00E94B80C0E94CC078B
:1044C00040E9E42EFF24F3949FE7A8E3B1E0915084
:1044D000A040B040E1F700C0000083B18D110CC0D6
:1044E00086B18C1109C089B18B1106C08CB18013C3
:1044F00003C08FB1811789F18BE498E00E94B80C5A
:1045000083B18D250E94040D87E498E00E94B80CC9
:1045100086B18C250E94040D83E498E00E94B80CBB
:1045200089B18B250E94040D8FE398E00E94B80C9E
:104530008CB180270E94040D8BE398E00E94B80C98
:104540008FB181270E94040D0E94C20D0E94CC07EA
:10455000D3B0C6B0B9B00CB11FB1E1E0EE1AF108AA
:1045600009F0B2CFA5B858B84BB8C350DE4FF881A8
:10457000CD5FD140FEB9C250DE4F2881CE5FD14021
:1045800021BB88E298E056CAD80112961C9181E0BE
:10459000103309F480E080931B0182E298E00E94CE
:1045A000B80C81E3103309F480E30E94870C86E0A5
:1045B00098E0103309F028CA82EF97E025CAF80185
:1045C000329680E0982F81E0890F2191211519F012
:1045D0008930C1F798E0F80182818B3409F065C019
:1045E00083818115B1F043E0BE016F5F7F4FC80149
:1045F00003960E943407833019F089EE97E01ACAB7
:10460000898180930B018A8180930C018B81809337
:104610000D018BE997E00E94B80C8091190181157A
:1046200009F4B3C081E30E94870C81E997E00E94FE
:10463000B80C609111017091120180E090E00E942D
:104640003B0D8FE20E94870C609113017091140161
:1046500080E090E00E943B0D8BE797E00E94B80C51
:1046600080910B010E94040D80910C010E94040DA9
:1046700080910D010E94040D80910B0190910C011D
:10468000892B90910D01892B811104C085E797E05A
:104690000E94B80C8BE697E00E94B80C609115015F
:1046A0007091160180E090E049C0913061F490ED86
:1046B000980F923008F066C091E0813309F090E0E5
:1046C00090931901A6CF08F4A4CF282F2D7F213372
:1046D00019F08A3509F056C0963018F080EE97E050
:1046E000A9C9F801339640E050E0A1E0BAE0AF5F1D
:1046F000219130ED320F3A3018F087ED97E09AC9EA
:10470000B49FB001B59F700D1124022E000C330B25
:10471000A90140535109460F571FA913E8CF8A3505
:10472000A9F4CA010597803F914058F084EC97E0C6
:104730000E94B80C64EF71E080E090E00E943B0DB5
:1047400017C9509316014093150163CF9A012A505F
:104750003109273C374048F080EB97E00E94B80CC5
:1047600060ED77E080E090E0E9CFE1E0F0E08333D6
:1047700011F0E0E0F0E0EE0FFF1FEF5EFE4F51831F
:10478000408347CF87EA97E055C980E34CCFD801F3
:1047900012969C9180ED890F823030F481E0913344
:1047A00009F080E0809317010E94730680E697E08D
:1047B0000E94B80C80911701811509F181E30E94D4
:1047C000870C87E597E00E94B80C60911C017091FE
:1047D0001D0180E090E00E943B0D8FE20E94870C5B
:1047E00064E873E080E090E00E943B0D80E597E094
:1047F0000E94B80C60910E0270910F0253CF80E3BB
:10480000DECFF801F28061E0F0E3FF1201C060E06A
:104810009534C9F460932F028CE497E00E94B80CA1
:10482000D80111968C910E94870C8DE30E94870C11
:10483000F8018181813521F58091100120E3F22E6C
:10484000F80E8F2DDCCD913539F422E3F21201C040
:1048500062E060931001E0CF963419F460930D028A
:10486000DBCF983419F460930C02D6CF9E3419F440
:1048700060934903D1CF8AE892E00E948230CCCF86
:10488000F0E3FF16F1F291E3F92EDBCFE0E3F2E083
:1048900088E1DF011D928A95E9F781E880930F0195
:1048A00080930E011092FB011092FA018DE397E0C4
:1048B000C1C87E01BEE8EB1ABEEFFB0A8FEFF7011D
:1048C0008083CE0101960E946C07BE2CAF2C811113
:1048D00003C081E297E0AEC8CF80D884E984FA842F
:1048E000D80112968C91811119C0C701B6010E949E
:1048F00063367B018C0187E197E00E94B80CB70119
:10490000C8010E94270D82E097E00E94B80CB70111
:10491000C8010E94270D85ED96E08CC844E0BE01D9
:104920006B5C7E4FC80102960E943407843069F4A4
:10493000CB5CDE4F88819981AA81BB81C553D14070
:10494000C816D906EA06FB0619F083EB96E072C892
:1049500000E011E041E050E0B8018B2D9A2D0E945B
:104960003A370F5F1F4F0038B1E01B0799F786E712
:1049700096E00E94B80C0E94CC07F89488E198E079
:104980000FB6F894A895809360000FBE90936000D6
:10499000FFCF923609F077C0F80182818C34F1F5AF
:1049A0008381811569F00E942007F82ED8011496A2
:1049B0008C910E942007BFEFFB1611F08F3F19F476
:1049C00083E696E037C88F708930C1F0ACF481304F
:1049D000A9F08330F1F0D12C0B5F1F4F5801D501A6
:1049E0008C91833709F444C0843509F456C082356C
:1049F00099F186E496E01EC88B30ECCF80911101CE
:104A00009091120109966AE070E00E94AC36D62EB1
:104A1000E3CF8091130190911401F4CF813371F4AD
:104A2000809111019091120109966AE070E00E9454
:104A3000AC36D62E0D5F1F4F5801D1CF833329F4EA
:104A40008091130190911401EFCFD12C803391F319
:104A500084E596E00C941A1D95012F5F3F4FB1E05D
:104A6000C350DE4FB883CD5FD140512C16E033C028
:104A700095012F5F3F4FE1E0C350DE4FE883CD5FEC
:104A8000D140512C27C05801FFEFAF1ABF0A98013F
:104A90002E5F3F4FD12C943559F5D50111968C914D
:104AA000811561F00E942007582EF50182810E9435
:104AB0002007FFEF5F1611F08F3F21F486E396E0A9
:104AC0000C941A1DC350DE4F8883CD5FD1409501F1
:104AD0002D5F3F4F13E04DE3BE016B5C7E4FC9017C
:104AE0000E9434078117A0F489E296E00C941A1D05
:104AF000923539F051E0C350DE4F5883CD5FD1403D
:104B0000C0CF81E0C350DE4F8883CD5FD140ADCFB1
:104B10004090460393E0591203C093E890934603F4
:104B2000C82EC11A85E3E82EFF24F394EC0EFD1E77
:104B3000E10EF11CD5018C9100E010E0823529F4E2
:104B40008E010B5C1E4F0D5F1F4FFE0131965F0102
:104B5000C350DE4F2881CD5FD140452DBE016B5C37
:104B60007E4F8AE892E00E94EB33682F4092460322
:104B70008AE196E0611511F40C941A1D80911B01D5
:104B8000811521F08BEF95E00C941A1D2D2D41E03D
:104B9000CE0101960E947511823069F480913E0227
:104BA00090913F02019690933F0280933E028DEEDA
:104BB00095E00C941A1D811569F080913C0290914A
:104BC0003D02019690933D0280933C0282EE95E077
:104BD0000C941A1D80913E0290913F020196909391
:104BE0003F0280933E0286ED95E00C941A1DD80199
:104BF00012968C918B3489F440E16CEF71E0C8011E
:104C000003960E943407803121F089EC95E00C94E2
:104C10001A1D8FEA95E00C941A1D7801B2E0EB0E94
:104C2000F11C40E1BE016B5C7E4FC7010E9434075E
:104C3000803181F4F80182A18A3261F4CE018B5C6B
:104C40009E4F40960E94CE0F811111C082E995E0DF
:104C50000C941A1D40E2BE016B5C7E4FC7010E949E
:104C60003407803221F085E895E00C941A1D6E011E
:104C7000FEE8CF1AFEEFDF0A9E012B5C3E4F205F5D
:104C80003F4FAE014B5C5E4F445F5F4F76018E013C
:104C90000F5F1F4FBE016B5C7E4F8CEF91E00E9457
:104CA000F62C8FE795E00E94B80C21E6E21A21E08D
:104CB000F20AD8018D918D010E94040DE016F106D3
:104CC000C1F780E20E94870C86017601B4E0EB0E0A
:104CD000F11CF80181918F010E94040DE016F1068C
:104CE000C1F70C94B81C40E1BE016B5C7E4FC8015B
:104CF00002960E943407803121F082E795E00C94FF
:104D00001A1DBE016B5C7E4F685F7F4FAE014F5F27
:104D10005F4FCE018B5C9E4F0E944A2D8CE695E042
:104D20000E94B80C8E010F5F1F4F7E01F1E1EF0E64
:104D3000F11CD8018D918D010E94040DE016F10641
:104D4000C1F70C94B81C83E695E00C941A1D81EE13
:104D500099E00C94041D81EB99E00C941A1DF80164
:104D600081818033D9F482818133C1F483818111BF
:104D70000AC0809111020E94040D809112020E94CB
:104D8000040D0C94B81C42E061E172E0C801039686
:104D90000E943407823069F70C9469178CEA99E015
:104DA0000C941A1DD80111968C91811599F041E04F
:104DB000BE016F5F7F4FC80101960E9434078130AA
:104DC00029F48981809318010C94691784EA99E089
:104DD0000C941A1D0E947306809118010E94040D04
:104DE00080E20E94870C80911701811529F0609163
:104DF0001C0170911D0156CC64E873E080E090E0E6
:104E00009DCCF8018181803309F046C082818133D5
:104E100009F042C083E799E00E94B80C0E94CC07D9
:104E20008FE39CE90197F1F700C000000E941A0887
:104E30008091E00081608093E0008091D8008F77BE
:104E40008093D80019BC8091D8008F7E8093D800C1
:104E5000109210029FEFADEEB2E09150A040B04032
:104E6000E1F700C00000F8940FB6F894A89580917F
:104E70006000886180936000109260000FBE109205
:104E80006E0010926F0014BE81E085BF82E085BF86
:104E9000E0E0F8E30995FFCF86E999E00C941A1D4C
:104EA00083E40E94870C1981812F0E94040D8DE3F9
:104EB0000E94870C812F1033B8F00E9498075FCFB3
:104EC0000A8186E30E94630B602F812F0E94A60750
:104ED0000E94280C87E50E94870C812F0E94040DF8
:104EE0008DE30E94870C812F0E948A0748CFF3E848
:104EF000DF1610F00C943316F401ED0DF11D8083D4
:104F0000D3940C943316111509F45DC00C94011957
:104F10002AE0C21610F40C940119EFE1CE1698F7AE
:104F200080911C02811509F446C02B2DA3016C2D24
:104F300081E40E94CA0D809126028115E1F18091E1
:104F400018028115C1F1D30111968C91119785FF3B
:104F500032C012968C919EEF980F923060F18115BD
:104F600051F143E050E069E172E0C30106960E940E
:104F70000237892B01F5F30180818093A70183819A
:104F80009481A5818093A8019093A901A093AA017F
:104F90000E946706DC01CB018C599F4FAF4FBF4F7A
:104FA0008093AB019093AC01A093AD01B093AE019F
:104FB00081E08093A60111110C940119F2E1CF1642
:104FC00010F40C94581680911302811511F40C946E
:104FD000581680912F0281110C9458162E2DA30182
:104FE0006C2D80E50E94CA0D0C9458165AE0C51627
:104FF00008F093CF0C9458161F920F920FB60F9291
:1050000011242F933F934F935F936F937F938F93CD
:105010009F93AF93BF93EF93FF938091DA0080FF4C
:1050200010C08091D80080FF0CC08091DA008E7F84
:105030008093DA008091D90080FF9BC081E080934B
:10504000AF018091E10080FF1CC08091E20080FFF1
:1050500018C08091E1008E7F8093E1008091E20092
:105060008E7F8093E2008091E20080618093E20075
:105070008091D80080628093D80019BC85E080932D
:10508000AF018091E10084FF27C08091E20084FF9E
:1050900023C019BC89B5826089BD09B400FEFDCF6B
:1050A0008091D8008F7D8093D8008091E1008F7E21
:1050B0008093E1008091E2008F7E8093E2008091F6
:1050C000E20081608093E20080914601811509F43D
:1050D00053C084E08093AF018091E10083FF38C02A
:1050E0008091E20083FF34C08091E100877F80934C
:1050F000E10082E08093AF01109246018091E100CF
:105100008E7F8093E1008091E2008E7F8093E200A9
:105110008091E20080618093E2001092F40080E0D0
:105120008093E9001092F0001092E8009091ED0059
:105130009D7F9093ED009091EB009E7F9093EB000C
:105140008F5F873069F742E060E080E00E946D0881
:10515000FF91EF91BF91AF919F918F917F916F914F
:105160005F914F913F912F910F900FBE0F901F9025
:1051700018951092AF0165CF83E0ACCFCF93DF934A
:10518000FC01DB019C01205F3F4F81919D91EF016C
:1051900089278A93E217F307C1F7DF91CF9108952A
:1051A000CF93DF93FB01DC01CB014096ED01219110
:1051B0002993E817F907D9F741E030E11C962C91C3
:1051C0001C971D969C911D971E968C911E971F965D
:1051D0005C911F97632F6F70611120C0E92FF0E081
:1051E000E157F44F64916427E82FF0E0E157F44F62
:1051F000E4919E2FE52FF0E0E157F44FE4918E2FDC
:10520000E22FF0E0E157F44FE4915E2F742F770F17
:105210002BE147FF20E0472F4227262F6C912627BE
:1052200050962C93509711962C9111979227519646
:105230009C93519712969C911297892752968C9322
:10524000529713968C911397852753968C93539767
:105250003C5F1496303B09F0B1CFDF91CF910895B8
:105260008F929F92AF92BF92CF92DF92EF92FF9276
:105270000F931F93CF93DF938C01EA01FB017A0117
:10528000CB014096DA0121912D938E179F07D9F714
:10529000B801CE010E94BE28580180E1A80EB11CC1
:1052A00000561F4F48016E01A0E1CA0ED11CDE015D
:1052B000ED91F0E0E157F44F2491CD010197FC010D
:1052C0002083CA16DB06A1F789819D819983998580
:1052D0009D839D8599878D878A819A859A838A8700
:1052E0008E819E859E838E878F859B859F879F81DC
:1052F0009B879B819F838B83FE01808141813281CB
:105300002381782F7427632F6227572F5627972FD3
:10531000990F77FF66C07BE19727782F752797272E
:105320009083742F7327972F990F77FF5CC07BE1D1
:105330009727452794279183962F990F4BE167FF75
:1053400040E094273527932792838227982F990F3F
:1053500087FF4BC08BE189272527822783833496DB
:10536000CE16DF0651F6B501CE010E94BE28F0E14F
:10537000AF0EB11C0A151B0509F099CFD701ED91AD
:105380007D01F0E0E157F44FE491EE93CE14DF0499
:10539000A9F789819D81998399859D839D859987A9
:1053A0008D878A819A859A838A878E819E859E833E
:1053B0008E878F859B859F879F819B879B819F83FE
:1053C0008B83B401CE01DF91CF911F910F91FF909C
:1053D000EF90DF90CF90BF90AF909F908F900C9404
:1053E000BE2870E099CF70E0A3CF80E0B4CFEF92F9
:1053F000FF920F931F93CF93DF93CDB7DEB76097E4
:105400000FB6F894DEBF0FBECDBF8B01DB017A0172
:1054100030E04D9150E0321710F4F7015081BD019A
:10542000615071094527FB0140833F5FFFEFEF1A91
:10543000FF0A303171F7AE014F5F5F4FB8010E9434
:10544000302980E1FE013196D80101900D928A95B4
:10545000E1F760960FB6F894DEBF0FBECDBFDF91C7
:10546000CF911F910F91FF90EF9008958F929F928F
:10547000BF92CF92DF92EF92FF920F931F93CF9341
:10548000DF93CDB7DEB760970FB6F894DEBF0FBEDF
:10549000CDBFE82EB92EFB014A01F22E680189E04A
:1054A00089838DE0DE01129601900D928A95E1F7D5
:1054B0001F86288B80E1F80111928A95E9F720E197
:1054C000AE014F5F5F4FB8018E2D0E94F72910E0AB
:1054D0001F1590F060960FB6F894DEBF0FBECDBFDB
:1054E000DF91CF911F910F91FF90EF90DF90CF90C0
:1054F000BF909F908F9008952F2D211B213108F090
:1055000020E1A401410F511DB6018E2D9B2D0E945B
:10551000F729105FDDCF4F925F926F927F928F924B
:105520009F92AF92BF92CF92DF92EF92FF920F9332
:105530001F93CF93DF93CDB7DEB7C055D1090FB618
:10554000F894DEBF0FBECDBFD82EE92E3B015A0125
:10555000F22EC12EDE01AF5BBF4F89E48D938DE04B
:10556000FB0101900D928A95E1F760961FAE60975E
:1055700061961FAE61974E0181E2880E911C10E189
:10558000D401E12F1D92EA95E9F720E1AE014F5BCE
:105590005F4FB4018D2D0E94F729FE01F196DF01C6
:1055A0001D921A95E9F7FAAA1F2D2F01BFE0FB16ED
:1055B00008F01EE0412F50E0B501CE01C3960E94D5
:1055C0000F3720E1A201B4018D2D9E2D0E94F729F5
:1055D0001F1508F442C081E089838DE0F301DE01EC
:1055E000129601900D928A95E1F71F86188AAE01F6
:1055F0004F5E5F4FBE016F5F7F4F8D2D9E2D0E94CE
:105600003029C401BE016F5E7F4FE02FFC2DAF013A
:105610004C5F5F4FDC012D91CD01DB013D91BD0160
:1056200023272193E417F507A9F7C05BDF4F0FB6D7
:10563000F894DEBF0FBECDBFDF91CF911F910F91C8
:10564000FF90EF90DF90CF90BF90AF909F908F90A2
:105650007F906F905F904F9008952F2D211B2131E7
:1056600008F020E1A501410F511DB4018D2D9E2DA3
:105670000E94F729105FACCF2F923F924F925F921A
:105680006F927F928F929F92AF92BF92CF92DF9252
:10569000EF92FF920F931F93CF93DF93CDB7DEB7B7
:1056A000A0970FB6F894DEBF0FBECDBF782E692E3F
:1056B000562E472E6A015901EE24E394F12C10E096
:1056C00022242394CE0101964C011017C8F0A09615
:1056D0000FB6F894DEBF0FBECDBFDF91CF911F9103
:1056E0000F91FF90EF90DF90CF90BF90AF909F9081
:1056F0008F907F906F905F904F903F902F90089584
:10570000302E311A91E1391610F080E1382E298AB5
:105710008DE0E52DF42DDE01529601900D928A95D3
:10572000E1F79E2D8F2D98A38F8FA401BE016F5E90
:105730007F4F872D962D0E9430299601210F311D14
:10574000A501410F511DF401D9018D919D01919148
:105750008927DA018D93AD018E2F88198315A0F367
:10576000105FBFEFEB1AFB0AB0CF5F926F927F9290
:105770008F929F92AF92BF92CF92DF92EF92FF9261
:105780000F931F93CF93DF93CDB7DEB7E0970FB69C
:10579000F894DEBF0FBECDBF6C015B014A01722ED3
:1057A000502E612E8E010F5D1F4F0E94362A81E020
:1057B000898B8DE0F501DE01529601900D928A955C
:1057C000E1F71F8E18A2AE014F5F5F4FBE016F5E03
:1057D0007F4FC6010E943029C801BE016F5F7F4F15
:1057E000D701A7014C5F5F4FFC012191CF01FB0165
:1057F0003191BF0123272D93A417B507A9F7072DD2
:10580000252D362DA401B501C6010E943C2BE09642
:105810000FB6F894DEBF0FBECDBFDF91CF911F91C1
:105820000F91FF90EF90DF90CF90BF90AF909F903F
:105830008F907F906F905F9008957F928F929F924C
:10584000AF92BF92CF92DF92EF92FF920F931F938E
:10585000CF93DF93CDB7DEB7E4970FB6F894DEBFF2
:105860000FBECDBF6C015B01722E4801022F970164
:105870000E943C2B8E010F5D1F4F272DA701B50104
:10588000C6010E94362A81E0898B8DE0F501DE0198
:10589000529601900D928A95E1F71F8E18A2AE01E3
:1058A0004F5F5F4FBE016F5E7F4FC6010E94302980
:1058B000F801005211099E012F5C3F4FBE016B5D44
:1058C0007F4FA9018191D8019D918D018927DA012E
:1058D0008D93AD01E617F707A9F7F401A4014C5F1A
:1058E0005F4F90E0D9018D919D0161918627982BA2
:1058F0004E175F07B9F781E0911180E0E4960FB68B
:10590000F894DEBF0FBECDBFDF91CF911F910F91F5
:10591000FF90EF90DF90CF90BF90AF909F908F90CF
:105920007F900895AF92BF92CF92DF92EF92FF9255
:105930000F931F93CF93DF93CDB7DEB7E0970FB6EA
:10594000F894DEBF0FBECDBF7C016B0158018E0104
:105950000F5D1F4F0E94362A81E0898B8DE0F60192
:10596000DE01529601900D928A95E1F71F8E18A2E2
:10597000AE014F5F5F4FBE016F5E7F4FC7010E9458
:105980003029C801BE016F5F7F4FF501A5014C5F53
:105990005F4FDC012D91CD01DB013D91BD0123273E
:1059A0002193E417F507A9F7E0960FB6F894DEBF48
:1059B0000FBECDBFDF91CF911F910F91FF90EF9060
:1059C000DF90CF90BF90AF900895FC01339689E0AF
:1059D000DA0101900D928A95E1F7DA01199684E0D7
:1059E000FB0101900D928A95E1F708957F928F92C5
:1059F0009F92AF92BF92CF92DF92EF92FF920F935E
:105A00001F93CF93DF93CDB7DEB7CD5BD1090FB630
:105A1000F894DEBF0FBECDBF782E892ECB01BA0120
:105A20006901902EAE014F545F4F0E94E52C672D07
:105A3000782DCE0101960E94D02800E1292D312F2A
:105A4000A601BE016F547F4FCE0101960E943C2BF0
:105A5000E114F10451F0870120E1A601BE016F5469
:105A60007F4FCE0101960E94922CC354DF4F0FB698
:105A7000F894DEBF0FBECDBFDF91CF911F910F9184
:105A8000FF90EF90DF90CF90BF90AF909F908F905E
:105A90007F900895FC0188E0DA0101900D928A95CB
:105AA000E1F7DA01189688E0FB0101900D928A95E2
:105AB000E1F708954F925F926F927F928F929F923B
:105AC000AF92BF92CF92DF92EF92FF920F931F930C
:105AD000CF93DF93CDB7DEB7C15DD1090FB6F89490
